:020000040800F2
:10000000600C002099020008E351000863440008D6
:10001000E15100083D1700083169000800000000A8
:10002000000000000000000000000000A1570008D0
:10003000EF17000800000000E5510008A357000872
:10004000B3020008B3020008B3020008B3020008BC
:10005000B3020008B3020008B3020008B3020008AC
:10006000B3020008B3020008B302000841170008F9
:10007000B3020008B3020008B3020008B30200088C
:10008000B302000800000000B3020008B302000839
:10009000B3020008B3020008B3020008B30200086C
:1000A000B3020008B3020008B3020008B30200085C
:1000B0001D580008B3020008B3020008B30200088C
:1000C000B3020008B3020008B3020008B30200083C
:1000D000B302000825690008B3020008B302000853
:1000E000B3020008B3020008B3020008B30200081C
:1000F000B3020008B3020008B302000800000000C9
:1001000000000000B302000800000000B302000875
:10011000B30200080000000029580008B3020008DC
:10012000B3020008B3020008B3020008B3020008DB
:10013000B30200080000000000000000B302000845
:10014000B3020008B3020008000000000000000035
:10015000000000000000000000000000000000009F
:10016000000000000000000000000000B3020008D2
:10017000B3020008000000000000000000000000C2
:1001800000000000B30200080000000000000000B2
:10019000000000000000000000000000000000005F
:1001A0000000000000000000B3020008B3020008D5
:1001B000B3020008B3020008B30200080000000008
:1001C00000000000B3020008000000000000000072
:1001D000B3020008B302000800F002F800F04CF887
:1001E0000AA090E8000C82448344AAF10107DA4592
:1001F00001D100F041F8AFF2090EBAE80F0013F098
:10020000010F18BFFB1A43F0010318478482000056
:10021000A4820000103A24BF78C878C1FAD85207E7
:1002200024BF30C830C144BF04680C607047000070
:100230000023002400250026103A28BF78C1FBD8EF
:10024000520728BF30C148BF0B607047662906F0CF
:10025000CA87642900F0CC80002070471FB506F0E3
:10026000B8FF00F099FC04000020002106F0E4FD36
:10027000E0601FBD10B510BD00F08EFD1146FFF708
:10028000EDFF06F048FD00F0ACFD03B4FFF7F2FF10
:1002900003BC00F0AFFD0000094880470948004753
:1002A000FEE7FEE7FEE7FEE7FEE7FEE7FEE7FEE726
:1002B000FEE7FEE704480549054A064B7047000083
:1002C00001580008D901000860060020600C0020D9
:1002D000600800206008002053EA020C00F06980EA
:1002E0002DE9F04B4FF00006002B1FBFB3FA83F54A
:1002F00003FA05F424FA05F65E4012BF1643B2FA7B
:1003000082F502FA05F4C5F120051EBF22FA05FCAC
:1003100044EA0C04203556EA044C4FEA144418BF52
:10032000641C4FF000084FF00009904271EB030C81
:1003300039D3002919BFB1FA81F701FA07F6B0FAEB
:1003400080F700FA07F6C7F120071EBF20FA07FC66
:1003500046EA0C062037B6FBF4FCA7EB0507103F76
:1003600007F01F0BCBF120060CFA0BFB2CFA06F65C
:1003700044BFB3460026202FA4BF5E464FF0000BBB
:100380005BEA060C08BF4FF0010B19EB0B09ABFB46
:10039000027C48EB0608C01B06FB02CC0BFB03CC1F
:1003A00071EB0C01C1E70B46024641464846BDE8E9
:1003B000F08B13B54FF000004FF00001AFF3008059
:1003C000BDE81C40704700000FB41CB5074B06AADF
:1003D0007B4469460090059800F0C5FB0020694603
:1003E00000F0D4FB1CBC5DF814FB0000B907000052
:1003F0002DE9F0410646002410687529314616A5FE
:1004000010D0AFF30080002802DA404213A507E0C5
:1004100031688A0701D512A502E0490704D511A564
:10042000012401E0AFF3008000210A2206F1240735
:1004300009E0B0FBF2FCB0FBF2F302FB1C00303031
:1004400078541846491C0028F3D123462A463046E2
:10045000BDE8F04100F019B9000000002D000000D7
:100460002B000000200000002DE9F0474FF0000AAB
:1004700089460446C0F820A02046E1688847002845
:1004800076D0252806D0D4E901219047206A401C67
:100490002062F1E7E168204600258847C4F81CA0E7
:1004A00006460027C4F818A02A2E09D0304606F0C8
:1004B00021FB38B304EB8708303EC8F8186019E018
:1004C00059F8041B204604EB87029161E1688847D4
:1004D000012F064618D1E069002820DA25F0200512
:1004E0001DE0D8F8180000EB800006EB4000303823
:1004F000C8F818002046E1688847064606F0FAFA70
:100500000028EED1012F0AD02E2E08D12046E16816
:1005100088477F1C0646022F45F02005C4DBA069F2
:10052000002803DA404245F00105A061E80701D048
:1005300025F01005B6B1A6F14100192802D82036E1
:1005400045F400654A463146204625604D46FFF792
:100550007DFE58B1012806D0ED1D25F0070000F101
:10056000080989E704E005F1040985E730468AE7D0
:10057000206ABDE8F08710B5431C02E010F8011BAB
:1005800071B18107FAD14FF0013202C88C1A8C4345
:1005900014EAC211F9D0C01A0A0603D0C01E10BD59
:1005A000C01A10BD0A0401D0801E10BD0902FCD083
:1005B000401E10BD4FF0000200B51346944696460B
:1005C000203922BFA0E80C50A0E80C50B1F1200166
:1005D000BFF4F7AF090728BFA0E80C5048BF0CC014
:1005E0005DF804EB890028BF40F8042B08BF704772
:1005F00048BF20F8022B11F0804F18BF00F8012BE4
:10060000704700004FF0013C50F8042B51F8043BB8
:100610009A4221D1A2EB0C03934313EACC1317D1D6
:1006200050F8042B51F8043B9A4215D1A2EB0C036D
:10063000934313EACC130BD150F8042B51F8043B2D
:100640009A4209D1A2EB0C03934313EACC13DBD0FB
:100650004FF00000704700BFD01A01BAB1FA81F123
:1006600001F0180122FA01F0CB40C1F12001DBB208
:10067000C0B2C01A2CFA01F3D11A914311EAC31186
:10068000E6D170477047704770472DE9F0470D4637
:1006900099469246044600F124080168880604D56C
:1006A000E06921F01001216000E00120A84201DD95
:1006B000471B00E00027A1697A1902EB0900081A1C
:1006C000A0612078C00602D42046AFF30080002647
:1006D00008E0D4E901211AF806009047206A401C7E
:1006E000761C20624E45F4DB2078C0060AD52046F1
:1006F000AFF3008006E0D4E9012130209047206A62
:10070000401C2062381EA7F10107F4DC07E0D4E9A1
:10071000012118F805009047206A401C2062281E1D
:10072000A5F10105F3DC2046AFF300802078000638
:1007300002D50220BDE8F0870120FBE770472DE9D4
:10074000FF4F0C461E464FF0FF378BB0D2E9000139
:10075000DDF860800A908A46C1F30A5505B93D4626
:10076000002108464FF00000BAF1000F00F44000ED
:1007700005DA00EB80004FF4400101EA50004FEA37
:100780009059B9F1010F00DDB9460A9850EA4A00C4
:100790000ED044F61050A5F2FF3545432F14B8F1A2
:1007A000000F1ED07542291E1EDDC9F100021CE09B
:1007B000B8F1010F4FF0000001D0302103E0F24307
:1007C00005E02154401CB042FBDB304600220021F2
:1007D00021540B99C1F80880C1E900200FB0BDE891
:1007E000F08FBD1B6D1CDEE74A4600DA694206A8A1
:1007F00000F05CFA06AB93E8070003AB83E8070060
:1008000050460A9900F0FDFA8DE80700A0F5005067
:100810001F3800900398002D0ADD42F21F014A465E
:100820000844002303A90390684600F066FD09E030
:10083000A0F500504A461F38002303A903906846DC
:1008400000F070FD8DE807000004000C03D04FF0AD
:10085000FF30410800E01046B8F1000F03D000223D
:10086000009215461EE0751E05D400F099F930324D
:1008700062556D1EF9D5B3460122084302D000220D
:100880007F1C04E02078302801D100227F1E002A3E
:10089000099784D01DE0112D07DA00F081F930327C
:1008A00062556D1C50EA0102F5D1084302D0009850
:1008B000C8B10EE00021681E05E0235C625C635451
:1008C0002254401E491C8142F7DBAB46A81B401E48
:1008D0000990002004F80B000B98099AC0F80880D2
:1008E000C0E9002B7AE711264FF0000857E72DE901
:1008F000F04F88460446D21D22F0070191B0D1E99D
:100900000001CDE90A0106F0CDF802460B98C00FB0
:1009100001D02D2007E02068810701D52B2002E0BF
:10092000202101EAC000032A099001D0072A05DB33
:1009300003464146204600F079F90BE12078800615
:1009400001D5E06900E00620B8F1650F814606D0C8
:10095000B8F1660F18D0B8F1670F70D131E0002000
:10096000B9F1110F009001DB112301E009F101033E
:100970000AAA01A90CA8FFF7E2FEDDE90C70002627
:1009800009F10105834647E001204B4600904FF0F6
:1009900000470AAA01A90CA8FFF7D1FEDDE90DB0B6
:1009A0000C995D46002610B909F101000D18B9EB4C
:1009B000050003D4C0F1FF3609F10105A5EB0900DC
:1009C0002BE0B9F1010F01DA4FF001090020B9F174
:1009D000110F0090484601DD112300E003460AAAEA
:1009E00001A90CA8FFF7ABFEDDE90C704D4600260F
:1009F0008346207800070AD4AB4500DA5D4601A89B
:100A0000012D04DD411911F8011C302907D04F4593
:100A100002DA17F1040F04DA012082460FE06D1E9E
:100A2000EEE7002F02DCED1B3E4403E0781CA842F9
:100A300000DD7D1CB81B00F1010A4FF00047207853
:100A4000000703D4AA4501DB4FF0FF3A0021B7F1BC
:100A5000004F0DF143088DF8431024D002202B23C2
:100A6000002F01DA7F422D230A21021EA0F101008E
:100A700000DC5FB197FBF1FC97FBF1F201FB1C7C02
:100A800017460CF1300C08F801CDEEE7A8F1010093
:100A900003702188090501D5452100E06521A0F1F9
:100AA000010800F8011C09980FA9A1EB0807FF1D18
:100AB00000B10120411901EBEA70A1693844081A1C
:100AC000401EA0612078C00602D42046AFF300800B
:100AD000099828B1D4E901219047206A401C20627E
:100AE0002078C00622D52046AFF300801EE0002EFD
:100AF00004DBB34502DD01A8805D00E03020D4E9CD
:100B000001219047206A401C2062761CAAF1010056
:100B10005FEA000A0AD100F03FF8C0680168405C53
:100B2000D4E901219047206A401C2062281EA5F1CB
:100B30000105DCDC07E0D4E9012118F8010B90473E
:100B4000206A401C2062381EA7F10107F3DC204612
:100B5000AFF30080032011B041E6000001694A1C98
:100B600002610878704700B58FB0CDE901310021EE
:100B7000059105497944CDE9031011466846FFF710
:100B800073FC0FB000BD0000E5FFFFFF0A6802F82C
:100B9000010B0A60704700000048704720060020E3
:100BA00030B5B0F10A024FEA900E71F100034EEA3F
:100BB000817EB0EB0E0061EB91014FEA101E4EEA10
:100BC000017E10EB0E0041EB11114FEA102E4EEAA0
:100BD000016E10EB0E0041EB11214FEA104E4EEA70
:100BE000014E10EB0E0041EB1141401841F10001A4
:100BF0004FEAD00040EA41704FEAD10110EB800586
:100C00004FEA810444EA907444EB01046D1944EB0B
:100C10000404521BA3414FF0000348BF0A3200D521
:100C200030BD401C41F1000130BD00002DE9F04114
:100C30001F46044603260168072A01F4006004DB0E
:100C400008B116A505E016A503E008B115A500E05A
:100C500015A521F010002060A069C01EA0610FB191
:100C6000401EA0612046AFF300804FB1D4E90121BE
:100C700038469047206A401C2062C01C206206E073
:100C8000206AFAE7D4E9012115F8010B9047761E96
:100C9000F8D22046AFF30080BDE8F0814E414E000F
:100CA0006E616E00494E4600696E66002DE9F047A0
:100CB000814616468AB0354878440DC88DE80D0047
:100CC00032487844801C03AC0DC884E80D0041F61E
:100CD0009B300844372190FBF1F290FBF1F5A5F130
:100CE000800501FB12041B3C02D56442012000E098
:100CF0000020DFF898A080460027FA44AAF1BE0A37
:100D00000EE0E0070AD03246684607EB47010123B0
:100D10000AEB810100F006FB8DE8070064107F1CE0
:100D2000002CEED1194F7F44AE3F19E0E80715D0F3
:100D300007EB04100DF1180A90E80E008AE80E0087
:100D4000C068F04201D1981908903246012306A9E3
:100D500003A800F0E7FA03AB83E807006D10641CFA
:100D6000002DE3D14FF0010332466946B8F1000F80
:100D700003A802D000F0C1FA01E000F0D3FAC9E9FB
:100D80000001C9F808200AB0BDE8F087BC77000070
:100D900000487047000600207546FFF7F9FFAE4691
:100DA00005006946534620F00700854618B020B577
:100DB000FFF780FABDE820404FF000064FF0000733
:100DC0004FF000084FF0000B21F00701AC46ACE8F3
:100DD000C009ACE8C009ACE8C009ACE8C0098D4660
:100DE000704710B50446AFF300802046BDE81040C0
:100DF000FFF74BBA01491820ABBEFEE72600020000
:100E000070475FEA400C08BF91F0000F4FEA8C2357
:100E10004FEAC12243EA51514FEA1C5018BF00F576
:100E2000F0404FEA300018BF41F000415FEA6C5CCF
:100E300000F02980BCF1FF3F08BF40F080407047C0
:100E4000130C06BF12044FF0100C4FF0000C130EE1
:100E500004BF12020CF1080C130F04BF12010CF1B5
:100E6000040C930F04BF92000CF1020CD30F04BFCB
:100E700052000CF1010C11464FF00002A0F11F00CE
:100E8000A0EB0C00704711F0004F08BF704731F025
:100E900000413FF4D5AF0B0C06BF09044FF0100C16
:100EA0004FF0000C0B0E04BF09020CF1080C0B0FE5
:100EB00004BF09010CF1040C8B0F04BF89000CF175
:100EC000020CCB0F04BF49000CF1010CCCF1200344
:100ED000A0EB0C0022FA03F302FA0CF241EA030140
:100EE00000F10100704720F07F4C80EA030023F0FE
:100EF0007F47ACEB070303F57C5300F0004003F1A0
:100F0000FF032DE980494FEA154B09B44FEA14431A
:100F100025EA0B4E24EA03480FF2042606EB1327BA
:100F200049083E785FEA320203FB0667C7F500070F
:100F300007FB06F64FEA54374FEAD64606F102069B
:100F400007FB066CCCF1005C4FEA1C472CEA074C0F
:100F500007FB06F40CFB06F504EB15464FEA961664
:100F600034BF00204FF000404FEAD13706FB07FCAA
:100F70004FEA1C4C0CFB0BF7D21B03FB0CF761EB8D
:100F800007010CFB0EF7B0EB074072EB17420CFBAE
:100F900008F734BFA2EB0742B2EB074261EB1741FF
:100FA0004FEA0C444FEA910706FB07FC4FEA1C4C42
:100FB0000CFB0BF7B0EBC74072EB573203FB0CF79F
:100FC00034BFA2EBC742B2EBC74261EB57310CFB17
:100FD0000EF7B0EBC70072EB57720CFB08F734BF8B
:100FE000A2EBC702B2EBC70261EB5771039F4FEA56
:100FF000816141EA921104EBCC044FEAD1374FEA08
:10100000826206FB07FC42EA90124FEA80604FEAD8
:101010001C4C0CFB0BF7D21B03FB0CF761EB07011D
:101020000CFB0EF7B0EB074072EB17420CFB08F716
:1010300034BFA2EB0742B2EB074261EB17414FEA24
:101040008C554FEA910704EB9C2406FB07FC4FEA02
:101050001C4C0CFB0BF7B0EBC74072EB573203FB99
:101060000CF734BFA2EBC742B2EBC74261EB57317A
:101070000CFB0EF7B0EBC70072EB57720CFB08F7D6
:1010800034BFA2EBC702B2EBC70261EB577115EB9D
:101090004C254FEA816141EA92114FEA82624FEAA0
:1010A000D13742EA901206FB07FC44F100044FEAF4
:1010B00080604FEA1C4C0CFB0BF7D21B03FB0CF7B8
:1010C00061EB07010CFB0EF7B0EB074072EB174228
:1010D0000CFB08F734BFA2EB0742B2EB074261EB0F
:1010E000174115EB1C154FEA813141EA92414FEA55
:1010F000823242EA90424FEA80304FEA0C7644F165
:10110000000448EA03434EEA0B484FF0000EB2EBEE
:10111000080C71EB030724BF624639464EEB0E0EF6
:101120004FF0000B0018524149414BEB0B0BB2EB57
:10113000080C71EB03077BF1000B24BF62463946B4
:101140004EEB0E0E4FF0000B0018524149414BEB95
:101150000B0BB2EB080C71EB03077BF1000B24BF08
:10116000624639464EEB0E0E51EA020718BF46F0B2
:10117000010616EB0E7655F1000254F1000103D57D
:10118000BDE88901BDE80088BDE88901BDE80048E7
:10119000B619524141EB0101A3F101037047808070
:1011A0007F7E7D7C7B7A79787776767574737271C1
:1011B00071706F6E6E6D6C6C6B6A6A696868676679
:1011C00066656464636362616160605F5F5E5E5D0B
:1011D0005D5C5C5B5B5A5A5959585857575656557F
:1011E00055555454535352525251515050504F4FE1
:1011F0004F4E4E4D4D4D4C4C4C4B4B4B4A4A4A4931
:101200004949484848474747474646464545454473
:101210004444444343434342424242414141002B00
:101220009C4630D477002BD01CB54FEA370703B467
:101230004FF010004FF01001BAF1000F06D0BCF1D2
:10124000000FDCBF40F0080040F008014FF0000044
:101250000FBCBDE810400BF1010BBBF1010F08BF43
:101260005FEA170722BF12F1010211F101014FF0ED
:10127000004143F1000300F0004043EA00007047E2
:10128000F9D35708D0E746EA064613F1400F4FEA74
:1012900016461FDD13F1200FDFBF16430A4600215B
:1012A00020335B42BED0C3F1200746EA064602FA6D
:1012B00007F74FEA164646EA0706C3F1200722FA67
:1012C00003F201FA07F721FA03F14FF0000342EAB3
:1012D0000702A7E746EA020646EA06464FEA16462E
:1012E00046EA0106BCBF46EA0646360C4FF000034C
:1012F0004FF000024FF0000194E72DE9804C9A4630
:10130000934670B491E8380007C831EA400C48BFF2
:1013100034EA430C03D5FFF7E6FDFFF780FFF0BC8E
:10132000BDE8008C2DE9804C9A46934670B491E854
:10133000380007C810F0804F08BF13F0804F03D16A
:1013400000F005F8FFF76BFFF0BCBDE8008C20F063
:101350007F4780EA030023F07F4C07EB0C03A3F5E3
:101360007C5300F00040A3F1FE0392F0000F00F068
:10137000B38095F0000F00F077802DE901494FEA26
:1013800011404FEA144621EA004800FB06FC24EA1B
:10139000064708FB06F607FB08F800FB07F718EB03
:1013A00006484CEB164C4FEA124B18EB07484FEA35
:1013B00015464CEB174022EA0B4E0BFB06FC25EAC8
:1013C00006470EFB06F607FB0EFE0BFB07F71EEBB0
:1013D000064E4CEB164C4FF000061EEB074E4CEB46
:1013E000174B18EB0B0840F1000018EB0E0B58EBF5
:1013F000000840F100008F1A4FF000013CBFC943C4
:10140000661B14BFB5EB040C00213CBFC943F61B9F
:101410004FEA17444EEA8E0E27EA04454FEA1C476E
:1014200004FB07622CEA074C05FB07F70CFB05F6EB
:1014300004FB0CFC16EB074642EB174216EB0C467E
:1014400042EB1C421BEB060658EB0202414146EA06
:101450009E0601D5BDE80189B619524141EB010153
:10146000A3F10103BDE801894FEA14454FEA114792
:1014700024EA054621EA074C05FB07F406FB07F7BB
:101480000CFB06F105FB0CFC11EB074144EB174488
:101490004FEA124711EB0C4144EB1C4422EA074C83
:1014A00005FB07F206FB07F70CFB06F605FB0CFC39
:1014B00016EB074642EB174216EB0C4642EB1C4577
:1014C0006A1854F1000148BF7047B619524141EB08
:1014D0000101A3F10103704795F0000F37D04FEAE7
:1014E00011424FEA144721EA024624EA074C02FB64
:1014F00007F106FB07F70CFB06F402FB0CFC14EBF0
:10150000074441EB17414FEA154714EB0C4441EBFC
:101510001C4125EA074C02FB07F506FB07F70CFB0D
:1015200006F602FB0CFC16EB074645EB174516EBDF
:101530000C4645EB1C42121951F1000148BF70479F
:10154000B619524141EB0101A3F1010370474FEA83
:1015500014454FEA114724EA054621EA074C05FBEA
:1015600007F106FB07F70CFB06F24FF0000605FB40
:101570000CFC12EB074241EB174112EB0C4251EB12
:101580001C4148BF7047921841EB0101A3F10103D0
:10159000704710B5846AE16D11F0500F06D0E16D0F
:1015A000C90625D5204600F091FB10BDE06D40F442
:1015B0000070E06520680168090716D503F0A2FBFA
:1015C00078B12068C068800400280ADBE06D20F450
:1015D0008070E065E06DC00403D4E06D40F0010070
:1015E000E065204600F070FB10BDC0688007EBE7A7
:1015F000616D496BBDE81040084710B5806AC16D48
:1016000041F04001C165016E41F00401016600F046
:101610005DFB10BD10B5806A00F057FB10BD0000E7
:1016200070B50446006881688268C1F3400112F019
:10163000010F28D039BB816801F00D01012914D1B7
:101640008168124A1140891C81602168032008606A
:1016500000F0BCFF054612E000F0B8FF401B022876
:101660000DD920688068C00709D0E06D40F01000F7
:10167000E065206E40F001002066012070BD20680A
:101680008068C007E8D1002070BD0000C0FFFF7F68
:10169000F8B50446002000902068816811F0010F21
:1016A00041D18168214A11422ED18168D543294018
:1016B000491C81601E48806800F0E07000020DD572
:1016C0001C481D490068B0FBF1F0401C00EB4000D5
:1016D000800000E0401E00900028FBD100F076FF63
:1016E00006461BE0816811F0010F03D18168294093
:1016F000491C816000F06AFF801B02280ED9206817
:101700000068C043C00709D0E06D40F01000E065FC
:10171000206E40F0010020660120F8BD20680168BD
:10172000C943C907DED10020F8BD00003F0000809A
:10173000000300500C000020400D0300FEE70000F5
:10174000014800F000BD0000B80000200D4902680B
:101750008A4201D20C4901E00B492031D2B2142354
:10176000083AB2FBF3F2436C02F01F0223F00303CA
:101770001944816404498031C164012191400165AB
:101780007047000008040240000802400179074A3F
:1017900002EB81024265054A4432491E826501F02E
:1017A0001F0201219140C16570470000FC08024002
:1017B00030B5D0E913456560446D14B1D0E91645E4
:1017C000656090F8444004F01F050124AC40056CAE
:1017D0006C60046863608368102B036803D09960B1
:1017E0000068C26030BD9A600068C16030BD70475B
:1017F000002240F6B83306E00021491C89B2994224
:10180000FBD3521C92B28242F6D37047704700005D
:10181000F8B500260446009690F858000D460128B9
:101820000BD0012084F858002046FFF7F9FE010094
:10183000E06D04D040F010002AE00220F8BD20F452
:10184000885040F00200E06520688268134B1A401F
:1018500005F080431A4342F000428260104A20683B
:101860000EE0009B5B1C0093934209D3E06D20F0D7
:10187000020040F01000E06584F858600120F8BDD7
:101880008368DB0FEDD1E06D20F0020040F0010035
:10189000E06584F858600846F8BD0000C0FFFF3FCF
:1018A00002DE04002DE9F84F00270446009790F867
:1018B0005800DFF8E0930D46B846012811D0012604
:1018C00084F85860206803F019FA60B1E06D40F0C8
:1018D0002000E0655FF0010784F858803846BDE8D5
:1018E000F88F0220FBE7D5E900210C23206803EAEA
:1018F00091131844036B01F01F014FF01F0C0CFAF9
:1019000001FCC2F3846223EA0C038A40134303639D
:10191000206803F0F3F98246206803F0EBF95AEAF5
:1019200000003CD1AA6829682068B2F1004F37D086
:1019300003F0F0F92068416921F00041416120681D
:101940006969C268C2F3C102520091402A69042A3F
:1019500031D000EB82002B68026EDFF83CC303F04D
:10196000F84302EA0C020B431A4342F000410166BD
:1019700020682A69A96900EB8200026E22F0807259
:101980000A430266297F22682869012910D00021B4
:1019900002EB8000026E22F000720A4302667DE0D4
:1019A000002203F0B7F92068416941F00041C5E722
:1019B0004FF00071ECE7002103F096F94003206836
:1019C0004FF0000172D003F08FF990FAA0F0B0FA56
:1019D00080F1286842036ED090FAA0F0B0FA80F04F
:1019E000814204D100221146206803F0A2F90121AE
:1019F000206803F079F9400320684FF001015DD0C1
:101A000003F072F990FAA0F0B0FA80F1286842036E
:101A100059D090FAA0F0B0FA80F0814204D10022AF
:101A20000121206803F085F90221206803F05CF9A8
:101A3000400320684FF0020148D003F055F990FAB6
:101A4000A0F0B0FA80F12868420344D090FAA0F0E8
:101A5000B0FA80F0814204D100220221206803F014
:101A600068F90321206803F03FF9400320684FF034
:101A7000030133D003F038F990FAA0F0B0FA80F106
:101A8000286842032FD090FAA0F0B0FA80F081428B
:101A900004D100220321206803F04BF920688168FB
:101AA00011F0010F22D0ACE000E004E003F01CF9DB
:101AB000C0F384618DE7C0F3846091E703F014F90B
:101AC000C0F38461A2E7C0F38460A6E703F00CF9D9
:101AD000C0F38461B7E7C0F38460BBE703F004F9A7
:101AE000C0F38461CCE7C0F38460D0E72A7B296827
:101AF00050F8B03FC1F3120C23EA0C0302F0180CAB
:101B0000664A22FA0CF20A4013430360E968494529
:101B100077D1286841031CD090FAA0F1B1FA81F185
:101B2000491C01F01F0109294FEA403132D8002930
:101B300012D000BF90FAA0F1B1FA81F101F10101D8
:101B400001F01F0106FA01F609D100BFC0F384615C
:101B500009E0C0F38461E3E7C0F38461EEE790FA43
:101B6000A0F1B1FA81F101F1010101F01F0146EA92
:101B7000816102D1C0F3846003E090FAA0F0B0FA72
:101B800080F000F1010000F01F0000EB400041EA8E
:101B9000005132E000290ED090FAA0F1B1FA81F1A3
:101BA00001F1010101F01F0106FA01F606D100BFA3
:101BB000C0F3846106E0C0F38461F1E790FAA0F11C
:101BC000B1FA81F101F1010101F01F0146EA8161E1
:101BD00002D1C0F3846003E090FAA0F0B0FA80F084
:101BE00000F1010000F01F002D4A00EB400002EB65
:101BF000005041EA000141F00071AA68206803F03A
:101C000089F828482A6802423FF466AE264881686F
:101C1000264B01F0E0719A4202D0254B9A421CD12A
:101C20000B021AD42268B2F1A04F7FF455AE82683D
:101C300041F4000122F0E0720A4382601D481E490F
:101C40000068B0FBF1F0401C00EB4000800000E0B9
:101C5000401E00900028FBD13EE6184D184BAA42CA
:101C600007D1CD0105D422689A42F5D041F08071A8
:101C700009E0144DAA42EFD14A02EDD422689A42FB
:101C8000EAD041F48001826822F0E0720A43826067
:101C900022E6000000007F4000F0FF03FFFF070086
:101CA000000020FE0000088000030050000021C357
:101CB0001000C0900C000020400D0300000052C72F
:101CC00000010050000084CB70477047704700004F
:101CD000F8B54FF0000504002E46009502D0E06DE7
:101CE00010B107E00120F8BD204600F0EBF82666B1
:101CF00084F8586020688168C1F3407119B1816827
:101D0000684A1140816020688168C1F3007189B917
:101D10008168654A114041F080518160634864499F
:101D20000068B0FBF1F04000801C00E0401E009015
:101D30000028FBD120688168C1F3007141B9E16DD1
:101D400041F01001E165216E41F00101216601259C
:101D500002F0D4FFE16DC90600D430B1E06D40F06F
:101D60001000E06501252846F8BDE06D20F4807084
:101D700040F00200E0652068806810F0010F11D18A
:101D80004FF0A04080684B4900F00100896801F0E5
:101D90000101084306D148486168826822F47C1238
:101DA0000A438260E168E06B627F0843A16841EA10
:101DB0004231084394F8241040EA0140012904D13B
:101DC000218D3E4A02EB41410843E16A29B101F409
:101DD0007871226B014342EA01002268D168384BD6
:101DE00019400143D16020680169626B21F04061B4
:101DF00011430161206802F07DFF70BB207F94F8E1
:101E00003810800340EA41022168C86844F20203A6
:101E100098431043C86020690028206801690AD0EF
:101E200041F480310161206850F8C01F22696FF3CE
:101E30000D01114307E021F480310161206850F861
:101E4000C01F6FF30D01016094F8400001280CD011
:101E50002068016921F001010161606901282068A1
:101E6000016B21F00F0111D013E0D4E911010843F7
:101E7000D4E913121143084321680A6940F2FC7344
:101E80009A43104340F001000861E6E7226A521EBF
:101E900011430163E06D20F0020040F00100E065B5
:101EA00061E70000C0FFFF5FC0FFFF7F0C00002064
:101EB000400D030000010050000300500000FEFF31
:101EC0000740F0FF70B598B00546142111A8FEF741
:101ED00071FB44216846FEF76DFB22492868884261
:101EE0003DD1C001009080030F90684600F06CFC6B
:101EF00008B1FFF78BFC1C49C86C40F40050C86463
:101F0000C86C00F400501690C86C40F00100C86422
:101F1000C86C002600F001001690302011900320BC
:101F2000CDE9120611A94FF0904000F021FA104CB3
:101F30000E4820602420C4E901068020C4E9036023
:101F4000400060618000A0612020C4E907062046AF
:101F500000F056F908B1FFF759FC6C65A56218B09E
:101F600070BD000000010050001002400800024057
:101F7000B80000202DE9F041044634481746884651
:101F8000806800F01F05206802F0B8FE00285AD1D2
:101F900094F85800012856D0012084F858000026F3
:101FA00025B1052D02D0092D00D003E02046FFF712
:101FB0006FFB18B184F85860BDE8F081E06D40F621
:101FC0000161884340F48070E065214920688842BF
:101FD00002D14FF0A04100E00146814200D01DB97E
:101FE000E06D20F48010E065E06DC00404D5206E43
:101FF00020F00600206600E02666616D1548C86284
:10200000616D15480863616D1448486321681C20A0
:10201000086084F858602068416841F01001416010
:102020002068C16841F00101C16021683B46424619
:102030004031606D00F044F921688A68084B1A400D
:10204000121D8A60B8E70220B6E7000000030050C6
:10205000000100509315000815160008FB15000834
:10206000C0FFFF7F10B590F8253000210122022B20
:1020700003D00421C163012122E003681C6824F01D
:102080000E041C60836C1C6824F480741C6003685C
:102090001C6824F001041C6090F84430046C03F0C8
:1020A0001F0302FA03F36360D0E913345C60436DED
:1020B00033B11C6824F480741C60D0E916345C6071
:1020C00080F82520002280F82420084610BD70B535
:1020D00090F82520002401212346022A07D004225B
:1020E000C26380F8251080F82430012429E00268BA
:1020F000156825F00E0515600268156825F00105C4
:102100001560826C156825F48075156090F8442080
:10211000056C02F01F0201FA02F26A60D0E9132591
:102120005560426D32B1156825F480751560D0E9AF
:102130001625556080F8251080F82430816B01B198
:102140008847204670BDF0B4016C0C6801680D68CA
:1021500090F8442002F01F06042202FA06F32342FC
:1021600011D06B070FD50B689B0603D40B6823F0C7
:1021700004030B6090F8441001F01F018A40016CC9
:102180004A60016B1DE0022303FA06F727424FF075
:10219000000C4FF0010218D0AF0716D50C68A4064A
:1021A00005D40C6824F00A040C6080F8252090F80F
:1021B000441001F01F018B40016C4B6080F824C07B
:1021C000C16A00291AD0F0BC08470823B340234253
:1021D00014D02B0712D50B6823F00E030B6090F878
:1021E0004410036C01F01F0102FA01F15960C2634F
:1021F00080F8252080F824C0416BE2E7F0BC7047EE
:1022000070B504000CD02B4A21681420914209D2E9
:10221000294A0A44B2FBF0F08000606427480AE0D3
:10222000012070BD234A52420A44B2FBF0F0800004
:102230006064204808382064022084F825000A6879
:1022400047F6F0708243D4E902031843D4E9043519
:102250002B431843A3691843E3691843236A1843BF
:10226000104308602046FFF771FAA0680025B0F51A
:10227000804F00D16560A16C20790860D4E913011A
:1022800041606068401E032808D82046FFF77EFAA8
:10229000606D0560D4E91601416002E06565A565E1
:1022A000E565E563012084F8250084F824500020CA
:1022B00070BD000008040240F8FFFDBF00000240AE
:1022C00070B5044690F82400002501280CD00120A8
:1022D00084F8240094F825600020012E06D084F8AC
:1022E00024000225284670BD022070BD022684F815
:1022F0002560E0632068066826F001060660204637
:10230000FFF756FA206B00282068016802D041F0E0
:102310000E0106E021F0040101602068016841F02F
:102320000A010160A06C0168C90303D5016841F48A
:1023300080710160606D18B1016841F480710160C5
:102340002068016841F001010160CBE770B50446E7
:1023500000F03CF90546601C02D004484068044483
:1023600000F034F9401BA042FAD370BD00000020F9
:102370002DE9F04FDFF82092002301260324A9F174
:10238000040B85B00F2709F1040AABF1040EFAE043
:1023900006FA03F52A407CD091F804C00CF0030C37
:1023A000BCF1010F02D0BCF1020F26D1D0F808C059
:1023B000CDF800C04FEA430C04FA0CF8CDF810C079
:1023C000DDF800C02CEA080CCDF800C0D1F80C8074
:1023D000DDF810C008FA0CF8DDF800C048EA0C0877
:1023E000C0F80880D0F804C02CEA050C0D79C5F3BC
:1023F00000159D4045EA0C0545600D79ED43AD079C
:102400000ED0C5684FEA430804FA08FC25EA0C051B
:10241000D1F808C00CFA08FC4CEA050CC0F80CC056
:102420000D7905F00305022D16D1DD0800EB850CB2
:10243000CDF808C0DCF820805D074FEAD56C07FABC
:102440000CF528EA05080D6905FA0CF5DDF808C059
:1024500045EA0805CCF8205005684FEA430CCDF852
:1024600008C004FA0CFC25EA0C0591F804C00CF035
:102470000308DDF808C008FA0CF848EA0508C0F8B7
:1024800000804D6815F4403F7CD0444DD5F860C0C5
:1024900000E077E04CF0010CC5F860C02D6E23F031
:1024A000030C05F0010500953D4D65440295AD68AE
:1024B0004FEA837C4FEA1C7807FA08FC25EA0C05F2
:1024C000B0F1904F06D0DFF8DCC0604505D14FF089
:1024D000010C20E04FF0000C1DE0DFF8CCC060459F
:1024E00002D14FF0020C16E0DFF8C0C0604502D107
:1024F0004FF0030C0FE0DFF8B8C0604502D14FF099
:10250000040C08E0DFF8ACC0604502D14FF0050CC8
:1025100001E04FF0060C0CFA08FC4CEA050C029D99
:10252000C5F808C0D9F80050CC46D1F804809543CE
:102530005FEAC82800D51543CCF80050DAF80050FF
:10254000D446D1F8048095435FEA882800D5154326
:10255000CCF80050DBF80050DC46D1F804809543FD
:102560005FEA883800D51543CCF80050DEF80050FB
:10257000F446D1F8048095435FEAC83800D5154386
:10258000CCF800505B1C0A6832FA03F57FF400AF08
:1025900005B0BDE8F08F00000804014000100240C3
:1025A000000001400004004800080048000C0048FA
:1025B00000100048001400480069084000D00120C5
:1025C00070470AB181617047816270470148806835
:1025D00070470000000000200248816842681144F2
:1025E000816070470000002010B50024032000F037
:1025F00073F8002000F008F808B1012401E000F0B1
:1026000025F8204610BD000070B50E4E054600248A
:10261000706898B14FF47A71B1FBF0F00A4909681B
:10262000B1FBF0F000F060FD40B9102D06D20022A1
:102630002946501E00F030F8356000E001242046A5
:1026400070BD0000000000200C0000200A4882B08D
:10265000016E41F001010166016E01F0010100917E
:10266000816D41F080518165806D00F08050009057
:1026700002B000F0A1B8000000100240002809DB01
:1026800000F01F02012191404009800000F1E0208C
:10269000C0F8001170470000F0B40E4B1B680C46E8
:1026A000C3F30223C3F10705042D00D90425191D26
:1026B000072901D2002300E0DB1E012606FA05F1FE
:1026C000491E214099409E40761E16403143F0BC81
:1026D00004F000BA0CED00E0064900F007020868BB
:1026E0004FF6FF03184040EA0220034A10430860F7
:1026F000704700000CED00E00000FA052B492C4B60
:102700000A6832214A432B4940B1B0F5007F08687E
:1027100029D020F4C06040F480602CE00868C0F349
:102720004120022804D051F8800F20F4807022E06C
:10273000D1F8800020F48070C1F88000086820F48F
:10274000C06040F400700860B2FBF3F0401C00E091
:10275000401E4A69520501D50028F9D14869400553
:102760000AD503207047C0F34120022806D051F853
:10277000800F40F48070086000207047D1F880001E
:1027800040F48070C1F88000086820F4C06040F414
:1027900000700860B2FBF3F0401C00E0401E4A6984
:1027A0005205DBD50028F9D1D8E700000C00002045
:1027B00040420F00007000400248816841F48041AF
:1027C00081607047007000402DE9F84304460068BE
:1027D00000269D4D00035ED5A86D0027C00008D4DB
:1027E000A86D40F08050A865A86D012700F08050CA
:1027F0000090DFF85892D9F8001041F48071C9F8C0
:102800000010FFF7E3FE804606E000BFFFF7DEFEA4
:10281000A0EB080002282BD8D9F80000C005F5D598
:10282000D5F8900010F4407014D0216C814211D082
:10283000D5F89000D5F8901020F4407041F4803124
:10284000C5F89010D5F8901021F48031C5F890109B
:10285000C5F89000C00711D0FFF7B8FE804641F2DE
:10286000883907E0FFF7B2FEA0EB0801494501D91E
:1028700003260BE0D5F890008007F3D5D5F890003B
:10288000216C20F440700843C5F890001FB1A86D7A
:1028900020F08050A8652078C00707D0D5F88800C0
:1028A000616820F003000843C5F88800207880079D
:1028B00007D5D5F88800A16820F00C000843C5F8BA
:1028C00088002078400707D5D5F88800E16820F017
:1028D00030000843C5F888002078000707D5D5F8F0
:1028E0008800216920F0C0000843C5F888002078DE
:1028F000800607D5D5F88800616920F44060084358
:10290000C5F888002078400607D5D5F88800A16969
:1029100020F440500843C5F888002078000607D509
:10292000D5F88800E16920F440400843C5F88800E4
:102930002088C00507D5D5F88800216A20F44030EA
:102940000843C5F888002088800507D5D5F8880099
:10295000616A20F440200843C5F8880020884005BB
:102960000FD5D5F88800A16A20F440100843C5F8B7
:102970008800A06AB0F5801F03D1E86840F4801099
:10298000E860208800050FD5D5F88800E16A20F4BA
:1029900040000843C5F88800E06AB0F5800F03D115
:1029A000E86840F48010E8602088C0040FD5D5F8AE
:1029B0008800216B20F040700843C5F88800206B28
:1029C000B0F1807F03D1E86840F48010E86020888F
:1029D0004FF0006180040ED5D5F88800626B20F0BE
:1029E00040601043C5F88800606B884203D1E868F6
:1029F00040F48010E860208840040ED5D5F88800A7
:102A0000A26B20F040601043C5F88800A06B88429C
:102A100003D1E86840F48010E860208800040FD5F6
:102A2000D5F88800E16B20F040500843C5F88800D5
:102A3000E06BB0F1805F03D1E86840F48030E8607B
:102A40003046BDE8F88300000010024000700040EE
:102A50002DE9F0470E4605004FF0000725D0DFF8BE
:102A6000AC81D8F8000000F00F00B0420CD2D8F8CA
:102A7000001021F00F013143C8F80010D8F8000011
:102A800000F00F00B04210D12968614CC80741F234
:102A9000883A5AD06868DFF87C91032808D0022869
:102AA00020682DD0400500282CDB0120BDE8F087F0
:102AB00020688001F9D5E06800F00302E068C0F307
:102AC0000310401C032A19D0534A00BFB2FBF0F098
:102AD000E268C2F306225043E268C2F34162521C2C
:102AE0005200B0FBF2F0484517D9A06810F0F00F83
:102AF0000CD0880711D5A86840B10EE0474AE5E739
:102B00008003D0E700F0B6F8484506D9A06820F069
:102B1000F00040F08000A0608027A068696820F085
:102B200003000843A060FFF751FD814606E000BFA7
:102B3000FFF74CFDA0EB090151453AD8A068696840
:102B400000F00C00B0EB810FF2D12868810714D59A
:102B5000400703D5A06840F4E060A0602878000733
:102B600005D5A06820F4605040F4E060A060A06843
:102B7000A96820F0F000084304E0802F03D1A0688A
:102B800020F0F000A060D8F80010404601F00F01DE
:102B9000B14216D9016821F00F0131430160FFF7FE
:102BA00015FD074607E000BFFFF710FDC11B5145AB
:102BB00001D903207AE7D8F8000000F00F00B042F6
:102BC000F2D12878400705D5A068E96820F4E060D4
:102BD0000843A0602878000706D5A068296920F47A
:102BE000605040EAC100A06000F044F8A1680C4ABF
:102BF000C1F30311515C01F01F01C840094908608D
:102C000009480068BDE8F047FFF7FEBC002002401D
:102C10000010024000B4C4040024F40000366E0129
:102C2000127200080C000020000000200548064930
:102C300000688968054AC1F30221515C01F01F0157
:102C4000C84070470C0000200010024022720008AB
:102C50000548064900688968054AC1F3C221515CEC
:102C600001F01F01C84070470C0000200010024016
:102C700022720008184910B58868C0F3810217480D
:102C8000012A0BD08A68164BC2F38102022A06D0B1
:102C90008A68C2F38102032A03D0002010BD1846BF
:102CA00010BDCA6802F00304CA68C2F30312521CC2
:102CB000032C02D0B0FBF2F001E0B3FBF2F0CA68E3
:102CC000C968C2F306225043C1F34161491C49005F
:102CD000B0FBF1F010BD0000001002400024F40031
:102CE00000366E012DE9F84304007AD02078F84DC3
:102CF000C00747D0A868E96800F00C0001F00301A4
:102D00000C2802D0082817D001E0032914D06068ED
:102D1000B0F5803F17D0B0F5A02F286817D020F469
:102D200080302860286820F4802028606068E0B146
:102D3000FFF74CFC064614E02868800322D5606843
:102D40000028D2D01EE0286840F48030EDE740F43F
:102D500080202860F7E700BFFFF738FC801B64285D
:102D600070D828688003F7D50CE0FFF72FFC0646E3
:102D700005E000BFFFF72AFC801B6428F0D8286814
:102D80008003F7D4207880074CD5A868E96800F064
:102D90000C0001F003010C2802D004280DD001E042
:102DA00002290AD0E068002828682BD040F48070FF
:102DB0002860FFF70BFC064619E02868400502D59D
:102DC000E068002891D06868217C20F0FE4040EA4D
:102DD00001606860BF480068FFF716FC002800D15A
:102DE00020E072E1FFF7F2FB801B0228B8D82868C8
:102DF0004005F7D56868217C20F0FE4040EA01607C
:102E000068600FE020F480702860FFF7DFFB064663
:102E100005E000BFFFF7DAFB801B0228A0D8286876
:102E20004005F7D42078000729D560690028D5F837
:102E3000940013D040F00100C5F89400FFF7C6FBE2
:102E4000064606E090E000BFFFF7C0FB801B0228AB
:102E500086D8D5F894008007F6D510E020F0010060
:102E6000C5F89400FFF7B2FB064604E0FFF7AEFB9F
:102E7000801B022878D8D5F894008007F6D42078F3
:102E8000400761D5A86D0026C00008D4A86D40F0A9
:102E90008050A865A86D012600F0805000908E48F3
:102EA0000168C90511D40168804641F48071016050
:102EB000FFF78CFB074604E0FFF788FBC01B0228E6
:102EC00052D8D8F80000C005F6D5A068012815D062
:102ED0000528D5F8900016D020F00100C5F8900024
:102EE000D5F8900020F00400C5F89000A06841F2E9
:102EF0008838B8B1FFF76AFB07460EE0D5F89000B6
:102F000040F00100F0E740F00400C5F89000F5E75C
:102F1000FFF75CFBC11B414526D8D5F89000800720
:102F2000F6D50CE0FFF752FB074604E0FFF74EFB37
:102F3000C11B414518D8D5F890008007F6D41EB1C2
:102F4000A86D20F08050A8652078800629D5A0695A
:102F50000028D5F8980013D040F00100C5F898007B
:102F6000FFF734FB064606E075E000BFFFF72EFBD7
:102F7000801B02286FD8D5F898008007F6D510E09E
:102F800020F00100C5F89800FFF720FB064604E09A
:102F9000FFF71CFB801B02285DD8D5F8980080073E
:102FA000F6D4E069F0B3A968C1F3810103295DD0CB
:102FB0000228286820F08070286003D0FFF706FB05
:102FC00004464BE0FFF702FB064604E0FFF7FEFA7B
:102FD000801B02283FD828688001F7D4F4E9080153
:102FE0006FF00F0202EB01110843218A52044908D5
:102FF00002EB4151A26841EA02210843217D4FF0D2
:103000007E42490802EB41610843217B40EAC160EE
:10301000E968324A11400843E860286840F080704F
:10302000286000E05EE0E86840F08070E860FFF74C
:10303000CDFA044605E000BFFFF7C8FA001B0228DE
:1030400009D828688001F7D54CE000BFFFF7BEFA29
:10305000001B022802D90320BDE8F88328688001FC
:10306000F4D4E8681E490840E8603BE00128F3D04A
:10307000E868226A00F00301914226D1616A00F0FB
:10308000F0020901103991421FD1A26A00F4FE41F9
:10309000B1EB022F19D194F82C2000F07841B1EB5C
:1030A000C26F12D1218E00F4C00249084905A1F572
:1030B0000011914209D194F8341000F0C060490821
:1030C0004906A1F1007181420CD00120C4E7000043
:1030D0000010024000000020007000400C809F01A2
:1030E000FCFFEEFE0020B7E710B5401EB0F1807F78
:1030F00001D3012010BD4FF0E02460610F21601763
:1031000003F0E8FC0020A06107202061002010BD32
:10311000704770477047000030B590F83C20012A96
:1031200042D0012280F83C20CA688B6822F44072A9
:103130001A434B6822F480621A430B6822F400623F
:103140001A430B6922F480521A434B6922F400524D
:103150001A430B6B22F480421A430B8B22F4702229
:1031600042EA0342CB6922F080521A430F4D0368B2
:103170000024AB4202D00E4DAB4210D10D8D22F493
:10318000700242EA05520D6A22F080722A434D6AAB
:1031900022F000722A43C96A22F000520A435A649C
:1031A00080F83C40002030BD022030BD002C0140A2
:1031B000003401407047704770470000F0B590F848
:1031C0003C20012A3AD0012580F83C50022280F8A8
:1031D0003D2003685A689C68194E1A4FB34201D0CB
:1031E000BB4204D122F4700C4A6842EA0C02DFF8B8
:1031F00058C002EA0C02D1F800C04CEA020CC3F835
:1032000004C00268B2420DD0B2F1804F0AD00F4B19
:103210009A4207D00E4B9A4204D0BA4202D00D4BCC
:103220009A4204D1896824F080031943916080F8A0
:103230003D50002180F83C100846F0BD0220F0BD52
:10324000002C0140003401408FFFFFFD00040040CE
:103250000008004000400140704710B5040003D052
:1032600094F83D0010B107E0012010BD002084F863
:103270003C00204600F022F8022084F83D00211D89
:10328000206802F0D7FA012084F8480084F83E0054
:1032900084F83F0084F8400084F8410084F842003C
:1032A00084F8430084F8440084F8450084F846001C
:1032B00084F8470084F83D00002010BD10B586B0AA
:1032C000044614216846FDF775F921682448B1F1D8
:1032D000804F15D0234A914236D1816D41F01001C3
:1032E0008165806D002200F01000059011463620A7
:1032F000FFF7D2F95FF03600FFF7C0F906B010BD56
:10330000816D41F001018165816D01F0010105913F
:10331000C16C41F00101C164C06C694600F001005C
:10332000059002200090019000200290039001205F
:1033300004904FF09040FFF71BF8002211461C202C
:10334000FFF7AAF91C20D7E7074A9142D6D1016EB0
:1033500041F480210166006E00F480200590CDE7E5
:1033600000100240001000400048014090F83D105D
:10337000012901D001207047022180F83D10016829
:10338000CA6842F00102CA600068104988420ED043
:10339000B0F1804F0BD00E49884208D00D498842C9
:1033A00005D00D49884202D00C49884207D1816876
:1033B0000B4A1140062906D0B1F5803F03D00168C1
:1033C00041F001010160002070470000002C014025
:1033D000000400400008004000340140004001406B
:1033E0000700010070B5044690F83C000025012854
:1033F00014D0012684F83C60022084F83D00226845
:103400009068364B184020F47F4090600868702820
:103410002ED010DC10F00F0F03D021E04FF002008F
:1034200070BD4FEA2012072A1AD2DFE802F052528A
:1034300052524A3840002A4BC21A984249D009DCFD
:10344000B0F5805F0DD0B0F5005F1CD0B0F1101F5B
:1034500006D13EE0102A3CD0202A3AD0502A38D05B
:10346000012584F83D60002084F83C00284670BDAA
:10347000CB68D1E90121206802F047FA2068816811
:1034800041F0770109E0CB68D1E90121206802F021
:103490003CFA2068816841F480418160E1E7CA68B4
:1034A0004968206802F044FC5021206806E0CA68A0
:1034B0004968206802F084FC6021206802F030FA3C
:1034C000CFE7CA684968206802F032FC40212068D2
:1034D000F4E7226801461046F0E7000088FFCEFFBF
:1034E0002000100010B50068B0F1804F26D10421F3
:1034F000134800F0D1FB134991FBF0F001B21248E0
:103500004181427990F90100AAB191FBF0F00F4995
:1035100091FBF0F00E49401E0A68D062C860401C62
:10352000096800EBD07040104863BDE810400421EA
:10353000034800F0D3B811FB00F0E8E710BD00002D
:103540001801002040420F001800002080969800CB
:10355000B00100202DE9F041054690F83C0000261E
:103560000C46012810D0012085F83C0072B1042AD5
:103570001CD0082A2CD00C2A50D00126002085F817
:103580003C003046BDE8F0810220FBE7D4E90012A0
:10359000E368286802F0DEFB2868816921F00C01ED
:1035A000816128688169A26811430FE0D4E90012A3
:1035B000E368286802F016FC2868816921F44061FC
:1035C000816128688169A26841EA02218161D5E7A9
:1035D0002868D4E9002C277B036A016A21F48071F2
:1035E0000162C16923F4206321F0030141EA0C0167
:1035F00021F0F00C39074FF420674CEA116107EA1B
:1036000002221A43C16102622868C16921F00C01DB
:10361000C1612868C169A26811432BE02868D4E918
:103620000021E768036AD0F820C02CF4805CC0F861
:1036300020C0D0F81CC023F420432CF4407C4CEA7A
:10364000012121F4704C4FF6FF7101EA07314FF46C
:10365000204741EA0C0107EA02321A43C1610262C3
:103660002868C16921F44061C1612868C169A26804
:1036700041EA0221C16181E710B5040003D094F84A
:103680003D0010B107E0012010BD002084F83C008F
:10369000204600F022F8022084F83D00211D206819
:1036A00002F0C8F8012084F8480084F83E0084F84D
:1036B0003F0084F8400084F8410084F8420084F818
:1036C000430084F8440084F8450084F8460084F8F8
:1036D000470084F83D00002010BD704730B5044617
:1036E000002571B1042911D0082914D00C2917D054
:1036F000102918D094F8430094F84720012817D1D6
:1037000014E094F83E0094F84420F7E794F83F0062
:1037100094F84520F2E794F8400094F84620EDE74D
:1037200094F84100E8E794F84200E5E7012A01D067
:10373000012030BD022079B1042916D008291DD0FE
:103740000C2949D010294AD084F8430084F8470056
:103750000C2947D001253DE084F83E0084F8440060
:103760002068C26842F0020210E084F83F0084F84A
:1037700045002068C26842F0040207E084F8400077
:1037800084F846002068C26842F00802C260012244
:10379000206802F0ADF81649206888420ED0B0F1DA
:1037A000804F0BD01349884208D01349884205D076
:1037B0001249884202D01249884207D18168114AD1
:1037C0001140062906D0B1F5803F03D0016841F0D1
:1037D00001010160284630BD84F84100B6E784F855
:1037E0004200B3E72068C26842F01002CEE7000052
:1037F000002C01400004004000080040003401405B
:1038000000400140070001002DE9F0410446006836
:10381000C66805694FF00007A90713D5B10711D590
:10382000F91E016101202077206880698007204609
:1038300002D0FFF757FE04E000F0E0F8204600F069
:10384000A2F92777680716D5700714D521686FF09D
:1038500004000861022020772068806910F4407F0E
:10386000204602D0FFF73EFE04E000F0C7F82046F5
:1038700000F089F92777280715D5300713D5216877
:103880006FF008000861042020772068C069800775
:10389000204602D0FFF726FE04E000F0AFF82046F5
:1038A00000F071F92777E80616D5F00614D52168DF
:1038B0006FF010000861082020772068C06910F4BC
:1038C000407F204602D0FFF70DFE04E000F096F89E
:1038D000204600F058F92777E80708D0F00706D00F
:1038E00021686FF001000861204600F0CBF928063E
:1038F00001D4A80408D5300606D521686FF402501B
:1039000008612046FFF705FCE80508D5300606D516
:1039100021686FF4807008612046FFF7F9FB6806A4
:1039200008D5700606D521686FF040000861204672
:1039300000F0F2F9A80608D5B00606D521686FF0A8
:10394000200008612046FFF7E5FBE80208D5F002F9
:1039500006D521686FF4801008612046FFF72BFC24
:10396000A80208D5B00206D521686FF400100861DE
:103970002046FFF71FFC680208D5700206D52168B3
:103980006FF4800008612046FFF716FC28020AD574
:10399000300208D521686FF4000008612046BDE8B8
:1039A000F041FFF759BCBDE8F081000010B586B0CA
:1039B000044614216846FCF7FDFD0E492068884244
:1039C00016D10D48C16C41F00101C164C06C69465B
:1039D00000F001000590802000900220019000205E
:1039E00002900390012004904FF09040FEF7C0FC3D
:1039F00006B010BD0048014000100240704770B58D
:103A0000044690F83C0000260D4601280BD001200A
:103A100084F83C000C2A4AD007DC82B1042A20D06A
:103A2000082A06D131E0022070BD102A53D0142A92
:103A300063D00126002084F83C00304670BD206829
:103A400001F078FF2068816941F0080181612068F8
:103A5000816921F004018161206881692A6911432B
:103A600011E0206801F0B4FF2068816941F4006131
:103A700081612068816921F48061816120688169A8
:103A80002A6941EA02218161D4E7206801F0E8FF58
:103A90002068C16941F00801C1612068C16921F055
:103AA0000401C1612068C1692A69114311E02068DD
:103AB00002F01EF82068C16941F40061C16120680C
:103AC000C16921F48061C1612068C1692A6941EA44
:103AD0000221C161AEE7206802F052F82068016D52
:103AE00041F0080101652068016D21F004010165C4
:103AF0002068016D2A69114311E0206802F078F80E
:103B00002068016D41F4006101652068016D21F4B8
:103B1000806101652068016D2A6941EA0221016521
:103B200088E710B5040003D094F83D0010B107E019
:103B3000012010BD002084F83C00204600F022F84F
:103B4000022084F83D00211D206801F073FE012051
:103B500084F8480084F83E0084F83F0084F8400070
:103B600084F8410084F8420084F8430084F844005B
:103B700084F8450084F8460084F8470084F83D0046
:103B8000002010BD7047704730B50446022269B16D
:103B9000042912D0082917D00C291CD0102921D0B3
:103BA00094F84300012824D0012030BD94F83E0051
:103BB0000128F9D184F83E201DE094F83F00012847
:103BC000F2D184F83F2016E094F840000128EBD1B0
:103BD00084F840200FE094F841000128E4D184F8F3
:103BE000412008E094F842000128DDD184F8422009
:103BF00001E084F843200122206801F079FE194B8E
:103C000020681949194A984209D0884207D0904241
:103C100005D0174DA84202D0164DA84203D1456CDD
:103C200045F400454564206898420CD0B0F1804FBF
:103C300009D0114B984206D0104B984203D08842CD
:103C400001D0904207D181680D4A1140062906D063
:103C5000B1F5803F03D0016841F00101016000200F
:103C600030BD0000002C0140003401400040014004
:103C700000440140004801400004004000080040AA
:103C80000700010000680349884201D102F078BFB3
:103C900070470000001000400246002041B1042996
:103CA00009D008290AD00C2901D11068006C70478E
:103CB0001068406B70471068806B70471068C06B6D
:103CC000704770B5044690F83C00012812D00125D9
:103CD00084F83C50022084F83D00204601F0C0FFEB
:103CE00001004FF0000007D084F83D5084F83C00FC
:103CF000012070BD022070BD2168CA6822F0400218
:103D0000CA602168CA6822F48042CA6084F83D50C3
:103D100084F83C00002070BD704790F884100129A1
:103D200018D0012180F884102421C0F8881001687F
:103D30000A680B6823F001030B6022F00051002297
:103D40004266036819602021C0F8881080F884203A
:103D5000104670470220704770B50446D0F88C00BA
:103D60000025202801D0022070BD69B162B1012078
:103D7000E06600202067204602F002FDE06E012888
:103D800004D00125284670BD012070BD2168102097
:103D90000862216851E8000F40F0100041E800027D
:103DA000002AF6D1EEE7000010B5424C012902D0FE
:103DB000032932D069E040A14048FCF723FC50B110
:103DC0003FA13E48FCF71EFC48B13EA13B48FCF732
:103DD00019FCB8B159E094F901203BA102E094F933
:103DE00002203BA135481E38FCF7EEFA33481E3856
:103DF000FCF7C1FB314982B232231E39364800F04C
:103E0000D8FA42E0E0790121401CC0B2E071217291
:103E100002283AD10020E07137E030A12748FCF7B2
:103E2000F1FB88B92548B4F90A202DA11E38FCF70A
:103E3000CBFA22481E38FCF79EFB204982B232237F
:103E40001E39254800F0B5FA28A11C48FCF7DAFB1A
:103E5000B0B9E06803F04CF941EC100B174853EC93
:103E6000102B23A11E38FCF7AFFA14481E38FCF7BC
:103E700082FB124982B232231E39174800F099FAA8
:103E80001EA10E48FCF7BEFB30B1BDE810401E225B
:103E90000A491148FFF760BF206903F029F941EC96
:103EA000100B064853EC102B15A11E38FCF78CFAAA
:103EB0009CE700001800002058000000CE050020FC
:103EC0005900000023000000583A25640D0A000044
:103ED000593A25640D0A0000FC01002050413100D0
:103EE0005041313A25640D0A000000005041340071
:103EF0005041343A252E32660D0A000050413500FB
:103F00005041353A252E32660D0A0000704770B5D3
:103F1000044690F8840001281DD0012084F8840014
:103F20002420C4F8880020680568026822F0010295
:103F300002602068826822F060620A438260204644
:103F400001F06CFF206805602020C4F88800002084
:103F500084F8840070BD022070BD70B5044690F8EE
:103F6000840001281DD0012084F884002420C4F896
:103F7000880020680568026822F00102026020685B
:103F8000826822F060420A438260204601F046FFC8
:103F9000206805602020C4F88800002084F8840090
:103FA00070BD022070BD7047704770472DE9F04129
:103FB00003680446D86919689A6840F60F052842D4
:103FC0004FF000054FF002060AD187067ED501F0BA
:103FD000200702F0805C57EA0C0777D0616F3AE166
:103FE000B24FDFF8CCC2174001EA0C0C57EA0C0CB8
:103FF0006CD05FEAC07C0CD05FEAC15C09D54FF0A1
:10400000010CC3F820C0D4F8903043F00103C4F889
:104010009030830709D5D30707D023681E62D4F8F0
:10402000903043F00403C4F8903043070AD5D30717
:1040300008D0266804233362D4F8903043F002039A
:10404000C4F8903003070CD501F020033B4308D09F
:10405000266808233362D4F8903043F00803C4F88C
:10406000903003050BD54B0109D526684FF400634A
:104070003362D4F8903043F02003C4F89030D4F881
:104080009030002B3DD0800609D501F0200002F0D1
:104090008051084303D0616F09B120468847D4F8A6
:1040A000900021688968490602D410F0280F2AD0B0
:1040B000204601F099FF2068806840061ED52068E0
:1040C000083050E8001F21F0400100E021E040E806
:1040D0000012002AF3D1D4F8800078B175498163C9
:1040E000D4F88000FDF7F3FF00280AD0D4F8800050
:1040F000816B00E02046BDE8F04108472046FFF70D
:1041000054FFBDE8F0812046FFF74FFFC4F8905000
:10411000F7E7D4F86CC02027BCF1010F7ED15FEA2D
:10412000C06C7BD55FEAC16C78D51020186220681E
:104130008068400645D5D4F88010086840680004BF
:10414000000CDED0B4F85C208242DAD9A4F85E001C
:104150000868006880062CD4216851E8000F20F41C
:10416000807041E80002002AF6D12068083050E84B
:10417000001F21F0010140E80012002AF5D120685B
:10418000083050E8001F21F0400140E80012002AEA
:10419000F5D1C4F88C70E566206850E8001F21F066
:1041A000100140E80012002AF6D1D4F88000FDF793
:1041B00059FF2667B4F85C00B4F85E10401A81B26B
:1041C00030E0B4F85C00B4F85E10401A81B2B4F884
:1041D0005E00002895D0002993D0226852E8000F95
:1041E00020F4907042E80003002BF6D12F4BDB4304
:1041F0002068083050E8002F1A4040E8002CBCF13D
:10420000000FF5D1C4F88C70E5666567226852E846
:10421000000F20F0100042E8000300E006E0002B51
:10422000F4D126672046FFF7BFFD6AE7C60209D52D
:10423000560207D54FF4801018622046BDE8F041C1
:10424000FFF7B2BE03060AD501F0800302F40002B4
:10425000134304D0A16F00297FF44CAF51E742060D
:1042600011D54A060FD52046026852E8001F21F0FA
:10427000400142E80013002BF6D1C0F88870856732
:1042800000F0EEF83DE7020206D54A0004D52046CC
:10429000BDE8F041FFF787BEC001C6D50029C4DAEA
:1042A0002046BDE8F041FFF731BE000001000010DC
:1042B00020010004D55F000810B5040003D0D4F835
:1042C000880010B107E0012010BD002084F88400B0
:1042D000204600F027F82420C4F8880020680168F0
:1042E00021F001010160A06A10B1204601F0B8FD83
:1042F000204602F00BF90128E6D02068416821F43D
:10430000904141602068816821F02A018160206825
:10431000016841F0010101602046BDE8104001F054
:1043200003BE000010B598B00446142111A8FCF794
:1043300041F944216846FCF73DF91B492068884251
:1043400030D101200024CDE900046846FEF73CFA94
:1043500008B1FDF75BFA1548016E41F48041016632
:10436000016E01F480411691C16C41F00101C164FC
:10437000C06C11A900F0010016904FF4C0601190BC
:104380000220CDE912040720CDE914404FF09040FF
:10439000FDF7EEFF002211462520FEF77DF92520CE
:1043A000FEF76CF918B010BD003801400010024053
:1043B00070472DE9F8430446D0F888009846164621
:1043C0000D46202802D00220BDE8F883A5B19EB199
:1043D0000020C4F890002120C4F888001834FEF7AB
:1043E000F5F8A6878146E68754F8100C2027183C7C
:1043F000B0F5805F02D003E00120E5E7206910B14D
:104400002E46002510E000260EE08021204602F016
:104410003FFAC0B9DEB116F8010B21688862B4F822
:104420005600401EA4F85600B4F856004B464FF014
:104430000002CDF800800028E7D14FF0400120466F
:1044400002F026FA40B1C4F888700320BCE735F8C2
:10445000020BC0F30800E0E7C4F888700020B3E75F
:104460007047FEE700B585B014216846FCF7A2F856
:10447000C020009001200190029002200390694624
:104480000248FDF775FF05B000BD000000040048BC
:1044900070B50824002501F04BF913E06806050EFD
:1044A000002001F02DF9142002F02BFB142002F063
:1044B00028FB012001F024F9142002F022FB01F076
:1044C0002BF90543641EE4B2E8D2002001F018F98C
:1044D000142002F016FB01F04DF9284670BD70B5AE
:1044E0000446082516E001F00BF9142002F009FB40
:1044F00004F0800001F032F9142002F002FB6006A3
:10450000040E142002F0FDFA012001F0F9F8142045
:1045100002F0F7FA6D1EEDB24FF00000E3D201F0A9
:10452000EFF8BDE87040142002F0EBBA10B501209E
:1045300001F014F9142002F0E4FA142002F0E1FA78
:10454000012001F0DDF8142002F0DBFA002001F078
:10455000D7F8BDE81040142002F0D3BA10B50120FE
:1045600001F0FCF8142002F0CCFA012001F0C8F8A8
:10457000142002F0C6FA002001F0F0F8142002F036
:10458000C0FA002001F0BCF8BDE81040142002F091
:10459000B8BA10B5002001F0B3F8142002F0B1FA57
:1045A000002001F0DBF8142002F0ABFA012001F04A
:1045B000A7F8142002F0A5FA012001F0CFF8BDE819
:1045C0001040142002F09DBA10B5052401F0B0F897
:1045D000142002F096FA012001F092F8142002F063
:1045E00090FA05E0641EA4B2142002F08AFA6CB1BD
:1045F00001F092F80028F5D101F0BCF8002001F09C
:104600007FF8142002F07DFA002010BD01F0B2F80E
:10461000FFF7BFFF012010BD00B585B0142168462B
:10462000FBF7C8FF4FF6FF70009000200321CDE993
:104630000201019069460248FDF79AFE05B000BDEF
:104640000008004800B585B014216846FBF7B2FFAA
:104650004FF6FF700090012001900320039000208E
:10466000029069460248FDF783FE05B000BD0000D8
:104670000008004870B5002406462146204600F098
:1046800003F900F041F94FF49635304600F010F987
:10469000641CAC42F9D370BD30B587B014216846B4
:1046A000FBF788FF1E48C16C41F00401C164C16C76
:1046B00001F004010591C16C41F00101C164C16CBC
:1046C00001F001010591C16C41F00201C164C06CAF
:1046D000012500F0020005904FF44870CDE9000577
:1046E00000240394694602940E48FDF741FE280217
:1046F00003940090CDE901544FF090446946204660
:10470000FDF736FEFFF79EFFA06940F48070A061C0
:1047100004481830016841F40871016007B030BDE9
:104720000010024000040048203AD2B2034B02EBD2
:10473000420203EB021200F019B800002A720008CE
:10474000F0B50E460746002540F23F1407E021462B
:104750003846FFF7E9FF103C6D1CA4B2761C327896
:10476000002A01D0142DF2D3F0BD00002DE9F0474E
:1047700091468A460026044600F086F8DFF840801D
:10478000012700BF00F0C0F85FF0000539F81600FF
:1047900007FA05F10842404601D1408800E0008850
:1047A00000F086F86D1C102DF0D3641CE4B2514665
:1047B000204600F069F8761C182EE3D3BDE8F08798
:1047C0001000002010B5FFF767FF002000F014F87C
:1047D000084CA080A088A0F50241303906D000F036
:1047E0008BFD002000F008F8A08010BD00F0FBFC5D
:1047F000F7E700001000002070B51D490A6842F478
:1048000000720A600A6842F480720A60184C103C18
:10481000226842F020022260164A1060086840F0C8
:104820002000086000BF00BF00BF206840F02000EB
:104830002060206840F480702060FFF7EDFE4FF0AC
:104840009041886A40F48070886200BF00BF00BF5A
:104850000848001F006885B2886940F4807088614C
:10486000FFF7F0FE206840F400702060284670BD1D
:10487000280400481408004801B5BDF800000149AB
:10488000488008BD1000002010B50C4601462020CD
:1048900000F068F82146BDE81040212000F062B821
:1048A00001B5BDF800000149088008BD10000020D6
:1048B000134A116841F400711160114910390B68F5
:1048C00043F480730B600B6843F020030B600D4BC7
:1048D0001860106840F02000106000BF00BF00BFEB
:1048E000086840F020000860086840F480700860A4
:1048F00000BF00BF00BF086840F400700860704748
:1049000028040048140800481449086840F400705E
:104910000860086840F48070086010481038026829
:1049200042F0200202600E4B22221A600A6842F016
:1049300020020A6000BF00BF00BF016841F02001F3
:104940000160016841F48071016000BF00BF00BFD9
:10495000016841F4007101607047000028040048BC
:1049600014080048184B10B51A6842F400721A6017
:104970001A6842F480721A60134A103A146844F0BC
:1049800020041460114C2060186840F0200018606A
:1049900000BF00BF00BF106840F02000106010682A
:1049A00040F4807010602160186840F020001860AA
:1049B00000BF00BF00BF106840F02000106010680A
:1049C00040F48070106010BD2804004814080048AE
:1049D00010B56F4C88B0207A48B1E079012850D0EA
:1049E000FFF7F0FE0020FFF745FE00202072207840
:1049F000002849D0012878D0A079002874D065A17A
:104A00006846FBF7E1FC69461820FFF799FE94F928
:104A10000420642A00DB642264A16846FBF7D4FC0E
:104A200069464820FFF78CFE206A02F061FB41ECEA
:104A3000100B63A153EC102B6846FBF7C5FC6946CD
:104A40006020FFF77DFE606A02F052FB41EC100B24
:104A500060A153EC102B6846FBF7B6FC6946782042
:104A6000FFF76EFED4F8280002F042FB41EC100B79
:104A70005DA153EC102B6846FBF7A6FC694690201D
:104A80004DE000F03AFDADE75CA16846FBF79CFC09
:104A900069461820FFF754FEE06802F029FB41EC5C
:104AA000100B5BA153EC102B6846FBF78DFC69469D
:104AB0004820FFF745FE206902F01AFB41EC100B7D
:104AC00059A153EC102B6846FBF77EFC6946602029
:104AD000FFF736FEB4F90A2059A16846FBF774FCCB
:104AE000694678201BE000E01DE05AA16846FBF70C
:104AF0006BFC69461820FFF723FE94F901205AA1A8
:104B00006846FBF761FC69464820FFF719FE94F9F7
:104B100002205AA16846FBF757FC69466020FFF760
:104B20000FFE08B010BD5AA16846FBF74DFC694660
:104B30001820FFF705FE94F90320642A00DB6422A5
:104B40001AA16846FBF740FC69464820FFF7F8FDCC
:104B5000606902F0CDFA41EC100B19A153EC102B57
:104B60006846FBF731FC69466020FFF7E9FDA06964
:104B700002F0BEFA41EC100B16A153EC102B684664
:104B8000FBF722FC69467820FFF7DAFDE0696BE766
:104B90001800002020202020202020205245432DD6
:104BA00050413520202020202020000020202020DF
:104BB000204E3D25642020202020202000000000E1
:104BC0002020202020413D252E326620202020203C
:104BD000202000002020202020543D252E32662059
:104BE00020202020202000002020202020483D25BB
:104BF0002E3266202020202020200000202020208F
:104C0000202020204441544120202020202020002A
:104C100020202020205041343D252E3266202020A7
:104C2000202020200000000020202020205041359E
:104C30003D252E326620202020202020000000006C
:104C400020202020205041313D256420202020209C
:104C500020200000202020202020202050415241F0
:104C600020202020202020002020202020583D250A
:104C70006420202020202020000000002020202070
:104C800020593D2564202020202020200000000005
:104C900020202020202020205245432D5041342028
:104CA000202020202020000070B50D4D0446012258
:104CB0004FF6FF712846FDF784FC210200222846AA
:104CC000FDF77FFC074C012204212046FDF779FC0B
:104CD0002046BDE8704000220421FDF772BC0000B0
:104CE00000080048000C004800EB8100006E00F056
:104CF000F84070478068C0F3C00070478068C0F318
:104D000080007047C06810F4406F01D000207047E9
:104D100001207047042303EAD15310B518444369B6
:104D2000C1F3045107248C40A3438A4013434361D9
:104D300010BD00EB8100016E21F0004111430166BE
:104D40007047000070B5214D2868214CE16A401A77
:104D5000642836D320466179407A29B120F00100D9
:104D6000607201291BD002E040F00100607200F087
:104D7000FD00607294F90100D4ED040A00EE100AFF
:104D8000607AB8EEC00A20EE800AD4ED030AB4EED1
:104D9000E00AF1EE10FA05D280F0040004E040F0E1
:104DA0000200E6E720F004006072E0790028607AF3
:104DB00008D020F008006072C0B2FFF775FF2868C5
:104DC000E06270BD40F00800F5E700000800002038
:104DD0001800002030B589B020216846FBF7EAFBB7
:104DE0001F481E49002401604902C0E9011404253E
:104DF00085610121C460C0E9044104774177022242
:104E0000026280F82440C462046380F83810C463EE
:104E100080F84040FCF75CFF08B1FCF7F7FC114854
:104E2000009006200190072002907F200594CDE994
:104E3000030569460A48FCF735FD08B1FCF7E6FCB6
:104E4000094800900C20019069460548FCF72AFDAE
:104E5000002801D0FCF7DAFC09B030BD0001005099
:104E60004C00002000005247002090360D4808B545
:104E7000816C41F004018164816C01F004010091B6
:104E8000816C41F001018164806C002200F001001E
:104E9000009011460B20FDF7FFFBBDE808400B20FA
:104EA000FDF7ECBB001002402DE9F04F87B0142154
:104EB0006846FBF77FFB4648C16C41F00401C164C2
:104EC000C16C01F004010591C16C41F02001C16485
:104ED000C16C01F020010591C16C41F00101C16478
:104EE000C16C01F001010591C16C41F00201C16486
:104EF000C16C01F002010591C16C41F00801C1646F
:104F0000C06CDFF8D08000F008004FF47F440590BB
:104F1000012221464046FDF754FB0022FF21404676
:104F2000FDF74FFB4FF480764FF090490022314659
:104F30004846FDF746FBDFF8A0A0002204215046BA
:104F4000FDF73FFBDFF894B04FF448770022394675
:104F50005846FDF736FB0125CDE900450024CDE993
:104F6000025469464046FDF703FAFF200090CDE960
:104F70000154694640460394FDF7FAF9CDE900541F
:104F8000694648460295FDF7F3F907208DE83100A0
:104F900069465846FDF7ECF90096CDE9015469469B
:104FA00048460394FDF7E4F904200090CDE901544C
:104FB000694650460394FDF7DBF90097CDE90154AB
:104FC000694658460394FDF7D3F907B0BDE8F08F62
:104FD0000010024000080048000C0048000400488F
:104FE00010B594B01C210DA8FBF7E4FA34216846F3
:104FF000FBF7E0FA20481F49002401600721C0E9BF
:10500000011440F2E731C0E9031444618461FEF702
:1050100024F908B1FCF7FAFB1748FEF782FD08B146
:10502000FCF7F4FB60200D904FF4FA70CDE90E040C
:1050300010941194129400220DA90F481394FEF7B6
:10504000DEFC08B1FCF7E2FB00944FF40050CDE920
:1050500004400194029403940694694606480C9413
:10506000FEF75AF808B1FCF7D1FB0348FEF79EFCA7
:1050700014B010BD00480140B001002010B590B040
:10508000002409940A940B94142104A80C94FBF7AF
:1050900091FA26480D940F940E9400940194029472
:1050A0004FF08041039401604F21C0E90114611E5B
:1050B000C0E903148461FEF7D0F808B1FCF7A6FB41
:1050C0004FF48050099009A91848FEF78BF908B1F0
:1050D000FCF79CFB1548FEF7CFFA08B1FCF796FBEE
:1050E000042004906020CDE9050404A90F48089429
:1050F000FEF7E7FD08B1FCF789FB0D940DA90B48FD
:105100000F94FEF75BF808B1FCF780FB0120CDE9B6
:10511000004002940422694604480394FEF71AFAF8
:10512000002801D0FCF772FB10B010BD1801002060
:105130003EB500240F48009401940D49029401608B
:105140004F21C0E9011442F20F718461C160FEF782
:1051500084F808B1FCF75AFB0094694605480294AC
:10516000FEF72CF8002801D0FCF750FB3EBD0000F4
:105170000010004064010020184810B51649016075
:105180004FF416514160002181600C22C160C0E9DA
:1051900004128161C161016241628162FFF78CF892
:1051A00008B1FCF733FB00210C48FEF7D6FE08B12E
:1051B000FCF72CFB00210948FEF7A9FE08B1FCF71B
:1051C00025FB0648FEF7A9FD002803D0BDE81040E6
:1051D000FCF71CBB10BD000000380140FC010020A2
:1051E000FEE77047704730B501210020FFF7BAFB9A
:1051F0004FF47A70FCF7FCFA00210120FFF7B2FBB4
:1052000041F290711020FFF7ADFB4FF41C5160206C
:10521000FFF7A8FB01216120FFF7A4FB0221462034
:10522000FFF7A0FB48F210011320FFF79BFB48F2A9
:10523000FE011220FFF796FB4FF4A0610220FFF75A
:1052400091FB41F230010320FFF78CFB40F2033465
:1052500021463020FFF786FB21463120FFF782FBF5
:1052600021463220FFF77EFBE51E29463320FFF75B
:1052700079FB03213420FFF775FB21463520FFF72A
:1052800071FB14213620FFF76DFB21463720FFF715
:1052900069FB21463820FFF765FB21463920FFF7DF
:1052A00061FB29463A20FFF75DFB03213B20FFF716
:1052B00059FB21463C20FFF755FB4FF4A0513D2000
:1052C000FFF750FB4FF400719220FFF74BFB214694
:1052D0009320FFF747FB40F60D019020FFF742FBBC
:1052E00041F218010320FFF73DFBBDE8304040F2DA
:1052F00073110720FFF736BB10B543F20801E32016
:10530000FFF730FB1221E720FFF72CFB41F23121A0
:10531000EF20FFF727FB00210120FFF723FB4FF4CD
:10532000E0610220FFF71EFB41F230010320FFF78E
:1053300019FB00210420FFF715FB40F2072108208C
:10534000FFF710FB00210920FFF70CFB00210A20CA
:10535000FFF708FB00210C20FFF704FB00210D20C4
:10536000FFF700FB00210F20FFF7FCFA00211020BF
:10537000FFF7F8FA07211120FFF7F4FA00211220B5
:10538000FFF7F0FA00211320FFF7ECFAC820FCF732
:10539000DDFF41F290611020FFF7E4FA40F227218F
:1053A0001120FFF7DFFA3220FCF7D0FF1D21122079
:1053B000FFF7D8FA3220FCF7C9FF4FF40061132041
:1053C000FFF7D0FA14212920FFF7CCFA0B212B206C
:1053D000FFF7C8FA3220FCF7B9FF00212020FFF7C1
:1053E000C1FA00212120FFF7BDFA07213020FFF785
:1053F000B9FA40F207713120FFF7B4FA06213220E2
:10540000FFF7B0FA40F204713520FFF7ABFA41F62E
:1054100004713620FFF7A6FA04213720FFF7A2FA1D
:1054200000213820FFF79EFA40F206713920FFF77D
:1054300099FA40F201713C20FFF794FA0F213D20C8
:10544000FFF790FA00215020FFF78CFAEF2151204E
:10545000FFF788FA00215220FFF784FA40F23F114B
:105460005320FFF77FFA4FF41C516020FFF77AFAC0
:1054700001216120FFF776FA00216A20FFF772FA16
:1054800000218020FFF76EFA00218120FFF76AFAE1
:1054900000218220FFF766FA00218320FFF762FADD
:1054A00000218420FFF75EFA00218520FFF75AFAD9
:1054B00010219020FFF756FA00219220FFF752FAB0
:1054C00003219320FFF74EFA4FF488719520FFF7E0
:1054D00049FA00219720FFF745FA00219820FFF7AD
:1054E00041FA41F218010320FFF73CFABDE81040F1
:1054F00040F273110720FFF735BA10B543F20801E7
:10550000E320FFF72FFA1221E720FFF72BFA41F2F1
:105510003121EF20FFF726FA4FF480710120FFF7C9
:1055200021FA4FF4E0610220FFF71CFA41F230014A
:105530000320FFF717FA00210420FFF713FA40F2C7
:1055400007210820FFF70EFA00210920FFF70AFAC9
:1055500000210A20FFF706FA00210C20FFF702FACB
:1055600000210D20FFF7FEF900210F20FFF7FAF9C7
:1055700000211020FFF7F6F907211120FFF7F2F9BB
:1055800000211220FFF7EEF900211320FFF7EAF9BE
:10559000C820FCF7DBFE41F290611020FFF7E2F932
:1055A00040F227211120FFF7DDF93220FCF7CEFE73
:1055B0001D211220FFF7D6F93220FCF7C7FE4FF469
:1055C00000611320FFF7CEF914212920FFF7CAF953
:1055D0000B212B20FFF7C6F93220FCF7B7FE002184
:1055E0002020FFF7BFF900212120FFF7BBF9072199
:1055F0003020FFF7B7F940F207713120FFF7B2F919
:1056000006213220FFF7AEF940F204713520FFF792
:10561000A9F941F604713620FFF7A4F904213720D7
:10562000FFF7A0F900213820FFF79CF940F206713E
:105630003920FFF797F940F201713C20FFF792F90A
:105640000F213D20FFF78EF900215020FFF78AF946
:10565000EF215120FFF786F900215220FFF782F950
:1056600040F23F115320FFF77DF94FF427416020AE
:10567000FFF778F901216120FFF774F900216A2012
:10568000FFF770F900218020FFF76CF900218120DD
:10569000FFF768F900218220FFF764F900218320D9
:1056A000FFF760F900218420FFF75CF900218520D5
:1056B000FFF758F910219020FFF754F900219220AC
:1056C000FFF750F903219320FFF74CF94FF488714D
:1056D0009520FFF747F900219720FFF743F90021B4
:1056E0009820FFF73FF941F218010320FFF73AF93C
:1056F000BDE8104040F273110720FFF733B90000F6
:1057000008B1044801E003481030016841F040014D
:10571000016070471804004810B580210348FCF769
:105720004BFF012800D0002010BD000000040048FD
:1057300000B585B014216846FAF73CFF8020009040
:105740000020019001200290022003906946024847
:10575000FCF70EFE05B000BD0004004808B1044887
:1057600001E003481030016841F08001016070479A
:105770001804004800B585B014216846FAF71AFFEE
:1057800080200090112001900020029002200390C0
:1057900069460248FCF7ECFD05B000BD0004004876
:1057A0007047FCF719BF00B593B038216846FAF787
:1057B00001FF14210EA8FAF7FDFE4FF40070FCF76C
:1057C0009DFF0220C10103914021049100900790A8
:1057D00008901421CDE909010B900C900D906846BA
:1057E000FDF780FA0F200E9003200F9000201090FC
:1057F0001190129002210EA8FDF72AF913B000BDF6
:105800000548016841F47001016003494FF00060F0
:10581000803908607047000088ED00E00148FDF71E
:10582000F3BF0000180100200148FDF7EDBF0000A4
:10583000640100202DE9F0430268264B264D274ED7
:10584000274C4FF08049984207D0484505D0A842E0
:1058500003D0B04201D0A04203D122F070074A68C1
:105860003A43204FDFF880C0DFF8808098420DD0A7
:1058700048450BD0A84209D0B04207D0A04205D07D
:10588000B84203D0604501D0404503D122F44075B1
:10589000CA682A434D6922F080022A4302608A685E
:1058A000C2620A688262984207D0A04205D0B8421C
:1058B00003D0604501D0404501D109690163012150
:1058C00041610169C90703D0016921F0010101614A
:1058D000BDE8F083002C01400004004000080040B7
:1058E00000340140004001400044014000480140B4
:1058F00010B501F01F030121046A99408C43046232
:10590000016A9A401143016210BD10B5846842EAF1
:10591000032224F47F440A432243826010BD000026
:105920008268034B1A400A4342F0070181607047C6
:105930008FFFCFFF2DE9F043056A026A22F00102D2
:105940000262436882691C4C25F0020522400C6803
:1059500022F0030214438A68194E2A43174D194F47
:10596000DFF864C0DFF86490A84207D0B04205D0E9
:10597000B84203D0604501D0484506D122F008085E
:10598000CA6842EA080222F00402A84207D0B042E4
:1059900005D0B84203D0604501D0484505D14D69D6
:1059A00023F440731D438B692B4343608461496832
:1059B00041630262BDE8F0838FFFFEFF002C0140CF
:1059C00000340140004001400044014000480140D3
:1059D000F0B5056A026A22F0100202624268836929
:1059E000194C1B4E23400C6823F4407343EA0424F3
:1059F00025F020038D6843EA0513144DA84201D019
:105A0000B04206D1CF6823F0800343EA071323F0A6
:105A10004003A8420AD0B04208D00E4DA84205D09B
:105A20000D4DA84202D00D4DA84207D14D6922F478
:105A3000406242EA85028D6942EA850242608461E1
:105A4000496881630362F0BDFF8FFFFE002C0140B7
:105A50000034014000400140004401400048014042
:105A6000F0B5056A026A22F4807202624368C26974
:105A7000194C1B4E22400C6822F00302144325F4FB
:105A800000728D6842EA0522144DA84201D0B0424E
:105A900006D1CF6822F4006242EA072222F4806233
:105AA000A8420AD0B04208D00E4DA84205D00E4DF3
:105AB000A84202D00D4DA84207D14D6923F44053AE
:105AC00043EA05138D6943EA05134360C4614968DD
:105AD000C1630262F0BD00008FFFFEFF002C014099
