:020000040800F2
:10000000D807002081020008B12900085F1F0008FE
:10001000AD290008AB0600086537000800000000A5
:10002000000000000000000000000000FD2D00089E
:10003000AF06000800000000B3290008012E0008E8
:100040009B0200089B0200089B0200089B0200081C
:100050009B0200089B0200089B0200089B0200080C
:100060009B0200089B0200089B0200089B020008FC
:100070009B0200089B0200089B0200089B020008EC
:100080009B020008000000009B0200089B02000881
:100090009B0200089B0200089B0200089B020008CC
:1000A0009B020008B12F00089B0200089B02000879
:1000B0009B0200089B0200089B0200089B020008AC
:1000C0009B0200089B0200089B0200089B0200089C
:1000D0009B0200089B0200089B0200089B0200088C
:1000E0009B0200089B0200089B0200089B0200087C
:1000F0009B0200089B0200089B0200080000000011
:10010000000000009B020008000000009B020008A5
:100110009B020008000000009B0200089B020008F0
:100120009B0200089B0200089B0200089B0200083B
:100130009B02000800000000000000009B02000875
:100140009B0200089B020008000000000000000065
:10015000000000000000000000000000000000009F
:100160000000000000000000000000009B020008EA
:100170009B020008000000000000000000000000DA
:10018000000000009B0200080000000000000000CA
:10019000000000000000000000000000000000005F
:1001A00000000000000000009B0200089B02000805
:1001B0009B0200089B0200089B0200080000000050
:1001C000000000009B02000800000000000000008A
:1001D0009B0200089B02000800F002F800F041F8C2
:1001E0000AA090E8000C82448344AAF10107DA4592
:1001F00001D100F036F8AFF2090EBAE80F0013F0A3
:10020000010F18BFFB1A43F001031847984E000076
:10021000B84E0000103A24BF78C878C1FAD8520707
:1002200024BF30C830C144BF04680C607047000070
:100230000023002400250026103A28BF78C1FBD8EF
:10024000520728BF30C148BF0B607047642900F0D7
:10025000F780002070471FB503F016FE1FBD10B5D4
:1002600010BD00F0E8F91146FFF7F5FF03F084FD3B
:1002700000F006FA03B4FFF7F2FF03BC00F00EFA39
:100280000948804709480047FEE7FEE7FEE7FEE72A
:10029000FEE7FEE7FEE7FEE7FEE7FEE70448054966
:1002A000054A064B70470000952F0008D901000849
:1002B000D8010020D8070020D8030020D803002050
:1002C00053EA020C00F069802DE9F04B4FF0000674
:1002D000002B1FBFB3FA83F503FA05F424FA05F6E1
:1002E0005E4012BF1643B2FA82F502FA05F4C5F178
:1002F00020051EBF22FA05FC44EA0C04203556EA0C
:10030000044C4FEA144418BF641C4FF000084FF02F
:100310000009904271EB030C39D3002919BFB1FADF
:1003200081F701FA07F6B0FA80F700FA07F6C7F18D
:1003300020071EBF20FA07FC46EA0C062037B6FB52
:10034000F4FCA7EB0507103F07F01F0BCBF12006CD
:100350000CFA0BFB2CFA06F644BFB3460026202FFE
:10036000A4BF5E464FF0000B5BEA060C08BF4FF0DF
:10037000010B19EB0B09ABFB027C48EB0608C01B19
:1003800006FB02CC0BFB03CC71EB0C01C1E70B4667
:10039000024641464846BDE8F08B13B54FF00000D9
:1003A0004FF00001AFF30080BDE81C407047000033
:1003B0000FB41CB5074B06AA7B446946009005980C
:1003C00000F021F90020694600F030F91CBC5DF80E
:1003D00014FB0000710200002DE9F0410E460446B6
:1003E000002020622046E168884730B3252805D0E8
:1003F000D4E901219047206A401CF2E7E1682046D9
:1004000000278847050018D0A5F14100192802D817
:1004100020354FF400673246294620462760FFF713
:1004200015FF40B1012804D0F61D26F00706083656
:10043000D8E7361DD6E72846DAE7206ABDE8F0811E
:100440002DE9F0410646002410687529314616A5AD
:1004500010D0AFF30080002802DA404213A507E075
:1004600031688A0701D512A502E0490704D511A514
:10047000012401E0AFF3008000210A2206F12407E5
:1004800009E0B0FBF2FCB0FBF2F302FB1C003030E1
:1004900078541846491C0028F3D123462A46304692
:1004A000BDE8F04100F051B8000000002D00000050
:1004B0002B0000002000000010B5431C02E010F8E3
:1004C000011B71B18107FAD14FF0013202C88C1AB9
:1004D0008C4314EAC211F9D0C01A0A0603D0C01E18
:1004E00010BDC01A10BD0A0401D0801E10BD090243
:1004F000FCD0401E10BD4FF0000200B513469446DC
:100500009646203922BFA0E80C50A0E80C50B1F16B
:100510002001BFF4F7AF090728BFA0E80C5048BF7F
:100520000CC05DF804EB890028BF40F8042B08BF1D
:10053000704748BF20F8022B11F0804F18BF00F819
:10054000012B70477047704770472DE9F0470D4603
:1005500099469246044600F124080168880604D5AD
:10056000E06921F01001216000E00120A84201DDD6
:10057000471B00E00027A1697A1902EB0900081A5D
:10058000A0612078C00602D42046AFF30080002688
:1005900008E0D4E901211AF806009047206A401CBF
:1005A000761C20624E45F4DB2078C0060AD5204632
:1005B000AFF3008006E0D4E9012130209047206AA3
:1005C000401C2062381EA7F10107F4DC07E0D4E9E3
:1005D000012118F805009047206A401C2062281E5F
:1005E000A5F10105F3DC2046AFF30080207800067A
:1005F00002D50220BDE8F0870120FBE701694A1C13
:1006000002610878704700B58FB0CDE90131002153
:10061000059105497944CDE9031011466846FFF775
:10062000DBFE0FB000BD0000E5FFFFFF0A6802F827
:10063000010B0A607047754600F02CF8AE460500C5
:100640006946534620F00700854618B020B5FFF7ED
:1006500025FEBDE820404FF000064FF000074FF0A8
:1006600000084FF0000B21F00701AC46ACE8C009D0
:10067000ACE8C009ACE8C009ACE8C0098D467047D9
:1006800010B50446AFF300802046BDE81040FFF7E8
:10069000F1BD000000487047740100200149182096
:1006A000ABBEFEE726000200704700BFFEE77047C2
:1006B000002109E0002201E0531C9AB240F6B83351
:1006C0009A42F9DB4B1C99B28142F3DB70477047C9
:1006D00070B5044600F004F906462546681C10B1C2
:1006E00004480068054400BF00F0FAF8801BA842E7
:1006F000FAD370BD3C00002078B502460B460021BD
:10070000CAE001268E401D6805EA0604002C73D05D
:100710001D7905F00305012D04D01D7905F00305B1
:10072000022D13D190684E000325B540A8434E001A
:10073000DD68B54028439060506801258D40A8438E
:100740001D79C5F300158D40284350601D7905F0D3
:100750000305032D09D0D0684E000325B540A843FA
:100760004E009D68B5402843D0601D7905F0030513
:10077000022D13D1CE0802F1200555F826004D07B1
:10078000EE0E0F25B540A8434E07F60E1D69B54085
:100790002843CE0802F1200545F8260010684E00D7
:1007A0000325B540A8431D7905F003054E00B5406B
:1007B000284310605D6805F44035002D6BD000BF04
:1007C000384D2D6E45F00105364E356635462D6E99
:1007D00005F00105009500BF00BF4FEAB6358E0851
:1007E00055F826008D072E0F0F25B540A843B2F10E
:1007F000904F02D100251AE04DE02B4DAA4201D1C5
:10080000012514E0294DAA4201D102250FE0284D0F
:10081000AA4201D103250AE0264DAA4201D10425AE
:1008200005E0254DAA4201D1052500E006258E07E9
:10083000360FB5402843214D8E0845F82600204D3F
:100840002868A0435D6805F4801505B120431C4D60
:1008500028602D1D2868A0435D6805F4001505B1CA
:100860002043174D2D1D2860154D2D1F2868A043CE
:100870005D6805F4003505B12043114D2D1F28603A
:100880002D1F2868A0435D6805F4803505B120431D
:100890000B4D083D2860491C1D68CD40002D7FF49C
:1008A00030AF78BD00100240000400480008004846
:1008B000000C0048001000480014004808000140E7
:1008C00008040140024613690B400BB1012000E00F
:1008D000002070470AB1816100E08162704700002A
:1008E0000148006870470000340000200348006899
:1008F0000349096808440149086070473400002032
:100900003C00002010B50024032000F0ABF80020CC
:1009100000F008F808B1012401E000F02FF82046AB
:1009200010BD000070B50446002511480068D8B11C
:100930000F4800684FF47A71B1FBF0F00D49096877
:10094000B1FBF0F6304600F025FF58B9102C07D265
:1009500000222146501E00F047F80748046004E0DA
:10096000012502E0012500E00125284670BD0000B8
:100970003C000020400000203800002008B500BFE7
:100980000E48006E40F001000C4908660846006EF3
:1009900000F00100009000BF00BF00BF0846806D5E
:1009A00040F0805088650846806D00F080500090CF
:1009B00000BF00BF00F0F6F808BD000000100240C4
:1009C0000146084600280DDB00BF00BF00F01F03F2
:1009D00001229A4043099B0003F1E023C3F8002160
:1009E00000BF00BF00BF70472DE9F05F80460D4695
:1009F000164602F0B9FE074639462A46334601F04C
:100A00000700C0F1070ABAF1040F02D94FF0040A37
:100A100001E0C0F1070AD14600F1040ABAF1070F5C
:100A200002D24FF0000A01E0A0F1030AD4464FF0D1
:100A3000010A0AFA09FAAAF1010A0AEA020A0AFAFA
:100A40000CFA4FF0010B0BFA0CFBABF1010B0BEAAC
:100A5000030B4AEA0B042146404602F08DFEBDE836
:100A6000F09F000000BF00F00702064B19684FF628
:100A7000FF031940044B0B4343EA0221014B196069
:100A800000BF70470CED00E00000FA0502468ABB8B
:100A90004148006800F4C060B0F5806F2BD13E483B
:100AA0008030006820F480703B4BC3F8800018460B
:100AB000006820F4C06040F4007018603748006897
:100AC00032235843364BB0FBF3F0411C00E0491E83
:100AD0003148406900F48060B0F5806F01D1002991
:100AE000F5D12D48406900F48060B0F5806F51D198
:100AF0000320704708E028488030006820F48070A8
:100B0000254BC3F8800045E0B2F5007F3AD122487A
:100B1000006800F4C060B0F5806F2AD11E488030B4
:100B2000006840F480701C4BC3F8800018460068D1
:100B300020F4C06040F40070186018480068322348
:100B40005843174BB0FBF3F0411C00E0491E12481C
:100B5000406900F48060B0F5806F01D10029F5D1C3
:100B60000D48406900F48060B0F5806F12D1032019
:100B7000BFE709488030006840F48070064BC3F836
:100B8000800007E00448006820F4C06040F4806002
:100B9000014B18600020ACE70070004040000020CE
:100BA00040420F000348806840F48040014988605B
:100BB00070470000007000402DE9F843044600270C
:100BC000B846206800F40020B0F5002F73D1B94674
:100BD000D348806D00F0805078B900BFD048806D58
:100BE00040F08050CE4988650846806D00F0805006
:100BF000009000BF00BF4FF00109CA48006840F4F0
:100C00008070C8490860FFF76BFE064606E0FFF7F4
:100C100067FE801B022801D9032705E0C148006850
:100C200000F480700028F2D000BF002F46D1BC48ED
:100C30009030006800F44075CDB1206CA84216D009
:100C4000B7489030006820F44075B548D0F890005F
:100C500040F48030B249C1F890000846D0F89000C6
:100C600020F48030C1F890000846C0F8905005F09C
:100C70000100A0B1FFF734FE064608E0FFF730FEA2
:100C8000801B41F28831884201D9032706E0A4483D
:100C90009030006800F002000028EFD000BF5FB97C
:100CA0009F489030006820F44070216C08439C49B4
:100CB000C1F8900003E00CE0B84600E0B846B9F196
:100CC000010F05D19648806D20F0805094498865C9
:100CD00000BF207800F0010048B1914888300068DA
:100CE00020F00300616808438D49C1F8880020782E
:100CF00000F00200022809D189488830006820F0FD
:100D00000C00A16808438649C1F88800207800F0EB
:100D10000400042809D182488830006820F030009F
:100D2000E16808437E49C1F88800207800F0080097
:100D3000082809D17A488830006820F0C00021696D
:100D400008437749C1F88800207800F02000202867
:100D500009D173488830006820F440606169084315
:100D60006F49C1F88800207800F04000402809D180
:100D70006B488830006820F44050A16908436849F6
:100D8000C1F88800207800F08000802809D16448EC
:100D90008830006820F44040E16908436049C1F8A8
:100DA0008800208800F48070B0F5807F09D15C480D
:100DB0008830006820F44030216A08435849C1F85F
:100DC0008800208800F40070B0F5007F09D15448F5
:100DD0008830006820F44020616A08435049C1F817
:100DE0008800208800F48060B0F5806F13D14C48F3
:100DF0008830006820F44010A16A084348498831CF
:100E00000860A06AB0F5801F05D14548C06840F46D
:100E100080104349C860208800F40060B0F5006F7E
:100E200013D13F488830006820F44000E16A08434D
:100E30003B4988310860E06AB0F5800F05D1384839
:100E4000C06840F480103649C860208800F48050A3
:100E5000B0F5805F13D132488830006820F04070D0
:100E6000216B08432E4988310860206BB0F1807FE8
:100E700005D12B48C06840F480102949C8602088FB
:100E800000F40050B0F5005F13D1254888300068A9
:100E900020F04060616B0843214988310860606B35
:100EA000B0F1006F05D11E48C06840F480101C49A5
:100EB000C860208800F48040B0F5804F13D11848F6
:100EC0008830006820F04060A16B084314498831E5
:100ED0000860A06BB0F1006F05D11148C06840F404
:100EE00080100F49C860208800F40040B0F5004F22
:100EF00013D10B488830006820F04050E16B084364
:100F0000074988310860E06BB0F1805F05D1044883
:100F1000C06840F480300249C8604046BDE8F883AC
:100F200000100240007000402DE9F04104460D46DB
:100F30004FF0000814B90120BDE8F0817D48006839
:100F400000F00F00A8420ED27A48006820F00F008F
:100F50002843784908600846006800F00F00A8425E
:100F600001D00120E8E7207800F00100002864D0DB
:100F70006068032823D17048006800F0007008B949
:100F80000120D9E701F016FD06466C48864237D9A4
:100F90006948806800F0F00030B1207800F002006D
:100FA00002282DD1A06858BB6348806820F0F0006B
:100FB00040F08000604988604FF0800820E0606861
:100FC000022806D15C48006800F4003040B90120D6
:100FD000B2E75948006800F4806008B90120ABE727
:100FE00000F0DEF806465548864209D95248806826
:100FF00020F0F00040F080004F4988604FF08008FA
:101000004D48806820F00300616808434A498860C1
:10101000FFF766FC074608E0FFF762FCC01B41F2E1
:101020008831884201D9032086E74348806800F070
:101030000C006168B0EB810FEED1207800F0020067
:10104000022820D1207800F00400042805D13A4875
:10105000806840F4E06038498860207800F008003B
:10106000082807D13448806820F4605040F4E060DC
:10107000314988603048806820F0F000A16808435A
:101080002D49886008E0B8F1800F05D12A488068B2
:1010900020F0F000284988602648006800F00F0022
:1010A000A84219D92348006820F00F00284321499D
:1010B0000860FFF715FC074608E0FFF711FCC01BAE
:1010C00041F28831884201D9032035E71948006888
:1010D00000F00F00A842F0D1207800F004000428AE
:1010E00007D11548806820F4E060E16808431249A0
:1010F0008860207800F00800082808D10E48806831
:1011000020F46050216940EAC1000B49886000F07A
:1011100047F809498968C1F30311094A515C01F094
:101120001F01C8400749086007480068FFF7FAFB3D
:1011300002E70000002002400010024000B4C40496
:10114000BA3E000840000020380000200148006836
:10115000704700004000002000B5FFF7F7FF054989
:101160008968C1F30221044A515C01F01F01C840A3
:1011700000BD000000100240CA3E000800B5FFF7A5
:10118000E5FF05498968C1F3C221044A515C01F0B9
:101190001F01C84000BD000000100240CA3E000808
:1011A00070B5224DAD6805F00C05042D01D1204825
:1011B0003AE01E4DAD6805F00C05082D01D11D4823
:1011C00032E01A4DAD6805F00C050C2D2BD1174DF2
:1011D000ED6805F00304154DED68C5F303156A1CB1
:1011E000022C0CD0032C09D1124DB5FBF2F50F4E99
:1011F000F668C6F3062605FB06F10AE000BF0C4DB3
:10120000B5FBF2F5094EF668C6F3062605FB06F1B6
:1012100000BF00BF054DED68C5F341656D1C6B0057
:10122000B1FBF3F000E0002070BD000000100240B0
:101230000024F40000366E012DE9F843044614B989
:101240000120BDE8F883207800F00100002865D077
:10125000FC48806800F00C07FA48C06800F00306FC
:101260000C2F01D1032E01D0082F0AD1F5480068B8
:1012700000F40030002851D0606800284ED10120D1
:10128000DFE700BF6068B0F5803F06D1ED48006839
:1012900040F48030EB4908601AE06068B0F5A02F98
:1012A0000BD1E848006840F48020E6490860084611
:1012B000006840F4803008600AE0E248006820F4EA
:1012C0008030E04908600846006820F4802008600B
:1012D00000BF606888B1FFF703FB054606E0FFF733
:1012E000FFFA401B642801D90320AAE7D54800680B
:1012F00000F400300028F2D010E0FFF7F1FA0546C4
:1013000006E0FFF7EDFA401B642801D9032098E7B7
:10131000CC48006800F400300028F2D1207800F0BA
:101320000200022860D1C748806800F00C07C54859
:10133000C06800F003060C2F01D1022E01D0042F4B
:1013400018D1C048006800F4806018B1E06808B99E
:10135000012076E7BB48406820F0FE40217C40EA4F
:101360000160B8494860B8480068FFF7DBFA18B375
:10137000012066E7E06800B3B248006840F480707E
:10138000B0490860FFF7ACFA054606E0FFF7A8FA97
:10139000401B022801D9032053E7AA48006800F443
:1013A00080600028F2D0A748406820F0FE40217CF1
:1013B00040EA0160A349486016E0A248006820F4B2
:1013C0008070A0490860FFF78BFA054606E0FFF73A
:1013D00087FA401B022801D9032032E799480068A8
:1013E00000F480600028F2D1207800F0080008287E
:1013F00036D16069D0B193489430006840F0010064
:101400009049C1F89400FFF76BFA054606E0FFF734
:1014100067FA401B022801D9032012E7894894305B
:10142000006800F002000028F1D019E085489430EF
:10143000006820F001008349C1F89400FFF750FADA
:10144000054606E0FFF74CFA401B022801D90320AD
:10145000F7E67C489430006800F002000028F1D1E3
:10146000207800F00400042872D14FF0000875487D
:10147000806D012121EA107078B100BF7148806D44
:1014800040F080506F4988650846806D00F08050BC
:10149000009000BF00BF4FF001086C48006800F4E6
:1014A0008070B0B96948006840F48070674908608E
:1014B000FFF716FA054606E0FFF712FA401B02286E
:1014C00001D90320BDE66148006800F4807000285F
:1014D000F2D000BFA068012808D15A4890300068B7
:1014E00040F001005749C1F8900021E0A0680528AC
:1014F0000FD154489030006840F004005149C1F8C1
:1015000090000846D0F8900040F00100C1F890002B
:101510000EE04C489030006820F001004949C1F8C5
:1015200090000846D0F8900020F00400C1F8900028
:1015300000BFA068A8B1FFF7D3F9054609E0FFF79F
:10154000CFF9401B41F28831884202D9032078E666
:1015500025E03C489030006800F002000028EED002
:1015600013E0FFF7BDF9054608E0FFF7B9F9401BA6
:1015700041F28831884201D9032062E63148903037
:10158000006800F002000028EFD1B8F1010F05D18A
:101590002C48806D20F080502A49886500BF207853
:1015A00000F02000202836D1A069D0B1254898301D
:1015B000006840F001002349C1F89800FFF790F956
:1015C000054606E0FFF78CF9401B022801D90320ED
:1015D00037E61C489830006800F002000028F1D07F
:1015E00019E018489830006820F001001549C1F84A
:1015F0009800FFF775F9054606E0FFF771F9401B03
:10160000022801D903201CE60E489830006800F03B
:1016100002000028F1D1E069002860D00948806804
:1016200000F00C000C287AD0E069022858D1054857
:10163000006820F0807003490860FFF751F9054603
:101640000DE0000000100240380000200070004053
:10165000FFF746F9401B022801D90320F1E54A486B
:10166000006800F000700028F2D1D4E90810401E94
:1016700041EA0011A06A41EA0021208E0122C2EB5A
:10168000500041EA40513420005DC2EB500041EA75
:1016900040612C20005D41EAC0603B49C9683B4A7B
:1016A000114008433849C8600846006840F080701F
:1016B00008600846C06840F08070C860FFF710F905
:1016C000054606E0FFF70CF9401B022801D903206C
:1016D000B7E52D48006800F000700028F2D051E016
:1016E0002948006820F0807027490860FFF7F8F863
:1016F000054606E0FFF7F4F8401B022801D9032055
:101700009FE52148006800F000700028F2D11E48D3
:10171000C0681F4908401C49C86033E0FFE7E06922
:10172000012800D18DE51848C66806F00301206A3B
:10173000814225D106F0F001606A401EB1EB001F26
:101740001ED106F4FE41A06AB1EB002F18D106F0BD
:1017500078412C20005DB1EBC06F11D106F4C001BF
:10176000208E0122C2EB5000B1EB405F08D106F0A1
:10177000C0613420005DC2EB5000B1EB406F01D07E
:1017800001205EE500205CE5001002400C809F0116
:10179000FCFFEEFE70B504462546681EB0F1807F62
:1017A00001D301200FE0681E4FF0E02148610F21B6
:1017B0004FF0FF3001F0E0FF00204FF0E0218861A2
:1017C00007200861002070BD704770477047704760
:1017D00070477047704710B504460CB9012010BD22
:1017E00094F83D0028B9002084F83C00204600F021
:1017F00029F8022084F83D00211D206801F0E0FB5B
:10180000012084F8480000BF84F83E0001213F20F9
:1018100001554020015541200155422001554320EA
:10182000015500BF00BF012084F844004520015548
:10183000462001554720015500BF012084F83D0096
:101840000020CCE738B504460D492068884215D100
:1018500000BF0C48006E40F400300A490866084694
:10186000006E00F40030009000BF00BF002211465F
:101870001920FFF7B9F81920FFF7A2F838BD0000CA
:101880000044014000100240014691F83D0001284B
:1018900001D001207047022081F83D000868C0682F
:1018A00040F001000B68D860184B0868984213D0CC
:1018B0000868B0F1804F0FD0154B086898420BD0E4
:1018C000144B0868984207D0134B0868984203D01D
:1018D000124B0868984210D108688068104B00EAE3
:1018E0000302062A0FD0B2F5803F0CD008680068CA
:1018F00040F001000B68186005E00868006840F0DF
:1019000001000B6818600020C4E70000002C0140B3
:101910000004004000080040003401400040014045
:1019200007000100704770B504462068C66820684B
:10193000056905F00200022819D106F0020002280C
:1019400015D1401F21680861012020772068806937
:1019500000F0030018B12046FFF7E4FF05E0204641
:1019600000F0F1F8204600F0EFF80020207705F0B5
:101970000400042819D106F00400042815D1C0433E
:1019800021680861022020772068806900F4407097
:1019900018B12046FFF7C6FF05E0204600F0D3F857
:1019A000204600F0D1F80020207705F00800082834
:1019B00019D106F00800082815D1C0432168086134
:1019C000042020772068C06900F0030018B1204689
:1019D000FFF7A8FF05E0204600F0B5F8204600F02C
:1019E000B3F80020207705F01000102819D106F078
:1019F0001000102815D1C043216808610820207705
:101A00002068C06900F4407018B12046FFF78AFFD3
:101A100005E0204600F097F8204600F095F80020F9
:101A2000207705F0010048B106F0010030B16FF0F9
:101A3000010021680861204600F088F805F0800068
:101A4000802804D005F40050B0F5005F0AD106F0FC
:101A50008000802806D16FF402502168086120467A
:101A6000FFF7B3FE05F48070B0F5807F0AD106F071
:101A70008000802806D16FF48070216808612046BC
:101A8000FFF7A2FE05F04000402809D106F0400013
:101A9000402805D1C04321680861204600F0F2F8D3
:101AA00005F02000202809D106F02000202805D1CB
:101AB000C043216808612046FFF788FE05F48010C6
:101AC000B0F5801F0BD106F48010B0F5801F06D151
:101AD0006FF48010216808612046FFF779FE05F455
:101AE0000010B0F5001F0BD106F40010B0F5001F78
:101AF00006D16FF40010216808612046FFF767FEE9
:101B000005F48000B0F5800F0BD106F48000B0F52D
:101B1000800F06D16FF48000216808612046FFF72E
:101B200058FE05F40000B0F5000F0BD106F40000DC
:101B3000B0F5000F06D16FF400002168086120465F
:101B4000FFF748FE70BD70477047000010B50446AF
:101B50004949206888427CD101214848FEF7B2FEFD
:101B60004749087002214548FEF7ACFE4449087316
:101B700004214248FEF7A6FE4149087601214FF0B4
:101B80009040FEF79FFE3E4981F8240000206FE060
:101B900000EB40013A4A02EB8101497821B1012969
:101BA00016D0022962D12FE000EB4001344A12F82E
:101BB000211061B9012100EB4002314B03EB82029D
:101BC0005170002100EB400203EB820251604DE0B6
:101BD00000EB40012A4A12F8211069B9022100EBFA
:101BE0004002274B03EB82025170012100EB4002BF
:101BF00003EB8202117206E0002100EB4002204B51
:101C000003EB8202517031E000EB40011C4A12F8F4
:101C1000211001290CD1002100EB4002184B03EBED
:101C20008202517000EB400203EB820251721CE011
:101C300000EB4001124A02EB81014968491C00EBAC
:101C400040020F4B03EB8202516000EB40011A4649
:101C500000E00FE002EB81014968642905D301210E
:101C600000EB400203EB8202517200BF00BF401C38
:101C700004288DDB10BD0000004401400004004832
:101C8000440100207047014600BF91F884000128FC
:101C900001D102207047012081F8840000BF242078
:101CA000C1F88800086802680868006820F0010030
:101CB0000B68186022F00052002048660868026035
:101CC0002020C1F8880000BF002081F8840000BFF8
:101CD00000BFDFE770B504460D4600BF94F88400EE
:101CE000012801D1022070BD012084F8840000BFCA
:101CF0002420C4F88800206806682068006820F066
:101D00000100216808602068806820F06060284336
:101D100021688860204601F0B9F92068066020201B
:101D2000C4F8880000BF002084F8840000BF00BF12
:101D3000D9E770B504460D4600BF94F88400012829
:101D400001D1022070BD012084F8840000BF24204E
:101D5000C4F88800206806682068006820F0010048
:101D6000216808602068806820F06040284321686E
:101D70008860204601F08AF9206806602020C4F8B7
:101D8000880000BF002084F8840000BF00BFD9E7AE
:101D900010B504460CB9012010BDA06900B100E0E7
:101DA00000BFD4F8880028B9002084F884002046B9
:101DB00000F02AF82420C4F888002068006820F089
:101DC000010021680860A06A10B1204601F08AF97C
:101DD000204601F0AFFA012800D1DDE72068406815
:101DE00020F49040216848602068806820F02A0034
:101DF000216888602068006840F001002168086060
:101E0000204601F0EBF9C7E710B598B0044614215D
:101E100013A8FEF770FB442102A8FEF76CFB1D49D6
:101E20002068884233D1012002900020039002A84C
:101E3000FEF7C2FE08B1FEF74AFC00BF1648006E6E
:101E400040F48040144908660846006E00F4804063
:101E5000019000BF00BF00BF0846C06C40F0010009
:101E6000C8640846C06C00F00100019000BF00BFCC
:101E70004FF4C0601390022014900020159016902B
:101E80000720179013A94FF09040FEF735FC18B0CB
:101E900010BD000000380140001002402DE9F84F4D
:101EA00004460E4617469946D4F88800202854D197
:101EB00006B117B90120BDE8F88F00205434E06363
:101EC00021206063FEF70CFD824627806780543C2A
:101ED000A068B0F5805F04D1206910B90025B04634
:101EE00002E035464FF0000820E0534600228021F2
:101EF0002046CDF8009001F0DFFB20B12020C4F88F
:101F000088000320D7E745B9B8F80000C0F30800FF
:101F10002168886208F1020803E028782168886255
:101F20006D1CB4F85600401EA4F85600B4F85600D4
:101F30000028DAD15346002240212046CDF80090F7
:101F400001F0BAFB20B12020C4F888000320B2E7DA
:101F50002020C4F888000020ADE70220ABE700BFD6
:101F6000FEE7000070B50546002D5AD152224FF40D
:101F70008071482000F03EFA5422F021482000F001
:101F800039FA4322E021482000F034FA3A22D021E5
:101F9000482000F02FFA3A22A021482000F02AFA27
:101FA0003A227021482000F025FA002436E05048FB
:101FB0000078844203D14FF4784000F001FB4D4893
:101FC00050F824000A21B0FBF1F03030C6B204EB27
:101FD0004400C022A2EB001081B23246482000F03B
:101FE00009FA444850F824000A21B0FBF1F201FB41
:101FF000120000F1300604EB4400B022A2EB001006
:1020000081B23246482000F0F5F939480078844220
:1020100003D14FF6FF7000F0D3FA641C032CC6DB2B
:1020200065E041224FF49071482000F0E3F96C2202
:102030004FF48871482000F0DDF961224FF480717F
:10204000482000F0D7F97222F021482000F0D2F9A0
:102050006D22E021482000F0CDF93A22D02148201D
:1020600000F0C8F93A22A021482000F0C3F93A2232
:102070007021482000F0BEF9002436E01C480078AA
:10208000844203D14FF4784000F09AFA1A4850F88D
:1020900024000A2190FBF1F03030C6B204EB44007A
:1020A000C022A2EB001081B23246482000F0A2F913
:1020B000114850F824000A2190FBF1F201FB1200B4
:1020C0003030C6B204EB4400B022A2EB001081B263
:1020D0003246482000F08EF905480078844203D14A
:1020E0004FF6FF7000F06CFA641C032CC6DB70BD69
:1020F0000C000020280000200000002000B585B062
:1021000014216846FEF7F7F9C020009001200190E5
:1021100002900220039069460248FEF7EDFA05B0EE
:1021200000BD00000004004870B50825002400F040
:1021300025FE13E06006040E002000F0FFFD1420D1
:1021400001F02EFB142001F02BFB012000F0F6FD26
:10215000142001F025FB00F005FE0443281EA5F124
:102160000101CDB2E6D100F0E9FD142001F018FB29
:1021700000F02EFE204670BD10B5002000F014FEC9
:10218000142001F00DFB142001F00AFB012000F0E7
:10219000D5FD142001F004FB002000F0CFFD142039
:1021A00001F0FEFA10BD70B50446082517E00020C6
:1021B00000F0C4FD142001F0F3FA04F0800000F0F8
:1021C000F3FD142001F0ECFA6006040E142001F077
:1021D000E7FA012000F0B2FD142001F0E1FA281E18
:1021E000A5F10101CDB2E2D100F0A8FD142001F06B
:1021F000D7FA70BD10B5012000F0D6FD142001F013
:10220000CFFA012000F09AFD142001F0C9FA002055
:1022100000F0CAFD142001F0C3FA002000F08EFD8A
:10222000142001F0BDFA10BD10B5002000F086FDAD
:10223000142001F0B5FA002000F0B6FD142001F0E2
:10224000AFFA012000F07AFD142001F0A9FA012074
:1022500000F0AAFD142001F0A3FA10BD10B505246A
:1022600000F08CFD142001F09BFA012000F066FDC7
:10227000142001F095FA0BE0601E84B2142001F0E6
:102280008FFA2CB900F0A4FDFFF7CEFF012010BD9E
:1022900000F068FD0028EFD100F09AFD002000F06A
:1022A0004DFD142001F07CFA0020F0E700B585B068
:1022B00014216846FEF71FF94FF6FF7000900020CA
:1022C0000190032003900020029069460248FEF727
:1022D00013FA05B000BD00000008004800B585B045
:1022E00014216846FEF707F94FF6FF7000900120B1
:1022F0000190032003900020029069460248FEF7F7
:10230000FBF905B000BD00000008004830B50546E7
:1023100000240021084600F047F900F095F900BFBD
:1023200003E0284600F054F9641CB4F5963FF8D356
:1023300030BD000000B587B0142102A8FEF7DBF81D
:1023400000BF2A48C06C40F004002849C864084611
:10235000C06C00F00400019000BF00BF00BF084641
:10236000C06C40F00100C8640846C06C00F0010079
:10237000019000BF00BF00BF0846C06C40F00200E3
:10238000C8640846C06C00F00200019000BF00BFA6
:102390004FF44870029001200390002005900490B3
:1023A00002A91348FEF7A8F94FF4807002900120AB
:1023B000039000200590049002A94FF09040FEF792
:1023C0009BF9FFF78BFF4FF09040806940F48070DD
:1023D0004FF09041886106481830006840F408705A
:1023E00003491831086007B000BD0000001002402A
:1023F0000004004870B505460E461446A4F12000BE
:10240000C4B204EB4400044901EB001231462846F3
:1024100000F01AF870BD0000D23E0008F0B5074683
:102420000C46002540F23F1609E022783146384636
:10243000FFF7E0FFA6F1100086B2641C6D1C207847
:1024400008B1142DF1D3F0BD2DE9F04306468946BD
:10245000174600240025A046B0464946404600F0F5
:10246000A3F800BF1EE000F0EFF800250FE037F8FA
:1024700014000121A940084020B90C48008800F050
:10248000A7F803E00A48008800F0A2F86D1C102DA0
:10249000EDD308F1010000F0FF084946404600F086
:1024A00083F8641C182CDED3BDE8F08346000020BE
:1024B0004400002010B5FFF73DFF002000F016F8A3
:1024C000094908800846008848F23021884202D134
:1024D00000F0A4FA01E000F031FB002000F006F863
:1024E0000149088010BD00004800002070B5044676
:1024F0002748006840F400702549086008460068D5
:1025000040F48070086022481038006840F02000D5
:102510001F49103908601F4804601D48006840F0DA
:1025200020001B49086000BF00BF00BF18481038DA
:10253000006840F02000164910390860084600681D
:1025400040F480700860FFF7B1FE4FF09040806A61
:1025500040F480704FF09041886200BF00BF00BF20
:102560000C48001F006885B24FF09040806940F42D
:1025700080704FF090418861FFF7B0FE044810383A
:10258000006840F40070024910390860284670BDA8
:10259000280400481408004801B5BDF800000149AE
:1025A000088008BD4600002030B504460D4621468F
:1025B000202000F085F82946212000F081F830BD68
:1025C00001B5BDF800000149088008BD44000020A5
:1025D0001B49096841F40071194A11601849103902
:1025E000096841F48071164A103A11601146096871
:1025F00041F020011160134908601149096841F058
:1026000020010F4A116000BF00BF00BF0C49103904
:10261000096841F020010A4A103A11601146096820
:1026200041F48071116000BF00BF00BF0449103940
:10263000096841F40071024A103A116070470000C5
:1026400028040048140800481B48006840F4007043
:10265000194908600846006840F480700860164810
:102660001038006840F0200013491039086022201B
:10267000124908601048006840F020000E490860C8
:1026800000BF00BF00BF0C481038006840F02000B9
:102690000949103908600846006840F480700860F5
:1026A00000BF00BF00BF04481038006840F400704D
:1026B0000149103908607047280400481408004890
:1026C000214A126842F400721F4B1A601A461268BF
:1026D00042F480721A601C4A103A126842F02002DA
:1026E000194B103B1A60194A1060174A126842F0E1
:1026F0002002154B1A6000BF00BF00BF124A103AFB
:10270000126842F02002104B103B1A601A46126801
:1027100042F480721A600D4A11600B4A126842F04E
:102720002002094B1A6000BF00BF00BF064A103AE2
:10273000126842F02002044B103B1A601A461268DD
:1027400042F480721A607047280400481408004858
:1027500010B5044601224FF6FF710948FEF7BAF89A
:10276000210200220648FEF7B5F80122042105489F
:10277000FEF7B0F8002204210248FEF7ABF810BDC6
:1027800000080048000C004800B587B0142102A8DA
:10279000FDF7B1FE00BF5848C06C40F00400564938
:1027A000C8640846C06C00F00400019000BF00BF80
:1027B00000BF0846C06C40F02000C8640846C06CEA
:1027C00000F02000019000BF00BF00BF0846C06CB1
:1027D00040F00100C8640846C06C00F001000190A0
:1027E00000BF00BF00BF0846C06C40F00200C864D4
:1027F0000846C06C00F00200019000BF00BF00BF9F
:102800000846C06C40F00800C8640846C06C00F080
:102810000800019000BF00BF01224FF47F413748FC
:10282000FEF758F80022FF213448FEF753F8002243
:102830004FF480714FF09040FEF74CF800220421D5
:102840002F48FEF747F800224FF448712D48FEF755
:1028500041F84FF47F400290012003900490002043
:10286000059002A92548FDF747FFFF2002900120AF
:10287000039000200490059002A92048FDF73CFF3A
:1028800001200290002003900120049002A94FF043
:102890009040FDF731FF07200290002003900120B7
:1028A000049002A91748FDF727FF4FF480700290AB
:1028B0000120039000200490059002A94FF0904061
:1028C000FDF71AFF042002900120039000200490DD
:1028D000059002A90A48FDF70FFF4FF448700290D7
:1028E0000120039000200490059002A90548FDF7FF
:1028F00003FF07B000BD00000010024000080048C0
:10290000000C00480004004810B50B480B49086053
:1029100040F21F30486000210848816040F2E731F2
:10292000C1600021016141618161FEF754FF08B17E
:10293000FDF7CDFE10BD0000004401406400002002
:1029400010B51848184908604FF416504860002127
:1029500015488160C16001610C21416100218161E4
:10296000C1610162416200200F4988620846FFF799
:102970000FFA08B1FDF7ABFE00210B48FFF7D9F9BC
:1029800008B1FDF7A4FE00210748FFF7A3F908B13D
:10299000FDF79DFE0448FFF776F908B1FDF797FEB5
:1029A00010BD000000380140B000002000BFFEE76D
:1029B0007047704770B5164DED6805F00304144D6F
:1029C000ED68C5F303156B1C022C0CD0032C09D148
:1029D000104DB5FBF3F50E4EF668C6F3062605FB63
:1029E00006F10AE000BF0C4DB5FBF3F5084EF668A2
:1029F000C6F3062605FB06F100BF00BF044DED68D7
:102A0000C5F341656D1C6A00B1FBF2F070BD0000BA
:102A10000010024000366E010024F40000B50121D0
:102A20000020FFF74DFE4FF47A70FDF741FE0021C4
:102A30000120FFF745FE41F290711020FFF740FEA4
:102A40004FF41C516020FFF73BFE01216120FFF78E
:102A500037FE02214620FFF733FE48F21001132013
:102A6000FFF72EFE48F2FE011220FFF729FE4FF479
:102A7000A0610220FFF724FE41F230010320FFF79E
:102A80001FFE40F203313020FFF71AFE40F20331FF
:102A90003120FFF715FE40F203313220FFF710FE20
:102AA0004FF440713320FFF70BFE03213420FFF772
:102AB00007FE40F203313520FFF702FE14213620D5
:102AC000FFF7FEFD40F203313720FFF7F9FD40F23A
:102AD00003313820FFF7F4FD40F203313920FFF7CE
:102AE000EFFD4FF440713A20FFF7EAFD03213B2050
:102AF000FFF7E6FD40F203313C20FFF7E1FD4FF424
:102B0000A0513D20FFF7DCFD4FF400719220FFF74C
:102B1000D7FD40F203319320FFF7D2FD40F60D01BF
:102B20009020FFF7CDFD41F218010320FFF7C8FD0B
:102B300040F273110720FFF7C3FD00BD10B543F24B
:102B40000801E320FFF7BCFD1221E720FFF7B8FDE5
:102B500041F23121EF20FFF7B3FD00210120FFF703
:102B6000AFFD4FF4E0610220FFF7AAFD41F2300112
:102B70000320FFF7A5FD00210420FFF7A1FD40F28F
:102B800007210820FFF79CFD00210920FFF798FD91
:102B900000210A20FFF794FD00210C20FFF790FD93
:102BA00000210D20FFF78CFD00210F20FFF788FD8D
:102BB00000211020FFF784FD07211120FFF780FD81
:102BC00000211220FFF77CFD00211320FFF778FD84
:102BD000C820FDF77DFD41F290611020FFF770FDE8
:102BE00040F227211120FFF76BFD3220FDF770FD29
:102BF0001D211220FFF764FD3220FDF769FD4FF41F
:102C000000611320FFF75CFD14212920FFF758FD18
:102C10000B212B20FFF754FD3220FDF759FD002139
:102C20002020FFF74DFD00212120FFF749FD07215E
:102C30003020FFF745FD40F207713120FFF740FDDE
:102C400006213220FFF73CFD40F204713520FFF7EA
:102C500037FD41F604713620FFF732FD042137209D
:102C6000FFF72EFD00213820FFF72AFD40F2067104
:102C70003920FFF725FD40F201713C20FFF720FDD0
:102C80000F213D20FFF71CFD00215020FFF718FD0C
:102C9000EF215120FFF714FD00215220FFF710FD16
:102CA00040F23F115320FFF70BFD4FF41C51602001
:102CB000FFF706FD01216120FFF702FD00216A20D8
:102CC000FFF7FEFC00218020FFF7FAFC00218120A5
:102CD000FFF7F6FC00218220FFF7F2FC00218320A1
:102CE000FFF7EEFC00218420FFF7EAFC002185209D
:102CF000FFF7E6FC10219020FFF7E2FC0021922074
:102D0000FFF7DEFC03219320FFF7DAFC4FF4887114
:102D10009520FFF7D5FC00219720FFF7D1FC00217B
:102D20009820FFF7CDFC41F218010320FFF7C8FC03
:102D300040F273110720FFF7C3FC10BD30B1084902
:102D4000096841F04001064A116007E0044910316A
:102D5000096841F04001024A1032116070470000DA
:102D60001804004810B580210348FDF7ABFD012889
:102D700000D110BD0020FCE70004004800B585B07C
:102D800014216846FDF7B7FB8020009000200190D9
:102D9000012002900220039069460248FDF7ACFC36
:102DA00005B000BD0004004830B10849096841F091
:102DB0008001064A116007E004491031096841F0BA
:102DC0008001024A10321160704700001804004868
:102DD00000B585B014216846FDF78DFB802000907A
:102DE00011200190002002900220039069460248C1
:102DF000FDF782FC05B000BD0004004870470000EC
:102E000010B542480078401C4049087008460078D8
:102E1000642845D13E48007890B13E480078401C77
:102E20003C490870084600780A2812D13A480078D0
:102E300080F001003849087000203649087008E029
:102E40003548007820F001003349087000203149EE
:102E500008702F48407830B12F48007840F00200C9
:102E60002D49087005E02C48007820F002002A491E
:102E700008702748807830B12748007840F0040077
:102E80002549087005E02448007820F00400224914
:102E9000087021480078FFF75BFC00201B49087090
:102EA0001E48007801282DD01D480068401C1C4990
:102EB000086008460068B0F57A7F23D11948806819
:102EC000401C18498860084680683C2805D108469F
:102ED0004068401C486000208860124840683C28D8
:102EE00006D100200F49486008460068401C086071
:102EF0000C480068182802D100200A490860002008
:102F000007490860FDF7F2FC10BD00001B0000201F
:102F1000180000201C0000201D00002024000020BC
:102F2000200000202800002000B593B0382105A81B
:102F3000FDF7E1FA14216846FDF7DDFA4FF4007061
:102F4000FDF7A4FD02200590C001089040200990E3
:102F500002200C9002210D910E9114210F9102215B
:102F600010911191129105A8FEF766F908B1FDF7CD
:102F7000AEFB0F20009003200190002002900390F0
:102F8000049002216846FDF7CFFF08B1FDF79FFBD3
:102F900013B000BD0548006840F4700003490860A4
:102FA0004FF00060014980390860704788ED00E00B
:102FB00010B50248FEF7B7FC10BD00006400002009
:102FC00010B502682A4B98420BD0B0F1804F08D060
:102FD000284B984205D0284B984202D0274B984264
:102FE00003D122F070024B681A43214B984214D04F
:102FF000B0F1804F11D01F4B98420ED01E4B98421B
:103000000BD01E4B984208D01D4B984205D01D4B4B
:10301000984202D01C4B984203D122F44072CB68F4
:103020001A4322F080034C6943EA040202608B6871
:10303000C3620B6883620E4B98420BD00F4B9842D1
:1030400008D00F4B984205D00E4B984202D00E4B41
:10305000984201D10B69036301234361036903F0C3
:1030600001031BB1036923F00103036110BD0000DC
:10307000002C0140000400400008004000340140E2
:1030800000400140004401400048014070B5456ED9
:103090002DB90125A0F86A50A0F868501CE008235B
:1030A00008240568AD68C5F342610568AD686A0F1C
:1030B0000A4DAD5C15FB04F5094EB65C95FBF6F5C3
:1030C000A0F86A50054D6D5C15FB03F5044E765C67
:1030D00095FBF6F5A0F8685070BD0000AA3E000808
:1030E000B23E000890F8281001F00801082907D125
:1030F0000168496821F40041826B11430268516004
:1031000090F8281001F0010139B10168496821F4F3
:103110000031C26A11430268516090F8281001F032
:103120000201022907D10168496821F48031026B4C
:1031300011430268516090F8281001F0040104293D
:1031400007D10168496821F48021426B114302686C
:10315000516090F8281001F01001102907D1016882
:10316000896821F48051C26B11430268916090F824
:10317000281001F02001202907D10168896821F475
:103180000051026C11430268916090F8281001F020
:103190004001402913D10168496821F48011426C33
:1031A000114302685160416CB1F5801F07D101687D
:1031B000496821F4C001826C11430268516090F8A3
:1031C000281001F08001802907D10168496821F4A5
:1031D0000021C26C114302685160704738B5044643
:1031E0000020C4F89000FDF77BFB054620680068CE
:1031F00000F00800082821D16FF07E402B46002205
:103200004FF400110090204600F056FAB0B100BF14
:1032100000BF216851E8001F21F08000226842E8C9
:1032200000010029F5D100BF2020C4F8880000BFAC
:10323000002084F8840000BF032038BD20680068A7
:1032400000F00400042830D16FF07E402B460022AD
:103250004FF480010090204600F02EFA28B300BF02
:1032600000BF216851E8001F21F49070226842E8F5
:1032700000010029F5D100BF00BF00BF216808315F
:1032800051E8001F21F001002168083141E80002E7
:10329000002AF3D100BF2020C4F88C0000BF00201A
:1032A00084F8840000BF0320C7E72020C4F888000A
:1032B000C4F88C000020E066206700BF84F884001A
:1032C00000BF00BFB9E7000000BF00BF026852E8BE
:1032D000002F22F49071036843E80012002AF5D110
:1032E00000BF00BF00BF0268083252E8002F104B39
:1032F00002EA03010268083242E80013002BF2D10F
:1033000000BFC16E01290CD100BF00BF026852E8A6
:10331000002F22F01001036843E80012002AF5D1C3
:1033200000BF2021C0F88C100021C16641677047A2
:10333000FEFFFFEF2DE9FE4F044600200290D44926
:103340002068884200D100E000BF2169A0680843DE
:1033500061690843E16940EA010820680068CD49D5
:10336000084040EA0800216808602068406820F4AE
:103370004050E168084321684860D4F81880C44987
:103380002068884202D0206A40EA080820688068E5
:10339000C149084040EA0800216888602068C06A86
:1033A00020F00F00616A08432168C86200BFBB4972
:1033B0002068884216D1BA48006800F0030030B196
:1033C000012808D0022804D0032808D105E00125EF
:1033D00007E0022505E0042503E0082501E01025AB
:1033E00000BF6FE0AF492068884216D1AC48006842
:1033F00000F00C0030B1042808D0082804D00C28B4
:1034000008D105E0002507E0022505E0042503E0DA
:10341000082501E0102500BF54E0A3492068884238
:1034200016D19F48006800F0300030B1102808D055
:10343000202804D0302808D105E0002507E0022527
:1034400005E0042503E0082501E0102500BF39E070
:1034500096492068884216D19148006800F0C00063
:1034600030B1402808D0802804D0C02808D105E019
:10347000002507E0022505E0042503E0082501E01A
:10348000102500BF1EE082492068884219D1844877
:10349000006800F4406048B1B0F5806F0AD0B0F524
:1034A000006F05D0B0F5406F08D105E0002507E0BA
:1034B000022505E0042503E0082501E0102500BFF2
:1034C00000E0102500BF72492068884259D135B10B
:1034D000022D08D0042D08D0082D0DD109E0FDF7EC
:1034E0003BFE06460CE0724E0AE0FDF759FE06462A
:1034F00006E04FF4004603E000260120029000BFE2
:1035000000BF002E10D06B49606A31F81000B6FB86
:10351000F0F9606800EB4000484503D8606800039C
:10352000484502D201200290A6E06249606A31F863
:1035300010C06246002330461946FCF7C1FE4FF426
:10354000807C0022A0FB0C3B01FB0CB100FB0211B4
:103550006068400818185141CDE90001D4F804C052
:1035600062460023FCF7ACFE0746B7F5407F05D363
:10357000B7F5801F02D22068C7607DE0012002906D
:103580007AE0E069B0F5004F3FD1092D17D2DFE8AE
:1035900005F005090D160F1616161300FDF7DCFDD4
:1035A000064610E0FDF7EAFD06460CE0404E0AE054
:1035B000FDF7F6FD064606E04FF4004603E0002660
:1035C0000120029000BF00BF86B33A49606A31F81B
:1035D0001000B6FBF0F04000616800EB5100B0FB5A
:1035E000F1F7102F0ED3B7F5803F0BD24FF6F070E6
:1035F00007EA000AC7F342004AEA000A2068C0F856
:103600000CA039E00120029036E0092D18D2DFE845
:1036100005F005090E17101717171400FDF79CFD8C
:10362000064611E0FDF7AAFD06460DE024E0204E17
:103630000AE0FDF7B5FD064606E04FF4004603E05C
:1036400000260120029000BF00BFAEB11949606A98
:1036500031F81000B6FBF0F0616800EB5100B0FBF0
:10366000F1F7102F06D3B7F5803F03D2B8B2216827
:10367000C86001E0012002900120A4F86A00A4F8CB
:10368000680000206067A0670298BDE8FE8F000018
:1036900000800040F369FFCFFFF4FF1100380140C4
:1036A000881002400044004000480040004C0040A8
:1036B0000024F400923E00082DE9F04104460D4636
:1036C00017469846069E41E0701C00283ED0FDF744
:1036D00007F9A0EB0800B04200D816B90320BDE8F6
:1036E000F0812068006800F0040070B3802D2DD0B8
:1036F000402D2BD02068C069C0F3C00078B10820ED
:10370000216808622046FFF7DFFD0820C4F890001A
:1037100000BF002084F8840000BF0120DFE720689C
:10372000C069C0F3C02080B14FF400602168086216
:103730002046FFF7C9FD2020C4F8900000BF0020FC
:1037400084F8840000BF0320C9E7FFE72068C06950
:103750002840A84201D1012000E00020B842B3D0A7
:103760000020BCE700BFFEE702480068C0F302206B
:10377000704700000CED00E010B5002804DB0A07DC
:10378000130E054A135406E00A07140E034A00F00C
:103790000F031B1FD45410BD00E400E018ED00E03F
:1037A000002100E0491C8142FCD3704770B50446FB
:1037B000FEF720FDA020FEF7F6FCFEF74FFD2046A9
:1037C000FEF7F1FCFEF74AFDFEF72EFDFEF712FDB7
:1037D000A120FEF7E8FCFEF741FDFEF7A5FC05463B
:1037E000FEF73CFDFEF720FD284670BD70B505468E
:1037F0000C46FEF7FFFCA020FEF7D5FCFEF72EFDE1
:103800002846FEF7D0FCFEF729FD2046FEF7CBFC4C
:10381000FEF7B2FCFEF708FD70BD00002DE9F04791
:103820008CB0E448007A00287CD0E348007898B94E
:103830000120E14908700020E0490870FEF766FDAC
:10384000002006E0DE4951F82010DE4A42F8201040
:10385000401C0328F6DB62E0D7480078012853D1EA
:103860000020D5490870FEF751FD002449E0D448F6
:1038700050F82400D34951F82410884240D0D2484F
:103880000068401CD0490860084601780420FFF712
:10389000ADFF0A20FCF71CFFC94880680A21B0FB75
:1038A000F1F201FB1205C6488068B0FBF1F6C4488E
:1038B0004068B0FBF1F201FB1207C1484068B0FB61
:1038C000F1F8BF480068B0FBF1F201FB1209BC48F7
:1038D0000068B0FBF1FA4B465246BCA104A8CDE902
:1038E0000087CDE90265FCF763FD04A8FCF7E4FD61
:1038F00085B232232A4604A9BB48FEF7CFFA02E07C
:10390000641C032CB3DB0AE0AC480078401CAB49D4
:10391000087008460078032801D1002008700020B4
:10392000A4490872A348007D00287DD0A2480078F1
:1039300098B90220A04908700020A0490870FEF73D
:10394000E5FC002006E0A94951F82010A84A42F8F9
:103950002010401C0328F6DB7CE097480078022802
:103960006DD1002094490870FEF7D0FC002463E07C
:103970009F4850F824009D4951F8241088425AD09D
:103980009C480068401C9B490860984801780120C9
:10399000FFF72CFF0A20FCF79BFE944801790220D8
:1039A000FFF724FF0A20FCF793FE9048017A0320DA
:1039B000FFF71CFF0A20FCF78BFE8E4801780520DC
:1039C000FFF714FF0A20FCF783FE884880680A216D
:1039D00090FBF1F201FB12068448806890FBF1F73E
:1039E0008248406890FBF1F201FB12057F48406875
:1039F00090FBF1F87D48006890FBF1F201FB1209A1
:103A00007A48006890FBF1FA4B4652467AA104A826
:103A1000CDE90085CDE90276FCF7CAFC04A8FCF7E5
:103A20004BFD85B2322300E017E02A4604A96E4818
:103A3000FEF734FA02E0641C032C99DB0AE05F48CD
:103A40000078401C5D49087008460078032801D1C1
:103A500000200870002157480175564890F8200052
:103A600018B9544890F82100F0B353480078012861
:103A70001FD153485149097850F82100401C504942
:103A80004E4A127841F8220008460068182801D1F1
:103A9000002008604A4840683C2802D1002048497C
:103AA0004860474880683C2828D100204449886005
:103AB00024E041480078022820D14C483F49097849
:103AC00050F82100401C49493C4A127841F8220034
:103AD00008460068182801D1002008604348406863
:103AE0003C2804D1002000E00CE0404948603F48F9
:103AF00080683C2802D100203C49886000212D4884
:103B000080F820102B4890F82C0018B9294890F81C
:103B10002D00E8B32848007801281FD128482749FC
:103B2000097850F82100401E2549244A127841F8AE
:103B3000220008460068401C08B917200860204889
:103B40004068401C10B93B201D4948601C488068F3
:103B5000401C40BB3B201A49886024E0164800788E
:103B6000022820D121481549097850F82100401E2B
:103B70001E49124A127841F8220011480068401C80
:103B800008B9172008600E484068401C20B900E0C2
:103B90000DE03B201549486009488068401C10B979
:103BA0003B20124988600021024880F82C100CB09C
:103BB000BDE8F08744010020240000200C00002014
:103BC000280000204C000020100000204E657720C7
:103BD0005254433A256425643A256425643A2564A1
:103BE00025640D0A00000000B00000200000002045
:103BF00058000020140000204E657720416C61724F
:103C00006D3A256425643A256425643A2564256463
:103C10000D0A000030B589B039480078002852D12B
:103C200038A101A8FCF7C4FB01A90020FEF7F6FBB0
:103C300052224FF480714820FEF7DCFB5422F02121
:103C40004820FEF7D7FB4322E0214820FEF7D2FBB5
:103C50003A22D0214820FEF7CDFB3A22A02148206D
:103C6000FEF7C8FB3A2270214820FEF7C3FB002470
:103C700026E0294850F824000A21B0FBF1F030304A
:103C8000C5B204EB4400C022A2EB001081B22A4668
:103C90004820FEF7AFFB204850F824000A21B0FB73
:103CA000F1F201FB120000F1300504EB4400B022F8
:103CB000A2EB001081B22A464820FEF79BFB641C51
:103CC000032CD6DB1AE00E48007801280BD113A193
:103CD00001A8FCF76DFB01A90020FEF79FFB002067
:103CE000FEF740F90AE013A101A8FCF761FB01A966
:103CF0000020FEF793FB0120FEF734F909B030BD38
:103D000024000020202020202020204D41494E204A
:103D1000202020200000000028000020202020205B
:103D20005254432D53455454494E472020202020BF
:103D300000000000202020414C41524D2D5345549D
:103D400054494E47202020202000000000200BE096
:103D500007490978884203D00021064A115402E03D
:103D60000121044A1154401C0328F1DB7047000074
:103D70002400002018000020FCF7C4FDFFF7D4F851
:103D8000FEF702FDFEF7C0FDFEF7DAFDFEF792FB3F
:103D9000FEF7B4F90020FEF7DBFC3748FDF774FDB1
:103DA0000F20FFF703FD0446072C2AD007210F2020
:103DB000FFF71CFD0A20FCF78BFC0C210120FFF70C
:103DC00015FD0A20FCF784FC00210220FFF70EFD00
:103DD0000A20FCF77DFC00210320FFF707FD0A20E5
:103DE000FCF776FC00210420FFF700FD0A20FCF719
:103DF0006FFC00210520FFF7F9FC0A20FCF768FCA6
:103E000027E00120FFF7D2FC1C4908600A20FCF7DC
:103E10005FFC0220FFF7CAFC184948600A20FCF743
:103E200057FC0320FFF7C2FC144988600A20FCF706
:103E30004FFC0420FFF7BAFC114908600A20FCF788
:103E400047FC0520FFF7B2FC0E4908600A20FCF78A
:103E50003FFC0020FEF75AFA0020FEF79DFB4FF6CC
:103E6000FF70FEF7ADFB05E0FFF7D8FCFFF76EFF34
:103E7000FFF7D0FEF8E700006400002000000020FB
:103E800010000020140000204FF04070E1EE100AF6
:103E90007047010002000400060008000A000C0040
:103EA0001000200040008000000101010103070113
:103EB00000000804020408010101000000000000E5
:103EC00000000102030406070809000000000102C7
:103ED00003040000000000000000000000000000DB
:103EE00000000000000000000000000000000000D2
:103EF00000000000000000000000000000000000C2
:103F000000000000800180018001800180018001AB
:103F1000800180018001800180018001800100001A
:103F2000000080018001000000000000000000008F
:103F3000000000000000CC00CC00CC00CC00CC0085
:103F4000CC000000000000000000000000000000A5
:103F50000000000000000000000000000000000061
:103F60000000000000000000000000000000600CE5
:103F7000600C600C30063006FE1FFE1F300638074E
:103F80001803FE1FFE1F180318038C018C018C01FF
:103F9000000000008000E003F80F9C0E8C1C8C18C1
:103FA0008C009800F801E007800E801C8C188C189B
:103FB0009C18B80CF00FE0038000800000000000A7
:103FC00000000000000000000E181B0C110C110670
:103FD0001106110311039B018E01C038C06C6044AF
:103FE0006044304430441844186C0C380000000021
:103FF00000000000E001F00338071806180630033F
:10400000F001F000F8009C310E33061E061C061C61
:10401000063FFC73F02100000000000000000000DB
:104020000000000000000C000C000C000C000C0054
:104030000C00000000000000000000000000000074
:104040000000000000000000000000000000000070
:1040500000000000000200038001C000C0006000FA
:1040600060003000300030003000300030003000A0
:10407000300060006000C000C0008001000300024A
:104080000000000020006000C000800180010003EB
:1040900000030006000600060006000600060006F3
:1040A00000060003000380018001C00060002000C2
:1040B0000000000000000000000000000000C00040
:1040C000C000D806F807E001300338070000000000
:1040D00000000000000000000000000000000000E0
:1040E000000000000000000000000000000080014F
:1040F0008001800180018001FC3FFC3F8001800144
:10410000800180018001000000000000000000002C
:10411000000000000000000000000000000000009F
:10412000000000000000000000000000000000008F
:1041300000000000800180010001000180000000FB
:10414000000000000000000000000000000000006F
:1041500000000000000000000000E007E007000091
:10416000000000000000000000000000000000004F
:10417000000000000000000000000000000000003F
:10418000000000000000000000000000000000002F
:1041900000000000C000C00000000000000000009F
:1041A00000000000000C000C0006000600060003E2
:1041B000000300038003800180018001C000C00073
:1041C000C00060006000000000000000000000006F
:1041D00000000000E003F007380E180C0C180C1853
:1041E0000C180C180C180C180C180C180C18180CAF
:1041F000380EF007E003000000000000000000009F
:104200000000000000018001C001F0019801880158
:104210008001800180018001800180018001800196
:10422000800180018001000000000000000000000B
:1042300000000000E003F80F180C0C180C18001810
:104240000018000C000600038001C0006000300070
:104250001800FC1FFC1F0000000000000000000010
:1042600000000000E001F807180E0C0C0C0C000C0C
:104270000006C003C007000C001800180C180C182A
:10428000180CF807E0030000000000000000000028
:1042900000000000000C000E000F000F800DC00C8D
:1042A000600C600C300C180C0C0CFC3FFC3F000C3C
:1042B000000C000C000C00000000000000000000DA
:1042C00000000000F80FF80F180018000C00EC03B5
:1042D000FC071C0E001C0018001800180C181C0C01
:1042E000180EF807E00300000000000000000000C6
:1042F00000000000C007F00F381C181818000C0050
:10430000CC03EC0F3C0E1C1C0C180C180C18181CC1
:10431000380EF007E003000000000000000000007D
:1043200000000000FC1FFC1F000C0006000600033C
:1043300080038001C001C000E000600060007000E8
:1043400030003000300000000000000000000000DD
:1043500000000000E003F007380E180C180C180CD1
:104360003806F007F007180C0C180C180C180C186D
:10437000380CF80FE003000000000000000000000F
:1043800000000000E003F007380E1C0C0C180C189D
:104390000C181C1C381EF81BE0190018000C000C2F
:1043A0001C0EF807F00100000000000000000000F3
:1043B000000000000000000000000000000080017C
:1043C000800100000000000000000000000000006C
:1043D00000008001800100000000000000000000DB
:1043E000000000000000000000000000000080014C
:1043F000800100000000000000000000000000003C
:104400000000800180010001000180000000000028
:10441000000000000000000000000000000000009C
:1044200000000010001C800FE003F8001800F800E6
:10443000E003800F001C00100000000000000000DE
:10444000000000000000000000000000000000006C
:104450000000F81F000000000000F81F000000002E
:10446000000000000000000000000000000000004C
:10447000000000000000000000000000000000003C
:10448000000008003800F001C007001F0018001FDE
:10449000C007F00138000800000000000000000024
:1044A00000000000E003F80F180C0C180C1800189E
:1044B000000C000600038001C000C000C000000026
:1044C0000000C000C000000000000000000000006C
:1044D000000000000000E00718180420C229224A4A
:1044E000114409440944094409221113E20C024011
:1044F00004201818E0070000000000000000000081
:104500000000000080038003C006C006C006600CE7
:10451000600C301830183018F83FF83F1C700C60F1
:104520000C6006C006C00000000000000000000093
:1045300000000000FC03FC0F0C0C0C180C180C18ED
:104540000C0CFC07FC0F0C180C300C300C300C3031
:104550000C18FC1FFC070000000000000000000019
:1045600000000000C007F01F38381C300C700660D7
:1045700006000600060006000600060006600C7035
:104580001C30F01FE00700000000000000000000E9
:1045900000000000FE03FE0F060E06180618063087
:1045A000063006300630063006300630061806188B
:1045B000060EFE0FFE0300000000000000000000D9
:1045C00000000000FC3FFC3F0C000C000C000C0045
:1045D0000C00FC1FFC1F0C000C000C000C000C005D
:1045E0000C00FC3FFC3F0000000000000000000049
:1045F00000000000F83FF83F1800180018001800ED
:104600001800F81FF81F18001800180018001800EC
:104610001800180018000000000000000000000052
:1046200000000000E00FF83F3C780E6006E007C095
:104630000300030003FE03FE03C007C006C00EC054
:104640003CF0F83FE00F0000000000000000000018
:10465000000000000C300C300C300C300C300C30F2
:104660000C30FC3FFC3F0C300C300C300C300C306C
:104670000C300C300C300000000000000000000086
:104680000000000080018001800180018001800124
:104690008001800180018001800180018001800112
:1046A0008001800180010000000000000000000087
:1046B00000000000000600060006000600060006D6
:1046C000000600060006000600060006180618068A
:1046D0003807F003E00100000000000000000000C7
:1046E0000000000006300618060C060606038601C8
:1046F000C60066007600DE008E0106030606060C84
:1047000006180630066000000000000000000000EF
:104710000000000018001800180018001800180009
:1047200018001800180018001800180018001800C9
:104730001800F81FF81F0000000000000000000033
:10474000000000000EE01EF01EF01EF036D836D835
:1047500036D836D866CC66CC66CCC6C6C6C6C6C603
:10476000C6C686C386C3000000000000000000002B
:10477000000000000C301C303C303C306C306C30A1
:10478000CC30CC308C310C330C330C360C360C3C2A
:104790000C3C0C380C300000000000000000000051
:1047A00000000000E007F81F1C380E70066003C010
:1047B00003C003C003C003C003C003C006600E7083
:1047C0001C38F81FE0070000000000000000000097
:1047D00000000000FC0FFC1F0C380C300C300C30BB
:1047E0000C300C18FC1FFC070C000C000C000C001B
:1047F0000C000C000C000000000000000000000095
:1048000000000000E007F81F1C380E70066003E08F
:1048100003C003C003C003C003C007E006630E3F2C
:104820001C3CF83FE0F700C0000000000000000062
:1048300000000000FE0FFE1F06380630063006306E
:104840000638FE1FFE0706030606060C06180618A5
:104850000630063006600000000000000000000086
:1048600000000000E003F80F1C0C0C180C180C00E2
:104870001C00F803E00F001E0038063006300E3032
:104880001C1CF80FE0070000000000000000000002
:1048900000000000FE7FFE7F80018001800180011A
:1048A0008001800180018001800180018001800100
:1048B0008001800180010000000000000000000075
:1048C000000000000C300C300C300C300C300C3080
:1048D0000C300C300C300C300C300C300C300C30F8
:1048E0001818F81FE007000000000000000000009A
:1048F0000000000003600630063006300C180C186B
:104900000C18180C180C380E3006300670076003AF
:104910006003C001C00100000000000000000000B2
:10492000000000000360C361C361C3616633663386
:1049300066336633663366336C1B6C1B6C1B2C1A38
:104940003C1E380E380E0000000000000000000081
:10495000000000000FE00C7018303018700C600E72
:10496000C00780038003C003E006700C301C1818D9
:104970000C300E6007E000000000000000000000A6
:104980000000000003C006600C301C383818300CE2
:104990006006E007C0038001800180018001800182
:1049A0008001800180010000000000000000000084
:1049B00000000000FC7FFC7F006000300018000C4D
:1049C000000600038001C0006000300018000C00E9
:1049D0000600FE7FFE7F00000000000000000000D7
:1049E00000000000E003E003600060006000600081
:1049F00060006000600060006000600060006000B7
:104A0000600060006000600060006000E003E003A0
:104A10000000000030003000600060006000C00056
:104A2000C000C000C00180018001800100030003BC
:104A30000003000600060000000000000000000067
:104A400000000000E003E003000300030003000394
:104A5000000300030003000300030003000300033E
:104A6000000300030003000300030003E003E0036E
:104A7000000000000000C001C0016003600360038B
:104A800030063006180C180C000000000000000072
:104A90000000000000000000000000000000000016
:104AA0000000000000000000000000000000000006
:104AB00000000000000000000000000000000000F6
:104AC00000000000FFFFFFFF0000000000000000EA
:104AD000000000000C000C000C000C000C000C008E
:104AE00000000000000000000000000000000000C6
:104AF00000000000000000000000000000000000B6
:104B00000000000000000000000000000000F003B2
:104B1000F8071C0C0C0C000FF00FF80C0C0C0C0C14
:104B20001C0FF80FF018000000000000000000004B
:104B30000000000018001800180018001800D80322
:104B4000F80F380C181818181818181818181818FA
:104B5000380CF80FD803000000000000000000002F
:104B60000000000000000000000000000000C00382
:104B7000F007300E180C1800180018001800180C58
:104B8000300EF007C003000000000000000000002D
:104B90000000000000180018001800180018C01BC2
:104BA000F01F301C1818181818181818181818188A
:104BB000301CF01FC01B00000000000000000000BF
:104BC0000000000000000000000000000000C00322
:104BD000F00F300C1818F81FF81F180018003818BC
:104BE000301CF00FC00700000000000000000000B3
:104BF00000000000800FC00FC000C000C000F00720
:104C0000F007C000C000C000C000C000C000C0006D
:104C1000C000C000C0000000000000000000000054
:104C20000000000000000000000000000000E00D97
:104C3000F80F180E0C0C0C0C0C0C0C0C0C0C0C0CB7
:104C4000180EF80FE00D000C0C0C1C06F807F00114
:104C50000000000018001800180018001800D807FD
:104C6000F80F381C181818181818181818181818C9
:104C700018181818181800000000000000000000A4
:104C800000000000C000C000000000000000C000E4
:104C9000C000C000C000C000C000C000C000C00014
:104CA000C000C000C00000000000000000000000C4
:104CB00000000000C000C000000000000000C000B4
:104CC000C000C000C000C000C000C000C000C000E4
:104CD000C000C000C000C000C000C000F8007800E4
:104CE000000000000C000C000C000C000C000C0C70
:104CF0000C060C038C01CC006C00FC009C018C03A6
:104D00000C030C060C0C000000000000000000006A
:104D100000000000C000C000C000C000C000C00013
:104D2000C000C000C000C000C000C000C000C00083
:104D3000C000C000C0000000000000000000000033
:104D400000000000000000000000000000007C3CAB
:104D5000FF7EC7E383C183C183C183C183C183C194
:104D600083C183C183C10000000000000000000077
:104D70000000000000000000000000000000980794
:104D8000F80F381C181818181818181818181818A8
:104D90001818181818180000000000000000000083
:104DA0000000000000000000000000000000C00340
:104DB000F00F300C18181818181818181818181898
:104DC000300CF00FC00300000000000000000000E5
:104DD0000000000000000000000000000000D803F8
:104DE000F80F380C18181818181818181818181858
:104DF000380CF80FD8031800180018001800180015
:104E00000000000000000000000000000000C01BC7
:104E1000F01F301C18181818181818181818181817
:104E2000301CF01FC01B00180018001800180018D4
:104E30000000000000000000000000000000B007BB
:104E4000F0037000300030003000300030003000DF
:104E500030003000300000000000000000000000C2
:104E60000000000000000000000000000000E0035F
:104E7000F003380E180C3800F003C007000C180CB3
:104E8000380EF007E0030000000000000000000002
:104E90000000000000008000C000C000C000F0075B
:104EA000F007C000C000C000C000C000C000C000CB
:104EB000C000C007800700000000000000000000E4
:104EC00000000000000000000000000000001818B2
:104ED0001818181818181818181818181818181852
:104EE000381CF01FE0190000000000000000000066
:104EF00000000000000000000000000000000C188E
:104F0000180C180C180C30063006300660036003CD
:104F10006003C001C00100000000000000000000AC
:104F20000000000000000000000000000000C1417F
:104F3000C141C361636363636363363636363636B5
:104F40001C1C1C1C1C1C00000000000000000000B9
:104F500000000000000000000000000000001C38FD
:104F6000381C300C60066003600360036003600659
:104F7000300C381C1C38000000000000000000004D
:104F800000000000000000000000000000001830D9
:104F9000301830187018600C600CE00CC006C006A9
:104FA00080038003800380018001C001F000700055
:104FB0000000000000000000000000000000FC1FD6
:104FC000FC1F000C000600038001C00060003000E0
:104FD0001800FC1FFC1F0000000000000000000083
:104FE0000000000000038001C000C000C000C0003D
:104FF000C000C00060006000300060004000C000E1
:10500000C000C000C000C000C0008001000300005C
:10501000000000008001800180018001800180018A
:105020008001800180018001800180018001800178
:105030008001800180018001800180018001800168
:10504000000000006000C000C001800180018001FC
:1050500080018001000300030006000300018001BD
:1050600080018001800180018001C000600000009B
:105070000000000000000000000000000000000030
:105080000000F010F81F080F0000000000000000F2
:105090000000000000000000000000000000000010
:1050A00000000000C4500008000000204C00000078
:1050B00014020008105100084C0000208C0700006A
:1050C000300200080A00000000000000000000009C
:1050D00000000000000000000000000000000000D0
:1050E00000000000000000000000000009000000B7
:1050F0003B00000032000000000000001000000033
:10510000010000000024F4000000FFFF0000000088
:04000005080001D915
:00000001FF
