:020000040800F2
:10000000B0080020A10200089B300008AF290008BA
:1000100099300008FF0C0008D143000800000000E0
:10002000000000000000000000000000B3330008E2
:10003000010D0008000000009D300008B5330008E5
:10004000BB020008BB020008BB020008BB0200089C
:10005000BB020008BB020008BB020008BB0200088C
:10006000BB020008BB020008BB020008BB0200087C
:10007000BB020008BB020008BB020008BB0200086C
:10008000BB02000800000000BB020008BB02000821
:10009000BB020008BB020008BB020008BB0200084C
:1000A000BB020008A1340008BB020008BB02000824
:1000B000BB020008BB020008BB020008BB0200082C
:1000C000BB020008BB020008BB020008BB0200081C
:1000D000BB020008C5430008BB020008BB020008C1
:1000E000BB020008BB020008BB020008BB020008FC
:1000F000BB020008BB020008BB02000800000000B1
:1001000000000000BB02000800000000BB02000865
:10011000BB02000800000000BB020008AD3400086C
:10012000BB020008BB020008BB020008BB020008BB
:10013000BB0200080000000000000000BB02000835
:10014000BB020008BB020008000000000000000025
:10015000000000000000000000000000000000009F
:10016000000000000000000000000000BB020008CA
:10017000BB020008000000000000000000000000BA
:1001800000000000BB0200080000000000000000AA
:10019000000000000000000000000000000000005F
:1001A0000000000000000000BB020008BB020008C5
:1001B000BB020008BB020008BB02000800000000F0
:1001C00000000000BB02000800000000000000006A
:1001D000BB020008BB02000800F002F800F050F873
:1001E0000AA090E8000C82448344AAF10107DA4592
:1001F00001D100F045F8AFF2090EBAE80F0013F094
:10020000010F18BFFB1A43F001031847E057000025
:1002100000580000103A24BF78C878C1FAD85207B5
:1002200024BF30C830C144BF04680C607047000070
:100230000023002400250026103A28BF78C1FBD8EF
:10024000520728BF30C148BF0B607047642900F0D7
:100250003181632900F00583732900F00A830020AF
:1002600070471FB504F0B4FA00F03EFD0400002012
:10027000002104F097FA401C60601FBD10B510BD4E
:1002800000F0F6FC1146FFF7ECFF04F00DFA00F069
:100290001DFD03B4FFF7F2FF03BC00F029FD0000D1
:1002A0000948804709480047FEE7FEE7FEE7FEE70A
:1002B000FEE7FEE7FEE7FEE7FEE7FEE70448054946
:1002C000054A064B7047000091340008D901000828
:1002D000B0020020B0080020B0040020B0040020CC
:1002E00053EA020C00F069802DE9F04B4FF0000654
:1002F000002B1FBFB3FA83F503FA05F424FA05F6C1
:100300005E4012BF1643B2FA82F502FA05F4C5F157
:1003100020051EBF22FA05FC44EA0C04203556EAEB
:10032000044C4FEA144418BF641C4FF000084FF00F
:100330000009904271EB030C39D3002919BFB1FABF
:1003400081F701FA07F6B0FA80F700FA07F6C7F16D
:1003500020071EBF20FA07FC46EA0C062037B6FB32
:10036000F4FCA7EB0507103F07F01F0BCBF12006AD
:100370000CFA0BFB2CFA06F644BFB3460026202FDE
:10038000A4BF5E464FF0000B5BEA060C08BF4FF0BF
:10039000010B19EB0B09ABFB027C48EB0608C01BF9
:1003A00006FB02CC0BFB03CC71EB0C01C1E70B4647
:1003B000024641464846BDE8F08B13B54FF00000B9
:1003C0004FF00001AFF30080BDE81C407047000013
:1003D0000FB41CB5074B06AA7B44694600900598EC
:1003E00000F01DFA0020694600F02CFA1CBC5DF8F4
:1003F00014FB0000690400002DE9F0410E4604469C
:10040000002020622046E168884730B3252805D0C7
:10041000D4E901219047206A401CF2E7E1682046B8
:1004200000278847050018D0A5F14100192802D8F7
:1004300020354FF400673246294620462760FFF7F3
:1004400005FF40B1012804D0F61D26F00706083646
:10045000D8E7361DD6E72846DAE7206ABDE8F081FE
:1004600070B50C460546012A05D02878800600D5CF
:10047000EA69002302E0012305E05B1C934202D2FB
:10048000E05C0028F9D1A869E618C01AA861286ABA
:10049000184428622846AFF3008004E0D5E9012122
:1004A00014F8010B9047B442F8D32846AFF300800C
:1004B00070BD00002DE9F041064600241068752942
:1004C000314616A510D0AFF30080002802DA404272
:1004D00013A507E031688A0701D512A502E0490794
:1004E00004D511A5012401E0AFF3008000210A2208
:1004F00006F1240709E0B0FBF2FCB0FBF2F302FBCB
:100500001C00303078541846491C0028F3D123468B
:100510002A463046BDE8F04100F023B90000000053
:100520002D0000002B000000200000000FB400B5DB
:100530008DB010A9099000910B904FF0FF300A90F8
:1005400000200C90064878440690064878446A4695
:1005500007900F9909A800F097F90DB05DF814FB0A
:100560005F030000770300002DE9FF5F4FF00008F4
:100570009946144646469169D2E901A7DDF838B09C
:1005800001988847054659EA0B0005D009E0A169A2
:100590000198761C88470546216A28468847002826
:1005A000F5D1681C03D05FEACA7005D015E04FF0A2
:1005B000FF3004B0BDE8F09F2068011D2160D0F835
:1005C00000800AE05FEACA7001D108F8015BA16906
:1005D000761C01987F1E88470546002F1ADD681C8F
:1005E00018D0B9F1000F0DD0E81705EBD06042111B
:1005F00020F01F0059F822102A1A012090400142D1
:10060000E0D107E0BBF1000FDCD12846216A884722
:100610000028D7D0E16901988847BBF1000F07D1C6
:10062000002E05DD5FEACA7002D1002188F80010B3
:10063000A068B84203DDBBF1000F03D017B16FF023
:100640000100B6E73046B4E74FF000020429C0F0DD
:10065000128010F0030C00F01B80CCF1040CBCF1F4
:10066000020F18BF00F8012BA8BF20F8022BA1EB46
:100670000C0100F00DB85FEAC17C24BF00F8012B2B
:1006800000F8012B48BF00F8012B70474FF0000223
:1006900000B5134694469646203922BFA0E80C5078
:1006A000A0E80C50B1F12001BFF4F7AF090728BF53
:1006B000A0E80C5048BF0CC05DF804EB890028BFCF
:1006C00040F8042B08BF704748BF20F8022B11F0F8
:1006D000804F18BF00F8012B704700004FF0013C1D
:1006E00050F8042B51F8043B9A4221D1A2EB0C03A1
:1006F000934313EACC1317D150F8042B51F8043B61
:100700009A4215D1A2EB0C03934313EACC130BD1FD
:1007100050F8042B51F8043B9A4209D1A2EB0C0388
:10072000934313EACC13DBD04FF00000704700BFB7
:10073000D01A01BAB1FA81F101F0180122FA01F0E0
:10074000CB40C1F12001DBB2C0B2C01A2CFA01F3D8
:10075000D11A914311EAC311E6D17047704770472F
:1007600070472DE9F0470D4699469246044600F140
:1007700024080168880604D5E06921F01001216091
:1007800000E00120A84201DD471B00E00027A1692D
:100790007A1902EB0900081AA0612078C00602D479
:1007A0002046AFF30080002608E0D4E901211AF8C2
:1007B00006009047206A401C761C20624E45F4DB00
:1007C0002078C0060AD52046AFF3008006E0D4E9C1
:1007D000012130209047206A401C2062381EA7F17A
:1007E0000107F4DC07E0D4E9012118F8050090477F
:1007F000206A401C2062281EA5F10105F3DC20467A
:10080000AFF300802078000602D50220BDE8F08713
:100810000120FBE701694A1C02610878704700B5B6
:100820008FB0CDE901310021059105497944CDE929
:10083000031011466846FFF7DFFD0FB000BD000052
:10084000E5FFFFFF0A6802F8010B0A60704710B568
:10085000436913B1AFF3008001E0FFF701FE01200F
:1008600010BD127800F124010A7000224A700122A2
:10087000EDE711684FF0FF32E9E70000026811442C
:100880001378016018467047D16005497944516179
:1008900004497944116200211161114600F02EB81B
:1008A000EDFFFFFF53000000426842B1016811F8FC
:1008B000013B23B1521EC0E90012184670470121C6
:1008C000C160881E704742685AB1C368016843B965
:1008D00083688B4205D0491E521CC0E900120020DB
:1008E00070474FF0FF30704710B5044600F0E6F94E
:1008F0000068005D00F0010010BD00002DE9F34F1D
:100900004FF0000A0C4656468DB001200C9001F1C4
:100910000C000B9062690B9801219047051E2DD0A9
:10092000252D2CD0216A8847C0B162690B9801211E
:100930009047216A88470028F7D16269411E0B98C9
:10094000904700E0761CA1690D988847216A884786
:100950000028F7D1E1690D988847DBE7A1690D9878
:100960008847A842074601D1761CD3E7E1690D9874
:1009700088477F1C02D1BAF1000F6FD06BE162692A
:100980000B9800273D46394690472A2804D16269D2
:100990000B98012190470125DFF8D08262690B98FE
:1009A00001219047A0F130010A290AD24745E5DC30
:1009B00007EB870100EB4107303FDFD445F010051E
:1009C000ECE7E90601D46FF000476C280AD04C2808
:1009D00014D0682815D06A280DD074281CD07A2825
:1009E0001AD01DE062690B98012190476C2802D053
:1009F00045F0040514E045F002050DE045F0200542
:100A00000AE062690B9801219047682802D045F0FE
:100A1000080505E045F4006562690B9801219047DF
:100A2000C4E9015765283DD019DC58287AD00CDC80
:100A3000452837D004DC252826D041289ED131E036
:100A400046282FD0472899D12CE05B2877D0612801
:100A500028D063287CD0642823D15AE0F6E06F28A0
:100A600048D008DC66281DD067281BD0692821D013
:100A70006E2816D127E0702845D0732868D07528D5
:100A800047D078280DD14DE0A1690D9888472528D9
:100A900005463FF469AFE1690D9888476D1C3FF446
:100AA0006AAFD8E00D9923466A466FF00100AFF3B4
:100AB0000080C5E045F0400023464FF00002606032
:100AC000A80736D43EE0E8077FF447AF2068011D51
:100AD00021600068290501D506701BE7290701D5AB
:100AE000068017E7A90703D5F117C0E9006111E7F0
:100AF00006600FE745F0400023464FF008026060B3
:100B0000A80716D41EE040F60E0125EA0100606039
:100B100016E045F0400023464FF00A026060A80747
:100B200007D40FE045F040006060A80708D52346D1
:100B300010220D996FF00100AFF3008080E007E014
:100B4000102223460D996FF00100AFF3008077E08B
:100B50004FF0000963284F46C8464B46CB4602D0AB
:100B60005B2806D038E0E80601D40120A060012708
:100B700032E06269D4F80CB00B98012190475E28EE
:100B800007D14FF0010949466269D4F80CB00B98BF
:100B90009047216939B900210A4603AB43F8212067
:100BA000491C0829FADBD8B3216949B308F10108C7
:100BB00062690B98012190475D28F4D1B9F1000FCB
:100BC00009D0002003A951F82020D24341F8202069
:100BD000401C0828F7DB03AB2069002820794FEA86
:100BE00040701ED05B462246CDF80080CDE90197CB
:100BF0000D9900286FF0010020DAAFF300801FE0AC
:100C0000C11703AA00EBD1614B1121F01F0102EBC8
:100C10008302411A13680120884003431360C7E729
:100C200019E00D99224600286FF00100009702DAC2
:100C3000AFF3008004E0FFF797FC01E0AFF3008022
:100C400000280ADA401C06D10C9820B14FF0FF3082
:100C50000FB0BDE8F08F5046FAE7E90701D10AF17D
:100C6000010A064400200C9054E60000CCCCCC0CC9
:100C7000754600F035F8AE4605006946534620F04B
:100C80000700854618B020B5FFF718FBBDE82040E7
:100C90004FF000064FF000074FF000084FF0000B38
:100CA00021F00701AC46ACE8C009ACE8C009ACE8EB
:100CB000C009ACE8C0098D467047000010B500F0CF
:100CC00013F8001D10BD00BFDD3A000010B504464A
:100CD000AFF300802046BDE81040FFF7DABA00000D
:100CE000004870474C020020004870476C0200200A
:100CF00001491820ABBEFEE7260002007047FEE760
:100D00007047002240F6B83306E00021491C89B242
:100D10009942FBD3521C92B28242F6D3704772B60C
:100D2000FEE710B590F8253000210122022B03D0F8
:100D30000421C163012122E003681C6824F00E0431
:100D40001C60836C1C6824F480741C6003681C683D
:100D500024F001041C6090F84430046C03F01F037D
:100D600002FA03F36360D0E913345C60436D33B17E
:100D70001C6824F480741C60D0E916345C6080F830
:100D80002520002280F82420084610BD70B590F878
:100D90002520002401212346022A07D00422C26311
:100DA00080F8251080F82430012429E002681568B5
:100DB00025F00E0515600268156825F0010515601F
:100DC000826C156825F48075156090F84420056CD8
:100DD00002F01F0201FA02F26A60D0E913255560A1
:100DE000426D32B1156825F480751560D0E916257D
:100DF000556080F8251080F82430816B01B1884758
:100E0000204670BD70B5044600F03CF90546601CF4
:100E100002D004484068044400F034F9401BA0426A
:100E2000FAD370BD200000202DE9F04FDFF82092AA
:100E3000002301260324A9F1040B85B00F2709F133
:100E4000040AABF1040EFAE006FA03F52A407CD05E
:100E500091F804C00CF0030CBCF1010F02D0BCF1FE
:100E6000020F26D1D0F808C0CDF800C04FEA430CDD
:100E700004FA0CF8CDF810C0DDF800C02CEA080C1C
:100E8000CDF800C0D1F80C80DDF810C008FA0CF8DD
:100E9000DDF800C048EA0C08C0F80880D0F804C0AB
:100EA0002CEA050C0D79C5F300159D4045EA0C05AB
:100EB00045600D79ED43AD070ED0C5684FEA430894
:100EC00004FA08FC25EA0C05D1F808C00CFA08FC65
:100ED0004CEA050CC0F80CC00D7905F00305022D95
:100EE00016D1DD0800EB850CCDF808C0DCF82080B9
:100EF0005D074FEAD56C07FA0CF528EA05080D697D
:100F000005FA0CF5DDF808C045EA0805CCF82050D4
:100F100005684FEA430CCDF808C004FA0CFC25EA3A
:100F20000C0591F804C00CF00308DDF808C008FABD
:100F30000CF848EA0508C0F800804D6815F4403FF9
:100F40007CD0444DD5F860C000E077E04CF0010C57
:100F5000C5F860C02D6E23F0030C05F00105009567
:100F60003D4D65440295AD684FEA837C4FEA1C789D
:100F700007FA08FC25EA0C05B0F1904F06D0DFF81F
:100F8000DCC0604505D14FF0010C20E04FF0000CB3
:100F90001DE0DFF8CCC0604502D14FF0020C16E036
:100FA000DFF8C0C0604502D14FF0030C0FE0DFF85E
:100FB000B8C0604502D14FF0040C08E0DFF8ACC0C7
:100FC000604502D14FF0050C01E04FF0060C0CFA21
:100FD00008FC4CEA050C029DC5F808C0D9F8005081
:100FE000CC46D1F8048095435FEAC82800D5154364
:100FF000CCF80050DAF80050D446D1F8048095437C
:101000005FEA882800D51543CCF80050DBF8005083
:10101000DC46D1F8048095435FEA883800D5154353
:10102000CCF80050DEF80050F446D1F80480954327
:101030005FEAC83800D51543CCF800505B1C0A683D
:1010400032FA03F57FF400AF05B0BDE8F08F000081
:101050000804014000100240000001400004004864
:1010600000080048000C0048001000480014004828
:101070000069084000D0012070470AB181617047C3
:10108000816270470148806870470000200000209E
:101090000248816842681144816070472000002046
:1010A00010B50024032000F073F80F2000F008F8BA
:1010B00008B1012401E000F025F8204610BD000031
:1010C00070B50E4E05460024706898B14FF47A71E1
:1010D000B1FBF0F00A490968B1FBF0F000F060FDE7
:1010E00040B9102D06D200222946501E00F030F8DB
:1010F000356000E00124204670BD00002000002083
:101100002C0000200A4882B0016E41F00101016606
:10111000016E01F001010091816D41F08051816506
:10112000806D00F08050009002B000F0A1B8000087
:1011300000100240002809DB00F01F02012191404D
:101140004009800000F1E020C0F800117047000065
:10115000F0B40E4B1B680C46C3F30223C3F1070522
:10116000042D00D90425191D072901D2002300E010
:10117000DB1E012606FA05F1491E214099409E40DA
:10118000761E16403143F0BC03F023B90CED00E0AD
:10119000064900F0070208684FF6FF03184040EACE
:1011A0000220034A10430860704700000CED00E085
:1011B0000000FA052B492C4B0A6832214A432B497F
:1011C00040B1B0F5007F086829D020F4C06040F439
:1011D00080602CE00868C0F34120022804D051F858
:1011E000800F20F4807022E0D1F8800020F480701D
:1011F000C1F88000086820F4C06040F40070086006
:10120000B2FBF3F0401C00E0401E4A69520501D5D4
:101210000028F9D1486940050AD503207047C0F37A
:101220004120022806D051F8800F40F480700860F9
:1012300000207047D1F8800040F48070C1F8800031
:10124000086820F4C06040F400700860B2FBF3F05E
:10125000401C00E0401E4A695205DBD50028F9D148
:10126000D8E700002C00002040420F000070004032
:101270000248816841F480418160704700700040FD
:101280002DE9F8430446006800269D4D00035ED515
:10129000A86D0027C00008D4A86D40F08050A86554
:1012A000A86D012700F080500090DFF85892D9F81F
:1012B000001041F48071C9F80010FFF7E3FE80468A
:1012C00006E000BFFFF7DEFEA0EB080002282BD8E7
:1012D000D9F80000C005F5D5D5F8900010F440709D
:1012E00014D0216C814211D0D5F89000D5F890101F
:1012F00020F4407041F48031C5F89010D5F890107A
:1013000021F48031C5F89010C5F89000C00711D0C5
:10131000FFF7B8FE804641F2883907E0FFF7B2FEDA
:10132000A0EB0801494501D903260BE0D5F8900050
:101330008007F3D5D5F89000216C20F44070084365
:10134000C5F890001FB1A86D20F08050A8652078E6
:10135000C00707D0D5F88800616820F00300084373
:10136000C5F888002078800707D5D5F88800A168DF
:1013700020F00C000843C5F888002078400707D506
:10138000D5F88800E16820F030000843C5F88800EF
:101390002078000707D5D5F88800216920F0C00023
:1013A0000843C5F888002078800607D5D5F888005E
:1013B000616920F440600843C5F888002078400641
:1013C00007D5D5F88800A16920F440500843C5F836
:1013D00088002078000607D5D5F88800E16920F458
:1013E00040400843C5F888002088C00507D5D5F8D7
:1013F0008800216A20F440300843C5F8880020881E
:10140000800507D5D5F88800616A20F4402008439C
:10141000C5F88800208840050FD5D5F88800A16A56
:1014200020F440100843C5F88800A06AB0F5801F7A
:1014300003D1E86840F48010E860208800050FD5EB
:10144000D5F88800E16A20F440000843C5F8880018
:10145000E06AB0F5800F03D1E86840F48010E860DE
:101460002088C0040FD5D5F88800216B20F040708B
:101470000843C5F88800206BB0F1807F03D1E8688D
:1014800040F48010E86020884FF0006180040ED5A1
:10149000D5F88800626B20F040601043C5F88800E2
:1014A000606B884203D1E86840F48010E8602088CF
:1014B00040040ED5D5F88800A26B20F040601043A0
:1014C000C5F88800A06B884203D1E86840F480101A
:1014D000E860208800040FD5D5F88800E16B20F083
:1014E00040500843C5F88800E06BB0F1805F03D13D
:1014F000E86840F48030E8603046BDE8F8830000DA
:1015000000100240007000402DE9F0470E46050033
:101510004FF0000725D0DFF8AC81D8F8000000F0CC
:101520000F00B0420CD2D8F8001021F00F01314367
:10153000C8F80010D8F8000000F00F00B04210D139
:101540002968614CC80741F2883A5AD06868DFF8C8
:101550007C91032808D0022820682DD0400500285F
:101560002CDB0120BDE8F08720688001F9D5E06818
:1015700000F00302E068C0F30310401C032A19D0F6
:10158000534A00BFB2FBF0F0E268C2F306225043B8
:10159000E268C2F34162521C5200B0FBF2F04845CF
:1015A00017D9A06810F0F00F0CD0880711D5A868E3
:1015B00040B10EE0474AE5E78003D0E700F0B6F817
:1015C000484506D9A06820F0F00040F08000A060F7
:1015D0008027A068696820F003000843A060FFF737
:1015E00051FD814606E000BFFFF74CFDA0EB09016D
:1015F00051453AD8A068696800F00C00B0EB810F43
:10160000F2D12868810714D5400703D5A06840F4BB
:10161000E060A0602878000705D5A06820F460503D
:1016200040F4E060A060A068A96820F0F0000843E2
:1016300004E0802F03D1A06820F0F000A060D8F86B
:101640000010404601F00F01B14216D9016821F0A7
:101650000F0131430160FFF715FD074607E000BFAA
:10166000FFF710FDC11B514501D903207AE7D8F8D7
:10167000000000F00F00B042F2D12878400705D5F5
:10168000A068E96820F4E0600843A06028780007BB
:1016900006D5A068296920F4605040EAC100A06026
:1016A00000F044F8A1680C4AC1F30311515C01F049
:1016B0001F01C8400949086009480068BDE8F047B3
:1016C000FFF7FEBC002002400010024000B4C4043A
:1016D0000024F40000366E01024800082C000020AF
:1016E000200000200548064900688968054AC1F3C2
:1016F0000221515C01F01F01C84070472C000020FE
:101700000010024012480008054806490068896830
:10171000054AC1F3C221515C01F01F01C840704766
:101720002C0000200010024012480008184910B593
:101730008868C0F381021748012A0BD08A68164BCB
:10174000C2F38102022A06D08A68C2F38102032A08
:1017500003D0002010BD184610BDCA6802F0030473
:10176000CA68C2F30312521C032C02D0B0FBF2F081
:1017700001E0B3FBF2F0CA68C968C2F30622504325
:10178000C1F34161491C4900B0FBF1F010BD0000FC
:10179000001002400024F40000366E012DE9F843E9
:1017A00004007AD02078F84DC00747D0A868E968CF
:1017B00000F00C0001F003010C2802D0082817D01B
:1017C00001E0032914D06068B0F5803F17D0B0F570
:1017D000A02F286817D020F480302860286820F4D3
:1017E000802028606068E0B1FFF74CFC064614E0FA
:1017F0002868800322D560680028D2D01EE02868BF
:1018000040F48030EDE740F480202860F7E700BF27
:10181000FFF738FC801B642870D828688003F7D550
:101820000CE0FFF72FFC064605E000BFFFF72AFC9F
:10183000801B6428F0D828688003F7D420788007BC
:101840004CD5A868E96800F00C0001F003010C28F1
:1018500002D004280DD001E002290AD0E068002857
:1018600028682BD040F480702860FFF70BFC0646F8
:1018700019E02868400502D5E068002891D0686822
:10188000217C20F0FE4040EA01606860BF480068AB
:10189000FFF716FC002800D120E072E1FFF7F2FB11
:1018A000801B0228B8D828684005F7D56868217CD5
:1018B00020F0FE4040EA016068600FE020F4807094
:1018C0002860FFF7DFFB064605E000BFFFF7DAFB05
:1018D000801B0228A0D828684005F7D4207800078C
:1018E00029D560690028D5F8940013D040F0010094
:1018F000C5F89400FFF7C6FB064606E090E000BF7F
:10190000FFF7C0FB801B022886D8D5F8940080071B
:10191000F6D510E020F00100C5F89400FFF7B2FB07
:10192000064604E0FFF7AEFB801B022878D8D5F806
:1019300094008007F6D42078400761D5A86D002672
:10194000C00008D4A86D40F08050A865A86D01269D
:1019500000F0805000908E480168C90511D40168DC
:10196000804641F480710160FFF78CFB074604E07C
:10197000FFF788FBC01B022852D8D8F80000C0052A
:10198000F6D5A068012815D00528D5F8900016D006
:1019900020F00100C5F89000D5F8900020F0040078
:1019A000C5F89000A06841F28838B8B1FFF76AFB2B
:1019B00007460EE0D5F8900040F00100F0E740F057
:1019C0000400C5F89000F5E7FFF75CFBC11B41453B
:1019D00026D8D5F890008007F6D50CE0FFF752FB2B
:1019E000074604E0FFF74EFBC11B414518D8D5F868
:1019F00090008007F6D41EB1A86D20F08050A86535
:101A00002078800629D5A0690028D5F8980013D041
:101A100040F00100C5F89800FFF734FB064606E0E9
:101A200075E000BFFFF72EFB801B02286FD8D5F8AA
:101A300098008007F6D510E020F00100C5F8980066
:101A4000FFF720FB064604E0FFF71CFB801B022883
:101A50005DD8D5F898008007F6D4E069F0B3A9689E
:101A6000C1F3810103295DD00228286820F080702D
:101A7000286003D0FFF706FB04464BE0FFF702FBAC
:101A8000064604E0FFF7FEFA801B02283FD82868CC
:101A90008001F7D4F4E908016FF00F0202EB0111A5
:101AA0000843218A5204490802EB4151A26841EAE5
:101AB00002210843217D4FF07E42490802EB41613B
:101AC0000843217B40EAC160E968324A114008437B
:101AD000E860286840F08070286000E05EE0E86818
:101AE00040F08070E860FFF7CDFA044605E000BFE3
:101AF000FFF7C8FA001B022809D828688001F7D52B
:101B00004CE000BFFFF7BEFA001B022802D90320F9
:101B1000BDE8F88328688001F4D4E8681E490840CD
:101B2000E8603BE00128F3D0E868226A00F0030196
:101B3000914226D1616A00F0F00209011039914208
:101B40001FD1A26A00F4FE41B1EB022F19D194F823
:101B50002C2000F07841B1EBC26F12D1218E00F43D
:101B6000C00249084905A1F50011914209D194F834
:101B7000341000F0C06049084906A1F100718142AB
:101B80000CD00120C4E7000000100240200000201B
:101B9000007000400C809F01FCFFEEFE0020B7E7C4
:101BA00010B5401EB0F1807F01D3012010BD4FF071
:101BB000E02460610F21601702F00BFC0020A0619F
:101BC00007202061002010BD70477047704700005B
:101BD00030B590F83C20012A42D0012280F83C2008
:101BE000CA688B6822F440721A434B6822F4806200
:101BF0001A430B6822F400621A430B6922F48052E4
:101C00001A434B6922F400521A430B6B22F48042B0
:101C10001A430B8B22F4702242EA0342CB6922F072
:101C200080521A430F4D03680024AB4202D00E4D80
:101C3000AB4210D10D8D22F4700242EA05520D6ABA
:101C400022F080722A434D6A22F000722A43C96A48
:101C500022F000520A435A6480F83C40002030BD14
:101C6000022030BD002C0140003401407047704715
:101C700070470000F0B590F83C20012A3AD00125C9
:101C800080F83C50022280F83D2003685A689C6826
:101C9000194E1A4FB34201D0BB4204D122F4700C4A
:101CA0004A6842EA0C02DFF858C002EA0C02D1F896
:101CB00000C04CEA020CC3F804C00268B2420DD066
:101CC000B2F1804F0AD00F4B9A4207D00E4B9A4286
:101CD00004D0BA4202D00D4B9A4204D1896824F054
:101CE00080031943916080F83D50002180F83C103A
:101CF0000846F0BD0220F0BD002C01400034014038
:101D00008FFFFFFD0004004000080040004001403C
:101D1000704710B5040003D094F83D0010B107E0FF
:101D2000012010BD002084F83C00204600F022F87D
:101D3000022084F83D00211D206801F0BDFB012038
:101D400084F8480084F83E0084F83F0084F840009E
:101D500084F8410084F8420084F8430084F8440089
:101D600084F8450084F8460084F8470084F83D0074
:101D7000002010BD08B51A4A01681A4891420ED1D8
:101D8000816D41F020018165806D002200F020000E
:101D9000009011463720FFF7DBF9372010E0124A98
:101DA000914211D1016E41F400310166006E0022B2
:101DB00000F40030009011461920FFF7C9F91920EE
:101DC000BDE80840FFF7B6B9084A914207D1016E55
:101DD00041F480210166006E00F48020009008BD6F
:101DE000001400400010024000440140004801403F
:101DF00090F83D10012901D001207047022180F8A0
:101E00003D100168CA6842F00102CA6000681049CA
:101E100088420ED0B0F1804F0BD00E49884208D0D6
:101E20000D49884205D00D49884202D00C498842AC
:101E300007D181680B4A1140062906D0B1F5803FD1
:101E400003D0016841F001010160002070470000EB
:101E5000002C014000040040000800400034014014
:101E600000400140070001000168CA6822F0010239
:101E7000CA6001680A6A41F211131A4207D10A6A5C
:101E80009B001A4203D10A6822F001020A60012174
:101E900080F83D100020704770472DE9F04104465E
:101EA0000068C66805694FF00007A90713D5B10798
:101EB00011D5F91E01610120207720688069800713
:101EC000204602D0FFF7E8FF04E000F0F1F82046DA
:101ED00000F0C4F92777680716D5700714D5216874
:101EE0006FF004000861022020772068806910F4F8
:101EF000407F204602D0FFF7CFFF04E000F0D8F883
:101F0000204600F0ABF92777280715D5300713D501
:101F100021686FF008000861042020772068C069FC
:101F20008007204602D0FFF7B7FF04E000F0C0F8BA
:101F3000204600F093F92777E80616D5F00614D569
:101F400021686FF010000861082020772068C069C0
:101F500010F4407F204602D0FFF79EFF04E000F01F
:101F6000A7F8204600F07AF92777E80708D0F007AD
:101F700006D021686FF001000861204600F0EEF9FC
:101F8000280601D4A80408D5300606D521686FF4C8
:101F9000025008612046FFF718FEE80508D5300614
:101FA00006D521686FF4807008612046FFF70CFEAB
:101FB000680608D5700606D521686FF040000861F4
:101FC000204600F049FAA80608D5B00606D52168D3
:101FD0006FF0200008612046FFF7F8FDE80208D501
:101FE000F00206D521686FF4801008612046FFF7E3
:101FF0003EFEA80208D5B00206D521686FF4001095
:1020000008612046FFF732FE680208D5700206D547
:1020100021686FF4800008612046FFF729FE28023E
:102020000AD5300208D521686FF400000861204607
:10203000BDE8F041FFF76CBEBDE8F08170B586B039
:10204000044614216846FEF721FB25680023164943
:10205000022201244FF09040B5F1804F14D0134E6E
:10206000B5420FD1CD6C45F00105CD64C96C01F0CE
:102070000101059180218DE80E00CDE90334694608
:10208000FEF7D2FE06B070BDCD6C45F00105CD6403
:10209000C96C0092CDE9012301F00101CDE90441B1
:1020A00003936946ECE7000000100240004801403D
:1020B000704770B5044690F83C0000260D46012894
:1020C0000BD0012084F83C000C2A4AD007DC82B1F6
:1020D000042A20D0082A06D131E0022070BD102A3F
:1020E00053D0142A63D00126002084F83C003046E7
:1020F00070BD206801F04CFA2068816941F0080148
:1021000081612068816921F0040181612068816911
:102110002A69114311E0206801F088FA206881697A
:1021200041F4006181612068816921F480618161ED
:10213000206881692A6941EA02218161D4E7206827
:1021400001F0BCFA2068C16941F00801C161206852
:10215000C16921F00401C1612068C1692A69114384
:1021600011E0206801F0F2FA2068C16941F40061D1
:10217000C1612068C16921F48061C1612068C169C1
:102180002A6941EA0221C161AEE7206801F026FB1D
:102190002068016D41F0080101652068016D21F0A2
:1021A000040101652068016D2A69114311E020686E
:1021B00001F04CFB2068016D41F40061016520686D
:1021C000016D21F4806101652068016D2A6941EA91
:1021D0000221016588E710B5040003D094F83D00A2
:1021E00010B107E0012010BD002084F83C0020461B
:1021F00000F022F8022084F83D00211D206801F043
:102200005BF9012084F8480084F83E0084F83F0020
:1022100084F8400084F8410084F8420084F84300C8
:1022200084F8440084F8450084F8460084F84700A8
:1022300084F83D00002010BD08B50068B0F1804F63
:1022400008D10548816D41F001018165806D00F084
:102250000100009008BD000000100240704700001F
:1022600030B50446022269B1042912D0082917D0DA
:102270000C291CD0102921D094F84300012824D027
:10228000012030BD94F83E000128F9D184F83E20A9
:102290001DE094F83F000128F2D184F83F2016E0B9
:1022A00094F840000128EBD184F840200FE094F826
:1022B00041000128E4D184F8412008E094F842006C
:1022C0000128DDD184F8422001E084F84320012276
:1022D000206801F04FF9194B20681949194A9842B2
:1022E00009D0884207D0904205D0174DA84202D0AD
:1022F000164DA84203D1456C45F40045456420685D
:1023000098420CD0B0F1804F09D0114B984206D0C2
:10231000104B984203D0884201D0904207D1816887
:102320000D4A1140062906D0B1F5803F03D001685F
:1023300041F001010160002030BD0000002C01408F
:102340000034014000400140004401400048014089
:102350000004004000080040070001002DE9F041A2
:10236000064600683449002588423DD1334F01219B
:102370003846FEF77DFE324C022120703846FEF7CB
:1023800077FE207304213846FEF772FE2076012185
:102390004FF09040FEF76CFE84F8240000200123EB
:1023A00000EB400204EB82014F7827B1012F08D0E7
:1023B000022F16D10EE014F8222092B94B704D6016
:1023C0000FE014F822200AB14D700AE002224A7090
:1023D0000B7206E014F82220012A27D04A68521C0A
:1023E0004A60401C0428DBDB1649306888421BD158
:1023F000154CA068401CA060322815D14FF47A71AA
:1024000025704020114A6070A07092FBF1F2E070DC
:102410003220C4E903100E490B689A620968886388
:102420000C48FFF721FDA560BDE8F0814D704A68BA
:10243000642AD6D94B72D4E7004401400004004816
:1024400010020020001400403800002000350C006D
:102450004C00002098000020704790F8841001295B
:1024600018D0012180F884102421C0F88810016858
:102470000A680B6823F001030B6022F00051002270
:102480004266036819602021C0F8881080F8842013
:1024900010467047022070477047704770B5044679
:1024A00090F8840001281DD0012084F884002420A5
:1024B000C4F8880020680568026822F00102026002
:1024C0002068826822F060620A438260204601F040
:1024D000F5F9206805602020C4F88800002084F801
:1024E000840070BD022070BD70B5044690F8840071
:1024F00001281DD0012084F884002420C4F888001D
:1025000020680568026822F0010202602068826883
:1025100022F060420A438260204601F0CFF9206831
:1025200005602020C4F88800002084F8840070BD75
:10253000022070BD70477047704700002DE9F041E0
:1025400003680446D86919689A6840F60F0528425E
:102550004FF000054FF002060AD187067ED501F044
:10256000200702F0805C57EA0C0777D0616F3AE1F0
:10257000B24FDFF8CCC2174001EA0C0C57EA0C0C42
:102580006CD05FEAC07C0CD05FEAC15C09D54FF02B
:10259000010CC3F820C0D4F8903043F00103C4F814
:1025A0009030830709D5D30707D023681E62D4F87B
:1025B000903043F00403C4F8903043070AD5D307A2
:1025C00008D0266804233362D4F8903043F0020325
:1025D000C4F8903003070CD501F020033B4308D02A
:1025E000266808233362D4F8903043F00803C4F817
:1025F000903003050BD54B0109D526684FF40063D5
:102600003362D4F8903043F02003C4F89030D4F80B
:102610009030002B3DD0800609D501F0200002F05B
:102620008051084303D0616F09B120468847D4F830
:10263000900021688968490602D410F0280F2AD03A
:10264000204601F021FA2068806840061ED52068E7
:10265000083050E8001F21F0400100E021E040E890
:102660000012002AF3D1D4F8800078B17549816353
:10267000D4F88000FEF78AFB00280AD0D4F8800046
:10268000816B00E02046BDE8F04108472046FFF797
:1026900053FFBDE8F0812046FFF74EFFC4F890508D
:1026A000F7E7D4F86CC02027BCF1010F7ED15FEAB8
:1026B000C06C7BD55FEAC16C78D5102018622068A9
:1026C0008068400645D5D4F880100868406800044A
:1026D000000CDED0B4F85C208242DAD9A4F85E00A7
:1026E0000868006880062CD4216851E8000F20F4A7
:1026F000807041E80002002AF6D12068083050E8D6
:10270000001F21F0010140E80012002AF5D12068E5
:10271000083050E8001F21F0400140E80012002A74
:10272000F5D1C4F88C70E566206850E8001F21F0F0
:10273000100140E80012002AF6D1D4F88000FEF71C
:10274000F0FA2667B4F85C00B4F85E10401A81B263
:1027500030E0B4F85C00B4F85E10401A81B2B4F80E
:102760005E00002895D0002993D0226852E8000F1F
:1027700020F4907042E80003002BF6D12F4BDB438E
:102780002068083050E8002F1A4040E8002CBCF1C7
:10279000000FF5D1C4F88C70E5666567226852E8D1
:1027A000000F20F0100042E8000300E006E0002BDC
:1027B000F4D126672046FFF76FFE6AE7C60209D507
:1027C000560207D54FF4801018622046BDE8F0414C
:1027D000FFF7B1BE03060AD501F0800302F4000240
:1027E000134304D0A16F00297FF44CAF51E7420698
:1027F00011D54A060FD52046026852E8001F21F085
:10280000400142E80013002BF6D1C0F888708567BC
:1028100000F0CCF83DE7020206D54A0004D5204678
:10282000BDE8F041FFF786BEC001C6D50029C4DA75
:102830002046BDE8F041FFF730BE00000100001067
:1028400020010004753A000810B5040003D0D4F844
:10285000880010B107E0012010BD002084F884003A
:10286000204600F027F82420C4F88800206801687A
:1028700021F001010160A06A10B1204601F040F88A
:10288000204601F093FB0128E6D02068416821F43E
:10289000904141602068816821F02A0181602068B0
:1028A000016841F0010101602046BDE8104001F0DF
:1028B0008BB8000010B598B00446142111A8FDF79C
:1028C000E5FE44216846FDF7E1FE1B492068884289
:1028D00030D101200024CDE900046846FEF7D0FC89
:1028E00008B1FEF71CFA1548016E41F480410166FB
:1028F000016E01F480411691C16C41F00101C16487
:10290000C06C11A900F0010016904FF4C060119046
:102910000220CDE912040720CDE914404FF0904089
:10292000FEF782FA002211462520FEF711FC252031
:10293000FEF700FC18B010BD003801400010024046
:1029400030B4D0F88C30202B02D0022030BC70473D
:10295000A9B1A2B10023C3660A4C0368A3420BD0FD
:102960005B681B0208D5046854E8003F43F08063AD
:1029700044E80035002DF6D130BC01F051BC0120F7
:10298000E4E70000008000400549064B48790A79D9
:102990001A54401C48710122091D0348FFF7D0BF9B
:1029A00038000020400200207C0100207047FEE734
:1029B00000B585B014216846FDF768FE4FF6FF703C
:1029C000009000200321CDE90201019069460248F0
:1029D000FEF72AFA05B000BD0008004800B585B032
:1029E00014216846FDF752FE4FF6FF70009001205B
:1029F0000190032003900020029069460248FEF7F0
:102A000013FA05B000BD00000008004870B50024AE
:102A100006462146204600F003F900F041F94FF444
:102A20009635304600F010F9641CAC42F9D370BD05
:102A300030B587B014216846FDF728FE1E48C16CEA
:102A400041F00401C164C16C01F004010591C16C45
:102A500041F00101C164C16C01F001010591C16C3B
:102A600041F00201C164C06C012500F00200059034
:102A70004FF44870CDE900050024039469460294A0
:102A80000E48FEF7D1F9280203940090CDE90154D5
:102A90004FF0904469462046FEF7C6F9FFF79EFFC7
:102AA000A06940F48070A06104481830016841F4C6
:102AB0000871016007B030BD0010024000040048FA
:102AC000203AD2B2034B02EB420203EB021200F0B7
:102AD00019B800001A480008F0B50E460746002550
:102AE00040F23F1407E021463846FFF7E9FF103C6B
:102AF0006D1CA4B2761C3278002A01D0142DF2D3BA
:102B0000F0BD00002DE9F04791468A4600260446B4
:102B100000F086F8DFF84080012700BF00F0C0F821
:102B20005FF0000539F8160007FA05F10842404643
:102B300001D1408800E0008800F086F86D1C102D5F
:102B4000F0D3641CE4B25146204600F069F8761CCC
:102B5000182EE3D3BDE8F0873000002010B5FFF752
:102B600067FF002000F014F8084CA080A088A0F5B2
:102B70000241303906D000F01BFB002000F008F8BD
:102B8000A08010BD00F08BFAF7E7000030000020B5
:102B900070B51D490A6842F400720A600A6842F47E
:102BA00080720A60184C103C226842F020022260B9
:102BB000164A1060086840F02000086000BF00BF9F
:102BC00000BF206840F020002060206840F4807042
:102BD0002060FFF7EDFE4FF09041886A40F480706E
:102BE000886200BF00BF00BF0848001F006885B2B0
:102BF000886940F480708861FFF7F0FE206840F437
:102C000000702060284670BD280400481408004861
:102C100001B5BDF800000149488008BD3000002022
:102C200010B50C460146202000F068F82146BDE8AA
:102C30001040212000F062B801B5BDF80000014944
:102C4000088008BD30000020134A116841F400716B
:102C50001160114910390B6843F480730B600B68E5
:102C600043F020030B600D4B1860106840F020000B
:102C7000106000BF00BF00BF086840F0200008607F
:102C8000086840F48070086000BF00BF00BF08689B
:102C900040F4007008607047280400481408004899
:102CA0001449086840F400700860086840F48070B7
:102CB000086010481038026842F0200202600E4B93
:102CC00022221A600A6842F020020A6000BF00BF98
:102CD00000BF016841F020010160016841F480718A
:102CE000016000BF00BF00BF016841F400710160D6
:102CF000704700002804004814080048184B10B51D
:102D00001A6842F400721A601A6842F480721A60FB
:102D1000134A103A146844F020041460114C2060E7
:102D2000186840F02000186000BF00BF00BF1068A6
:102D300040F020001060106840F480701060216046
:102D4000186840F02000186000BF00BF00BF106886
:102D500040F020001060106840F48070106010BDDA
:102D600028040048140800482DE9F04F87B01421CA
:102D70006846FDF78BFC4648C16C41F00401C16414
:102D8000C16C01F004010591C16C41F02001C164E6
:102D9000C16C01F020010591C16C41F00101C164D9
:102DA000C16C01F001010591C16C41F00201C164E7
:102DB000C16C01F002010591C16C41F00801C164D0
:102DC000C06CDFF8D08000F008004FF47F4405901D
:102DD000012221464046FEF750F90022FF214046DD
:102DE000FEF74BF94FF480764FF0904900223146C0
:102DF0004846FEF742F9DFF8A0A000220421504621
:102E0000FEF73BF9DFF894B04FF4787700223946AB
:102E10005846FEF732F90125CDE900450024CDE9F9
:102E2000025469464046FDF7FFFFFF200090CDE9C0
:102E30000154694640460394FDF7F6FFCDE900547E
:102E4000694648460295FDF7EFFF07208DE83100FF
:102E500069465846FDF7E8FF0096CDE901546946FA
:102E600048460394FDF7E0FF04200090CDE90154AB
:102E7000694650460394FDF7D7FF0097CDE901540A
:102E8000694658460394FDF7CFFF07B0BDE8F08FC1
:102E90000010024000080048000C004800040048F0
:102EA0000C4810B50A49016040F21F314160002111
:102EB00040F2E732C0E90212016141618161FEF72F
:102EC00028FF002803D0BDE81040FDF728BF10BD43
:102ED00000440140E400002010B594B01C210DA86E
:102EE000FDF7D4FB34216846FDF7D0FB20481F498D
:102EF0000024016041F63F71C0E901146321C0E97B
:102F0000031444618461FEF704FF08B1FDF707FF75
:102F10001748FFF760F908B1FDF701FF60200D9039
:102F20003220CDE90E0410941194129400220DA9C0
:102F30000F481394FFF7BDF808B1FDF7F0FE0094B9
:102F40004FF40050CDE90440019402940394069498
:102F5000694607480C94FEF73BFE08B1FDF7DFFE1B
:102F60000348FFF76BF814B010BD000000480140A3
:102F70003001002010B58AB00024079408941C2169
:102F800068460994FDF782FB16484FF080410160C6
:102F900040F21F31C0E901146321C0E903148461C8
:102FA000FFF719F908B1FDF7BAFE079407A90D4814
:102FB0000994FEF75FFE08B1FDF7B1FE60200090B6
:102FC0003220CDE901040422694606480494FFF743
:102FD00070F808B1FDF7A3FE0248FFF72FF80AB01A
:102FE00010BD00004C0000203EB500240F480094A6
:102FF00001940D490294016041F63F71C0E901144A
:10300000C9108461C160FEF784FE08B1FDF787FE38
:103010000094694605480294FEF72CFE002801D072
:10302000FDF77DFE3EBD000000140040980000202A
:10303000184810B5164901604FF41651416000213F
:1030400081600C22C160C0E904128161C16101622A
:1030500041628162FFF7F8FB08B1FDF760FE0021D5
:103060000C48FFF741FA08B1FDF759FE0021094865
:10307000FFF714FA08B1FDF752FE0648FFF7EDF925
:10308000002803D0BDE81040FDF749BE10BD000088
:10309000003801407C010020FEE7FEE7704730B5B4
:1030A00001210020FFF72AFE4FF47A70FDF729FE78
:1030B00000210120FFF722FE41F290711020FFF75E
:1030C0001DFE4FF41C516020FFF718FE0121612006
:1030D000FFF714FE02214620FFF710FE48F2100110
:1030E0001320FFF70BFE48F2FE011220FFF706FE49
:1030F0004FF4A0610220FFF701FE41F230010320EE
:10310000FFF7FCFD40F2033421463020FFF7F6FDC7
:1031100021463120FFF7F2FD21463220FFF7EEFD78
:10312000E51E29463320FFF7E9FD03213420FFF790
:10313000E5FD21463520FFF7E1FD14213620FFF79C
:10314000DDFD21463720FFF7D9FD21463820FFF766
:10315000D5FD21463920FFF7D1FD29463A20FFF75A
:10316000CDFD03213B20FFF7C9FD21463C20FFF7A1
:10317000C5FD4FF4A0513D20FFF7C0FD4FF4007195
:103180009220FFF7BBFD21469320FFF7B7FD40F6E5
:103190000D019020FFF7B2FD41F218010320FFF767
:1031A000ADFDBDE8304040F273110720FFF7A6BD2A
:1031B00010B543F20801E320FFF7A0FD1221E7203C
:1031C000FFF79CFD41F23121EF20FFF797FD002131
:1031D0000120FFF793FD4FF4E0610220FFF78EFD21
:1031E00041F230010320FFF789FD00210420FFF7A1
:1031F00085FD40F207210820FFF780FD002109200E
:10320000FFF77CFD00210A20FFF778FD00210C204C
:10321000FFF774FD00210D20FFF770FD00210F2046
:10322000FFF76CFD00211020FFF768FD072111203A
:10323000FFF764FD00211220FFF760FD002113203D
:10324000FFF75CFDC820FDF7DDFD41F29061102025
:10325000FFF754FD40F227211120FFF74FFD3220E8
:10326000FDF7D0FD1D211220FFF748FD3220FDF7AC
:10327000C9FD4FF400611320FFF740FD1421292000
:10328000FFF73CFD0B212B20FFF738FD3220FDF727
:10329000B9FD00212020FFF731FD00212120FFF79B
:1032A0002DFD07213020FFF729FD40F20771312065
:1032B000FFF724FD06213220FFF720FD40F20471C4
:1032C0003520FFF71BFD41F604713620FFF716FD90
:1032D00004213720FFF712FD00213820FFF70EFDF3
:1032E00040F206713920FFF709FD40F201713C20E0
:1032F000FFF704FD0F213D20FFF700FD00215020C6
:10330000FFF7FCFCEF215120FFF7F8FC00215220D1
:10331000FFF7F4FC40F23F115320FFF7EFFC4FF4AE
:103320001C516020FFF7EAFC01216120FFF7E6FC59
:1033300000216A20FFF7E2FC00218020FFF7DEFC7D
:1033400000218120FFF7DAFC00218220FFF7D6FC64
:1033500000218320FFF7D2FC00218420FFF7CEFC60
:1033600000218520FFF7CAFC10219020FFF7C6FC42
:1033700000219220FFF7C2FC03219320FFF7BEFC3F
:103380004FF488719520FFF7B9FC00219720FFF7D3
:10339000B5FC00219820FFF7B1FC41F21801032091
:1033A000FFF7ACFCBDE8104040F273110720FFF7B7
:1033B000A5BC704770B51B4CA088401C80B2A08093
:1033C00064282AD3621CD01D0025511E1378097869
:1033D00053B141F0010121700168491C016032299B
:1033E00005D11570056002E021F0010121705178CE
:1033F00059B1217881F0020121704168491C416076
:10340000322906D15570456003E0207820F0020093
:103410002070207801F028F9A580BDE87040FDF704
:1034200037BE00001000002010B594B03821684667
:10343000FDF72CF914210EA8FDF728F94FF40070C0
:10344000FDF7B8FE01200090000401900220032443
:10345000CDE907041421CDE90A100C900D900994D0
:103460006846FEF79BF908B172B6FEE70F20CDE97A
:103470000E04002010901190129002210EA8FEF769
:1034800043F8002801D072B6FEE714B010BD00006A
:103490000248016841F470010160704788ED00E066
:1034A0000148FEF7FABC0000E40000200148FEF7E6
:1034B000F4BC0000980000202DE9F0430268264B80
:1034C000264D274E274C4FF08049984207D048455B
:1034D00005D0A84203D0B04201D0A04203D122F0CF
:1034E00070074A683A43204FDFF880C0DFF88080D9
:1034F00098420DD048450BD0A84209D0B04207D021
:10350000A04205D0B84203D0604501D0404503D168
:1035100022F44075CA682A434D6922F080022A438A
:1035200002608A68C2620A688262984207D0A0423A
:1035300005D0B84203D0604501D0404501D10969AA
:103540000163012141610169C90703D0016921F0CB
:1035500001010161BDE8F083002C0140000400403E
:103560000008004000340140004001400044014098
:103570000048014010B501F01F030121046A994081
:103580008C430462016A9A401143016210BD00003D
:103590002DE9F043056A026A22F0010202624368E3
:1035A00082691C4C25F0020522400C6822F00302BF
:1035B00014438A68194E2A43174D194FDFF864C027
:1035C000DFF86490A84207D0B04205D0B84203D0DB
:1035D000604501D0484506D122F00808CA6842EA91
:1035E000080222F00402A84207D0B04205D0B84237
:1035F00003D0604501D0484505D14D6923F440739F
:103600001D438B692B4343608461496841630262B7
:10361000BDE8F0838FFFFEFF002C01400034014025
:10362000004001400044014000480140F0B5056AF7
:10363000026A22F01002026242688369194C1B4E32
:1036400023400C6823F4407343EA042425F020034C
:103650008D6843EA0513144DA84201D0B04206D14B
:10366000CF6823F0800343EA071323F04003A84206
:103670000AD0B04208D00E4DA84205D00D4DA84248
:1036800002D00D4DA84207D14D6922F4406242EAB2
:1036900085028D6942EA85024260846149688163DE
:1036A0000362F0BDFF8FFFFE002C0140003401409B
:1036B000004001400044014000480140F0B5056A67
:1036C000026A22F4807202624368C269194C1B4E7E
:1036D00022400C6822F00302144325F400728D6826
:1036E00042EA0522144DA84201D0B04206D1CF686B
:1036F00022F4006242EA072222F48062A8420AD041
:10370000B04208D00E4DA84205D00E4DA84202D0BE
:103710000D4DA84207D14D6923F4405343EA0513E8
:103720008D6943EA05134360C4614968C16302625D
:10373000F0BD00008FFFFEFF002C0140003401406F
:10374000004001400044014000480140F0B5056AD6
:10375000026A22F4805202624268C369194C1B4E0D
:1037600023400C6823F4407343EA042425F40053F7
:103770008D6843EA0533144DA84201D0B04206D10A
:10378000CF6823F4004343EA073323F48043A8427D
:103790000AD0B04208D00E4DA84205D00D4DA84227
:1037A00002D00D4DA84207D14D6922F4404242EAB1
:1037B00085128D6942EA85124260C46149680164DC
:1037C0000362F0BDFF8FFFFE002C0140003401407A
:1037D00000400140004401400048014030B5056A06
:1037E000026A22F4803202624268036D114C234067
:1037F0000C681C4325F400330D8943EA05430E4D44
:10380000A8420BD00D4DA84208D00D4DA84205D0BE
:103810000C4DA84202D00C4DA84204D14D6922F4AF
:10382000803242EA0522426004654968816403628D
:1038300030BD00008FFFFEFF002C0140003401402E
:1038400000400140004401400048014030B5046A96
:10385000026A22F4801202624268036D114D24F460
:1038600000142B400D6843EA05230D8944EA0554F2
:103870000D4DA8420BD00D4DA84208D00C4DA842CA
:1038800005D00C4DA84202D00B4DA84204D14D6981
:1038900022F4802242EA8522426003654968C164BD
:1038A000046230BDFF8FFFFE002C01400034014058
:1038B00000400140004401400048014030B5416EE5
:1038C000B9B1026891689268C1F342610B4B520F23
:1038D0009C5CE50003F10804A25CB5FBF2F2A0F8E1
:1038E0006A205A5C615CD200B2FBF1F1A0F868106A
:1038F00030BD0121A0F86A10F8E70000F247000887
:1039000090F82810090706D501684A68836B22F4ED
:1039100000421A434A6090F82810C90706D001688F
:103920004A68C36A22F400321A434A6090F82810A9
:10393000890706D501684A68036B22F480321A436E
:103940004A6090F82810490706D501684A68436B19
:1039500022F480221A434A6090F82810C90606D53E
:1039600001688A68C36B22F480521A438A6090F817
:103970002810890606D501688A68036C22F4005273
:103980001A438A6090F82810490611D501684A68E0
:10399000436C22F480121A434A60416CB1F5801FD7
:1039A00006D101684A68836C22F4C0021A434A6057
:1039B00090F82810090606D501684A68C06C22F400
:1039C000002202434A6070472DE9F843002604466E
:1039D000C0F89060FDF756FB8046206800684FF005
:1039E000200500076FF07E4713D5434600222904C7
:1039F0002046009700F09CFC58B1216851E8000F68
:103A000020F0800041E80002002AF6D1C4F8885076
:103A100021E020680068400722D5434600224FF489
:103A200080012046009700F083FCC8B1216851E86E
:103A3000000F20F4907041E80002002AF6D12068BF
:103A4000083050E8001F21F0010140E80012002A70
:103A5000F5D1C4F88C5084F884600320BDE8F88365
:103A6000C4F88850C4F88C5044F86C6F66602676B1
:103A70000020F3E710B5806A0021A0F85E10A0F8DE
:103A80005610FEF759FD10BD10B5026852E8001F30
:103A900021F4907142E80013002BF6D10E4B02681E
:103AA000083252E8001F194042E80014002CF6D1F9
:103AB000C16E012908D1016851E8002F22F01002DF
:103AC00041E80023002BF6D12021C0F88C10002102
:103AD000C166416710BD0000FEFFFFEF10B5B0F8F2
:103AE0006020D0F88C300168222B04D0886940F027
:103AF0000800886110BD496A836D11401980816D8D
:103B0000891C8165B0F85E10491EA0F85E10B0F8FF
:103B10005E100029EED1026852E8001F21F4907176
:103B200042E80013002BF6D10168083151E8002F5C
:103B300022F0010241E80023002BF5D12021C0F83A
:103B40008C10002141670167154B02689A420BD027
:103B50005268120208D5036853E8002F22F08062F1
:103B600043E80024002CF6D1C26E012A02D0FEF7F1
:103B70000BFF10BDC166026852E8001F21F0100162
:103B800042E80013002BF6D10168CA69D243D2067D
:103B900001D410220A62B0F85C10FEF77DFC10BD63
:103BA000008000402DE9F0470446B0F860600068EE
:103BB000C569D0F800A0D0F80880D4F88C1022296C
:103BC00005D0816941F008018161BDE8F087B4F852
:103BD00068704FF0000975E02068406AA16D3040C0
:103BE0000880A06D801CA065B4F85E00401EA4F89B
:103BF0005E002068C569690730D0E9070AD05FEA2E
:103C0000CA5107D501210162D4F8900040F00100AB
:103C1000C4F89000A8070BD55FEAC87008D02168E7
:103C200002200862D4F8900040F00400C4F890002C
:103C300068070BD55FEAC87008D0216804200862C5
:103C4000D4F8900040F00200C4F89000D4F890003E
:103C500020B12046FEF770FCC4F89090B4F85E00E6
:103C600080BB216851E8000F20F4807041E8000219
:103C7000002AF6D1304A2068083050E8001F114071
:103C800040E80013002BF6D12020C4F88C00C4F8C3
:103C900074904946C4F87090284A206890420BD02E
:103CA0004068000208D5226852E8000F20F08063C7
:103CB00042E800300028F6D1E06E012825D02046E9
:103CC000FEF762FE0FB1A80686D4B4F85E000028A5
:103CD0003FF47BAFB4F8681081427FF676AF20687E
:103CE000083050E8001F21F0805140E80012002AFF
:103CF000F5D113486067216851E8000F40F02000BB
:103D000041E80002002AF6D15FE7E166216851E848
:103D1000000F20F0100041E80002002AF6D12068D0
:103D2000C169C943C90601D410210162B4F85C100D
:103D30002046FEF7B1FBC5E7FEFFFFEF0080004025
:103D4000DD3A000810B5B0F86020D0F88C3001687A
:103D5000222B04D0886940F00800886110BD496AB0
:103D60001140826D1170816D491C8165B0F85E1043
:103D7000491EA0F85E10B0F85E100029EED101686F
:103D800051E8002F22F4907241E80023002BF6D175
:103D90000168083151E8002F22F0010241E80023B8
:103DA000002BF5D12021C0F88C100021416701675C
:103DB000154B02689A420BD05268120208D503686C
:103DC00053E8002F22F0806243E80024002CF6D153
:103DD000C26E012A02D0FEF7D7FD10BDC16602688F
:103DE00052E8001F21F0100142E80013002BF6D129
:103DF0000168CA69D243D20601D410220A62B0F81F
:103E00005C10FEF749FB10BD008000402DE9F04733
:103E10000446B0F860600068C569D0F800A0D0F82A
:103E20000880D4F88C10222905D0816941F008015E
:103E30008161BDE8F087B4F868704FF0000975E063
:103E40002068406AA16D30400870A06D401CA065DC
:103E5000B4F85E00401EA4F85E002068C5696907DA
:103E600030D0E9070AD05FEACA5107D501210162C3
:103E7000D4F8900040F00100C4F89000A8070BD5DA
:103E80005FEAC87008D0216802200862D4F8900068
:103E900040F00400C4F8900068070BD55FEAC870D2
:103EA00008D0216804200862D4F8900040F0020095
:103EB000C4F89000D4F8900020B12046FEF73CFBF7
:103EC000C4F89090B4F85E0080BB216851E8000F00
:103ED00020F4807041E80002002AF6D1304A2068C0
:103EE000083050E8001F114040E80013002BF6D1C5
:103EF0002020C4F88C00C4F874904A46C4F870902E
:103F00002849206888420BD04068000208D5216803
:103F100051E8000F20F0806041E80003002BF6D14B
:103F2000E06E012825D02046FEF72EFD0FB1A80631
:103F300086D4B4F85E0000283FF47BAFB4F8681074
:103F400081427FF676AF2068083050E8001F21F0EC
:103F5000805140E80012002AF5D1134860672068BC
:103F600050E8001F41F0200140E80012002AF6D17D
:103F70005FE7E266216851E8000F20F0100041E899
:103F80000002002AF6D12068C169C943C90601D4DC
:103F900010210162B4F85C102046FEF77DFAC5E7F7
:103FA000FEFFFFEF00800040453D00082DE9F04195
:103FB0000446016880682269E3691043626900254C
:103FC0001A431043DFF82CC20A688B4B1A40024395
:103FD0000A6020684168E26821F440511143416061
:103FE0002168A069614501D0226A10438A68834B29
:103FF0001A4002438A602068C16A626A21F00F0198
:104000001143C1627E4923687E488B420DD1D0F8AE
:10401000880010F0030006D0012855D0022842D0B5
:1040200003283FD152E001203DE077498B420BD17C
:10403000D0F8880010F00C0035D0042833D00828C0
:1040400040D00C282ED141E070498B420BD1D0F8E2
:10405000880010F0300026D0102835D0202831D02C
:1040600030281FD132E06A498B420BD1D0F888004A
:1040700010F0C00017D0402826D0802822D0C028B9
:1040800010D123E063450DD1D0F8880010F44060D2
:1040900009D0B0F5806F17D0B0F5006F12D0B0F531
:1040A000406F13D010205B495B4F00264FF4004255
:1040B00063453BD160B1022813D004280BD00828F7
:1040C00072D10DE00220EEE70420ECE70820EAE7D9
:1040D000FDF708FB01E0FDF729FB010001D17CE0C1
:1040E0001146606A37F810206768B1FBF2F007EB01
:1040F0004703834270D8B0EB073F6DD800230846D2
:104100001946FCF7EDF8090241EA1061020278084D
:10411000101871413A460023FCF7E2F83F4AA0F537
:104120004071914258D82168C86056E0E3694FF663
:10413000EF7893422CD109284ED2DFE800F0050831
:10414000114D0D4D4D4D1000FDF7CCFA01E0FDF77E
:10415000DBFA010004D140E0FDF7E8FAF9E7114687
:10416000606A37F81000B1FBF0F04100606801EBC5
:104170005001B1FBF0F0A0F1100141452CD84FF6F1
:10418000F0710140C0F3420001432068C16024E0A7
:10419000092821D2DFE800F0050912200E20202096
:1041A0001100FDF79FFA02E016E0FDF7ADFA0100FD
:1041B00004D112E0FDF7BAFAF9E71146606A37F860
:1041C0001000B1FBF0F1606801EB5001B1FBF0F0C1
:1041D000A0F1100141450AD901250120A4F86A0087
:1041E00024F8680F2846E6602661BDE8F08180B2B9
:1041F00099E7000000800040F369FFCFFFF4FF1152
:1042000000380140001002400044004000480040D7
:10421000004C00400024F400DA470008FFFC0F00C7
:1042200070B58165A0F85C20A0F85E20002343678C
:1042300081684FF48056FF24B14204D10169F9B975
:1042400040F2FF1122E07F25C1B1B1F1805F1AD0A9
:10425000A0F86030C0F890302221C0F88C100168BE
:10426000083151E8003F43F0010341E80034002CDD
:10427000F5D1416EB1F1005F0ED031E0016941B975
:10428000A0F86040E6E7016919B13F21A0F860108D
:10429000E0E7A0F86050DDE7B0F8681091421FD861
:1042A0008168B14201D10169B9B11D494167016914
:1042B00041B1026852E8001F41F4807142E80013E6
:1042C000002BF6D10168083151E8002F42F08052EE
:1042D00041E80023002BF5D120E012494167F1E7C6
:1042E0008168B14201D1016969B10F494167016932
:1042F00059B1026852E8001F41F4907142E800137E
:10430000002BF6D10AE009494167026852E8001F14
:1043100041F0200142E80013002BF6D1002070BDCF
:104320000D3E0008A53B0008453D0008DD3A0008A9
:104330002DE9F047994617460D4604464FF0000810
:10434000089E33E0701C31D0FCF79CFEA0EB090006
:10435000B04218D8BEB120680168490726D5802D23
:1043600024D0402D22D0C169C94309070DD40825A6
:1043700005622046FFF788FBC4F8905084F88480DB
:104380000120BDE8F0870320FBE7C069C0430005BA
:104390000CD421684FF4006008622046FFF774FBDC
:1043A0002020C4F8900084F88480ECE72068C0697D
:1043B00035EA000004D00020B842C3D00020E0E776
:1043C0000120F9E70148FEF7B9B800007C010020A0
:1043D000FEE70907090E002804DB00F1E02080F861
:1043E0000014704700F00F0000F1E02080F8141D69
:1043F000704700002DE9F047DFF8F49099F80000CD
:10440000002873D13B4C30220025207A3A490128FC
:1044100008D1087840280AD0401CC0B208703A2859
:1044200005D02572237D3548012B02D00AE00A70A1
:10443000F7E70378402B0BD05B1CDBB203703A2B01
:1044400006D0257594F820602D4B012E02D00BE08C
:104450000270F6E71E78402E37D0761CF6B21E703A
:104460003A2E32D084F8205094F82C20012A3DD1E5
:10447000244A91F80080012692F800C0224FC445DA
:1044800025D192F801C090F80080C4451FD19278E0
:1044900093F800C062451AD189F800600020FEF749
:1044A000B5FA1A483E704FF4FA61194A01600A20C1
:1044B0001060184A92FBF1F217490B689A6209687A
:1044C00088631648FDF794FC0EE01A70CAE7402294
:1044D0000A700C490270491E1A700878401CC0B25C
:1044E0000870032800D37E7084F82C50BDE8F08754
:1044F0003800002010020020390000203A0000207F
:104500003B0000200100002011000020440000209A
:104510004800002000350C004C00002098000020CE
:1045200000B5294889B0007800B301281CD127A123
:104530006846FBF74DFF69463020FEF7CDFA274865
:1045400027A102686846FBF743FF69466020FEF733
:10455000C3FA274827A102686846FBF739FF694676
:104560005FF07800FEF7B8FA09B000BD25A16846F3
:10457000FBF72EFF69463020FEF7AEFA254826A14C
:1045800002786846FBF724FF69466020FEF7A4FA2C
:10459000254826A102786846FBF71AFF694678206D
:1045A000FEF79AFA254826A102786846FBF710FF25
:1045B00069469020FEF790FA254A26A16846FBF747
:1045C00007FF6946A820CDE73800002020202020E2
:1045D00020202053544120202020000044000020AF
:1045E00020202020463D25642020202000000000BF
:1045F0004800002020202020443D25642020202049
:1046000000000000202020202020205053442020A3
:1046100020200000390000202020202042313D25AC
:1046200063202020200000003A00002020202020CD
:1046300042323D2563202020200000003B00002066
:104640002020202042333D25632020202000000030
:104650000100002020202020706173733D2573200D
:10466000202020202000000070B50D4D04460122BE
:104670004FF6FF712846FCF700FD21020022284674
:10468000FCF7FBFC074C012204212046FCF7F5FC5B
:104690002046BDE8704000220421FCF7EEBC00007B
:1046A00000080048000C0048FCF7FAFCFEF7BCFECE
:1046B000FEF75AFBFEF7F4FBFEF70EFCFEF7B8FC24
:1046C000FEF758FCFEF790FCFEF748FA0020FEF7D4
:1046D0009DF90020FEF79CFA4FF6FF70FEF7ACFA4A
:1046E0000020FFF7C1FF0E48FDF782FB01220D49B4
:1046F0000D48FEF725F904210C48FDF7B1FD0C4DDE
:10470000FFF778FEFFF70CFF2C78002CF8D0012083
:10471000FCF778FB28788442F2D100F00BF8EFE741
:10472000E40000203C0000207C0100204C00002020
:104730003D00002010B5164C207808B307281FD183
:10474000144B15A11A1F1648FBF7F0FE1149083942
:10475000081DFBF7C3FF98B901220E4900200B5C2E
:10476000313B092B00D30022401C0328F7DB3AB170
:10477000084A0020083A0B5C1354401C0328FADB5B
:1047800000202070BDE8104014210548FBF75CBFF5
:104790003D000020090000202533732D25337300D0
:1047A0004002002010B500290AD00878002807D060
:1047B00005487844FBF792FF002801D0002010BD87
:1047C0000248784410BD00005A1200005212000046
:1047D0004FF04070E1EE100A704701000200040043
:1047E000060008000A000C001000200040008000B5
:1047F000000101010103070100000804020408018F
:10480000010100000000000000000102030406078F
:10481000080900000000010203040000000000007D
:104820000000000000000000000000000000000088
:104830000000000000000000000000000000000078
:104840000000000000000000000000008001800166
:104850008001800180018001800180018001800150
:1048600080018001800100000000800180010000C3
:104870000000000000000000000000000000CC006C
:10488000CC00CC00CC00CC00CC000000000000002C
:104890000000000000000000000000000000000018
:1048A0000000000000000000000000000000000008
:1048B000000000000000600C600C600C3006300648
:1048C000FE1FFE1F300638071803FE1FFE1F1803C9
:1048D00018038C018C018C01000000008000E003B3
:1048E000F80F9C0E8C1C8C188C009800F801E007C7
:1048F000800E801C8C188C189C18B80CF00FE003EC
:1049000080008000000000000000000000000000A7
:104910000E181B0C110C11061106110311039B013B
:104920008E01C038C06C6044604430443044184448
:10493000186C0C380000000000000000E001F003DB
:104940003807180618063003F001F000F8009C3113
:104950000E33061E061C061C063FFC73F0210000E9
:1049600000000000000000000000000000000C003B
:104970000C000C000C000C000C00000000000000FB
:104980000000000000000000000000000000000027
:104990000000000000000000000000000002000312
:1049A0008001C000C00060006000300030003000B6
:1049B0003000300030003000300060006000C00087
:1049C000C000800100030002000000002000600021
:1049D000C0008001800100030003000600060006FD
:1049E0000006000600060006000600030003800122
:1049F0008001C000600020000000000000000000F6
:104A0000000000000000C000C000D806F807E00168
:104A10003003380700000000000000000000000024
:104A20000000000000000000000000000000000086
:104A300000000000000080018001800180018001F1
:104A4000FC3FFC3F8001800180018001800100006B
:104A50000000000000000000000000000000000056
:104A60000000000000000000000000000000000046
:104A70000000000000000000000000008001800134
:104A800000010001800000000000000000000000A4
:104A90000000000000000000000000000000000016
:104AA0000000E007E0070000000000000000000038
:104AB00000000000000000000000000000000000F6
:104AC00000000000000000000000000000000000E6
:104AD000000000000000000000000000C000C00056
:104AE000000000000000000000000000000C000CAE
:104AF0000006000600060003000300038003800197
:104B000080018001C000C000C000600060000000A3
:104B1000000000000000000000000000E003F007BB
:104B2000380E180C0C180C180C180C180C180C1843
:104B30000C180C180C18180C380EF007E0030000C5
:104B400000000000000000000000000000018001E3
:104B5000C001F0019801880180018001800180017D
:104B600080018001800180018001800180010000BE
:104B7000000000000000000000000000E003F80F4B
:104B8000180C0C180C1800180018000C0006000374
:104B90008001C000600030001800FC1FFC1F0000F6
:104BA000000000000000000000000000E001F80725
:104BB000180E0C0C0C0C000C0006C003C007000CF7
:104BC000001800180C180C18180CF807E003000067
:104BD000000000000000000000000000000C000EBB
:104BE000000F000F800DC00C600C600C300C180C16
:104BF0000C0CFC3FFC3F000C000C000C000C0000F7
:104C0000000000000000000000000000F80FF80F96
:104C1000180018000C00EC03FC071C0E001C001808
:104C2000001800180C181C0C180EF807E003000000
:104C3000000000000000000000000000C007F00FAE
:104C4000381C181818000C00CC03EC0F3C0E1C1C70
:104C50000C180C180C18181C380EF007E003000094
:104C6000000000000000000000000000FC1FFC1F0E
:104C7000000C00060006000380038001C001C00094
:104C8000E000600060007000300030003000000084
:104C9000000000000000000000000000E003F0073A
:104CA000380E180C180C180C3806F007F007180C02
:104CB0000C180C180C180C18380CF80FE003000036
:104CC000000000000000000000000000E003F0070A
:104CD000380E1C0C0C180C180C181C1C381EF81B59
:104CE000E0190018000C000C1C0EF807F001000081
:104CF00000000000000000000000000000000000B4
:104D000000000000000080018001000000000000A1
:104D10000000000000000000000080018001000091
:104D20000000000000000000000000000000000083
:104D30000000000000008001800100000000000071
:104D40000000000000000000000080018001000160
:104D500000018000000000000000000000000000D2
:104D6000000000000000000000000010001C800F88
:104D7000E003F8001800F800E003800F001C0010AA
:104D80000000000000000000000000000000000023
:104D900000000000000000000000F81F00000000FC
:104DA0000000F81F000000000000000000000000EC
:104DB00000000000000000000000000000000000F3
:104DC0000000000000000000000008003800F001B2
:104DD000C007001F0018001FC007F00138000800BE
:104DE000000000000000000000000000E003F80FD9
:104DF000180C0C180C180018000C00060003800199
:104E0000C000C000C00000000000C000C0000000E2
:104E10000000000000000000000000000000E007AB
:104E200018180420C229224A11440944094409449B
:104E300009221113E20C024004201818E0070000B8
:104E4000000000000000000000000000800380035C
:104E5000C006C006C006600C600C30183018301850
:104E6000F83FF83F1C700C600C6006C006C00000E4
:104E7000000000000000000000000000FC03FC0F28
:104E80000C0C0C180C180C180C0CFC07FC0F0C1854
:104E90000C300C300C300C300C18FC1FFC070000E0
:104EA000000000000000000000000000C007F01F2C
:104EB00038381C300C70066006000600060006003C
:104EC0000600060006600C701C30F01FE0070000B2
:104ED000000000000000000000000000FE03FE0FC4
:104EE000060E061806180630063006300630063064
:104EF0000630063006180618060EFE0FFE030000E8
:104F0000000000000000000000000000FC3FFC3F2B
:104F10000C000C000C000C000C00FC1FFC1F0C0013
:104F20000C000C000C000C000C00FC3FFC3F0000CF
:104F3000000000000000000000000000F83FF83F03
:104F400018001800180018001800F81FF81F1800A3
:104F500018001800180018001800180018000000A9
:104F6000000000000000000000000000E00FF83F1B
:104F70003C780E6006E007C00300030003FE03FE5A
:104F800003C007C006C00EC03CF0F83FE00F0000B1
:104F90000000000000000000000000000C300C3099
:104FA0000C300C300C300C300C30FC3FFC3F0C3023
:104FB0000C300C300C300C300C300C300C3000004D
:104FC00000000000000000000000000080018001DF
:104FD00080018001800180018001800180018001C9
:104FE000800180018001800180018001800100003A
:104FF00000000000000000000000000000060006A5
:105000000006000600060006000600060006000670
:1050100000060006180618063807F003E001000035
:10502000000000000000000000000000063006182C
:10503000060C060606038601C60066007600DE0042
:105040008E0106030606060C0618063006600000F0
:105050000000000000000000000000001800180020
:105060001800180018001800180018001800180080
:1050700018001800180018001800F81FF81F00008A
:105080000000000000000000000000000EE01EF024
:105090001EF01EF036D836D836D836D866CC66CC58
:1050A00066CCC6C6C6C6C6C6C6C686C386C300000C
:1050B0000000000000000000000000000C301C3068
:1050C0003C303C306C306C30CC30CC308C310C33DC
:1050D0000C330C360C360C3C0C3C0C380C300000FD
:1050E000000000000000000000000000E007F81FC2
:1050F0001C380E70066003C003C003C003C003C0A9
:1051000003C003C006600E701C38F81FE0070000E3
:10511000000000000000000000000000FC0FFC1F69
:105120000C380C300C300C300C300C18FC1FFC0709
:105130000C000C000C000C000C000C000C0000001B
:10514000000000000000000000000000E007F81F61
:105150001C380E70066003E003C003C003C003C028
:1051600003C007E006630E3F1C3CF83FE0F700C0B9
:10517000000000000000000000000000FE0FFE1F05
:1051800006380630063006300638FE1FFE070603D6
:105190000606060C061806180630063006600000E3
:1051A000000000000000000000000000E003F80F15
:1051B0001C0C0C180C180C001C00F803E00F001E4F
:1051C0000038063006300E301C1CF80FE0070000D7
:1051D000000000000000000000000000FE7FFE7FD5
:1051E00080018001800180018001800180018001B7
:1051F0008001800180018001800180018001000028
:105200000000000000000000000000000C300C3026
:105210000C300C300C300C300C300C300C300C30AE
:105220000C300C300C300C301818F81FE007000060
:1052300000000000000000000000000003600630D5
:10524000063006300C180C180C18180C180C380EF8
:1052500030063006700760036003C001C001000023
:105260000000000000000000000000000360C361B7
:10527000C361C36166336633663366336633663350
:105280006C1B6C1B6C1B2C1A3C1E380E380E00005D
:105290000000000000000000000000000FE00C70A3
:1052A00018303018700C600EC00780038003C003F4
:1052B000E006700C301C18180C300E6007E000007F
:1052C00000000000000000000000000003C00660B5
:1052D0000C301C383818300C6006E007C003800121
:1052E0008001800180018001800180018001000037
:1052F000000000000000000000000000FC7FFC7FB8
:10530000006000300018000C000600038001C0009F
:105310006000300018000C000600FE7FFE7F0000D9
:10532000000000000000000000000000E003E003B7
:10533000600060006000600060006000600060006D
:10534000600060006000600060006000600060005D
:1053500060006000E003E003000000003000300067
:10536000600060006000C000C000C000C00180019B
:105370008001800100030003000300060006000016
:10538000000000000000000000000000E003E00357
:1053900000030003000300030003000300030003F5
:1053A00000030003000300030003000300030003E5
:1053B00000030003E003E003000000000000C00160
:1053C000C00160036003600330063006180C180C3F
:1053D00000000000000000000000000000000000CD
:1053E00000000000000000000000000000000000BD
:1053F00000000000000000000000000000000000AD
:10540000000000000000000000000000FFFFFFFFA0
:105410000000000000000000000000000C000C0074
:105420000C000C000C000C0000000000000000004C
:10543000000000000000000000000000000000006C
:10544000000000000000000000000000000000005C
:10545000000000000000F003F8071C0C0C0C000F0B
:10546000F00FF80C0C0C0C0C1C0FF80FF0180000CF
:1054700000000000000000000000000018001800FC
:10548000180018001800D803F80F380C181818184E
:105490001818181818181818380CF80FD803000026
:1054A00000000000000000000000000000000000FC
:1054B000000000000000C003F007300E180C1800B8
:1054C000180018001800180C300EF007C003000078
:1054D000000000000000000000000000001800189C
:1054E000001800180018C01BF01F301C18181818DE
:1054F0001818181818181818301CF01FC01B0000B6
:10550000000000000000000000000000000000009B
:10551000000000000000C003F00F300C1818F81F46
:10552000F81F180018003818301CF00FC0070000D2
:10553000000000000000000000000000800FC00F0D
:10554000C000C000C000F007F007C000C000C000ED
:10555000C000C000C000C000C000C000C00000000B
:10556000000000000000000000000000000000003B
:10557000000000000000E00DF80F180E0C0C0C0CE1
:105580000C0C0C0C0C0C0C0C180EF80FE00D000C95
:105590000C0C1C06F807F0010000000018001800B1
:1055A000180018001800D807F80F381C1818181819
:1055B000181818181818181818181818181800009B
:1055C000000000000000000000000000C000C0005B
:1055D000000000000000C000C000C000C000C0000B
:1055E000C000C000C000C000C000C000C00000007B
:1055F000000000000000000000000000C000C0002B
:10560000000000000000C000C000C000C000C000DA
:10561000C000C000C000C000C000C000C000C0008A
:10562000C000C000F8007800000000000C000C0072
:105630000C000C000C000C0C0C060C038C01CC00B4
:105640006C00FC009C018C030C030C060C0C00008D
:10565000000000000000000000000000C000C000CA
:10566000C000C000C000C000C000C000C000C0003A
:10567000C000C000C000C000C000C000C0000000EA
:10568000000000000000000000000000000000001A
:105690000000000000007C3CFF7EC7E383C183C1A3
:1056A00083C183C183C183C183C183C183C100001E
:1056B00000000000000000000000000000000000EA
:1056C0000000000000009807F80F381C1818181880
:1056D000181818181818181818181818181800007A
:1056E00000000000000000000000000000000000BA
:1056F000000000000000C003F00F300C181818184C
:105700001818181818181818300CF00FC0030000DB
:105710000000000000000000000000000000000089
:10572000000000000000D803F80F380C18181818F3
:105730001818181818181818380CF80FD80318006B
:1057400018001800180018000000000000000000F9
:10575000000000000000C01BF01F301C18181818B3
:105760001818181818181818301CF01FC01B00182B
:1057700000180018001800180000000000000000C9
:10578000000000000000B007F0037000300030009F
:1057900030003000300030003000300030000000B9
:1057A00000000000000000000000000000000000F9
:1057B000000000000000E003F003380E180C380071
:1057C000F003C007000C180C380EF007E0030000CF
:1057D0000000000000000000000000000000800049
:1057E000C000C000C000F007F007C000C000C0004B
:1057F000C000C000C000C000C000C007800700009B
:105800000000000000000000000000000000000098
:105810000000000000001818181818181818181898
:105820001818181818181818381CF01FE01900005C
:105830000000000000000000000000000000000068
:105840000000000000000C18180C180C180C300692
:1058500030063006600360036003C001C001000031
:105860000000000000000000000000000000000038
:10587000000000000000C141C141C3616363636374
:1058800063633636363636361C1C1C1C1C1C000066
:105890000000000000000000000000000000000008
:1058A0000000000000001C38381C300C600660034B
:1058B0006003600360036006300C381C1C38000075
:1058C00000000000000000000000000000000000D8
:1058D0000000000000001830301830187018600CFC
:1058E000600CE00CC006C0068003800380038001CA
:1058F0008001C001F0007000000000000000000006
:10590000000000000000FC1FFC1F000C000600034C
:105910008001C000600030001800FC1FFC1F000068
:1059200000000000000000000000000000038001F3
:10593000C000C000C000C000C000C0006000600027
:10594000300060004000C000C000C000C000C000C7
:10595000C000800100030000000000008001800101
:10596000800180018001800180018001800180012F
:10597000800180018001800180018001800180011F
:105980008001800180018001000000006000C000F3
:10599000C0018001800180018001800100030003BB
:1059A0000006000300018001800180018001800168
:1059B0008001C00060000000000000000000000046
:1059C00000000000000000000000F010F81F080FA9
:1059D00000000000000000000000000000000000C7
:1059E0000000000000000000000000001C5B000838
:1059F000000000204C00000014020008685B000852
:105A00004C00002064080000300200081001000073
:105A100043000000F8FFFFFF00404040404040408E
:105A20004040414141414140404040404040404071
:105A30004040404040404040400502020202020215
:105A40000202020202020202022020202020202064
:105A50002020200202020202020290909090909078
:105A60001010101010101010101010101010101036
:105A700010101010020202020202888888888888AA
:105A80000808080808080808080808080808080896
:105A9000080808080202020240000000000000009E
:105AA00000000000000000000000000000000000F6
:105AB00000000000000000000000000000000000E6
:105AC00000000000000000000000000000000000D6
:105AD00000000000000000000000000000000000C6
