:020000040800F2
:100000005837002099020008934400081F37000861
:100010009144000845150008274E00080000000024
:10002000000000000000000000000000AB470008D6
:10003000471500080000000095440008AD4700087F
:10004000B3020008B3020008B3020008B3020008BC
:10005000B3020008B3020008B3020008B3020008AC
:10006000B3020008B3020008B3020008B30200089C
:10007000B3020008B3020008B3020008B30200088C
:10008000B302000800000000B3020008B302000839
:10009000B3020008B3020008B3020008B30200086C
:1000A000B3020008B3020008B3020008B30200085C
:1000B000B3020008B3020008B3020008B30200084C
:1000C000B3020008B3020008B3020008B30200083C
:1000D000B3020008B3020008B3020008B30200082C
:1000E000B3020008B3020008B3020008B30200081C
:1000F000B3020008B3020008B302000800000000C9
:1001000000000000B302000800000000B302000875
:10011000B302000800000000294800083548000824
:10012000B3020008B3020008B3020008B3020008DB
:10013000B30200080000000000000000B302000845
:10014000B3020008B3020008000000000000000035
:10015000000000000000000000000000000000009F
:10016000000000000000000000000000B3020008D2
:10017000B3020008000000000000000000000000C2
:1001800000000000B30200080000000000000000B2
:10019000000000000000000000000000000000005F
:1001A0000000000000000000B3020008B3020008D5
:1001B000B3020008B3020008B30200080000000008
:1001C00000000000B3020008000000000000000072
:1001D000B3020008B302000800F002F800F04CF887
:1001E0000AA090E8000C82448344AAF10107DA4592
:1001F00001D100F041F8AFF2090EBAE80F0013F098
:10020000010F18BFFB1A43F0010318476461000097
:1002100084610000103A24BF78C878C1FAD8520728
:1002200024BF30C830C144BF04680C607047000070
:100230000023002400250026103A28BF78C1FBD8EF
:10024000520728BF30C148BF0B607047662904F0D1
:100250005387642900F05480002070471FB504F0D4
:1002600046FF00F0C1FB04000020002104F0B2FEB4
:10027000E0601FBD10B510BD00F0B6FC1146FFF7E1
:10028000EDFF04F064FE00F0D4FC03B4FFF7F2FFCE
:1002900003BC00F017FD00000948804709480047EB
:1002A000FEE7FEE7FEE7FEE7FEE7FEE7FEE7FEE726
:1002B000FEE7FEE704480549054A064B7047000083
:1002C0000D480008D9010008583100205837002097
:1002D00058330020583300200FB41CB5074B06AA32
:1002E0007B4469460090059800F065FB0020694654
:1002F00000F074FB1CBC5DF814FB0000F906000064
:100300002DE9F0410646002410687529314616A5EE
:1003100010D0AFF30080002802DA404213A507E0B6
:1003200031688A0701D512A502E0490704D511A555
:10033000012401E0AFF3008000210A2206F1240726
:1003400009E0B0FBF2FCB0FBF2F302FB1C00303022
:1003500078541846491C0028F3D123462A463046D3
:10036000BDE8F04100F0B9B8000000002D00000029
:100370002B000000200000002DE9F0474FF0000A9C
:1003800089460446C0F820A02046E1688847002836
:1003900076D0252806D0D4E901219047206A401C58
:1003A0002062F1E7E168204600258847C4F81CA0D8
:1003B00006460027C4F818A02A2E09D0304604F0BB
:1003C0005BFD38B304EB8708303EC8F8186019E0CD
:1003D00059F8041B204604EB87029161E1688847C5
:1003E000012F064618D1E069002820DA25F0200503
:1003F0001DE0D8F8180000EB800006EB4000303814
:10040000C8F818002046E1688847064604F034FD25
:100410000028EED1012F0AD02E2E08D12046E16807
:1004200088477F1C0646022F45F02005C4DBA069E3
:10043000002803DA404245F00105A061E80701D039
:1004400025F01005B6B1A6F14100192802D82036D2
:1004500045F400654A463146204625604D46FFF783
:10046000F5FE58B1012806D0ED1D25F0070000F17A
:10047000080989E704E005F1040985E730468AE7C1
:10048000206ABDE8F0874FF0000200B5134694469D
:100490009646203922BFA0E80C50A0E80C50B1F1DC
:1004A0002001BFF4F7AF090728BFA0E80C5048BFF0
:1004B0000CC05DF804EB890028BF40F8042B08BF8E
:1004C000704748BF20F8022B11F0804F18BF00F88A
:1004D000012B70477047704770472DE9F0470D4674
:1004E00099469246044600F124080168880604D51E
:1004F000E06921F01001216000E00120A84201DD47
:10050000471B00E00027A1697A1902EB0900081ACD
:10051000A0612078C00602D42046AFF300800026F8
:1005200008E0D4E901211AF806009047206A401C2F
:10053000761C20624E45F4DB2078C0060AD52046A2
:10054000AFF3008006E0D4E9012130209047206A13
:10055000401C2062381EA7F10107F4DC07E0D4E953
:10056000012118F805009047206A401C2062281ECF
:10057000A5F10105F3DC2046AFF3008020780006EA
:1005800002D50220BDE8F0870120FBE770472DE986
:10059000FF4F0C461E464FF0FF378BB0D2E90001EB
:1005A000DDF860800A908A46C1F30A5505B93D46D8
:1005B000002108464FF00000BAF1000F00F440009F
:1005C00005DA00EB80004FF4400101EA50004FEAE9
:1005D0009059B9F1010F00DDB9460A9850EA4A0076
:1005E0000ED044F61050A5F2FF3545432F14B8F154
:1005F000000F1ED07542291E1EDDC9F100021CE04D
:10060000B8F1010F4FF0000001D0302103E0F243B8
:1006100005E02154401CB042FBDB304600220021A3
:1006200021540B99C1F80880C1E900200FB0BDE842
:10063000F08FBD1B6D1CDEE74A4600DA694206A852
:1006400000F05CFA06AB93E8070003AB83E8070011
:1006500050460A9900F03DFB8DE80700A0F50050D8
:100660001F3800900398002D0ADD42F21F014A4610
:100670000844002303A90390684600F0A6FD09E0A2
:10068000A0F500504A461F38002303A9039068468E
:1006900000F0B0FD8DE807000004000C03D04FF01F
:1006A000FF30410800E01046B8F1000F03D00022EF
:1006B000009215461EE0751E05D400F099F93032FF
:1006C00062556D1EF9D5B3460122084302D00022BF
:1006D0007F1C04E02078302801D100227F1E002AF0
:1006E000099784D01DE0112D07DA00F081F930322E
:1006F00062556D1C50EA0102F5D1084302D0009802
:10070000C8B10EE00021681E05E0235C625C635402
:100710002254401E491C8142F7DBAB46A81B401EF9
:100720000990002004F80B000B98099AC0F8088083
:10073000C0E9002B7AE711264FF0000857E72DE9B2
:10074000F04F88460446D21D22F0070191B0D1E94E
:100750000001CDE90A0104F067FB02460B98C00FC7
:1007600001D02D2007E02068810701D52B2002E071
:10077000202101EAC000032A099001D0072A05DBE5
:1007800003464146204600F079F90BE120788006C7
:1007900001D5E06900E00620B8F1650F814606D07A
:1007A000B8F1660F18D0B8F1670F70D131E00020B2
:1007B000B9F1110F009001DB112301E009F10103F0
:1007C0000AAA01A90CA8FFF7E2FEDDE90C700026D9
:1007D00009F10105834647E001204B4600904FF0A8
:1007E00000470AAA01A90CA8FFF7D1FEDDE90DB068
:1007F0000C995D46002610B909F101000D18B9EBFE
:10080000050003D4C0F1FF3609F10105A5EB09008D
:100810002BE0B9F1010F01DA4FF001090020B9F125
:10082000110F0090484601DD112300E003460AAA9B
:1008300001A90CA8FFF7ABFEDDE90C704D460026C0
:100840008346207800070AD4AB4500DA5D4601A84C
:10085000012D04DD411911F8011C302907D04F4545
:1008600002DA17F1040F04DA012082460FE06D1E50
:10087000EEE7002F02DCED1B3E4403E0781CA842AB
:1008800000DD7D1CB81B00F1010A4FF00047207805
:10089000000703D4AA4501DB4FF0FF3A0021B7F16E
:1008A000004F0DF143088DF8431024D002202B2374
:1008B000002F01DA7F422D230A21021EA0F1010040
:1008C00000DC5FB197FBF1FC97FBF1F201FB1C7CB4
:1008D00017460CF1300C08F801CDEEE7A8F1010045
:1008E00003702188090501D5452100E06521A0F1AB
:1008F000010800F8011C09980FA9A1EB0807FF1DCA
:1009000000B10120411901EBEA70A1693844081ACD
:10091000401EA0612078C00602D42046AFF30080BC
:10092000099828B1D4E901219047206A401C20622F
:100930002078C00622D52046AFF300801EE0002EAE
:1009400004DBB34502DD01A8805D00E03020D4E97E
:1009500001219047206A401C2062761CAAF1010008
:100960005FEA000A0AD100F03FF8C0680168405C05
:10097000D4E901219047206A401C2062281EA5F17D
:100980000105DCDC07E0D4E9012118F8010B9047F0
:10099000206A401C2062381EA7F10107F3DC2046C4
:1009A000AFF30080032011B041E6000001694A1C4A
:1009B00002610878704700B58FB0CDE901310021A0
:1009C000059105497944CDE9031011466846FFF7C2
:1009D000D3FC0FB000BD0000E5FFFFFF0A6802F87E
:1009E000010B0A6070470000004870471431002076
:1009F00030B5B0F10A024FEA900E71F100034EEAF1
:100A0000817EB0EB0E0061EB91014FEA101E4EEAC1
:100A1000017E10EB0E0041EB11114FEA102E4EEA51
:100A2000016E10EB0E0041EB11214FEA104E4EEA21
:100A3000014E10EB0E0041EB1141401841F1000155
:100A40004FEAD00040EA41704FEAD10110EB800537
:100A50004FEA810444EA907444EB01046D1944EBBD
:100A60000404521BA3414FF0000348BF0A3200D5D3
:100A700030BD401C41F1000130BD00002DE9F041C6
:100A80001F46044603260168072A01F4006004DBC0
:100A900008B116A505E016A503E008B115A500E00C
:100AA00015A521F010002060A069C01EA0610FB143
:100AB000401EA0612046AFF300804FB1D4E9012170
:100AC00038469047206A401C2062C01C206206E025
:100AD000206AFAE7D4E9012115F8010B9047761E48
:100AE000F8D22046AFF30080BDE8F0814E414E00C1
:100AF0006E616E00494E4600696E66002DE9F04752
:100B0000814616468AB0354878440DC88DE80D00F8
:100B100032487844801C03AC0DC884E80D0041F6CF
:100B20009B300844372190FBF1F290FBF1F5A5F1E1
:100B3000800501FB12041B3C02D56442012000E049
:100B40000020DFF898A080460027FA44AAF1BE0AE8
:100B50000EE0E0070AD03246684607EB4701012362
:100B60000AEB810100F046FB8DE8070064107F1C52
:100B7000002CEED1194F7F44AE3F19E0E80715D0A5
:100B800007EB04100DF1180A90E80E008AE80E0039
:100B9000C068F04201D1981908903246012306A995
:100BA00003A800F027FB03AB83E807006D10641C6B
:100BB000002DE3D14FF0010332466946B8F1000F32
:100BC00003A802D000F001FB01E000F013FBC9E92B
:100BD0000001C9F808200AB0BDE8F0874C580000B1
:100BE00000487047F43000207546FFF7F9FFAE4625
:100BF00005006946534620F00700854618B020B529
:100C0000FFF758FBBDE820404FF000064FF000070B
:100C10004FF000084FF0000B21F00701AC46ACE8A4
:100C2000C009ACE8C009ACE8C009ACE8C0098D4611
:100C3000704710B50446AFF300802046BDE8104071
:100C4000FFF723BB4FF0013C50F8042B51F8043B55
:100C50009A4221D1A2EB0C03934313EACC1317D190
:100C600050F8042B51F8043B9A4215D1A2EB0C0327
:100C7000934313EACC130BD150F8042B51F8043BE7
:100C80009A4209D1A2EB0C03934313EACC13DBD0B5
:100C90004FF00000704700BFD01A01BAB1FA81F1DD
:100CA00001F0180122FA01F0CB40C1F12001DBB2C2
:100CB000C0B2C01A2CFA01F3D11A914311EAC31140
:100CC000E6D1704701491820ABBEFEE726000200BE
:100CD00070475FEA400C08BF91F0000F4FEA8C2389
:100CE0004FEAC12243EA51514FEA1C5018BF00F5A8
:100CF000F0404FEA300018BF41F000415FEA6C5C01
:100D000000F02980BCF1FF3F08BF40F080407047F1
:100D1000130C06BF12044FF0100C4FF0000C130E12
:100D200004BF12020CF1080C130F04BF12010CF1E6
:100D3000040C930F04BF92000CF1020CD30F04BFFC
:100D400052000CF1010C11464FF00002A0F11F00FF
:100D5000A0EB0C00704711F0004F08BF704731F056
:100D600000413FF4D5AF0B0C06BF09044FF0100C47
:100D70004FF0000C0B0E04BF09020CF1080C0B0F16
:100D800004BF09010CF1040C8B0F04BF89000CF1A6
:100D9000020CCB0F04BF49000CF1010CCCF1200375
:100DA000A0EB0C0022FA03F302FA0CF241EA030171
:100DB00000F10100704720F07F4C80EA030023F02F
:100DC0007F47ACEB070303F57C5300F0004003F1D1
:100DD000FF032DE980494FEA154B09B44FEA14434C
:100DE00025EA0B4E24EA03480FF2042606EB1327EC
:100DF00049083E785FEA320203FB0667C7F5000741
:100E000007FB06F64FEA54374FEAD64606F10206CC
:100E100007FB066CCCF1005C4FEA1C472CEA074C40
:100E200007FB06F40CFB06F504EB15464FEA961695
:100E300034BF00204FF000404FEAD13706FB07FCDB
:100E40004FEA1C4C0CFB0BF7D21B03FB0CF761EBBE
:100E500007010CFB0EF7B0EB074072EB17420CFBDF
:100E600008F734BFA2EB0742B2EB074261EB174130
:100E70004FEA0C444FEA910706FB07FC4FEA1C4C73
:100E80000CFB0BF7B0EBC74072EB573203FB0CF7D0
:100E900034BFA2EBC742B2EBC74261EB57310CFB48
:100EA0000EF7B0EBC70072EB57720CFB08F734BFBC
:100EB000A2EBC702B2EBC70261EB5771039F4FEA87
:100EC000816141EA921104EBCC044FEAD1374FEA39
:100ED000826206FB07FC42EA90124FEA80604FEA0A
:100EE0001C4C0CFB0BF7D21B03FB0CF761EB07014F
:100EF0000CFB0EF7B0EB074072EB17420CFB08F748
:100F000034BFA2EB0742B2EB074261EB17414FEA55
:100F10008C554FEA910704EB9C2406FB07FC4FEA33
:100F20001C4C0CFB0BF7B0EBC74072EB573203FBCA
:100F30000CF734BFA2EBC742B2EBC74261EB5731AB
:100F40000CFB0EF7B0EBC70072EB57720CFB08F707
:100F500034BFA2EBC702B2EBC70261EB577115EBCE
:100F60004C254FEA816141EA92114FEA82624FEAD1
:100F7000D13742EA901206FB07FC44F100044FEA25
:100F800080604FEA1C4C0CFB0BF7D21B03FB0CF7E9
:100F900061EB07010CFB0EF7B0EB074072EB174259
:100FA0000CFB08F734BFA2EB0742B2EB074261EB40
:100FB000174115EB1C154FEA813141EA92414FEA86
:100FC000823242EA90424FEA80304FEA0C7644F196
:100FD000000448EA03434EEA0B484FF0000EB2EB20
:100FE000080C71EB030724BF624639464EEB0E0E28
:100FF0004FF0000B0018524149414BEB0B0BB2EB89
:10100000080C71EB03077BF1000B24BF62463946E5
:101010004EEB0E0E4FF0000B0018524149414BEBC6
:101020000B0BB2EB080C71EB03077BF1000B24BF39
:10103000624639464EEB0E0E51EA020718BF46F0E3
:10104000010616EB0E7655F1000254F1000103D5AE
:10105000BDE88901BDE80088BDE88901BDE8004818
:10106000B619524141EB0101A3F1010370478080A1
:101070007F7E7D7C7B7A79787776767574737271F2
:1010800071706F6E6E6D6C6C6B6A6A6968686766AA
:1010900066656464636362616160605F5F5E5E5D3C
:1010A0005D5C5C5B5B5A5A595958585757565655B0
:1010B00055555454535352525251515050504F4F12
:1010C0004F4E4E4D4D4D4C4C4C4B4B4B4A4A4A4962
:1010D00049494848484747474746464645454544A5
:1010E0004444444343434342424242414141002B32
:1010F0009C4630D477002BD01CB54FEA370703B499
:101100004FF010004FF01001BAF1000F06D0BCF103
:10111000000FDCBF40F0080040F008014FF0000075
:101120000FBCBDE810400BF1010BBBF1010F08BF74
:101130005FEA170722BF12F1010211F101014FF01E
:10114000004143F1000300F0004043EA0000704713
:10115000F9D35708D0E746EA064613F1400F4FEAA5
:1011600016461FDD13F1200FDFBF16430A4600218C
:1011700020335B42BED0C3F1200746EA064602FA9E
:1011800007F74FEA164646EA0706C3F1200722FA98
:1011900003F201FA07F721FA03F14FF0000342EAE4
:1011A0000702A7E746EA020646EA06464FEA16465F
:1011B00046EA0106BCBF46EA0646360C4FF000037D
:1011C0004FF000024FF0000194E72DE9804C9A4661
:1011D000934670B491E8380007C831EA400C48BF24
:1011E00034EA430C03D5FFF7E6FDFFF780FFF0BCC0
:1011F000BDE8008C2DE9804C9A46934670B491E886
:10120000380007C810F0804F08BF13F0804F03D19B
:1012100000F005F8FFF76BFFF0BCBDE8008C20F094
:101220007F4780EA030023F07F4C07EB0C03A3F514
:101230007C5300F00040A3F1FE0392F0000F00F099
:10124000B38095F0000F00F077802DE901494FEA57
:1012500011404FEA144621EA004800FB06FC24EA4C
:10126000064708FB06F607FB08F800FB07F718EB34
:1012700006484CEB164C4FEA124B18EB07484FEA66
:1012800015464CEB174022EA0B4E0BFB06FC25EAF9
:1012900006470EFB06F607FB0EFE0BFB07F71EEBE1
:1012A000064E4CEB164C4FF000061EEB074E4CEB77
:1012B000174B18EB0B0840F1000018EB0E0B58EB26
:1012C000000840F100008F1A4FF000013CBFC943F5
:1012D000661B14BFB5EB040C00213CBFC943F61BD1
:1012E0004FEA17444EEA8E0E27EA04454FEA1C47A0
:1012F00004FB07622CEA074C05FB07F70CFB05F61D
:1013000004FB0CFC16EB074642EB174216EB0C46AF
:1013100042EB1C421BEB060658EB0202414146EA37
:101320009E0601D5BDE80189B619524141EB010184
:10133000A3F10103BDE801894FEA14454FEA1147C3
:1013400024EA054621EA074C05FB07F406FB07F7EC
:101350000CFB06F105FB0CFC11EB074144EB1744B9
:101360004FEA124711EB0C4144EB1C4422EA074CB4
:1013700005FB07F206FB07F70CFB06F605FB0CFC6A
:1013800016EB074642EB174216EB0C4642EB1C45A8
:101390006A1854F1000148BF7047B619524141EB39
:1013A0000101A3F10103704795F0000F37D04FEA18
:1013B00011424FEA144721EA024624EA074C02FB95
:1013C00007F106FB07F70CFB06F402FB0CFC14EB21
:1013D000074441EB17414FEA154714EB0C4441EB2E
:1013E0001C4125EA074C02FB07F506FB07F70CFB3F
:1013F00006F602FB0CFC16EB074645EB174516EB11
:101400000C4645EB1C42121951F1000148BF7047D0
:10141000B619524141EB0101A3F1010370474FEAB4
:1014200014454FEA114724EA054621EA074C05FB1B
:1014300007F106FB07F70CFB06F24FF0000605FB71
:101440000CFC12EB074241EB174112EB0C4251EB43
:101450001C4148BF7047921841EB0101A3F1010301
:1014600070470000F8B504460020009020688168AD
:1014700011F0010F41D18168214A11422ED18168BA
:10148000D5432940491C81601E48806800F0E07007
:1014900000020DD51C481D490068B0FBF1F0401C4E
:1014A00000EB4000800000E0401E00900028FBD1CF
:1014B00000F09CFD06461BE0816811F0010F03D18E
:1014C00081682940491C816000F090FD801B022842
:1014D0000ED920680068C043C00709D0E06D40F015
:1014E0001000E065206E40F0010020660120F8BD8C
:1014F00020680168C943C907DED10020F8BD00009B
:101500003F000080000300500C000020400D03004D
:1015100010B5044600F0B0FB204600F073FA80B22C
:1015200000EE100ADFED050AB8EE400A20EE200AB0
:10153000DFED030A20EE200A10BD000033335340D4
:1015400000008037FEE77047002240F6B83306E01F
:101550000021491C89B29942FBD3521C92B28242AB
:10156000F6D370477047000010B504212DED028BB3
:10157000164802F093F81649401CB1FBF0F0154CE8
:101580000021A060114802F089F8401C00EE100A0A
:10159000DFED110A0421B8EE400A0C4820EE208A43
:1015A00002F07CF8401C00EE100A0C48B8EE400A2D
:1015B000C8EE000ABDEEE00A84ED030AFFF7A8FFBB
:1015C00084ED040ABDEC028B10BD0000D0000020A9
:1015D00040420F00180000200000C84264000020B4
:1015E0002DE9F84F00270446009790F85800DFF8DF
:1015F000E0930D46B846012811D0012684F85860C2
:10160000206802F0EBFC60B1E06D40F02000E06586
:101610005FF0010784F858803846BDE8F88F022053
:10162000FBE7D5E900210C23206803EA9113184455
:10163000036B01F01F014FF01F0C0CFA01FCC2F309
:10164000846223EA0C038A4013430363206802F098
:10165000C5FC8246206802F0BDFC5AEA00003CD17D
:10166000AA6829682068B2F1004F37D002F0BAFCAE
:101670002068416921F00041416120686969C268C0
:10168000C2F3C102520091402A69042A31D000EB12
:1016900082002B68026EDFF83CC303F0F84302EAD5
:1016A0000C020B431A4342F00041016620682A698C
:1016B000A96900EB8200026E22F080720A43026682
:1016C000297F22682869012910D0002102EB8000BF
:1016D000026E22F000720A4302667DE0002202F0F0
:1016E00081FC2068416941F00041C5E74FF000717D
:1016F000ECE7002102F068FC400320684FF0000195
:1017000072D002F061FC90FAA0F0B0FA80F1286883
:1017100042036ED090FAA0F0B0FA80F0814204D17A
:1017200000221146206802F06CFC0121206802F0C2
:101730004BFC400320684FF001015DD002F044FCF7
:1017400090FAA0F0B0FA80F12868420359D090FADC
:10175000A0F0B0FA80F0814204D10022012120687B
:1017600002F04FFC0221206802F02EFC40032068AA
:101770004FF0020148D002F027FC90FAA0F0B0FA36
:1017800080F12868420344D090FAA0F0B0FA80F0CB
:10179000814204D100220221206802F032FC0321A0
:1017A000206802F011FC400320684FF0030133D0A1
:1017B00002F00AFC90FAA0F0B0FA80F12868420327
:1017C0002FD090FAA0F0B0FA80F0814204D100222C
:1017D0000321206802F015FC2068816811F0010FD8
:1017E00022D0ACE000E004E002F0EEFBC0F3846144
:1017F0008DE7C0F3846091E702F0E6FBC0F38461FB
:10180000A2E7C0F38460A6E702F0DEFBC0F38461C8
:10181000B7E7C0F38460BBE702F0D6FBC0F3846196
:10182000CCE7C0F38460D0E72A7B296850F8B03F4A
:10183000C1F3120C23EA0C0302F0180C664A22FAD8
:101840000CF20A4013430360E968494577D12868E0
:1018500041031CD090FAA0F1B1FA81F1491C01F0CA
:101860001F0109294FEA403132D8002912D000BFA8
:1018700090FAA0F1B1FA81F101F1010101F01F012B
:1018800006FA01F609D100BFC0F3846109E0C0F394
:101890008461E3E7C0F38461EEE790FAA0F1B1FA66
:1018A00081F101F1010101F01F0146EA816102D1DC
:1018B000C0F3846003E090FAA0F0B0FA80F000F189
:1018C000010000F01F0000EB400041EA005132E04F
:1018D00000290ED090FAA0F1B1FA81F101F10101D5
:1018E00001F01F0106FA01F606D100BFC0F38461C2
:1018F00006E0C0F38461F1E790FAA0F1B1FA81F15A
:1019000001F1010101F01F0146EA816102D1C0F33A
:10191000846003E090FAA0F0B0FA80F000F10100DA
:1019200000F01F002D4A00EB400002EB005041EA9E
:10193000000141F00071AA68206802F053FB2848BA
:101940002A6802423FF466AE26488168264B01F0C1
:10195000E0719A4202D0254B9A421CD10B021AD454
:101960002268B2F1A04F7FF455AE826841F40001C5
:1019700022F0E0720A4382601D481E490068B0FBF5
:10198000F1F0401C00EB4000800000E0401E0090A1
:101990000028FBD13EE6184D184BAA4207D1CD01D5
:1019A00005D422689A42F5D041F0807109E0144DC7
:1019B000AA42EFD14A02EDD422689A42EAD041F419
:1019C0008001826822F0E0720A43826022E6000011
:1019D00000007F4000F0FF03FFFF0700000020FE33
:1019E0000000088000030050000021C31000C090D8
:1019F0000C000020400D0300000052C70001005001
:101A0000000084CB0068006C70470000F8B54FF010
:101A1000000504002E46009502D0E06D10B107E0ED
:101A20000120F8BD204600F0EBF8266684F85860E7
:101A300020688168C1F3407119B18168684A11401A
:101A4000816020688168C1F3007189B98168654A45
:101A5000114041F080518160634864490068B0FBE7
:101A6000F1F04000801C00E0401E00900028FBD1F7
:101A700020688168C1F3007141B9E16D41F0100146
:101A8000E165216E41F001012166012502F0A6FA0F
:101A9000E16DC90600D430B1E06D40F01000E065A2
:101AA00001252846F8BDE06D20F4807040F002006A
:101AB000E0652068806810F0010F11D14FF0A04060
:101AC00080684B4900F00100896801F0010108437A
:101AD00006D148486168826822F47C120A43826019
:101AE000E168E06B627F0843A16841EA4231084344
:101AF00094F8241040EA0140012904D1218D3E4A86
:101B000002EB41410843E16A29B101F47871226B8B
:101B1000014342EA01002268D168384B1940014371
:101B2000D16020680169626B21F04061114301615D
:101B3000206802F04FFA70BB207F94F838108003C1
:101B400040EA41022168C86844F202039843104306
:101B5000C86020690028206801690AD041F48031FA
:101B60000161206850F8C01F22696FF30D01114315
:101B700007E021F480310161206850F8C01F6FF345
:101B80000D01016094F8400001280CD02068016923
:101B900021F001010161606901282068016B21F0D9
:101BA0000F0111D013E0D4E911010843D4E9131255
:101BB0001143084321680A6940F2FC739A431043B9
:101BC00040F001000861E6E7226A521E11430163FA
:101BD000E06D20F0020040F00100E06561E70000E8
:101BE000C0FFFF5FC0FFFF7F0C000020400D03001F
:101BF00000010050000300500000FEFF0740F0FF0E
:101C000010B598B00446142111A8FEF73CFC4421FD
:101C10006846FEF738FC15492068884223D1C40184
:101C2000400500940F90684600F0DEFA08B1FFF717
:101C300099FC0F48C16C41F40051C164C16C01F4BE
:101C400000511691C16C41F00201C164C06C11A930
:101C500000F0020016900320CDE9114000201390FF
:101C6000044800F095F818B010BD000000010050C5
:101C700000100240000400482DE9F04104463848B5
:101C8000806800F01F05206802F0A8F918B1022151
:101C90000846BDE8F08194F8580001280CD00120D6
:101CA00084F858002046FFF7DDFB01004FF00003E9
:101CB00004D084F85830EBE70220EAE7E06D40F604
:101CC0000162904340F48070E065264A20684FF03E
:101CD000A046904201D1374600E00746874200D037
:101CE0001DB9E76D27F48017E765E76DFF0404D59C
:101CF000276E27F00607276600E023661C2707608B
:101D000084F858302068904201D1334600E0034601
:101D1000834215D0A5B1052D12D0092D10D0E36D49
:101D200043F48013E365904200D13046C0688001DF
:101D3000AED5E06D20F4005040F48050E065A7E798
:101D4000C268920105D5E26D22F4005242F480523D
:101D5000E2658268044B1A40121D826098E7000019
:101D60000003005000010050C0FFFF7F70B5044623
:101D700000F03CF90546601C02D004484068044469
:101D800000F034F9401BA042FAD370BD00000020DF
:101D90002DE9F04FDFF82092002301260324A9F15A
:101DA000040B85B00F2709F1040AABF1040EFAE029
:101DB00006FA03F52A407CD091F804C00CF0030C1D
:101DC000BCF1010F02D0BCF1020F26D1D0F808C03F
:101DD000CDF800C04FEA430C04FA0CF8CDF810C05F
:101DE000DDF800C02CEA080CCDF800C0D1F80C805A
:101DF000DDF810C008FA0CF8DDF800C048EA0C085D
:101E0000C0F80880D0F804C02CEA050C0D79C5F3A1
:101E100000159D4045EA0C0545600D79ED43AD0781
:101E20000ED0C5684FEA430804FA08FC25EA0C0501
:101E3000D1F808C00CFA08FC4CEA050CC0F80CC03C
:101E40000D7905F00305022D16D1DD0800EB850C98
:101E5000CDF808C0DCF820805D074FEAD56C07FAA2
:101E60000CF528EA05080D6905FA0CF5DDF808C03F
:101E700045EA0805CCF8205005684FEA430CCDF838
:101E800008C004FA0CFC25EA0C0591F804C00CF01B
:101E90000308DDF808C008FA0CF848EA0508C0F89D
:101EA00000804D6815F4403F7CD0444DD5F860C0AB
:101EB00000E077E04CF0010CC5F860C02D6E23F017
:101EC000030C05F0010500953D4D65440295AD6894
:101ED0004FEA837C4FEA1C7807FA08FC25EA0C05D8
:101EE000B0F1904F06D0DFF8DCC0604505D14FF06F
:101EF000010C20E04FF0000C1DE0DFF8CCC0604585
:101F000002D14FF0020C16E0DFF8C0C0604502D1EC
:101F10004FF0030C0FE0DFF8B8C0604502D14FF07E
:101F2000040C08E0DFF8ACC0604502D14FF0050CAE
:101F300001E04FF0060C0CFA08FC4CEA050C029D7F
:101F4000C5F808C0D9F80050CC46D1F804809543B4
:101F50005FEAC82800D51543CCF80050DAF80050E5
:101F6000D446D1F8048095435FEA882800D515430C
:101F7000CCF80050DBF80050DC46D1F804809543E3
:101F80005FEA883800D51543CCF80050DEF80050E1
:101F9000F446D1F8048095435FEAC83800D515436C
:101FA000CCF800505B1C0A6832FA03F57FF400AFEE
:101FB00005B0BDE8F08F00000804014000100240A9
:101FC000000001400004004800080048000C0048E0
:101FD00000100048001400480069084000D00120AB
:101FE00070470AB18161704781627047014880681B
:101FF00070470000000000200248816842681144D8
:10200000816070470000002010B50024032000F01C
:1020100073F8002000F008F808B1012401E000F096
:1020200025F8204610BD000070B50E4E0546002470
:10203000706898B14FF47A71B1FBF0F00A49096801
:10204000B1FBF0F000F03CFD40B9102D06D20022AB
:102050002946501E00F030F8356000E0012420468B
:1020600070BD0000000000200C0000200A4882B073
:10207000016E41F001010166016E01F00101009164
:10208000816D41F080518165806D00F0805000903D
:1020900002B000F0A1B8000000100240002809DBE7
:1020A00000F01F02012191404009800000F1E02072
:1020B000C0F8001170470000F0B40E4B1B680C46CE
:1020C000C3F30223C3F10705042D00D90425191D0C
:1020D000072901D2002300E0DB1E012606FA05F1E4
:1020E000491E214099409E40761E16403143F0BC67
:1020F00002F0B2BE0CED00E0064900F007020868ED
:102100004FF6FF03184040EA0220034A10430860DC
:10211000704700000CED00E00000FA052B492C4B45
:102120000A6832214A432B4940B1B0F5007F086864
:1021300029D020F4C06040F480602CE00868C0F32F
:102140004120022804D051F8800F20F4807022E052
:10215000D1F8800020F48070C1F88000086820F475
:10216000C06040F400700860B2FBF3F0401C00E077
:10217000401E4A69520501D50028F9D14869400539
:102180000AD503207047C0F34120022806D051F839
:10219000800F40F48070086000207047D1F8800004
:1021A00040F48070C1F88000086820F4C06040F4FA
:1021B00000700860B2FBF3F0401C00E0401E4A696A
:1021C0005205DBD50028F9D1D8E700000C0000202B
:1021D00040420F00007000400248816841F4804195
:1021E00081607047007000402DE9F84304460068A4
:1021F00000269D4D00035ED5A86D0027C00008D4C1
:10220000A86D40F08050A865A86D012700F08050AF
:102210000090DFF85892D9F8001041F48071C9F8A5
:102220000010FFF7E3FE804606E000BFFFF7DEFE8A
:10223000A0EB080002282BD8D9F80000C005F5D57E
:10224000D5F8900010F4407014D0216C814211D068
:10225000D5F89000D5F8901020F4407041F480310A
:10226000C5F89010D5F8901021F48031C5F8901081
:10227000C5F89000C00711D0FFF7B8FE804641F2C4
:10228000883907E0FFF7B2FEA0EB0801494501D904
:1022900003260BE0D5F890008007F3D5D5F8900021
:1022A000216C20F440700843C5F890001FB1A86D60
:1022B00020F08050A8652078C00707D0D5F88800A6
:1022C000616820F003000843C5F888002078800783
:1022D00007D5D5F88800A16820F00C000843C5F8A0
:1022E00088002078400707D5D5F88800E16820F0FD
:1022F00030000843C5F888002078000707D5D5F8D6
:102300008800216920F0C0000843C5F888002078C3
:10231000800607D5D5F88800616920F4406008433D
:10232000C5F888002078400607D5D5F88800A1694F
:1023300020F440500843C5F888002078000607D5EF
:10234000D5F88800E16920F440400843C5F88800CA
:102350002088C00507D5D5F88800216A20F44030D0
:102360000843C5F888002088800507D5D5F888007F
:10237000616A20F440200843C5F8880020884005A1
:102380000FD5D5F88800A16A20F440100843C5F89D
:102390008800A06AB0F5801F03D1E86840F480107F
:1023A000E860208800050FD5D5F88800E16A20F4A0
:1023B00040000843C5F88800E06AB0F5800F03D1FB
:1023C000E86840F48010E8602088C0040FD5D5F894
:1023D0008800216B20F040700843C5F88800206B0E
:1023E000B0F1807F03D1E86840F48010E860208875
:1023F0004FF0006180040ED5D5F88800626B20F0A4
:1024000040601043C5F88800606B884203D1E868DB
:1024100040F48010E860208840040ED5D5F888008C
:10242000A26B20F040601043C5F88800A06B884282
:1024300003D1E86840F48010E860208800040FD5DC
:10244000D5F88800E16B20F040500843C5F88800BB
:10245000E06BB0F1805F03D1E86840F48030E86061
:102460003046BDE8F88300000010024000700040D4
:102470002DE9F0470E4605004FF0000725D0DFF8A4
:10248000AC81D8F8000000F00F00B0420CD2D8F8B0
:10249000001021F00F013143C8F80010D8F80000F7
:1024A00000F00F00B04210D12968614CC80741F21A
:1024B000883A5AD06868DFF87C91032808D002284F
:1024C00020682DD0400500282CDB0120BDE8F087D6
:1024D00020688001F9D5E06800F00302E068C0F3ED
:1024E0000310401C032A19D0534A00BFB2FBF0F07E
:1024F000E268C2F306225043E268C2F34162521C12
:102500005200B0FBF2F0484517D9A06810F0F00F68
:102510000CD0880711D5A86840B10EE0474AE5E71E
:102520008003D0E700F092F8484506D9A06820F073
:10253000F00040F08000A0608027A068696820F06B
:1025400003000843A060FFF751FD814606E000BF8D
:10255000FFF74CFDA0EB090151453AD8A068696826
:1025600000F00C00B0EB810FF2D12868810714D580
:10257000400703D5A06840F4E060A0602878000719
:1025800005D5A06820F4605040F4E060A060A06829
:10259000A96820F0F000084304E0802F03D1A06870
:1025A00020F0F000A060D8F80010404601F00F01C4
:1025B000B14216D9016821F00F0131430160FFF7E4
:1025C00015FD074607E000BFFFF710FDC11B514591
:1025D00001D903207AE7D8F8000000F00F00B042DC
:1025E000F2D12878400705D5A068E96820F4E060BA
:1025F0000843A0602878000706D5A068296920F460
:10260000605040EAC100A06000F020F8A1680C4AC8
:10261000C1F30311515C01F01F01C8400949086072
:1026200009480068BDE8F047FFF7FEBC0020024003
:102630000010024000B4C4040024F40000366E010F
:10264000FC5000080C00002000000020184910B5C4
:102650008868C0F381021748012A0BD08A68164B9C
:10266000C2F38102022A06D08A68C2F38102032AD9
:1026700003D0002010BD184610BDCA6802F0030444
:10268000CA68C2F30312521C032C02D0B0FBF2F052
:1026900001E0B3FBF2F0CA68C968C2F306225043F6
:1026A000C1F34161491C4900B0FBF1F010BD0000CD
:1026B000001002400024F40000366E012DE9F843BA
:1026C00004007AD02078F84DC00747D0A868E968A0
:1026D00000F00C0001F003010C2802D0082817D0EC
:1026E00001E0032914D06068B0F5803F17D0B0F541
:1026F000A02F286817D020F480302860286820F4A4
:10270000802028606068E0B1FFF770FC064614E0A6
:102710002868800322D560680028D2D01EE028688F
:1027200040F48030EDE740F480202860F7E700BFF8
:10273000FFF75CFC801B642870D828688003F7D5FD
:102740000CE0FFF753FC064605E000BFFFF74EFC28
:10275000801B6428F0D828688003F7D4207880078D
:102760004CD5A868E96800F00C0001F003010C28C2
:1027700002D004280DD001E002290AD0E068002828
:1027800028682BD040F480702860FFF72FFC0646A5
:1027900019E02868400502D5E068002891D06868F3
:1027A000217C20F0FE4040EA01606860BF4800687C
:1027B000FFF73AFC002800D120E072E1FFF716FC99
:1027C000801B0228B8D828684005F7D56868217CA6
:1027D00020F0FE4040EA016068600FE020F4807065
:1027E0002860FFF703FC064605E000BFFFF7FEFB8D
:1027F000801B0228A0D828684005F7D4207800075D
:1028000029D560690028D5F8940013D040F0010064
:10281000C5F89400FFF7EAFB064606E090E000BF2B
:10282000FFF7E4FB801B022886D8D5F894008007C8
:10283000F6D510E020F00100C5F89400FFF7D6FBB4
:10284000064604E0FFF7D2FB801B022878D8D5F8B3
:1028500094008007F6D42078400761D5A86D002643
:10286000C00008D4A86D40F08050A865A86D01266E
:1028700000F0805000908E480168C90511D40168AD
:10288000804641F480710160FFF7B0FB074604E029
:10289000FFF7ACFBC01B022852D8D8F80000C005D7
:1028A000F6D5A068012815D00528D5F8900016D0D7
:1028B00020F00100C5F89000D5F8900020F0040049
:1028C000C5F89000A06841F28838B8B1FFF78EFBD8
:1028D00007460EE0D5F8900040F00100F0E740F028
:1028E0000400C5F89000F5E7FFF780FBC11B4145E8
:1028F00026D8D5F890008007F6D50CE0FFF776FBD8
:10290000074604E0FFF772FBC11B414518D8D5F814
:1029100090008007F6D41EB1A86D20F08050A86505
:102920002078800629D5A0690028D5F8980013D012
:1029300040F00100C5F89800FFF758FB064606E096
:1029400075E000BFFFF752FB801B02286FD8D5F857
:1029500098008007F6D510E020F00100C5F8980037
:10296000FFF744FB064604E0FFF740FB801B02280C
:102970005DD8D5F898008007F6D4E069F0B3A9686F
:10298000C1F3810103295DD00228286820F08070FE
:10299000286003D0FFF72AFB04464BE0FFF726FB35
:1029A000064604E0FFF722FB801B02283FD8286878
:1029B0008001F7D4F4E908016FF00F0202EB011176
:1029C0000843218A5204490802EB4151A26841EAB6
:1029D00002210843217D4FF07E42490802EB41610C
:1029E0000843217B40EAC160E968324A114008434C
:1029F000E860286840F08070286000E05EE0E868E9
:102A000040F08070E860FFF7F1FA044605E000BF8F
:102A1000FFF7ECFA001B022809D828688001F7D5D7
:102A20004CE000BFFFF7E2FA001B022802D90320A6
:102A3000BDE8F88328688001F4D4E8681E4908409E
:102A4000E8603BE00128F3D0E868226A00F0030167
:102A5000914226D1616A00F0F002090110399142D9
:102A60001FD1A26A00F4FE41B1EB022F19D194F8F4
:102A70002C2000F07841B1EBC26F12D1218E00F40E
:102A8000C00249084905A1F50011914209D194F805
:102A9000341000F0C06049084906A1F1007181427C
:102AA0000CD00120C4E7000000100240000000200C
:102AB000007000400C809F01FCFFEEFE0020B7E795
:102AC00010B5401EB0F1807F01D3012010BD4FF042
:102AD000E02460610F21601702F0BEF90020A061C0
:102AE00007202061002010BD70477047704700002C
:102AF00030B590F83C20012A42D0012280F83C20D9
:102B0000CA688B6822F440721A434B6822F48062D0
:102B10001A430B6822F400621A430B6922F48052B4
:102B20001A434B6922F400521A430B6B22F4804281
:102B30001A430B8B22F4702242EA0342CB6922F043
:102B400080521A430F4D03680024AB4202D00E4D51
:102B5000AB4210D10D8D22F4700242EA05520D6A8B
:102B600022F080722A434D6A22F000722A43C96A19
:102B700022F000520A435A6480F83C40002030BDE5
:102B8000022030BD002C01400034014070477047E6
:102B900070470000F0B590F83C20012A3AD001259A
:102BA00080F83C50022280F83D2003685A689C68F7
:102BB000194E1A4FB34201D0BB4204D122F4700C1B
:102BC0004A6842EA0C02DFF858C002EA0C02D1F867
:102BD00000C04CEA020CC3F804C00268B2420DD037
:102BE000B2F1804F0AD00F4B9A4207D00E4B9A4257
:102BF00004D0BA4202D00D4B9A4204D1896824F025
:102C000080031943916080F83D50002180F83C100A
:102C10000846F0BD0220F0BD002C01400034014008
:102C20008FFFFFFD0004004000080040004001400D
:102C3000704710B5040003D094F83D0010B107E0D0
:102C4000012010BD002084F83C00204600F022F84E
:102C5000022084F83D00211D206801F0F1FD0120D3
:102C600084F8480084F83E0084F83F0084F840006F
:102C700084F8410084F8420084F8430084F844005A
:102C800084F8450084F8460084F8470084F83D0045
:102C9000002010BD10B586B0044614216846FDF72B
:102CA000F2FB21682A48B1F1804F11D0294A9142A4
:102CB0002DD1816D41F010018165806D002200F001
:102CC0001000059011463620FFF7F6F936202FE068
:102CD000816D41F001018165816D01F00101059176
:102CE000C16C41F00101C164C06C694600F0010093
:102CF0000590022000900190002002900390012096
:102D000004904FF09040FFF743F806B010BD124A10
:102D1000914210D1816D41F020018165806D0022CA
:102D200000F02000059011463720FFF7C5F9372045
:102D3000FFF7B4F9E9E7094A9142E6D1016E41F49F
:102D400080210166006E00F480200590DDE7000020
:102D500000100240001000400014004000480140F4
:102D600090F83D10012901D001207047022180F820
:102D70003D100168CA6842F00102CA60006810494B
:102D800088420ED0B0F1804F0BD00E49884208D057
:102D90000D49884205D00D49884202D00C4988422D
:102DA00007D181680B4A1140062906D0B1F5803F52
:102DB00003D0016841F0010101600020704700006C
:102DC000002C014000040040000800400034014095
:102DD00000400140070001000168CA6822F00102BA
:102DE000CA6001680A6A41F211131A4207D10A6ADD
:102DF0009B001A4203D10A6822F001020A600121F5
:102E000080F83D100020704770B5044690F83C00F3
:102E10000025012814D0012684F83C60022084F8A3
:102E20003D0022689068364B184020F47F40906047
:102E3000086870282ED010DC10F00F0F03D021E0AE
:102E40004FF0020070BD4FEA2012072A1AD2DFE8C5
:102E500002F0525252524A3840002A4BC21A98424B
:102E600049D009DCB0F5805F0DD0B0F5005F1CD013
:102E7000B0F1101F06D13EE0102A3CD0202A3AD0F3
:102E8000502A38D0012584F83D60002084F83C00A9
:102E9000284670BDCB68D1E90121206801F03BFDD7
:102EA0002068816841F0770109E0CB68D1E9012110
:102EB000206801F030FD2068816841F48041816024
:102EC000E1E7CA684968206801F038FF50212068AE
:102ED00006E0CA684968206801F078FF6021206830
:102EE00001F024FDCFE7CA684968206801F026FF99
:102EF00040212068F4E7226801461046F0E7000010
:102F000088FFCEFF2000100070472DE9F0410546F4
:102F100090F83C0000260C46012810D0012085F8CE
:102F20003C0072B1042A1CD0082A2CD00C2A50D0A4
:102F30000126002085F83C003046BDE8F0810220E3
:102F4000FBE7D4E90012E368286801F009FF28686C
:102F5000816921F00C01816128688169A2681143AF
:102F60000FE0D4E90012E368286801F041FF286807
:102F7000816921F44061816128688169A26841EA20
:102F800002218161D5E72868D4E9002C277B036AF8
:102F9000016A21F480710162C16923F4206321F088
:102FA000030141EA0C0121F0F00C39074FF42067CE
:102FB0004CEA116107EA02221A43C16102622868E1
:102FC000C16921F00C01C1612868C169A26811437F
:102FD0002BE02868D4E90021E768036AD0F820C014
:102FE0002CF4805CC0F820C0D0F81CC023F420432F
:102FF0002CF4407C4CEA012121F4704C4FF6FF7117
:1030000001EA07314FF4204741EA0C0107EA023296
:103010001A43C16102622868C16921F44061C1613B
:103020002868C169A26841EA0221C16181E710B53F
:10303000040003D094F83D0010B107E0012010BD5A
:10304000002084F83C00204600F022F8022084F89A
:103050003D00211D206801F0F3FB012084F84800A9
:1030600084F83E0084F83F0084F8400084F8410072
:1030700084F8420084F8430084F8440084F8450052
:1030800084F8460084F8470084F83D00002010BD15
:103090007047000010B5044679B1042912D0082900
:1030A00015D00C2918D0102919D094F8430000BF6E
:1030B00094F84720012817D114E094F83E0094F8C2
:1030C0004420F7E794F83F0094F84520F2E794F89D
:1030D000400094F84620EDE794F84100E8E794F8C2
:1030E0004200E5E7012A01D0012010BD022081B392
:1030F000042934D0082937D00C293AD010293BD0E4
:1031000084F8430084F847000122206801F0F6FBB0
:103110001B49206888420ED0B0F1804F0BD019496E
:10312000884208D01849884205D01849884202D000
:103130001749884207D18168164A1140062906D0EE
:10314000B1F5803F03D0016841F00101016000202A
:1031500010BDFFE784F83E0084F84400D4E784F80B
:103160003F0084F84500CFE784F8400084F846002B
:10317000CAE784F84100C5E784F84200C2E70000CE
:10318000002C0140000400400008004000340140D1
:1031900000400140070001002DE9F04104460068AD
:1031A000C66805694FF00007A90713D5B10711D507
:1031B000F91E016101202077206880698007204680
:1031C00002D0FFF7A1FE04E000F0E0F8204600F096
:1031D000A2F92777680716D5700714D521686FF014
:1031E00004000861022020772068806910F4407F85
:1031F000204602D0FFF788FE04E000F0C7F8204622
:1032000000F089F92777280715D5300713D52168ED
:103210006FF008000861042020772068C0698007EB
:10322000204602D0FFF770FE04E000F0AFF8204621
:1032300000F071F92777E80616D5F00614D5216855
:103240006FF010000861082020772068C06910F432
:10325000407F204602D0FFF757FE04E000F096F8CA
:10326000204600F058F92777E80708D0F00706D085
:1032700021686FF001000861204600F0CBF92806B4
:1032800001D4A80408D5300606D521686FF4025091
:1032900008612046FFF729FCE80508D5300606D569
:1032A00021686FF4807008612046FFF71DFC6806F6
:1032B00008D5700606D521686FF0400008612046E9
:1032C00000F02CFAA80608D5B00606D521686FF0E4
:1032D000200008612046FFF709FCE80208D5F0024B
:1032E00006D521686FF4801008612046FFF74FFC77
:1032F000A80208D5B00206D521686FF40010086155
:103300002046FFF743FC680208D5700206D5216805
:103310006FF4800008612046FFF73AFC28020AD5C6
:10332000300208D521686FF4000008612046BDE82E
:10333000F041FFF77DBCBDE8F081000010B586B01C
:10334000044614216846FDF79EF80E49206888421D
:1033500016D10D48C16C41F00101C164C06C6946D1
:1033600000F00100059080200090022001900020D4
:1033700002900390012004904FF09040FEF708FD6A
:1033800006B010BD0048014000100240704770B503
:10339000044690F83C0000260D4601280BD0012081
:1033A00084F83C000C2A4AD007DC82B1042A20D0E1
:1033B000082A06D131E0022070BD102A53D0142A09
:1033C00063D00126002084F83C00304670BD2068A0
:1033D00001F0B6FA2068816941F008018161206836
:1033E000816921F004018161206881692A691143A2
:1033F00011E0206801F0F2FA2068816941F400616F
:1034000081612068816921F480618161206881691E
:103410002A6941EA02218161D4E7206801F026FB94
:103420002068C16941F00801C1612068C16921F0CB
:103430000401C1612068C1692A69114311E0206853
:1034400001F05CFB2068C16941F40061C161206842
:10345000C16921F48061C1612068C1692A6941EABA
:103460000221C161AEE7206801F090FB2068016D88
:1034700041F0080101652068016D21F0040101653A
:103480002068016D2A69114311E0206801F0B6FB44
:103490002068016D41F4006101652068016D21F42F
:1034A000806101652068016D2A6941EA0221016598
:1034B00088E710B5040003D094F83D0010B107E090
:1034C000012010BD002084F83C00204600F022F8C6
:1034D000022084F83D00211D206801F0B1F901208F
:1034E00084F8480084F83E0084F83F0084F84000E7
:1034F00084F8410084F8420084F8430084F84400D2
:1035000084F8450084F8460084F8470084F83D00BC
:10351000002010BD7047704730B50446022269B1E3
:10352000042912D0082917D00C291CD0102921D029
:1035300094F84300012824D0012030BD94F83E00C7
:103540000128F9D184F83E201DE094F83F000128BD
:10355000F2D184F83F2016E094F840000128EBD126
:1035600084F840200FE094F841000128E4D184F869
:10357000412008E094F842000128DDD184F842207F
:1035800001E084F843200122206801F0B7F9194BCB
:1035900020681949194A984209D0884207D09042B8
:1035A00005D0174DA84202D0164DA84203D1456C54
:1035B00045F400454564206898420CD0B0F1804F36
:1035C00009D0114B984206D0104B984203D0884244
:1035D00001D0904207D181680D4A1140062906D0DA
:1035E000B1F5803F03D0016841F001010160002086
:1035F00030BD0000002C014000340140004001407B
:103600000044014000480140000400400008004020
:103610000700010010B5044600681A49884201D12C
:1036200001F056FC18492068884229D11748184BE8
:10363000C16B826843F8212003F57A63C26843F8BE
:10364000212003F57A6290ED040A02EB8102491C05
:1036500082ED000AC163826B02EBC20303EB02132B
:10366000B1EB830F0CD101214170002181704264C4
:10367000C16308480170BDE810400748FFF7ACBBC4
:1036800010BD000000100040001400401800002091
:103690000002002060000020680100200246002097
:1036A00041B1042909D008290AD00C2901D1106898
:1036B000006C70471068406B70471068806B7047F3
:1036C0001068C06B704770B5044690F83C00012844
:1036D00012D0012584F83C50022084F83D00204699
:1036E00001F0C4FA01004FF0000007D084F83D500B
:1036F00084F83C00012070BD022070BD2168CA68BA
:1037000022F04002CA602168CA6822F48042CA607E
:1037100084F83D5084F83C00002070BD7047FEE7FF
:1037200070B5604E604C0025B07958B16079401C8E
:10373000C0B26071042800D16571A571002000F04D
:10374000EDF8B571B07A48B1607990B1012818D020
:10375000032816D06562A562E562B572B07B9FED65
:10376000530A88B361795248012912D0032932D013
:103770004EE050490120A07008704F48FFF7F0FA62
:10378000EBE7A079401CC0B2A0710328E5D1A57178
:10379000E3E7A17921B101290BD0022915D037E047
:1037A000A06942F21071884232DA00F57A70A061A5
:1037B0002EE0D4ED070A10EE901A814228DA70EE5E
:1037C000800AC4ED070A23E023E0206A50281FDAAC
:1037D000401C20621CE0A17921B1012908D00229F6
:1037E00011D015E0206B0A2812DA401C20630FE08C
:1037F000D4ED0D0A10EE901A814209DA70EE800ABB
:10380000C4ED0D0A04E0A06B0A2801DA401CA06395
:10381000B573B07C002844D061792848012902D0D2
:10382000032920D03CE0A17921B101290AD0022945
:1038300013D035E0A069B0F57A7F31DDA0F57A705C
:10384000A0612DE0D4ED070A10EE901A814227DD29
:1038500030EEC00A84ED070A22E0206A00281FDD4E
:10386000401E20621CE0A17921B1012908D0022963
:1038700011D015E0206B012812DD401E20630FE0FF
:10388000D4ED0D0A10EE901A814209DD30EEC00A27
:1038900084ED0D0A04E0A06B022801DD401EA06348
:1038A000B57470BDE0300020180000209A99993E50
:1038B000CDCC4C406000002068010020CDCCCC3D38
:1038C00000B585B014216846FCF7DDFD4FF6FF70AA
:1038D000009000200321CDE90201019069460248D1
:1038E000FEF756FA05B000BD0008004800B585B0E7
:1038F00014216846FCF7C7FD4FF6FF7000900120C9
:103900000190032003900020029069460248FEF7D0
:103910003FFA05B000BD00000008004870B5002463
:1039200006462146204600F003F900F041F94FF425
:103930009635304600F010F9641CAC42F9D370BDE6
:1039400030B587B014216846FCF79DFD1E48C16C58
:1039500041F00401C164C16C01F004010591C16C26
:1039600041F00101C164C16C01F001010591C16C1C
:1039700041F00201C164C06C012500F00200059015
:103980004FF44870CDE90005002403946946029481
:103990000E48FEF7FDF9280203940090CDE901548A
:1039A0004FF0904469462046FEF7F2F9FFF79EFF7C
:1039B000A06940F48070A06104481830016841F4A7
:1039C0000871016007B030BD0010024000040048DB
:1039D000203AD2B2034B02EB420203EB021200F098
:1039E00019B800000C510008F0B50E460746002536
:1039F00040F23F1407E021463846FFF7E9FF103C4C
:103A00006D1CA4B2761C3278002A01D0142DF2D39A
:103A1000F0BD00002DE9F04791468A460026044695
:103A200000F086F8DFF84080012700BF00F0C0F802
:103A30005FF0000539F8160007FA05F10842404624
:103A400001D1408800E0008800F086F86D1C102D40
:103A5000F0D3641CE4B25146204600F069F8761CAD
:103A6000182EE3D3BDE8F0871000002010B5FFF753
:103A700067FF002000F014F8084CA080A088A0F593
:103A80000241303906D000F08FFD002000F008F828
:103A9000A08010BD00F0FFFCF7E700001000002040
:103AA00070B51D490A6842F400720A600A6842F45F
:103AB00080720A60184C103C226842F0200222609A
:103AC000164A1060086840F02000086000BF00BF80
:103AD00000BF206840F020002060206840F4807023
:103AE0002060FFF7EDFE4FF09041886A40F480704F
:103AF000886200BF00BF00BF0848001F006885B291
:103B0000886940F480708861FFF7F0FE206840F417
:103B100000702060284670BD280400481408004842
:103B200001B5BDF800000149488008BD1000002023
:103B300010B50C460146202000F068F82146BDE88B
:103B40001040212000F062B801B5BDF80000014925
:103B5000088008BD10000020134A116841F400716C
:103B60001160114910390B6843F480730B600B68C6
:103B700043F020030B600D4B1860106840F02000EC
:103B8000106000BF00BF00BF086840F02000086060
:103B9000086840F48070086000BF00BF00BF08687C
:103BA00040F400700860704728040048140800487A
:103BB0001449086840F400700860086840F4807098
:103BC000086010481038026842F0200202600E4B74
:103BD00022221A600A6842F020020A6000BF00BF79
:103BE00000BF016841F020010160016841F480716B
:103BF000016000BF00BF00BF016841F400710160B7
:103C0000704700002804004814080048184B10B5FD
:103C10001A6842F400721A601A6842F480721A60DC
:103C2000134A103A146844F020041460114C2060C8
:103C3000186840F02000186000BF00BF00BF106887
:103C400040F020001060106840F480701060216027
:103C5000186840F02000186000BF00BF00BF106867
:103C600040F020001060106840F48070106010BDBB
:103C700028040048140800482DE9F0476C4C8EB029
:103C8000607900282BD001287DD002287CD069A142
:103C900006A8FCF721FB06A91820FFF7A5FE6AA1DC
:103CA00006A8226BFCF718FB06A94820FFF79CFE2C
:103CB000606B01F0ABF941EC100B67A153EC102BDA
:103CC00006A8FCF709FB06A96020FFF78DFEA26B92
:103CD00066A106A8FCF700FB06A9782063E067A1AF
:103CE00006A8FCF7F9FA06A91820FFF77DFE68A1DF
:103CF00006A8A268FCF7F0FA06A94820FFF774FEB0
:103D000067A106A8E268FCF7E7FA06A96020FFF7BA
:103D10006BFE206901F07AF941EC100B65A153ECC0
:103D2000102B06A8FCF7D8FA06A97820FFF75CFE4E
:103D3000606901F06BF941EC100B63A153EC102B9F
:103D400006A8FCF7C9FA06A99020FFF74DFE634CC0
:103D5000D4F8D00701F05AF906460F46D4F8B0045B
:103D600001F054F9DFF874A104460D46DAF8200397
:103D700001F04CF980468946DAF8000001F046F976
:103D800041EC100B01E013E035E00DF1080A53ECB3
:103D9000102B8AE8F00052A106A8CDE90089FCF7B3
:103DA0009BFA06A9C020FFF71FFE0EB0BDE8F08702
:103DB00052A106A8FCF790FA06A91820FFF714FEF6
:103DC00053A106A8A269FCF787FA06A94820FFF7C5
:103DD0000BFEE06901F01AF941EC100B50A153EC15
:103DE000102B06A8FCF778FA06A96020FFF7FCFD67
:103DF00050A1226A6DE753A106A8FCF76DFA06A947
:103E00001820FFF7F1FD54A106A8626AFCF764FAD6
:103E100006A94820FFF7E8FD53A106A8A26AFCF70F
:103E20005BFA06A96020FFF7DFFD53A1E26A50E7C5
:103E30001800002020202020202020204653455418
:103E40002020202020202000202020202046503D1F
:103E50002564202020202000202020202056503DB6
:103E6000252E316620202020200000002020202048
:103E70002054543D25642020202020002020202094
:103E800020202020444154412020202020202000B8
:103E90002020202020463D256420202020200000D6
:103EA0002020202020443D2564252520202020207E
:103EB000000000002020202020413D252E316620DA
:103EC00020202020000000002020202020543D251C
:103ED0002E316620202020200000000040210020FC
:103EE000563A252E31662C252E31662C252E31662C
:103EF0002C252E316620202020200000202020208C
:103F0000202020205041524120202020202020002D
:103F1000202020202046483D25642020202020000D
:103F2000202020202041483D252E316620202020C1
:103F300020000000202020202054483D256420201F
:103F400020202000202020202020202052454344F3
:103F500020202020202020002020202020464E3D10
:103F600025642020202020002020202020414E3DBC
:103F700025642020202020002020202020544E3D99
:103F8000256420202020200070B50D4D044601221C
:103F90004FF6FF712846FEF724F82102002228463A
:103FA000FEF71FF8074C012204212046FEF719F8FE
:103FB0002046BDE8704000220421FEF712B8000040
:103FC00000080048000C004800EB8100006E00F083
:103FD000F84070478068C0F3C00070478068C0F345
:103FE00080007047042303EAD15310B51844436995
:103FF000C1F3045107248C40A3438A401343436117
:1040000010BD00EB8100016E21F0004111430166FB
:104010007047000070B52C4D28682C4C216C401A5C
:1040200064284FD32046A178007811B180F00100B8
:1040300001E020F001002070E0780028207802D014
:1040400080F0020001E020F00200207020790028BA
:10405000207802D080F0040001E020F004002070FD
:10406000A169A0688842207802DD40F0080001E0E4
:1040700020F00800207094ED040AD4ED070AC0B2C5
:10408000B4EEE00AF1EE10FA02DD40F0100001E0BB
:1040900020F01000207094ED080AD4ED050AC0B29B
:1040A000B8EEC00AF4EEC00AF1EE10FA02DD40F0FC
:1040B000200001E020F020002070C0B2FFF764FF74
:1040C0002868206470BD000008000020180000204F
:1040D00030B589B020216846FCF7D5F91C481B494A
:1040E000002401604902C0E90114C4600425046190
:1040F000C0E90545047744770121016280F8244036
:10410000C462046380F83840C46380F840101C2205
:10411000426480228264C0E91341FDF777FC08B154
:10412000FDF720FA0B4800900620CDE901057F201D
:104130000594CDE9030569460548FDF751FA0028C5
:1041400001D0FDF70FFA09B030BD000000010050AA
:10415000640000200080F03E2DE9F04F87B014216C
:104160006846FCF790F94648C16C41F00401C1640F
:10417000C16C01F004010591C16C41F02001C164E2
:10418000C16C01F020010591C16C41F00101C164D5
:10419000C16C01F001010591C16C41F00201C164E3
:1041A000C16C01F002010591C16C41F00801C164CC
:1041B000C06CDFF8D08000F008004FF47F44059019
:1041C000012221464046FDF70CFF0022FF21404618
:1041D000FDF707FF4FF480764FF0904900223146FB
:1041E0004846FDF7FEFEDFF8A0A00022042150465D
:1041F000FDF7F7FEDFF894B04FF448770022394618
:104200005846FDF7EEFE0125CDE900450024CDE935
:10421000025469464046FDF7BBFDFF200090CDE902
:104220000154694640460394FDF7B2FDCDE90054C0
:10423000694648460295FDF7ABFD07208DE8310041
:1042400069465846FDF7A4FD0096CDE9015469463C
:1042500048460394FDF79CFD04200090CDE90154ED
:10426000694650460394FDF793FD0097CDE901544C
:10427000694658460394FDF78BFD07B0BDE8F08F03
:104280000010024000080048000C004800040048EC
:1042900010B594B01C210DA8FCF7F5F83421684640
:1042A000FCF7F1F821482049002401604F21C0E9C2
:1042B000011440F2E731C0E903148021C0E905414F
:1042C000FEF7B7FC08B1FDF74DF91848FFF7F1F814
:1042D00008B1FDF747F960200D904FF4FA70CDE971
:1042E0000E0410941194129400220DA90F481394F7
:1042F000FFF74DF808B1FDF735F900944FF4005081
:10430000CDE9044001940294039406946946074859
:104310000C94FEF7EDFB08B1FDF724F90348FFF715
:104320000DF814B010BD000000480140B401002099
:1043300010B590B0002409940A940B94142104A899
:104340000C94FCF7A0F82D480D940F940E94009453
:10435000019402944FF08041039401604F21C0E921
:104360000114611EC0E9031480218161FEF761FC24
:1043700008B1FDF7F7F84FF48050099009A91F48DC
:10438000FEF742FD08B1FDF7EDF81C48FEF74FFEC1
:1043900008B1FDF7E7F84FF4803004906020CDE9D4
:1043A000050404A915480894FFF78DF908B1FDF735
:1043B000D9F80D940DA911480F94FEF7EBFB08B145
:1043C000FDF7D0F802200090CDE9010400226946F3
:1043D0000A480394FEF799FD08B1FDF7C3F80120E0
:1043E000CDE90040042269460448FEF78EFD00280E
:1043F00001D0FDF7B7F810B010BD0000D0000020CC
:104400003EB500240F48009401940D4902940160C8
:104410004F21C0E9011442F20F718461C160FEF7BF
:1044200008FC08B1FDF79EF800946946054802941F
:10443000FEF7B0FB002801D0FDF794F83EBD000068
:10444000001000401C0100203EB500240F480094DD
:1044500001940D49029401604F21C0E9011442F218
:104460000F718461C160FEF7E4FB08B1FDF77AF8D3
:104470000094694605480294FEF78CFB002801D0A1
:10448000FDF770F83EBD00000014004068010020F8
:10449000FEE77047704730B501210020FFF7B6FBFB
:1044A0004FF47A70FDF750F800210120FFF7AEFBC2
:1044B00041F290711020FFF7A9FB4FF41C516020CE
:1044C000FFF7A4FB01216120FFF7A0FB022146209A
:1044D000FFF79CFB48F210011320FFF797FB48F20F
:1044E000FE011220FFF792FB4FF4A0610220FFF7BC
:1044F0008DFB41F230010320FFF788FB40F20334CB
:1045000021463020FFF782FB21463120FFF77EFB5A
:1045100021463220FFF77AFBE51E29463320FFF7BC
:1045200075FB03213420FFF771FB21463520FFF78F
:104530006DFB14213620FFF769FB21463720FFF77A
:1045400065FB21463820FFF761FB21463920FFF744
:104550005DFB29463A20FFF759FB03213B20FFF77B
:1045600055FB21463C20FFF751FB4FF4A0513D2065
:10457000FFF74CFB4FF400719220FFF747FB2146F9
:104580009320FFF743FB40F60D019020FFF73EFB21
:1045900041F218010320FFF739FBBDE8304040F23B
:1045A00073110720FFF732BB10B543F20801E32077
:1045B000FFF72CFB1221E720FFF728FB41F2312106
:1045C000EF20FFF723FB00210120FFF71FFB4FF433
:1045D000E0610220FFF71AFB41F230010320FFF7F0
:1045E00015FB00210420FFF711FB40F207210820F2
:1045F000FFF70CFB00210920FFF708FB00210A2030
:10460000FFF704FB00210C20FFF700FB00210D2029
:10461000FFF7FCFA00210F20FFF7F8FA0021102025
:10462000FFF7F4FA07211120FFF7F0FA002112201A
:10463000FFF7ECFA00211320FFF7E8FAC820FDF796
:1046400095FB41F290611020FFF7E0FA40F227213C
:104650001120FFF7DBFA3220FDF788FB1D21122025
:10466000FFF7D4FA3220FDF781FB4FF400611320ED
:10467000FFF7CCFA14212920FFF7C8FA0B212B20D1
:10468000FFF7C4FA3220FDF771FB00212020FFF76D
:10469000BDFA00212120FFF7B9FA07213020FFF7EA
:1046A000B5FA40F207713120FFF7B0FA0621322047
:1046B000FFF7ACFA40F204713520FFF7A7FA41F694
:1046C00004713620FFF7A2FA04213720FFF79EFA83
:1046D00000213820FFF79AFA40F206713920FFF7DF
:1046E00095FA40F201713C20FFF790FA0F213D202E
:1046F000FFF78CFA00215020FFF788FAEF215120B4
:10470000FFF784FA00215220FFF780FA40F23F11B0
:104710005320FFF77BFA4FF41C516020FFF776FA25
:1047200001216120FFF772FA00216A20FFF76EFA7B
:1047300000218020FFF76AFA00218120FFF766FA46
:1047400000218220FFF762FA00218320FFF75EFA42
:1047500000218420FFF75AFA00218520FFF756FA3E
:1047600010219020FFF752FA00219220FFF74EFA15
:1047700003219320FFF74AFA4FF488719520FFF741
:1047800045FA00219720FFF741FA00219820FFF712
:104790003DFA41F218010320FFF738FABDE8104056
:1047A00040F273110720FFF731BA7047FDF724BCC0
:1047B00000B593B038216846FBF765FE14210EA8BA
:1047C000FBF761FE4FF40070FDF7A8FC0220C10169
:1047D0000391402104910090079008901421CDE9A5
:1047E00009010B900C900D906846FDF767FF0F20B4
:1047F0000E9003200F900020109011901290022133
:104800000EA8FDF735FE13B000BD00000548016895
:1048100041F47001016003494FF000608039086085
:104820007047000088ED00E00148FEF7B5BC0000CD
:104830001C0100200148FEF7AFBC00006801002009
:104840002DE9F0430268264B264D274E274C4FF0AA
:104850008049984207D0484505D0A84203D0B042CD
:1048600001D0A04203D122F070074A683A43204F9A
:10487000DFF880C0DFF8808098420DD048450BD02B
:10488000A84209D0B04207D0A04205D0B84203D018
:10489000604501D0404503D122F44075CA682A43DF
:1048A0004D6922F080022A4302608A68C2620A6867
:1048B0008262984207D0A04205D0B84203D060453A
:1048C00001D0404501D109690163012141610169BC
:1048D000C90703D0016921F001010161BDE8F0833E
:1048E000002C01400004004000080040003401405A
:1048F00000400140004401400048014010B501F073
:104900001F030121046A99408C430462016A9A40A2
:104910001143016210BD10B5846842EA032224F4F9
:104920007F440A432243826010BD00008268034B2B
:104930001A400A4342F00701816070478FFFCFFFA2
:104940002DE9F043056A026A22F00102026243681F
:1049500082691C4C25F0020522400C6822F00302FB
:1049600014438A68194E2A43174D194FDFF864C063
:10497000DFF86490A84207D0B04205D0B84203D017
:10498000604501D0484506D122F00808CA6842EACD
:10499000080222F00402A84207D0B04205D0B84273
:1049A00003D0604501D0484505D14D6923F44073DB
:1049B0001D438B692B4343608461496841630262F4
:1049C000BDE8F0838FFFFEFF002C01400034014062
:1049D000004001400044014000480140F0B5056A34
:1049E000026A22F01002026242688369194C1B4E6F
:1049F00023400C6823F4407343EA042425F0200389
:104A00008D6843EA0513144DA84201D0B04206D187
:104A1000CF6823F0800343EA071323F04003A84242
:104A20000AD0B04208D00E4DA84205D00D4DA84284
:104A300002D00D4DA84207D14D6922F4406242EAEE
:104A400085028D6942EA850242608461496881631A
:104A50000362F0BDFF8FFFFE002C014000340140D7
:104A6000004001400044014000480140F0B5056AA3
:104A7000026A22F4807202624368C269194C1B4EBA
:104A800022400C6822F00302144325F400728D6862
:104A900042EA0522144DA84201D0B04206D1CF68A7
:104AA00022F4006242EA072222F48062A8420AD07D
:104AB000B04208D00E4DA84205D00E4DA84202D0FB
:104AC0000D4DA84207D14D6923F4405343EA051325
:104AD0008D6943EA05134360C4614968C16302629A
:104AE000F0BD00008FFFFEFF002C014000340140AC
:104AF000004001400044014000480140F0B5056A13
:104B0000026A22F4805202624268C369194C1B4E49
:104B100023400C6823F4407343EA042425F4005333
:104B20008D6843EA0533144DA84201D0B04206D146
:104B3000CF6823F4004343EA073323F48043A842B9
:104B40000AD0B04208D00E4DA84205D00D4DA84263
:104B500002D00D4DA84207D14D6922F4404242EAED
:104B600085128D6942EA85124260C4614968016418
:104B70000362F0BDFF8FFFFE002C014000340140B6
:104B800000400140004401400048014030B5056A42
:104B9000026A22F4803202624268036D114C2340A3
:104BA0000C681C4325F400330D8943EA05430E4D80
:104BB000A8420BD00D4DA84208D00D4DA84205D0FB
:104BC0000C4DA84202D00C4DA84204D14D6922F4EC
:104BD000803242EA052242600465496881640362CA
:104BE00030BD00008FFFFEFF002C0140003401406B
:104BF00000400140004401400048014030B5046AD3
:104C0000026A22F4801202624268036D114D24F49C
:104C100000142B400D6843EA05230D8944EA05542E
:104C20000D4DA8420BD00D4DA84208D00C4DA84206
:104C300005D00C4DA84202D00B4DA84204D14D69BD
:104C400022F4802242EA8522426003654968C164F9
:104C5000046230BDFF8FFFFE002C01400034014094
:104C600000400140004401400048014070B5056823
:104C70000024AA682E4B1A404B6813432D4A134058
:104C80000A681A43AA604A68602A4AD00DDC302AB2
:104C90001FD005DCEAB1102A1BD0202A18D118E059
:104CA000402A1FD0502A13D135E0234D531BAA426E
:104CB0000FD009DC702A0ED0B2F1101F09D0203AB3
:104CC000B2F5801F04D104E0102B02D0402B00D09D
:104CD0000124204670BD0B69D1E902210068FFF76D
:104CE0001AFEF6E70A68052A13D0B2F1011F10D0A8
:104CF0000268136A156A25F0010515620268956954
:104D0000096925F0F00545EA011191610068036227
:104D1000DFE7012070BD0A698968006800F00EF8BD
:104D2000D7E70A698968006800F050F8D1E7000009
:104D30008FFFCFFFF8FFFEFF3000100010B5036AB1
:104D4000046A24F001040462846924F0F00444EA53
:104D5000021423F00A020A438461026210BD0000BB
:104D600070B5056A046A24F0010404628469124E75
:104D7000B0420ED0B0F1804F0BD0104EB04208D0F0
:104D80000F4EB04205D00F4EB04202D00E4EB04290
:104D900003D124F00304144301E044F001041A0792
:104DA00024F0F00444EA126225F00A0301F00A013B
:104DB00019438261016270BD002C01400004004073
:104DC00000080040003401400040014010B5036A73
:104DD000046A24F010040462846923F0A00324F41C
:104DE000704444EA023243EA01118261016210BD5B
:104DF00030B5046A056A25F010050562856925F459
:104E0000407545EA022222F470454FF6FF7202EA2D
:104E1000033224F0A0032A43A02404EA0111194319
:104E20008261016230BDFEE703B401984100009841
:104E300050EAC12018BF04204A0D18BF40F00100FD
:104E400040F2FF72B2EB515F08BF40F00200012850
:104E500008BF052002B070470907090E002804DBCF
:104E600000F1E02080F80014704700F00F0000F11E
:104E7000E02080F8141D704730380A2801D2012044
:104E8000704700207047000010B5104C01212046EB
:104E9000FDF7A2F888B102212046FDF79DF870B118
:104EA00004212046FDF798F858B101214FF09040B9
:104EB000FDF792F838B1002010BD012010BD02208E
:104EC00010BD032010BD042010BD000000040048E8
:104ED00070B5FFF7D9FF1649164A0125097809B1BF
:104EE00000200CE058B112F82010491CC9B202F899
:104EF0002010022914D902EB80014D7010E000212E
:104F00004FEA010402EB81035E7816B1DE7806B940
:104F10009D7002F821405C70491CDC700529F1DBB2
:104F200012F82010C82902D902EB8000C57070BDAC
:104F300060000020E030002010B5FCF715FBFEF704
:104F4000EFFBFEF799FEBDE81040FFF763B8FDF7F1
:104F50005BF8FFF72DFCFFF7FFF8FFF751FAFFF7BB
:104F6000E7F9FFF795F9FFF7B3F8FFF76DFA00F0EF
:104F700003F8FFF7E1FFFCE710B51148FDF7F0FE7D
:104F800004211048FEF786F800210E48FEF782F84B
:104F900000210D48FEF7C0FAFEF768FD0020FEF77D
:104FA000BDFC0020FEF7BCFD4FF6FF70FEF7CCFD08
:104FB0000020FEF7E9FF054800680549086410BDB8
:104FC0001C010020D0000020B401002008000020B7
:104FD0001800002010B500290AD00878002807D052
:104FE00005487844FBF72EFE002801D0002010BDB4
:104FF0000248784410BD0000AE130000A613000064
:105000000808A0F500114FEA3101704743004FEA4C
:10501000D30C4FEA3C0C43401FBF40070CF16051DA
:1050200013F0FE4F70471CF0006F03D100200CF00E
:10503000004170470CF0004343EA507010B540EA5D
:10504000CC0000F00EF800BF000000924FEA000113
:10505000FFF7D6BF4FF000414FF00000A1F500214F
:1050600070470EF1020E2EF0030E5EF8044B244240
:1050700004D44FEA4102B2F17F4F11D84FEA400306
:10508000B3F17F4F0CD80ED14FEAD07CB2F17F4FF5
:105090000CEB4C0C0CF1020C08BF4CEBD17C04E087
:1050A0004FF0080C01E04FEAD17C0CEB4C0324FAE2
:1050B00003F404F00704B4F1040C06D20EEB840CE4
:1050C000BDE810404CF0010C6047DFE80CF0070829
:1050D00002024FF00040A0F5800010BD08464200DB
:1050E00018BFD2F1807288BF00F0004010BD4FF0B1
:1050F0004070E1EE100A7047FBF721BB0000000092
:105100000000000001020304060708090000000077
:10511000000000000000000000000000000000008F
:10512000000000000000000000000000000000007F
:1051300000000000000000000000000000008001EE
:105140008001800180018001800180018001800157
:105150008001800180018001000000008001800149
:10516000000000000000000000000000000000003F
:10517000CC00CC00CC00CC00CC00CC000000000067
:10518000000000000000000000000000000000001F
:10519000000000000000000000000000000000000F
:1051A0000000000000000000600C600C600C300685
:1051B0003006FE1FFE1F300638071803FE1FFE1FB5
:1051C000180318038C018C018C0100000000800082
:1051D000E003F80F9C0E8C1C8C188C009800F801D2
:1051E000E007800E801C8C188C189C18B80CF00FEF
:1051F000E0038000800000000000000000000000CC
:1052000000000E181B0C110C1106110611031103DE
:105210009B018E01C038C06C60446044304430440F
:105220001844186C0C380000000000000000E00179
:10523000F0033807180618063003F001F000F800F4
:105240009C310E33061E061C061C063FFC73F02123
:10525000000000000000000000000000000000004E
:105260000C000C000C000C000C000C0000000000F6
:10527000000000000000000000000000000000002E
:10528000000000000000000000000000000000021C
:1052900000038001C000C0006000600030003000EA
:1052A000300030003000300030003000600060001E
:1052B000C000C000800100030002000000002000C8
:1052C0006000C000800180010003000300060006AA
:1052D00000060006000600060006000600030003A4
:1052E00080018001C000600020000000000000007C
:1052F0000000000000000000C000C000D806F80751
:10530000E00130033807000000000000000000004A
:10531000000000000000000000000000000000008D
:105320000000000000000000800180018001800179
:105330008001FC3FFC3F80018001800180018001F1
:10534000000000000000000000000000000000005D
:10535000000000000000000000000000000000004D
:1053600000000000000000000000000000008001BC
:10537000800100010001800000000000000000002A
:10538000000000000000000000000000000000001D
:1053900000000000E007E00700000000000000003F
:1053A00000000000000000000000000000000000FD
:1053B00000000000000000000000000000000000ED
:1053C0000000000000000000000000000000C0001D
:1053D000C000000000000000000000000000000C01
:1053E000000C000600060006000300030003800313
:1053F000800180018001C000C000C000600060002A
:105400000000000000000000000000000000E003B9
:10541000F007380E180C0C180C180C180C180C1877
:105420000C180C180C180C18180C380EF007E003A8
:10543000000000000000000000000000000000016B
:105440008001C001F0019801880180018001800184
:105450008001800180018001800180018001800144
:105460000000000000000000000000000000E00359
:10547000F80F180C0C180C1800180018000C000677
:1054800000038001C000600030001800FC1FFC1FFA
:105490000000000000000000000000000000E0012B
:1054A000F807180E0C0C0C0C000C0006C003C0070B
:1054B000000C001800180C180C18180CF807E00362
:1054C0000000000000000000000000000000000CD0
:1054D000000E000F000F800DC00C600C600C300C33
:1054E000180C0C0CFC3FFC3F000C000C000C000CDA
:1054F0000000000000000000000000000000F80FA5
:10550000F80F180018000C00EC03FC071C0E001C20
:105510000018001800180C181C0C180EF807E003EF
:105520000000000000000000000000000000C007B4
:10553000F00F381C181818000C00CC03EC0F3C0EB0
:105540001C1C0C180C180C18181C380EF007E00363
:105550000000000000000000000000000000FC1F30
:10556000FC1F000C00060006000380038001C00140
:10557000C000E000600060007000300030003000CB
:105580000000000000000000000000000000E00338
:10559000F007380E180C180C180C3806F007F00736
:1055A000180C0C180C180C180C18380CF80FE00319
:1055B0000000000000000000000000000000E00308
:1055C000F007380E1C0C0C180C180C181C1C381E7C
:1055D000F81BE0190018000C000C1C0EF807F00175
:1055E00000000000000000000000000000000000BB
:1055F00000000000000000008001800100000000A9
:105600000000000000000000000000008001800198
:10561000000000000000000000000000000000008A
:105620000000000000000000800180010000000078
:105630000000000000000000000000008001800168
:1056400000010001800000000000000000000000D8
:105650000000000000000000000000000010001C1E
:10566000800FE003F8001800F800E003800F001C32
:10567000001000000000000000000000000000001A
:10568000000000000000000000000000F81F000003
:1056900000000000F81F00000000000000000000F3
:1056A00000000000000000000000000000000000FA
:1056B00000000000000000000000000008003800AA
:1056C000F001C007001F0018001FC007F0013800DC
:1056D0000800000000000000000000000000E003DF
:1056E000F80F180C0C180C180018000C000600031A
:1056F0008001C000C000C00000000000C000C00069
:105700000000000000000000000000000000000099
:10571000E00718180420C229224A11440944094408
:10572000094409221113E20C024004201818E00772
:1057300000000000000000000000000000008003E6
:105740008003C006C006C006600C600C301830181C
:105750003018F83FF83F1C700C600C6006C006C0A3
:105760000000000000000000000000000000FC033A
:10577000FC0F0C0C0C180C180C180C0CFC07FC0F74
:105780000C180C300C300C300C300C18FC1FFC07C3
:105790000000000000000000000000000000C00742
:1057A000F01F38381C300C7006600600060006003A
:1057B00006000600060006600C701C30F01FE007B3
:1057C0000000000000000000000000000000FE03D8
:1057D000FE0F060E06180618063006300630063094
:1057E00006300630063006180618060EFE0FFE03B9
:1057F0000000000000000000000000000000FC3F6E
:10580000FC3F0C000C000C000C000C00FC1FFC1FEB
:105810000C000C000C000C000C000C00FC3FFC3FCA
:105820000000000000000000000000000000F83F41
:10583000F83F18001800180018001800F81FF81F8B
:105840001800180018001800180018001800180098
:105850000000000000000000000000000000E00F59
:10586000F83F3C780E6006E007C00300030003FE2B
:1058700003FE03C007C006C00EC03CF0F83FE00FB7
:1058800000000000000000000000000000000C30DC
:105890000C300C300C300C300C300C30FC3FFC3F2A
:1058A0000C300C300C300C300C300C300C300C3018
:1058B0000000000000000000000000000000800167
:1058C00080018001800180018001800180018001D0
:1058D00080018001800180018001800180018001C0
:1058E00000000000000000000000000000000006B2
:1058F0000006000600060006000600060006000678
:10590000000600060006180618063807F003E00136
:105910000000000000000000000000000000063051
:105920000618060C060606038601C6006600760009
:10593000DE008E0106030606060C06180630066019
:10594000000000000000000000000000000018003F
:105950001800180018001800180018001800180087
:10596000180018001800180018001800F81FF81F79
:1059700000000000000000000000000000000EE039
:105980001EF01EF01EF036D836D836D836D866CC83
:1059900066CC66CCC6C6C6C6C6C6C6C686C386C3E1
:1059A00000000000000000000000000000000C30BB
:1059B0001C303C303C306C306C30CC30CC308C31D6
:1059C0000C330C330C360C360C3C0C3C0C380C30C5
:1059D0000000000000000000000000000000E007E0
:1059E000F81F1C380E70066003C003C003C003C05C
:1059F00003C003C003C006600E701C38F81FE00728
:105A00000000000000000000000000000000FC0F8B
:105A1000FC1F0C380C300C300C300C300C18FC1FF8
:105A2000FC070C000C000C000C000C000C000C001F
:105A30000000000000000000000000000000E0077F
:105A4000F81F1C380E70066003E003C003C003C0DB
:105A500003C003C007E006630E3F1C3CF83FE0F7BD
:105A600000C0000000000000000000000000FE0F69
:105A7000FE1F06380630063006300638FE1FFE07C9
:105A800006030606060C06180618063006300660E1
:105A90000000000000000000000000000000E00323
:105AA000F80F1C0C0C180C180C001C00F803E00F6D
:105AB000001E0038063006300E301C1CF80FE007C0
:105AC0000000000000000000000000000000FE7F59
:105AD000FE7F8001800180018001800180018001C2
