:020000040800F2
:1000000050090020A5020008534E0008C74200080E
:10001000514E000825190008DD5F000800000000AF
:100020000000000000000000000000006B5100080C
:100030002719000800000000554E00086D51000807
:10004000BF020008BF020008BF020008BF0200088C
:10005000BF020008BF020008BF020008BF0200087C
:10006000BF020008BF020008BF020008BF0200086C
:10007000BF020008BF020008BF020008BF0200085C
:10008000BF02000800000000BF020008BF02000815
:10009000BF020008BF020008BF020008BF0200083C
:1000A000BF020008BF020008BF020008BF0200082C
:1000B000E9510008F5510008BF020008BF0200081E
:1000C000BF020008BF020008BF020008BF0200080C
:1000D000BF020008D15F0008BF020008BF0200088D
:1000E000BF020008BF020008BF020008BF020008EC
:1000F000BF020008BF020008BF02000800000000A5
:1001000000000000BF02000800000000BF0200085D
:10011000BF0200080000000001520008BF020008F2
:10012000BF020008BF020008BF020008BF020008AB
:10013000BF0200080000000000000000BF0200082D
:10014000BF020008BF02000800000000000000001D
:10015000000000000000000000000000000000009F
:10016000000000000000000000000000BF020008C6
:10017000BF020008000000000000000000000000B6
:1001800000000000BF0200080000000000000000A6
:10019000000000000000000000000000000000005F
:1001A0000000000000000000BF020008BF020008BD
:1001B000BF020008BF020008BF02000800000000E4
:1001C00000000000BF020008000000000000000066
:1001D000BF020008BF02000800F002F800F052F869
:1001E0000AA090E8000C82448344AAF10107DA4592
:1001F00001D100F047F8AFF2090EBAE80F0013F092
:10020000010F18BFFB1A43F0010318475C77000089
:100210007C770000103A24BF78C878C1FAD852071A
:1002200024BF30C830C144BF04680C607047000070
:100230000023002400250026103A28BF78C1FBD8EF
:10024000520728BF30C148BF0B607047662906F0CF
:100250003682642900F0FC80632900F0D68473297B
:1002600000F0DB84002070471FB506F01EFA00F096
:10027000D9FC04000020002105F09EFFE0601FBDB6
:1002800010B510BD00F0CEFD1146FFF7EDFF05F0F3
:1002900046FF00F0ECFD03B4FFF7F2FF03BC00F0F3
:1002A000EFFD00000948804709480047FEE7FEE7E8
:1002B000FEE7FEE7FEE7FEE7FEE7FEE7FEE7FEE716
:1002C00004480549054A064B70470000CD51000817
:1002D000D9010008500300205009002050050020DB
:1002E0005005002053EA020C00F069802DE9F04B24
:1002F0004FF00006002B1FBFB3FA83F503FA05F495
:1003000024FA05F65E4012BF1643B2FA82F502FAED
:1003100005F4C5F120051EBF22FA05FC44EA0C04D1
:10032000203556EA044C4FEA144418BF641C4FF0C1
:1003300000084FF00009904271EB030C39D30029FB
:1003400019BFB1FA81F701FA07F6B0FA80F700FA9F
:1003500007F6C7F120071EBF20FA07FC46EA0C0685
:100360002037B6FBF4FCA7EB0507103F07F01F0B87
:10037000CBF120060CFA0BFB2CFA06F644BFB34671
:100380000026202FA4BF5E464FF0000B5BEA060C50
:1003900008BF4FF0010B19EB0B09ABFB027C48EBDC
:1003A0000608C01B06FB02CC0BFB03CC71EB0C0157
:1003B000C1E70B46024641464846BDE8F08B13B5FF
:1003C0004FF000004FF00001AFF30080BDE81C408B
:1003D000704700000FB41CB5074B06AA7B44694662
:1003E0000090059800F0EFFB0020694600F0FEFB4E
:1003F0001CBC5DF814FB00000D08000070B50C4635
:100400000546012A05D02878800600D5EA69002330
:1004100002E0012305E05B1C934202D2E05C00286D
:10042000F9D1A869E618C01AA861286A1844286298
:100430002846AFF3008004E0D5E9012114F8010B50
:100440009047B442F8D32846AFF3008070BD000057
:100450002DE9F0410646002410687529314616A59D
:1004600010D0AFF30080002802DA404213A507E065
:1004700031688A0701D512A502E0490704D511A504
:10048000012401E0AFF3008000210A2206F12407D5
:1004900009E0B0FBF2FCB0FBF2F302FB1C003030D1
:1004A00078541846491C0028F3D123462A46304682
:1004B000BDE8F04100F019B9000000002D00000077
:1004C0002B000000200000002DE9F0474FF0000A4B
:1004D00089460446C0F820A02046E16888470028E5
:1004E00076D0252806D0D4E901219047206A401C07
:1004F0002062F1E7E168204600258847C4F81CA087
:1005000006460027C4F818A02A2E09D0304605F068
:100510008EFD38B304EB8708303EC8F8186019E048
:1005200059F8041B204604EB87029161E168884773
:10053000012F064618D1E069002820DA25F02005B1
:100540001DE0D8F8180000EB800006EB40003038C2
:10055000C8F818002046E1688847064605F067FDA0
:100560000028EED1012F0AD02E2E08D12046E168B6
:1005700088477F1C0646022F45F02005C4DBA06992
:10058000002803DA404245F00105A061E80701D0E8
:1005900025F01005B6B1A6F14100192802D8203681
:1005A00045F400654A463146204625604D46FFF732
:1005B0004DFE58B1012806D0ED1D25F0070000F1D1
:1005C000080989E704E005F1040985E730468AE770
:1005D000206ABDE8F08710B5431C02E010F8011B4B
:1005E00071B18107FAD14FF0013202C88C1A8C43E5
:1005F00014EAC211F9D0C01A0A0603D0C01E10BDF9
:10060000C01A10BD0A0401D0801E10BD0902FCD022
:10061000401E10BD4FF0000200B5134694469646AA
:10062000203922BFA0E80C50A0E80C50B1F1200105
:10063000BFF4F7AF090728BFA0E80C5048BF0CC0B3
:100640005DF804EB890028BF40F8042B08BF704711
:1006500048BF20F8022B11F0804F18BF00F8012B83
:10066000704700004FF0013C50F8042B51F8043B58
:100670009A4221D1A2EB0C03934313EACC1317D176
:1006800050F8042B51F8043B9A4215D1A2EB0C030D
:10069000934313EACC130BD150F8042B51F8043BCD
:1006A0009A4209D1A2EB0C03934313EACC13DBD09B
:1006B0004FF00000704700BFD01A01BAB1FA81F1C3
:1006C00001F0180122FA01F0CB40C1F12001DBB2A8
:1006D000C0B2C01A2CFA01F3D11A914311EAC31126
:1006E000E6D170477047704770472DE9F0470D46D7
:1006F00099469246044600F124080168880604D50C
:10070000E06921F01001216000E00120A84201DD34
:10071000471B00E00027A1697A1902EB0900081ABB
:10072000A0612078C00602D42046AFF300800026E6
:1007300008E0D4E901211AF806009047206A401C1D
:10074000761C20624E45F4DB2078C0060AD5204690
:10075000AFF3008006E0D4E9012130209047206A01
:10076000401C2062381EA7F10107F4DC07E0D4E941
:10077000012118F805009047206A401C2062281EBD
:10078000A5F10105F3DC2046AFF3008020780006D8
:1007900002D50220BDE8F0870120FBE770472DE974
:1007A000FF4F0C461E464FF0FF378BB0D2E90001D9
:1007B000DDF860800A908A46C1F30A5505B93D46C6
:1007C000002108464FF00000BAF1000F00F440008D
:1007D00005DA00EB80004FF4400101EA50004FEAD7
:1007E0009059B9F1010F00DDB9460A9850EA4A0064
:1007F0000ED044F61050A5F2FF3545432F14B8F142
:10080000000F1ED07542291E1EDDC9F100021CE03A
:10081000B8F1010F4FF0000001D0302103E0F243A6
:1008200005E02154401CB042FBDB30460022002191
:1008300021540B99C1F80880C1E900200FB0BDE830
:10084000F08FBD1B6D1CDEE74A4600DA694206A840
:1008500000F072FA06AB93E8070003AB83E80700E9
:1008600050460A9900F013FB8DE80700A0F50050F0
:100870001F3800900398002D0ADD42F21F014A46FE
:100880000844002303A90390684600F07CFD09E0BA
:10089000A0F500504A461F38002303A9039068467C
:1008A00000F086FD8DE807000004000C03D04FF037
:1008B000FF30410800E01046B8F1000F03D00022DD
:1008C000009215461EE0751E05D400F0AFF93032D7
:1008D00062556D1EF9D5B3460122084302D00022AD
:1008E0007F1C04E02078302801D100227F1E002ADE
:1008F000099784D01DE0112D07DA00F097F9303206
:1009000062556D1C50EA0102F5D1084302D00098EF
:10091000C8B10EE00021681E05E0235C625C6354F0
:100920002254401E491C8142F7DBAB46A81B401EE7
:100930000990002004F80B000B98099AC0F8088071
:10094000C0E9002B7AE711264FF0000857E72DE9A0
:10095000F04F88460446D21D22F0070191B0D1E93C
:100960000001CDE90A0105F03AFB02460B98C00FE1
:1009700001D02D2007E02068810701D52B2002E05F
:10098000202101EAC000032A099001D0072A05DBD3
:1009900003464146204600F08FF90BE1207880069F
:1009A00001D5E06900E00620B8F1650F814606D068
:1009B000B8F1660F18D0B8F1670F70D131E00020A0
:1009C000B9F1110F009001DB112301E009F10103DE
:1009D0000AAA01A90CA8FFF7E2FEDDE90C700026C7
:1009E00009F10105834647E001204B4600904FF096
:1009F00000470AAA01A90CA8FFF7D1FEDDE90DB056
:100A00000C995D46002610B909F101000D18B9EBEB
:100A1000050003D4C0F1FF3609F10105A5EB09007B
:100A20002BE0B9F1010F01DA4FF001090020B9F113
:100A3000110F0090484601DD112300E003460AAA89
:100A400001A90CA8FFF7ABFEDDE90C704D460026AE
:100A50008346207800070AD4AB4500DA5D4601A83A
:100A6000012D04DD411911F8011C302907D04F4533
:100A700002DA17F1040F04DA012082460FE06D1E3E
:100A8000EEE7002F02DCED1B3E4403E0781CA84299
:100A900000DD7D1CB81B00F1010A4FF000472078F3
:100AA000000703D4AA4501DB4FF0FF3A0021B7F15C
:100AB000004F0DF143088DF8431024D002202B2362
:100AC000002F01DA7F422D230A21021EA0F101002E
:100AD00000DC5FB197FBF1FC97FBF1F201FB1C7CA2
:100AE00017460CF1300C08F801CDEEE7A8F1010033
:100AF00003702188090501D5452100E06521A0F199
:100B0000010800F8011C09980FA9A1EB0807FF1DB7
:100B100000B10120411901EBEA70A1693844081ABB
:100B2000401EA0612078C00602D42046AFF30080AA
:100B3000099828B1D4E901219047206A401C20621D
:100B40002078C00622D52046AFF300801EE0002E9C
:100B500004DBB34502DD01A8805D00E03020D4E96C
:100B600001219047206A401C2062761CAAF10100F6
:100B70005FEA000A0AD100F055F8C0680168405CDD
:100B8000D4E901219047206A401C2062281EA5F16B
:100B90000105DCDC07E0D4E9012118F8010B9047DE
:100BA000206A401C2062381EA7F10107F3DC2046B2
:100BB000AFF30080032011B041E6000001694A1C38
:100BC00002610878704700B58FB0CDE9013100218E
:100BD000059105497944CDE9031011466846FFF7B0
:100BE00073FC0FB000BD0000E5FFFFFF0A6802F8CC
:100BF000010B0A60704710B5436913B1AFF3008071
:100C000001E0FFF7FBFB012010BD127800F1240189
:100C10000A7000224A700122EDE711684FF0FF329E
:100C2000E9E70000004870471003002030B5B0F13C
:100C30000A024FEA900E71F100034EEA817EB0EB9A
:100C40000E0061EB91014FEA101E4EEA017E10EB9F
:100C50000E0041EB11114FEA102E4EEA016E10EB1F
:100C60000E0041EB11214FEA104E4EEA014E10EBFF
:100C70000E0041EB1141401841F100014FEAD00054
:100C800040EA41704FEAD10110EB80054FEA810440
:100C900044EA907444EB01046D1944EB0404521BC4
:100CA000A3414FF0000348BF0A3200D530BD401CBD
:100CB00041F1000130BD00002DE9F0411F4604461E
:100CC00003260168072A01F4006004DB08B116A5B9
:100CD00005E016A503E008B115A500E015A521F073
:100CE00010002060A069C01EA0610FB1401EA0616D
:100CF0002046AFF300804FB1D4E901213846904738
:100D0000206A401C2062C01C206206E0206AFAE7CC
:100D1000D4E9012115F8010B9047761EF8D2204640
:100D2000AFF30080BDE8F0814E414E006E616E0071
:100D3000494E4600696E66002DE9F0478146164629
:100D40008AB0354878440DC88DE80D0032487844A3
:100D5000801C03AC0DC884E80D0041F69B300844AC
:100D6000372190FBF1F290FBF1F5A5F1800501FB35
:100D700012041B3C02D56442012000E00020DFF891
:100D800098A080460027FA44AAF1BE0A0EE0E007C8
:100D90000AD03246684607EB470101230AEB81017E
:100DA00000F006FB8DE8070064107F1C002CEED1DC
:100DB000194F7F44AE3F19E0E80715D007EB041048
:100DC0000DF1180A90E80E008AE80E00C068F042A3
:100DD00001D1981908903246012306A903A800F012
:100DE000E7FA03AB83E807006D10641C002DE3D124
:100DF0004FF0010332466946B8F1000F03A802D054
:100E000000F0C1FA01E000F0D3FAC9E90001C9F825
:100E100008200AB0BDE8F087086C00000048704761
:100E2000F00200207546FFF7F9FFAE46050069465F
:100E3000534620F00700854618B020B5FFF740FA6A
:100E4000BDE820404FF000064FF000074FF00008CB
:100E50004FF0000B21F00701AC46ACE8C009ACE84C
:100E6000C009ACE8C009ACE8C0098D46704710B5B0
:100E70000446AFF300802046BDE81040FFF70BBAF0
:100E800001491820ABBEFEE72600020070475FEA6A
:100E9000400C08BF91F0000F4FEA8C234FEAC122AB
:100EA00043EA51514FEA1C5018BF00F5F0404FEA99
:100EB000300018BF41F000415FEA6C5C00F029800F
:100EC000BCF1FF3F08BF40F080407047130C06BFE5
:100ED00012044FF0100C4FF0000C130E04BF12025E
:100EE0000CF1080C130F04BF12010CF1040C930F4A
:100EF00004BF92000CF1020CD30F04BF52000CF19E
:100F0000010C11464FF00002A0F11F00A0EB0C00F5
:100F1000704711F0004F08BF704731F000413FF4B7
:100F2000D5AF0B0C06BF09044FF0100C4FF0000CAE
:100F30000B0E04BF09020CF1080C0B0F04BF0901D2
:100F40000CF1040C8B0F04BF89000CF1020CCB0FC9
:100F500004BF49000CF1010CCCF12003A0EB0C0004
:100F600022FA03F302FA0CF241EA030100F1010054
:100F7000704720F07F4C80EA030023F07F47ACEB02
:100F8000070303F57C5300F0004003F1FF032DE954
:100F900080494FEA154B09B44FEA144325EA0B4E3A
:100FA00024EA03480FF2042606EB132749083E788B
:100FB0005FEA320203FB0667C7F5000707FB06F688
:100FC0004FEA54374FEAD64606F1020607FB066C95
:100FD000CCF1005C4FEA1C472CEA074C07FB06F4F7
:100FE0000CFB06F504EB15464FEA961634BF0020BD
:100FF0004FF000404FEAD13706FB07FC4FEA1C4C8C
:101000000CFB0BF7D21B03FB0CF761EB07010CFB8E
:101010000EF7B0EB074072EB17420CFB08F734BF3A
:10102000A2EB0742B2EB074261EB17414FEA0C44D7
:101030004FEA910706FB07FC4FEA1C4C0CFB0BF731
:10104000B0EBC74072EB573203FB0CF734BFA2EB97
:10105000C742B2EBC74261EB57310CFB0EF7B0EB66
:10106000C70072EB57720CFB08F734BFA2EBC70244
:10107000B2EBC70261EB5771039F4FEA816141EA0E
:10108000921104EBCC044FEAD1374FEA826206FB9F
:1010900007FC42EA90124FEA80604FEA1C4C0CFBBE
:1010A0000BF7D21B03FB0CF761EB07010CFB0EF7F0
:1010B000B0EB074072EB17420CFB08F734BFA2EB12
:1010C0000742B2EB074261EB17414FEA8C554FEAFA
:1010D000910704EB9C2406FB07FC4FEA1C4C0CFB1D
:1010E0000BF7B0EBC74072EB573203FB0CF734BF82
:1010F000A2EBC742B2EBC74261EB57310CFB0EF7D4
:10110000B0EBC70072EB57720CFB08F734BFA2EBD1
:10111000C702B2EBC70261EB577115EB4C254FEAE2
:10112000816141EA92114FEA82624FEAD13742EA85
:10113000901206FB07FC44F100044FEA80604FEA7E
:101140001C4C0CFB0BF7D21B03FB0CF761EB0701EC
:101150000CFB0EF7B0EB074072EB17420CFB08F7E5
:1011600034BFA2EB0742B2EB074261EB174115EB2C
:101170001C154FEA813141EA92414FEA823242EA3C
:1011800090424FEA80304FEA0C7644F1000448EA7E
:1011900003434EEA0B484FF0000EB2EB080C71EB24
:1011A000030724BF624639464EEB0E0E4FF0000B8C
:1011B0000018524149414BEB0B0BB2EB080C71EBA1
:1011C00003077BF1000B24BF624639464EEB0E0E3F
:1011D0004FF0000B0018524149414BEB0B0BB2EBA7
:1011E000080C71EB03077BF1000B24BF6246394604
:1011F0004EEB0E0E51EA020718BF46F0010616EB41
:101200000E7655F1000254F1000103D5BDE88901C5
:10121000BDE80088BDE88901BDE80048B619524123
:1012200041EB0101A3F10103704780807F7E7D7C4B
:101230007B7A7978777676757473727171706F6E68
:101240006E6D6C6C6B6A6A69686867666665646413
:10125000636362616160605F5F5E5E5D5D5C5C5B9D
:101260005B5A5A595958585757565655555554540C
:10127000535352525251515050504F4F4F4E4E4D6A
:101280004D4D4C4C4C4B4B4B4A4A4A4949494848B6
:1012900048474747474646464545454444444443F6
:1012A00043434342424242414141002B9C4630D499
:1012B00077002BD01CB54FEA370703B44FF010006E
:1012C0004FF01001BAF1000F06D0BCF1000FDCBFE7
:1012D00040F0080040F008014FF000000FBCBDE8EE
:1012E00010400BF1010BBBF1010F08BF5FEA1707BC
:1012F00022BF12F1010211F101014FF0004143F14F
:10130000000300F0004043EA00007047F9D357089B
:10131000D0E746EA064613F1400F4FEA16461FDDB6
:1013200013F1200FDFBF16430A46002120335B4232
:10133000BED0C3F1200746EA064602FA07F74FEA95
:10134000164646EA0706C3F1200722FA03F201FA1D
:1013500007F721FA03F14FF0000342EA0702A7E77B
:1013600046EA020646EA06464FEA164646EA0106FD
:10137000BCBF46EA0646360C4FF000034FF00002B1
:101380004FF0000194E72DE9804C9A46934670B4E3
:1013900091E8380007C831EA400C48BF34EA430CF2
:1013A00003D5FFF7E6FDFFF780FFF0BCBDE8008C3A
:1013B0002DE9804C9A46934670B491E8380007C8EE
:1013C00010F0804F08BF13F0804F03D100F005F8F4
:1013D000FFF76BFFF0BCBDE8008C20F07F4780EA90
:1013E000030023F07F4C07EB0C03A3F57C5300F0C4
:1013F0000040A3F1FE0392F0000F00F0B38095F0DF
:10140000000F00F077802DE901494FEA11404FEAC3
:10141000144621EA004800FB06FC24EA064708FBC4
:1014200006F607FB08F800FB07F718EB06484CEB3D
:10143000164C4FEA124B18EB07484FEA15464CEB97
:10144000174022EA0B4E0BFB06FC25EA06470EFB73
:1014500006F607FB0EFE0BFB07F71EEB064E4CEBEA
:10146000164C4FF000061EEB074E4CEB174B18EBDB
:101470000B0840F1000018EB0E0B58EB000840F190
:1014800000008F1A4FF000013CBFC943661B14BF18
:10149000B5EB040C00213CBFC943F61B4FEA1744CF
:1014A0004EEA8E0E27EA04454FEA1C4704FB07620A
:1014B0002CEA074C05FB07F70CFB05F604FB0CFCBC
:1014C00016EB074642EB174216EB0C4642EB1C426A
:1014D0001BEB060658EB0202414146EA9E0601D587
:1014E000BDE80189B619524141EB0101A3F10103A5
:1014F000BDE801894FEA14454FEA114724EA054641
:1015000021EA074C05FB07F406FB07F70CFB06F185
:1015100005FB0CFC11EB074144EB17444FEA124763
:1015200011EB0C4144EB1C4422EA074C05FB07F28B
:1015300006FB07F70CFB06F605FB0CFC16EB074653
:1015400042EB174216EB0C4642EB1C456A1854F16D
:10155000000148BF7047B619524141EB0101A3F1A8
:101560000103704795F0000F37D04FEA11424FEA60
:10157000144721EA024624EA074C02FB07F106FB66
:1015800007F70CFB06F402FB0CFC14EB074441EBE1
:1015900017414FEA154714EB0C4441EB1C4125EA77
:1015A000074C02FB07F506FB07F70CFB06F602FBF0
:1015B0000CFC16EB074645EB174516EB0C4645EBC6
:1015C0001C42121951F1000148BF7047B61952412F
:1015D00041EB0101A3F1010370474FEA14454FEAC3
:1015E000114724EA054621EA074C05FB07F106FBF3
:1015F00007F70CFB06F24FF0000605FB0CFC12EBA4
:10160000074241EB174112EB0C4251EB1C4148BF22
:101610007047921841EB0101A3F1010370470000EC
:1016200070B50446006881688268C1F3400112F019
:10163000010F28D039BB816801F00D01012914D1B7
:101640008168124A1140891C81602168032008606A
:1016500000F03CFF054612E000F038FF401B022876
:101660000DD920688068C00709D0E06D40F01000F7
:10167000E065206E40F001002066012070BD20680A
:101680008068C007E8D1002070BD0000C0FFFF7F68
:10169000F8B50446002000902068816811F0010F21
:1016A00041D18168214A11422ED18168D543294018
:1016B000491C81601E48806800F0E07000020DD572
:1016C0001C481D490068B0FBF1F0401C00EB4000D5
:1016D000800000E0401E00900028FBD100F0F6FEE4
:1016E00006461BE0816811F0010F03D18168294093
:1016F000491C816000F0EAFE801B02280ED9206898
:101700000068C043C00709D0E06D40F01000E065FC
:10171000206E40F0010020660120F8BD20680168BD
:10172000C943C907DED10020F8BD00003F0000809A
:10173000000300500C000020400D0300F0B56F487E
:101740006F4990ED0B0A10EE103A9FED6E1A6E4A3B
:10175000DFED6E0A8B4202DA80ED091A0EE010EE20
:10176000103A934202DD9FED6A0A05E030EE600A0E
:10177000DFED681A20EE210A80ED090A90ED0C0ACF
:1017800010EE103A8B4202DA80ED0A1A0EE010EEEB
:10179000101A914202DD9FED600A05E030EE600A0A
:1017A000DFED5E0A20EE200A80ED0A0A028A5C4C18
:1017B000052A04F1140101EB820604EB820519D31A
:1017C0005FF0000304EB830797ED010A87ED000A41
:1017D00001EB83075B1C97ED010A042B87ED000AE0
:1017E000F0DB90ED090A84ED040A90ED0A0A81ED20
:1017F000040A07E090ED090A85ED000A90ED0A0A57
:1018000086ED000A042A11D394ED040AD4ED030AEC
:1018100030EE600AB0EEC00ABCEEC00A10EE103A1C
:10182000037091ED040AD1ED030A11E0CAB195ED00
:10183000000A55ED010A30EE600AB0EEC00ABCEEB7
:10184000C00A10EE103A037096ED000A56ED010A38
:1018500030EE600AB0EEC00ABCEEC00A10EE103ADC
:101860004370521C95B205822D4A0020283202F1A5
:10187000140300BF04EB800696ED000A02EB80061D
:1018800086ED000A01EB800696ED000A03EB800668
:10189000401C86ED000A0528ECDB012126E0002033
:1018A0001BE000BF02EB8004D4ED000A94ED010AB6
:1018B000F4EEC00AF1EE10FA01DD84EC020A03EB4B
:1018C0008004D4ED000A94ED010AF4EEC00AF1EEB2
:1018D00010FA01DD84EC020A401C052D01D3052419
:1018E00000E02C46641A8442DCDC491C052D01D33F
:1018F000052000E028468842D1DCF0BD1800002019
:10190000CDCCCC3D000000006666663FCDCCCC3D22
:1019100000003443000061430000B4420000E14293
:1019200084020020FEE77047002240F6B83306E04C
:101930000021491C89B29942FBD3521C92B28242C7
:10194000F6D3704770470000F8B5002604460096AD
:1019500090F858000D4601280BD0012084F858005B
:101960002046FFF75DFE0100E06D04D040F010005E
:101970002AE00220F8BD20F4885040F00200E06523
:1019800020688268134B1A4005F080431A4342F0E6
:1019900000428260104A20680EE0009B5B1C0093AE
:1019A000934209D3E06D20F0020040F01000E065A2
:1019B00084F858600120F8BD8368DB0FEDD1E06D3D
:1019C00020F0020040F00100E06584F8586008460D
:1019D000F8BD0000C0FFFF3F02DE04002DE9F84F14
:1019E00000270446009790F85800DFF8E0930D4672
:1019F000B846012811D0012684F85860206803F009
:101A000019F860B1E06D40F02000E0655FF001077B
:101A100084F858803846BDE8F88F0220FBE7D5E906
:101A200000210C23206803EA91131844036B01F092
:101A30001F014FF01F0C0CFA01FCC2F3846223EA71
:101A40000C038A4013430363206802F0F3FF8246CD
:101A5000206802F0EBFF5AEA00003CD1AA6829682E
:101A60002068B2F1004F37D002F0E8FF20684169EA
:101A700021F00041416120686969C268C2F3C10276
:101A8000520091402A69042A31D000EB82002B6871
:101A9000026EDFF83CC303F0F84302EA0C020B438A
:101AA0001A4342F00041016620682A69A96900EBE7
:101AB0008200026E22F080720A430266297F226849
:101AC0002869012910D0002102EB8000026E22F06B
:101AD00000720A4302667DE0002202F0AFFF206838
:101AE000416941F00041C5E74FF00071ECE700218A
:101AF00002F096FF400320684FF0000172D002F020
:101B00008FFF90FAA0F0B0FA80F1286842036ED0FF
:101B100090FAA0F0B0FA80F0814204D10022114680
:101B2000206802F09AFF0121206802F079FF40034B
:101B300020684FF001015DD002F072FF90FAA0F032
:101B4000B0FA80F12868420359D090FAA0F0B0FAB8
:101B500080F0814204D100220121206802F07DFF43
:101B60000221206802F05CFF400320684FF0020170
:101B700048D002F055FF90FAA0F0B0FA80F1286842
:101B8000420344D090FAA0F0B0FA80F0814204D130
:101B900000220221206802F060FF0321206802F089
:101BA0003FFF400320684FF0030133D002F038FFBD
:101BB00090FAA0F0B0FA80F1286842032FD090FA92
:101BC000A0F0B0FA80F0814204D100220321206805
:101BD00002F043FF2068816811F0010F22D0ACE0D1
:101BE00000E004E002F01CFFC0F384618DE7C0F365
:101BF000846091E702F014FFC0F38461A2E7C0F3B0
:101C00008460A6E702F00CFFC0F38461B7E7C0F37D
:101C10008460BBE702F004FFC0F38461CCE7C0F34B
:101C20008460D0E72A7B296850F8B03FC1F3120CDA
:101C300023EA0C0302F0180C664A22FA0CF20A405E
:101C400013430360E968494577D1286841031CD0F4
:101C500090FAA0F1B1FA81F1491C01F01F010929A4
:101C60004FEA403132D8002912D000BF90FAA0F1DB
:101C7000B1FA81F101F1010101F01F0106FA01F64B
:101C800009D100BFC0F3846109E0C0F38461E3E7D8
:101C9000C0F38461EEE790FAA0F1B1FA81F101F1AD
:101CA000010101F01F0146EA816102D1C0F38460A5
:101CB00003E090FAA0F0B0FA80F000F1010000F02B
:101CC0001F0000EB400041EA005132E000290ED035
:101CD00090FAA0F1B1FA81F101F1010101F01F01C7
:101CE00006FA01F606D100BFC0F3846106E0C0F336
:101CF0008461F1E790FAA0F1B1FA81F101F10101FB
:101D000001F01F0146EA816102D1C0F3846003E063
:101D100090FAA0F0B0FA80F000F1010000F01F008E
:101D20002D4A00EB400002EB005041EA000141F077
:101D30000071AA68206802F081FE28482A680242E1
:101D40003FF466AE26488168264B01F0E0719A4266
:101D500002D0254B9A421CD10B021AD42268B2F150
:101D6000A04F7FF455AE826841F4000122F0E0728A
:101D70000A4382601D481E490068B0FBF1F0401C18
:101D800000EB4000800000E0401E00900028FBD1E6
:101D90003EE6184D184BAA4207D1CD0105D4226862
:101DA0009A42F5D041F0807109E0144DAA42EFD17A
:101DB0004A02EDD422689A42EAD041F48001826856
:101DC00022F0E0720A43826022E6000000007F40B9
:101DD00000F0FF03FFFF0700000020FE0000088066
:101DE00000030050000021C31000C0900C00002030
:101DF000400D0300000052C700010050000084CBDA
:101E00000068006C70470000F8B54FF00005040052
:101E10002E46009502D0E06D10B107E00120F8BD1C
:101E2000204600F0EBF8266684F858602068816848
:101E3000C1F3407119B18168684A1140816020681E
:101E40008168C1F3007189B98168654A114041F028
:101E500080518160634864490068B0FBF1F0400044
:101E6000801C00E0401E00900028FBD120688168A3
:101E7000C1F3007141B9E16D41F01001E165216EDE
:101E800041F001012166012502F0D4FDE16DC90692
:101E900000D430B1E06D40F01000E0650125284627
:101EA000F8BDE06D20F4807040F00200E06520682D
:101EB000806810F0010F11D14FF0A04080684B49AD
:101EC00000F00100896801F00101084306D148488B
:101ED0006168826822F47C120A438260E168E06BE8
:101EE000627F0843A16841EA4231084394F8241014
:101EF00040EA0140012904D1218D3E4A02EB4141D3
:101F00000843E16A29B101F47871226B014342EA86
:101F100001002268D168384B19400143D160206824
:101F20000169626B21F0406111430161206802F098
:101F30007DFD70BB207F94F83810800340EA410299
:101F40002168C86844F2020398431043C8602069BE
:101F50000028206801690AD041F4803101612068BD
:101F600050F8C01F22696FF30D01114307E021F4FF
:101F700080310161206850F8C01F6FF30D010160CE
:101F800094F8400001280CD02068016921F001017B
:101F90000161606901282068016B21F00F0111D0F7
:101FA00013E0D4E911010843D4E9131211430843A3
:101FB00021680A6940F2FC739A43104340F0010023
:101FC0000861E6E7226A521E11430163E06D20F0CA
:101FD000020040F00100E06561E70000C0FFFF5F24
:101FE000C0FFFF7F0C000020400D030000010050E7
:101FF000000300500000FEFF0740F0FF10B598B04E
:102000000446142111A8FEF705FB44216846FEF79B
:1020100001FB16492068884225D1C0010090800349
:102020000F90684600F050FB08B1FFF78BFC10489A
:10203000C16C41F40051C164C16C01F400511691AE
:10204000C16C41F00101C164C06C11A900F0010034
:1020500016901020119003201290002013904FF042
:10206000904000F005F918B010BD000000010050CC
:10207000001002402DE9F04104463848806800F025
:102080001F05206802F0D6FC18B102210846BDE801
:10209000F08194F8580001280CD0012084F85800F1
:1020A0002046FFF7F5FA01004FF0000304D084F852
:1020B0005830EBE70220EAE7E06D40F6016290431A
:1020C00040F48070E065264A20684FF0A0469042B8
:1020D00001D1374600E00746874200D01DB9E76DC1
:1020E00027F48017E765E76DFF0404D5276E27F016
:1020F0000607276600E023661C27076084F858302F
:102100002068904201D1334600E00346834215D057
:10211000A5B1052D12D0092D10D0E36D43F4801325
:10212000E365904200D13046C0688001AED5E06DD5
:1021300020F4005040F48050E065A7E7C2689201A7
:1021400005D5E26D22F4005242F48052E2658268C5
:10215000044B1A40121D826098E7000000030050F3
:1021600000010050C0FFFF7F10B590F8253000211E
:102170000122022B03D00421C163012122E0036864
:102180001C6824F00E041C60836C1C6824F48074AA
:102190001C6003681C6824F001041C6090F8443043
:1021A000046C03F01F0302FA03F36360D0E91334F5
:1021B0005C60436D33B11C6824F480741C60D0E90A
:1021C00016345C6080F82520002280F82420084620
:1021D00010BD70B590F82520002401212346022A65
:1021E00007D00422C26380F8251080F8243001242F
:1021F00029E00268156825F00E051560026815686B
:1022000025F001051560826C156825F48075156050
:1022100090F84420056C02F01F0201FA02F26A6095
:10222000D0E913255560426D32B1156825F48075EB
:102230001560D0E91625556080F8251080F8243007
:10224000816B01B18847204670BD000070B504461F
:1022500000F03CF90546601C02D004484068044484
:1022600000F034F9401BA042FAD370BD00000020FA
:102270002DE9F04FDFF82092002301260324A9F175
:10228000040B85B00F2709F1040AABF1040EFAE044
:1022900006FA03F52A407CD091F804C00CF0030C38
:1022A000BCF1010F02D0BCF1020F26D1D0F808C05A
:1022B000CDF800C04FEA430C04FA0CF8CDF810C07A
:1022C000DDF800C02CEA080CCDF800C0D1F80C8075
:1022D000DDF810C008FA0CF8DDF800C048EA0C0878
:1022E000C0F80880D0F804C02CEA050C0D79C5F3BD
:1022F00000159D4045EA0C0545600D79ED43AD079D
:102300000ED0C5684FEA430804FA08FC25EA0C051C
:10231000D1F808C00CFA08FC4CEA050CC0F80CC057
:102320000D7905F00305022D16D1DD0800EB850CB3
:10233000CDF808C0DCF820805D074FEAD56C07FABD
:102340000CF528EA05080D6905FA0CF5DDF808C05A
:1023500045EA0805CCF8205005684FEA430CCDF853
:1023600008C004FA0CFC25EA0C0591F804C00CF036
:102370000308DDF808C008FA0CF848EA0508C0F8B8
:1023800000804D6815F4403F7CD0444DD5F860C0C6
:1023900000E077E04CF0010CC5F860C02D6E23F032
:1023A000030C05F0010500953D4D65440295AD68AF
:1023B0004FEA837C4FEA1C7807FA08FC25EA0C05F3
:1023C000B0F1904F06D0DFF8DCC0604505D14FF08A
:1023D000010C20E04FF0000C1DE0DFF8CCC06045A0
:1023E00002D14FF0020C16E0DFF8C0C0604502D108
:1023F0004FF0030C0FE0DFF8B8C0604502D14FF09A
:10240000040C08E0DFF8ACC0604502D14FF0050CC9
:1024100001E04FF0060C0CFA08FC4CEA050C029D9A
:10242000C5F808C0D9F80050CC46D1F804809543CF
:102430005FEAC82800D51543CCF80050DAF8005000
:10244000D446D1F8048095435FEA882800D5154327
:10245000CCF80050DBF80050DC46D1F804809543FE
:102460005FEA883800D51543CCF80050DEF80050FC
:10247000F446D1F8048095435FEAC83800D5154387
:10248000CCF800505B1C0A6832FA03F57FF400AF09
:1024900005B0BDE8F08F00000804014000100240C4
:1024A000000001400004004800080048000C0048FB
:1024B00000100048001400480069084000D00120C6
:1024C00070470AB181617047816270470148806836
:1024D00070470000000000200248816842681144F3
:1024E000816070470000002010B50024032000F038
:1024F00073F8002000F008F808B1012401E000F0B2
:1025000025F8204610BD000070B50E4E054600248B
:10251000706898B14FF47A71B1FBF0F00A4909681C
:10252000B1FBF0F000F060FD40B9102D06D20022A2
:102530002946501E00F030F8356000E001242046A6
:1025400070BD0000000000200C0000200A4882B08E
:10255000016E41F001010166016E01F0010100917F
:10256000816D41F080518165806D00F08050009058
:1025700002B000F0A1B8000000100240002809DB02
:1025800000F01F02012191404009800000F1E0208D
:10259000C0F8001170470000F0B40E4B1B680C46E9
:1025A000C3F30223C3F10705042D00D90425191D27
:1025B000072901D2002300E0DB1E012606FA05F1FF
:1025C000491E214099409E40761E16403143F0BC82
:1025D00003F01DBD0CED00E0064900F0070208689D
:1025E0004FF6FF03184040EA0220034A10430860F8
:1025F000704700000CED00E00000FA052B492C4B61
:102600000A6832214A432B4940B1B0F5007F08687F
:1026100029D020F4C06040F480602CE00868C0F34A
:102620004120022804D051F8800F20F4807022E06D
:10263000D1F8800020F48070C1F88000086820F490
:10264000C06040F400700860B2FBF3F0401C00E092
:10265000401E4A69520501D50028F9D14869400554
:102660000AD503207047C0F34120022806D051F854
:10267000800F40F48070086000207047D1F880001F
:1026800040F48070C1F88000086820F4C06040F415
:1026900000700860B2FBF3F0401C00E0401E4A6985
:1026A0005205DBD50028F9D1D8E700000C00002046
:1026B00040420F00007000400248816841F48041B0
:1026C00081607047007000402DE9F84304460068BF
:1026D00000269D4D00035ED5A86D0027C00008D4DC
:1026E000A86D40F08050A865A86D012700F08050CB
:1026F0000090DFF85892D9F8001041F48071C9F8C1
:102700000010FFF7E3FE804606E000BFFFF7DEFEA5
:10271000A0EB080002282BD8D9F80000C005F5D599
:10272000D5F8900010F4407014D0216C814211D083
:10273000D5F89000D5F8901020F4407041F4803125
:10274000C5F89010D5F8901021F48031C5F890109C
:10275000C5F89000C00711D0FFF7B8FE804641F2DF
:10276000883907E0FFF7B2FEA0EB0801494501D91F
:1027700003260BE0D5F890008007F3D5D5F890003C
:10278000216C20F440700843C5F890001FB1A86D7B
:1027900020F08050A8652078C00707D0D5F88800C1
:1027A000616820F003000843C5F88800207880079E
:1027B00007D5D5F88800A16820F00C000843C5F8BB
:1027C00088002078400707D5D5F88800E16820F018
:1027D00030000843C5F888002078000707D5D5F8F1
:1027E0008800216920F0C0000843C5F888002078DF
:1027F000800607D5D5F88800616920F44060084359
:10280000C5F888002078400607D5D5F88800A1696A
:1028100020F440500843C5F888002078000607D50A
:10282000D5F88800E16920F440400843C5F88800E5
:102830002088C00507D5D5F88800216A20F44030EB
:102840000843C5F888002088800507D5D5F888009A
:10285000616A20F440200843C5F8880020884005BC
:102860000FD5D5F88800A16A20F440100843C5F8B8
:102870008800A06AB0F5801F03D1E86840F480109A
:10288000E860208800050FD5D5F88800E16A20F4BB
:1028900040000843C5F88800E06AB0F5800F03D116
:1028A000E86840F48010E8602088C0040FD5D5F8AF
:1028B0008800216B20F040700843C5F88800206B29
:1028C000B0F1807F03D1E86840F48010E860208890
:1028D0004FF0006180040ED5D5F88800626B20F0BF
:1028E00040601043C5F88800606B884203D1E868F7
:1028F00040F48010E860208840040ED5D5F88800A8
:10290000A26B20F040601043C5F88800A06B88429D
:1029100003D1E86840F48010E860208800040FD5F7
:10292000D5F88800E16B20F040500843C5F88800D6
:10293000E06BB0F1805F03D1E86840F48030E8607C
:102940003046BDE8F88300000010024000700040EF
:102950002DE9F0470E4605004FF0000725D0DFF8BF
:10296000AC81D8F8000000F00F00B0420CD2D8F8CB
:10297000001021F00F013143C8F80010D8F8000012
:1029800000F00F00B04210D12968614CC80741F235
:10299000883A5AD06868DFF87C91032808D002286A
:1029A00020682DD0400500282CDB0120BDE8F087F1
:1029B00020688001F9D5E06800F00302E068C0F308
:1029C0000310401C032A19D0534A00BFB2FBF0F099
:1029D000E268C2F306225043E268C2F34162521C2D
:1029E0005200B0FBF2F0484517D9A06810F0F00F84
:1029F0000CD0880711D5A86840B10EE0474AE5E73A
:102A00008003D0E700F0B6F8484506D9A06820F06A
:102A1000F00040F08000A0608027A068696820F086
:102A200003000843A060FFF751FD814606E000BFA8
:102A3000FFF74CFDA0EB090151453AD8A068696841
:102A400000F00C00B0EB810FF2D12868810714D59B
:102A5000400703D5A06840F4E060A0602878000734
:102A600005D5A06820F4605040F4E060A060A06844
:102A7000A96820F0F000084304E0802F03D1A0688B
:102A800020F0F000A060D8F80010404601F00F01DF
:102A9000B14216D9016821F00F0131430160FFF7FF
:102AA00015FD074607E000BFFFF710FDC11B5145AC
:102AB00001D903207AE7D8F8000000F00F00B042F7
:102AC000F2D12878400705D5A068E96820F4E060D5
:102AD0000843A0602878000706D5A068296920F47B
:102AE000605040EAC100A06000F044F8A1680C4AC0
:102AF000C1F30311515C01F01F01C840094908608E
:102B000009480068BDE8F047FFF7FEBC002002401E
:102B10000010024000B4C4040024F40000366E012A
:102B2000EA6600080C000020000000200548064965
:102B300000688968054AC1F30221515C01F01F0158
:102B4000C84070470C00002000100240FA660008E0
:102B50000548064900688968054AC1F3C221515CED
:102B600001F01F01C84070470C0000200010024017
:102B7000FA660008184910B58868C0F38102174842
:102B8000012A0BD08A68164BC2F38102022A06D0B2
:102B90008A68C2F38102032A03D0002010BD1846C0
:102BA00010BDCA6802F00304CA68C2F30312521CC3
:102BB000032C02D0B0FBF2F001E0B3FBF2F0CA68E4
:102BC000C968C2F306225043C1F34161491C490060
:102BD000B0FBF1F010BD0000001002400024F40032
:102BE00000366E012DE9F84304007AD02078F84DC4
:102BF000C00747D0A868E96800F00C0001F00301A5
:102C00000C2802D0082817D001E0032914D06068EE
:102C1000B0F5803F17D0B0F5A02F286817D020F46A
:102C200080302860286820F4802028606068E0B147
:102C3000FFF74CFC064614E02868800322D5606844
:102C40000028D2D01EE0286840F48030EDE740F440
:102C500080202860F7E700BFFFF738FC801B64285E
:102C600070D828688003F7D50CE0FFF72FFC0646E4
:102C700005E000BFFFF72AFC801B6428F0D8286815
:102C80008003F7D4207880074CD5A868E96800F065
:102C90000C0001F003010C2802D004280DD001E043
:102CA00002290AD0E068002828682BD040F4807000
:102CB0002860FFF70BFC064619E02868400502D59E
:102CC000E068002891D06868217C20F0FE4040EA4E
:102CD00001606860BF480068FFF716FC002800D15B
:102CE00020E072E1FFF7F2FB801B0228B8D82868C9
:102CF0004005F7D56868217C20F0FE4040EA01607D
:102D000068600FE020F480702860FFF7DFFB064664
:102D100005E000BFFFF7DAFB801B0228A0D8286877
:102D20004005F7D42078000729D560690028D5F838
:102D3000940013D040F00100C5F89400FFF7C6FBE3
:102D4000064606E090E000BFFFF7C0FB801B0228AC
:102D500086D8D5F894008007F6D510E020F0010061
:102D6000C5F89400FFF7B2FB064604E0FFF7AEFBA0
:102D7000801B022878D8D5F894008007F6D42078F4
:102D8000400761D5A86D0026C00008D4A86D40F0AA
:102D90008050A865A86D012600F0805000908E48F4
:102DA0000168C90511D40168804641F48071016051
:102DB000FFF78CFB074604E0FFF788FBC01B0228E7
:102DC00052D8D8F80000C005F6D5A068012815D063
:102DD0000528D5F8900016D020F00100C5F8900025
:102DE000D5F8900020F00400C5F89000A06841F2EA
:102DF0008838B8B1FFF76AFB07460EE0D5F89000B7
:102E000040F00100F0E740F00400C5F89000F5E75D
:102E1000FFF75CFBC11B414526D8D5F89000800721
:102E2000F6D50CE0FFF752FB074604E0FFF74EFB38
:102E3000C11B414518D8D5F890008007F6D41EB1C3
:102E4000A86D20F08050A8652078800629D5A0695B
:102E50000028D5F8980013D040F00100C5F898007C
:102E6000FFF734FB064606E075E000BFFFF72EFBD8
:102E7000801B02286FD8D5F898008007F6D510E09F
:102E800020F00100C5F89800FFF720FB064604E09B
:102E9000FFF71CFB801B02285DD8D5F8980080073F
:102EA000F6D4E069F0B3A968C1F3810103295DD0CC
:102EB0000228286820F08070286003D0FFF706FB06
:102EC00004464BE0FFF702FB064604E0FFF7FEFA7C
:102ED000801B02283FD828688001F7D4F4E9080154
:102EE0006FF00F0202EB01110843218A52044908D6
:102EF00002EB4151A26841EA02210843217D4FF0D3
:102F00007E42490802EB41610843217B40EAC160EF
:102F1000E968324A11400843E860286840F0807050
:102F2000286000E05EE0E86840F08070E860FFF74D
:102F3000CDFA044605E000BFFFF7C8FA001B0228DF
:102F400009D828688001F7D54CE000BFFFF7BEFA2A
:102F5000001B022802D90320BDE8F88328688001FD
:102F6000F4D4E8681E490840E8603BE00128F3D04B
:102F7000E868226A00F00301914226D1616A00F0FC
:102F8000F0020901103991421FD1A26A00F4FE41FA
:102F9000B1EB022F19D194F82C2000F07841B1EB5D
:102FA000C26F12D1218E00F4C00249084905A1F573
:102FB0000011914209D194F8341000F0C060490822
:102FC0004906A1F1007181420CD00120C4E7000044
:102FD0000010024000000020007000400C809F01A3
:102FE000FCFFEEFE0020B7E710B5401EB0F1807F79
:102FF00001D3012010BD4FF0E02460610F21601764
:1030000003F005F80020A06107202061002010BD1A
:10301000704770477047704770477047F0B590F839
:103020003C20012A3AD0012580F83C50022280F849
:103030003D2003685A689C68194E1A4FB34201D06C
:10304000BB4204D122F4700C4A6842EA0C02DFF859
:1030500058C002EA0C02D1F800C04CEA020CC3F8D6
:1030600004C00268B2420DD0B2F1804F0AD00F4BBB
:103070009A4207D00E4B9A4204D0BA4202D00D4B6E
:103080009A4204D1896824F080031943916080F842
:103090003D50002180F83C100846F0BD0220F0BDF4
:1030A000002C0140003401408FFFFFFD0004004070
:1030B0000008004000400140704710B5040003D0F4
:1030C00094F83D0010B107E0012010BD002084F805
:1030D0003C00204600F022F8022084F83D00211D2B
:1030E000206802F093F8012084F8480084F83E003C
:1030F00084F83F0084F8400084F8410084F84200DE
:1031000084F8430084F8440084F8450084F84600BD
:1031100084F8470084F83D00002010BD30B587B02A
:10312000044614216846FDF775FA236800243549E2
:1031300002224FF09040B3F1804F25D0324DAB4288
:1031400042D18B6D43F002038B658B6D03F002035C
:103150000593CB6C43F00103CB64C96C01F0010112
:103160000591C0218DE81600CDE903426946FFF7BD
:103170007FF8002211461D20FFF70EFA5FF01D00B8
:10318000FFF7FCF907B030BD8B6D43F001038B6591
:103190008B6D03F001030593CB6C43F00103CB640B
:1031A000C96C009201F001010591CDE901240121D2
:1031B000CDE903416946FFF75BF8002211461C2068
:1031C000FFF7EAF91C20DBE7104883420ED1886D37
:1031D00040F010008865886D002200F01000059016
:1031E00011463620FFF7D8F93620C9E70848834250
:1031F000C8D1086E40F480200866086E00F4802074
:103200000590BFE70010024000040040001000409D
:103210000048014090F83D10012901D0012070477D
:10322000022180F83D100168CA6842F00102CA60BC
:103230000068104988420ED0B0F1804F0BD00E4983
:10324000884208D00D49884205D00D49884202D0F5
:103250000C49884207D181680B4A1140062906D0E3
:10326000B1F5803F03D0016841F001010160002009
:1032700070470000002C014000040040000800409E
:1032800000340140004001400700010070B50446D1
:1032900090F83C000025012814D0012684F83C60F9
:1032A000022084F83D0022689068364B184020F4D4
:1032B0007F409060086870282ED010DC10F00F0F4F
:1032C00003D021E04FF0020070BD4FEA2012072A20
:1032D0001AD2DFE802F0525252524A3840002A4BCA
:1032E000C21A984249D009DCB0F5805F0DD0B0F524
:1032F000005F1CD0B0F1101F06D13EE0102A3CD078
:10330000202A3AD0502A38D0012584F83D60002088
:1033100084F83C00284670BDCB68D1E901212068C3
:1033200001F0DFFF2068816841F0770109E0CB6898
:10333000D1E90121206801F0D4FF2068816841F4BF
:1033400080418160E1E7CA684968206802F046F878
:103350005021206806E0CA684968206802F086F8B3
:103360006021206801F0C8FFCFE7CA68496820687B
:1033700002F034F840212068F4E722680146104644
:10338000F0E7000088FFCEFF200010002DE9F0419B
:1033900005462DED028B0068554CB0F1804F07D1EA
:1033A0000421284600F0ECFA5249B1FBF0F02081EC
:1033B0005149286888425CD1297F012302264FF0B9
:1033C00000084FF6FF7201292DD1A17951B10129D1
:1033D00015D0406B80B2A082618A814234D9511AE3
:1033E000084432E0416B6182016A21F00A01016206
:1033F0002868016A41F002010162A37113E0416B88
:1034000089B2A182678A8F4202D9D71B0F4400E09C
:10341000CF1BE7826182A671016A21F00A01016275
:103420002868016A0162287F022822D1E07920B34E
:10343000012830D02868806B80B2A083618B8142E4
:103440003FD9511A08443DE0401A2083E58A80B2F2
:10345000284403F051F841EC180B284603F04CF8CF
:1034600053EC182B02F0F0FE02F0BCFEE06284F890
:103470000680BDEC028BBDE8F0812868816B61831A
:10348000016A21F0A00101622868016A41F020016F
:103490000162E371EDE72968886B80B2A083638BDA
:1034A000834202D9D21A024400E0C21AE283608346
:1034B000E671086A20F0A00008622868016A0162CB
:1034C000D7E7401A2084E58B80B2284403F014F833
:1034D00041EC180B284603F00FF853EC182B02F0C0
:1034E000B3FE02F07FFE206384F80780C1E700008E
:1034F0001800002040420F00000400402DE9F04178
:10350000054690F83C0000260C46012810D001200A
:1035100085F83C0072B1042A1CD0082A2CD00C2A51
:1035200050D00126002085F83C003046BDE8F081EF
:103530000220FBE7D4E90012E368286801F060FF8D
:103540002868816921F00C01816128688169A2687D
:1035500011430FE0D4E90012E368286801F098FFF6
:103560002868816921F44061816128688169A268C5
:1035700041EA02218161D5E72868D4E9002C277B44
:10358000036A016A21F480710162C16923F4206336
:1035900021F0030141EA0C0121F0F00C39074FF44E
:1035A00020674CEA116107EA02221A43C1610262F4
:1035B0002868C16921F00C01C1612868C169A2684D
:1035C00011432BE02868D4E90021E768036AD0F8AA
:1035D00020C02CF4805CC0F820C0D0F81CC023F4BC
:1035E00020432CF4407C4CEA012121F4704C4FF62E
:1035F000FF7101EA07314FF4204741EA0C0107EA65
:1036000002321A43C16102622868C16921F4406133
:10361000C1612868C169A26841EA0221C16181E7EC
:1036200010B5040003D094F83D0010B107E001206C
:1036300010BD002084F83C00204600F022F8022053
:1036400084F83D00211D206801F0E0FD012084F890
:10365000480084F83E0084F83F0084F8400084F875
:10366000410084F8420084F8430084F8440084F860
:10367000450084F8460084F8470084F83D000020A7
:1036800010BD704730B50446002571B1042911D032
:10369000082914D00C2917D0102918D094F8430009
:1036A00094F84720012817D114E094F83E0094F8CC
:1036B0004420F7E794F83F0094F84520F2E794F8A7
:1036C000400094F84620EDE794F84100E8E794F8CC
:1036D0004200E5E7012A01D0012030BD022079B186
:1036E000042916D008291DD00C2949D010294AD008
:1036F00084F8430084F847000C2947D001253DE0B9
:1037000084F83E0084F844002068C26842F0020257
:1037100010E084F83F0084F845002068C26842F059
:10372000040207E084F8400084F846002068C2687C
:1037300042F00802C2600122206801F0C5FD16496E
:10374000206888420ED0B0F1804F0BD013498842D8
:1037500008D01349884205D01249884202D0124944
:10376000884207D18168114A1140062906D0B1F577
:10377000803F03D0016841F001010160284630BD5F
:1037800084F84100B6E784F84200B3E72068C268D5
:1037900042F01002CEE70000002C0140000400407F
:1037A00000080040003401400040014007000100D3
:1037B0002DE9F04104460068C66805694FF000072E
:1037C000A90713D5B10711D5F91E01610120207792
:1037D000206880698007204602D0FFF7D7FD04E00B
:1037E00000F0B7F8204600F0B5F82777680716D53F
:1037F000700714D521686FF004000861022020775B
:103800002068806910F4407F204602D0FFF7BEFD9B
:1038100004E000F09EF8204600F09CF82777280787
:1038200015D5300713D521686FF008000861042012
:1038300020772068C0698007204602D0FFF7A6FDE8
:1038400004E000F086F8204600F084F82777E806C8
:1038500016D5F00614D521686FF010000861082015
:1038600020772068C06910F4407F204602D0FFF71F
:103870008DFD04E000F06DF8204600F06BF827772E
:10388000E80708D0F00706D021686FF00100086152
:10389000204600F061F8280601D4A80408D53006B7
:1038A00006D521686FF4025008612046FFF7B1FB8E
:1038B000E80508D5300606D521686FF480700861E8
:1038C0002046FFF7A5FB680608D5700606D52168D7
:1038D0006FF040000861204600F092F8A80608D575
:1038E000B00606D521686FF0200008612046FFF77A
:1038F00091FBE80208D5F00206D521686FF480102C
:1039000008612046FFF788FBA80208D5B00206D55B
:1039100021686FF4001008612046FFF77CFB680205
:1039200008D5700206D521686FF480000861204632
:10393000FFF773FB28020AD5300208D521686FF41F
:10394000000008612046BDE8F041FFF7B5BBBDE8C7
:10395000F08170477047000010B500680649884242
:1039600008D102F0AFFB054802F068FBBDE810404B
:1039700002F070BB10BD0000001000405400002099
:103980000246002041B1042909D008290AD00C2997
:1039900001D11068006C70471068406B7047106868
:1039A000806B70471068C06B704770B5044690F824
:1039B0003C00012812D0012584F83C50022084F8F4
:1039C0003D00204601F0A2FC01004FF0000007D0AE
:1039D00084F83D5084F83C00012070BD022070BD89
:1039E0002168CA6822F04002CA602168CA6822F4CD
:1039F0008042CA6084F83D5084F83C00002070BDCD
:103A0000704790F88410012918D0012180F88410A3
:103A10002421C0F8881001680A680B6823F00103AC
:103A20000B6022F0005100224266036819602021D9
:103A3000C0F8881080F88420104670470220704734
:103A400070B50446D0F88C000025202801D0022053
:103A500070BD69B162B10120E06600202067204698
:103A600002F0E4F9E06E012804D00125284670BD7B
:103A7000012070BD216810200862216851E8000F04
:103A800040F0100041E80002002AF6D1EEE7000005
:103A9000F0B5064685B09CA19C48FCF7E3FD9C4C24
:103AA00008B39CA19948FCF7DDFD28B39AA197487B
:103AB000FCF7D8FD60B399A19448FCF7D3FD00282A
:103AC00078D097A19148FCF7CDFD002868D095A14A
:103AD0008E48FCF7C7FD00287DD08C4A92A168462D
:103AE000FCF778FC46E0606A02F06EFD41EC100BDA
:103AF00090A153EC102B07E0A06A02F065FD41ECA9
:103B0000100B8FA153EC102B6846FCF763FC31E0DF
:103B10008EA16846FCF75EFC6846FCF75CFD82B24D
:103B200032236946304600F076FB784F0025503F3F
:103B300016E09DB357F8250002F046FD41EC100B4E
:103B400083A153EC102B6846FCF744FC6846FCF755
:103B500042FD82B232236946304600F05CFB6D1CA8
:103B6000208A052800D30520A842E2DC70A168461F
:103B7000FCF730FC6846FCF72EFD82B23223694622
:103B8000304600F048FB0A216048FCF743FD0A225A
:103B90005E497148FFF754FF05B0F0BD01E009E050
:103BA00041E0386802F010FD41EC100B6BA153ECC2
:103BB000102BC8E76BA16846FCF70CFC6846FCF7C5
:103BC0000AFD82B232236946304600F024FB4F4F93
:103BD00000253C3F17E05EE0E5B157F8250002F014
:103BE000F3FC41EC100B5AA153EC102B6846FCF788
:103BF000F1FB6846FCF7EFFC82B23223694630469F
:103C000000F009FB6D1C208A052800D30520A8427E
:103C1000E2DCABE7386802F0D7FC41EC100B4FA1B7
:103C200053EC102BE2E750A16846FCF7D3FB684643
:103C3000FCF7D1FC82B232236946304600F0EBFA41
:103C4000324F0025283F16E0E5B157F8250002F075
:103C5000BBFC41EC100B3EA153EC102B6846FCF76B
:103C6000B9FB6846FCF7B7FC82B23223694630469E
:103C700000F0D1FA6D1C208A052800D30520A84247
:103C8000E2DC73E7386802F09FFC41EC100B33A1D3
:103C900053EC102BE2E735A16846FCF79BFB684626
:103CA000FCF799FC82B232236946304600F0B3FA41
:103CB000164F0025143F16E0E5B157F8250002F035
:103CC00083FC41EC100B22A153EC102B6846FCF74F
:103CD00081FB6846FCF77FFC82B23223694630469E
:103CE00000F099FA6D1C208A052800D30520A8420F
:103CF000E2DC3BE7386802F067FC41EC100B17A1EF
:103D000053EC102BE2E70000613F0000D4020020DA
:103D100018000020623F000061613F0062623F00C6
:103D200071613F0071623F006572726F723A257374
:103D30000D0A0000613A252E31660D0A00000000D0
:103D4000623A252E31660D0A0000000061613A00DA
:103D50002D252E3166000000F0010020252E316651
:103D60000000000062623A0071613A0071623A003C
:103D7000704770B5044690F8840001281DD00120DA
:103D800084F884002420C4F888002068056802684C
:103D900022F0010202602068826822F060620A4319
:103DA0008260204601F090FB206805602020C4F866
:103DB0008800002084F8840070BD022070BD70B5BA
:103DC000044690F8840001281DD0012084F8840066
:103DD0002420C4F8880020680568026822F00102E7
:103DE00002602068826822F060420A4382602046B6
:103DF00001F06AFB206805602020C4F888000020DC
:103E000084F8840070BD022070BD70477047704711
:103E10002DE9F04103680446D86919689A6840F6AC
:103E20000F0528424FF000054FF002060AD1870621
:103E30007ED501F0200702F0805C57EA0C0777D0AE
:103E4000616F3AE1B24FDFF8CCC2174001EA0C0CC7
:103E500057EA0C0C6CD05FEAC07C0CD05FEAC15C06
:103E600009D54FF0010CC3F820C0D4F8903043F0CE
:103E70000103C4F89030830709D5D30707D023681E
:103E80001E62D4F8903043F00403C4F89030430726
:103E90000AD5D30708D0266804233362D4F89030BB
:103EA00043F00203C4F8903003070CD501F020035F
:103EB0003B4308D0266808233362D4F8903043F09F
:103EC0000803C4F8903003050BD54B0109D52668CB
:103ED0004FF400633362D4F8903043F02003C4F809
:103EE0009030D4F89030002B3DD0800609D501F0F9
:103EF000200002F08051084303D0616F09B12046D1
:103F00008847D4F8900021688968490602D410F0E7
:103F1000280F2AD0204601F0BDFB206880684006AB
:103F20001ED52068083050E8001F21F0400100E055
:103F300021E040E80012002AF3D1D4F8800078B1E3
:103F400075498163D4F88000FEF743F900280AD050
:103F5000D4F88000816B00E02046BDE8F0410847BE
:103F60002046FFF754FFBDE8F0812046FFF74FFFE2
:103F7000C4F89050F7E7D4F86CC02027BCF1010FCB
:103F80007ED15FEAC06C7BD55FEAC16C78D510202A
:103F9000186220688068400645D5D4F8801008680B
:103FA00040680004000CDED0B4F85C208242DAD90C
:103FB000A4F85E000868006880062CD4216851E8E7
:103FC000000F20F4807041E80002002AF6D120683A
:103FD000083050E8001F21F0010140E80012002ADB
:103FE000F5D12068083050E8001F21F0400140E87A
:103FF0000012002AF5D1C4F88C70E566206850E8FC
:10400000001F21F0100140E80012002AF6D1D4F878
:104010008000FEF7A9F82667B4F85C00B4F85E10DB
:10402000401A81B230E0B4F85C00B4F85E10401A77
:1040300081B2B4F85E00002895D0002993D02268A0
:1040400052E8000F20F4907042E80003002BF6D1F4
:104050002F4BDB432068083050E8002F1A4040E81F
:10406000002CBCF1000FF5D1C4F88C70E5666567D3
:10407000226852E8000F20F0100042E8000300E040
:1040800006E0002BF4D126672046FFF701FD6AE722
:10409000C60209D5560207D54FF480101862204693
:1040A000BDE8F041FFF7B2BE03060AD501F0800378
:1040B00002F40002134304D0A16F00297FF44CAF37
:1040C00051E7420611D54A060FD52046026852E84C
:1040D000001F21F0400142E80013002BF6D1C0F888
:1040E0008870856700F0EEF83DE7020206D54A00C9
:1040F00004D52046BDE8F041FFF787BEC001C6D514
:104100000029C4DA2046BDE8F041FFF731BE0000C7
:1041100001000010200100048156000810B50400C1
:1041200003D0D4F8880010B107E0012010BD0020B2
:1041300084F88400204600F027F82420C4F8880082
:104140002068016821F001010160A06A10B12046D9
:1041500001F0DCF9204601F02FFD0128E6D02068AF
:10416000416821F4904141602068816821F02A0172
:1041700081602068016841F0010101602046BDE8CE
:10418000104001F027BA000010B598B00446142181
:1041900011A8FCF73FFA44216846FCF73BFA1B499B
:1041A0002068884230D101200024CDE9000468460F
:1041B000FEF78AFA08B1FDF7C5FB1548016E41F418
:1041C00080410166016E01F480411691C16C41F09D
:1041D0000101C164C06C11A900F0010016904FF4F8
:1041E000C06011900220CDE912040720CDE91440EF
:1041F0004FF09040FEF73CF8002211462520FEF7D4
:10420000CBF92520FEF7BAF918B010BD00380140EF
:104210000010024070472DE9F8430446D0F88800AA
:10422000984616460D46202802D00220BDE8F883A5
:10423000A5B19EB10020C4F890002120C4F88800E8
:104240001834FEF743F9A6878146E68754F8100C28
:104250002027183CB0F5805F02D003E00120E5E79D
:10426000206910B12E46002510E000260EE08021C6
:10427000204601F063FEC0B9DEB116F8010B2168DB
:104280008862B4F85600401EA4F85600B4F85600F0
:104290004B464FF00002CDF800800028E7D14FF0E8
:1042A0004001204601F04AFE40B1C4F88870032066
:1042B000BCE735F8020BC0F30800E0E7C4F88870EB
:1042C0000020B3E77047FEE770B52F482F4C00265B
:1042D0008078012805D0E6702D4D687901280BD033
:1042E00015E0E0780028F7D1A078422801D1FDF749
:1042F00025FA0120E070EFE72079401CC0B2207160
:10430000022800D12671002000F072F86E71287A20
:10431000012812D1207901280ED160890A220A30A1
:1043200081B26181A0890A3080B2A0813C2900D984
:1043300062813C2800D9A2812E72E87A012819D125
:10434000207910B1012808D013E0A078412802D0CC
:104350004120A0700DE04220FBE7E08942F210719D
:1043600000F57A7080B2E081884202D94FF47A7009
:10437000E081EE72A87B012805D1A078412801D107
:10438000FDF7DCF9AE7370BD4E0000201800002070
:10439000DE02002000B585B014216846FCF73AF92A
:1043A0004FF6FF70009000200321CDE9020101903B
:1043B00069460248FDF75CFF05B000BD00080048F3
:1043C00000B585B014216846FCF724F94FF6FF705C
:1043D0000090012001900320039000200290694684
:1043E0000248FDF745FF05B000BD00000008004889
:1043F00070B5002406462146204600F003F900F07F
:1044000041F94FF49635304600F010F9641CAC4287
:10441000F9D370BD30B587B014216846FCF7FAF8BF
:104420001E48C16C41F00401C164C16C01F004017B
:104430000591C16C41F00101C164C16C01F0010141
:104440000591C16C41F00201C164C06C012500F00E
:10445000020005904FF44870CDE900050024039454
:10446000694602940E48FDF703FF2802039400906A
:10447000CDE901544FF0904469462046FDF7F8FE1F
:10448000FFF79EFFA06940F48070A06104481830D7
:10449000016841F40871016007B030BD00100240AE
:1044A00000040048203AD2B2034B02EB420203EB75
:1044B000021200F019B8000002670008F0B50E46BD
:1044C0000746002540F23F1407E021463846FFF733
:1044D000E9FF103C6D1CA4B2761C3278002A01D092
:1044E000142DF2D3F0BD00002DE9F04791468A4625
:1044F0000026044600F086F8DFF84080012700BF60
:1045000000F0C0F85FF0000539F8160007FA05F171
:104510000842404601D1408800E0008800F086F85B
:104520006D1C102DF0D3641CE4B25146204600F0FF
:1045300069F8761C182EE3D3BDE8F0871000002040
:1045400010B5FFF767FF002000F014F8084CA080BA
:10455000A088A0F50241303906D000F005FD00200A
:1045600000F008F8A08010BD00F075FCF7E700002F
:104570001000002070B51D490A6842F400720A60FC
:104580000A6842F480720A60184C103C226842F0BB
:1045900020022260164A1060086840F0200008607F
:1045A00000BF00BF00BF206840F0200020602068EE
:1045B00040F480702060FFF7EDFE4FF09041886A74
:1045C00040F48070886200BF00BF00BF0848001F31
:1045D000006885B2886940F480708861FFF7F0FE5A
:1045E000206840F400702060284670BD2804004810
:1045F0001408004801B5BDF800000149488008BD15
:104600001000002010B50C460146202000F068F88C
:104610002146BDE81040212000F062B801B5BDF888
:1046200000000149088008BD10000020134A1168ED
:1046300041F400711160114910390B6843F4807323
:104640000B600B6843F020030B600D4B1860106883
:1046500040F02000106000BF00BF00BF086840F0BD
:1046600020000860086840F48070086000BF00BF48
:1046700000BF086840F400700860704728040048D4
:10468000140800481449086840F40070086008687D
:1046900040F48070086010481038026842F0200230
:1046A00002600E4B22221A600A6842F020020A6061
:1046B00000BF00BF00BF016841F020010160016838
:1046C00041F48071016000BF00BF00BF016841F488
:1046D0000071016070470000280400481408004879
:1046E000184B10B51A6842F400721A601A6842F446
:1046F00080721A60134A103A146844F0200414605F
:10470000114C2060186840F02000186000BF00BF06
:1047100000BF106840F020001060106840F4807006
:1047200010602160186840F02000186000BF00BFD2
:1047300000BF106840F020001060106840F48070E6
:10474000106010BD280400481408004810B53F4C04
:1047500088B02079002825D03DA16846FBF73AFEB5
:1047600069461820FFF7AAFE62893EA16846FBF75A
:1047700031FE69463020FFF7A1FEA2893EA16846BE
:10478000FBF728FE69464820FFF798FEE2893FA123
:104790006846FBF71FFE69465FF06000FFF78EFE7C
:1047A00008B010BD3EA16846FBF714FE694618200C
:1047B000FFF784FE606A01F007FF41EC100B3DA19A
:1047C00053EC102B6846FBF705FE69463020FFF7D7
:1047D00075FEA06A01F0F8FE41EC100B3AA153EC13
:1047E000102B6846FBF7F6FD69464820FFF766FE8A
:1047F00022893AA16846FBF7EDFD69466020FFF784
:104800005DFE22783AA16846FBF7E4FD69469020F8
:10481000FFF754FE62783BA16846FBF7DBFD694673
:10482000A820FFF74BFEA2783BA16846FBF7D2FD1C
:104830006946C020FFF742FE3C483DA10288684619
:10484000FBF7C8FD6946D820A8E700001800002043
:1048500020202020202020205041524120202020B4
:10486000202000002020205061783A25642020205C
:1048700020202020202000002020205062783A258F
:1048800064202020202020202020000020202050F4
:10489000663A2564202020202020202020000000CF
:1048A000202020202020202044415441202020206E
:1048B00020200000202020613A252E316620202073
:1048C0002020202020200000202020623A252E31A8
:1048D000662020202020202020200000202020668C
:1048E0003A2564487A202020202020202020000023
:1048F00020202061783A25642020202020202020BC
:104900002000000020202062783A2564202020200A
:1049100020202020200000002020206D6F64653AB8
:104920002563202020202020202020004C00002073
:104930002020206164633A2564202020202020204C
:104940002020000070B50D4D044601224FF6FF7186
:104950002846FDF7B6FD210200222846FDF7B1FDED
:10496000074C012204212046FDF7ABFD2046BDE89F
:10497000704000220421FDF7A4BD0000000800489B
:10498000000C0048234801460278438949799A423D
:1049900002D941F0010101E021F0010141714178AA
:1049A00082899142417902D941F0020101E021F06E
:1049B000020141710189C2899142417902D941F0D4
:1049C000040101E021F0040141718178412941791C
:1049D00017D021F00801417190ED0A0ADFED0E0AAF
:1049E0000E4A30EE200AD0ED090A30EE600AB0EE31
:1049F000C00A10EE101A9142417905DA41F0100117
:104A000004E041F00801E6E721F010014171C8B26D
:104A1000FFF798BF180000200000B44200002041BA
:104A200000EB8100006E00F0F84070478068C0F332
:104A3000C00070478068C0F380007047042303EA19
:104A4000D15310B518444369C1F3045107248C4075
:104A5000A3438A401343436110BD00EB8100016E04
:104A600021F00041114301667047000030B589B064
:104A700020216846FBF7CEFD194818490024016043
:104A80004902C0E90114C46004250461C0E9054578
:104A9000047744770121016280F82440C4620463F2
:104AA00080F83840C46380F84040FDF7ADF908B1A4
:104AB000FCF748FF0B480090062001900720029069
:104AC0007F200594CDE9030569460548FCF786FF7C
:104AD000002801D0FCF736FF09B030BD00010050BE
:104AE00054000020000052472DE9F04F87B01421F8
:104AF0006846FBF78FFD4248C16C41F00401C16478
:104B0000C16C01F004010591C16C41F02001C16448
:104B1000C16C01F020010591C16C41F00101C1643B
:104B2000C16C01F001010591C16C41F00201C16449
:104B3000C16C01F002010591C16C41F00801C16432
:104B4000C06CDFF8C08000F00800059001224FF42F
:104B50007F414046FDF7B5FC0022FF214046FDF7AE
:104B6000B0FC4FF480764FF0904900223146484621
:104B7000FDF7A7FCDFF890A0002204215046FDF7C6
:104B8000A0FCDFF888B04FF4487700223946584639
:104B9000FDF797FC4FF6FF70009001250024CDE94A
:104BA0000154694640460394FDF762FBCDE9005489
:104BB000694648460295FDF75BFB07208DE831000A
:104BC00069465846FDF754FB0096CDE90154694605
:104BD00048460394FDF74CFB04200090CDE90154B6
:104BE000694650460394FDF743FB0097CDE9015415
:104BF000694658460394FDF73BFB07B0BDE8F08FCC
:104C00000010024000080048000C00480004004862
:104C10000B4810B50949016000214FF6FF72416051
:104C2000C0E90212016141618161FEF746FA002884
:104C300003D0BDE81040FCF785BE10BD0048014020
:104C4000A401002010B590B0002409940A940B949C
:104C5000142104A80C94FBF7DDFC26480D940F9456
:104C60000E940094019402944FF0804103940160EB
:104C70004F21C0E90114611EC0E903148461FEF7ED
:104C80001CFA08B1FCF75EFE4FF48050099009A9A8
:104C90001848FEF7FBFA08B1FCF754FE1548FEF77A
:104CA000BFFC08B1FCF74EFE042004906020CDE963
:104CB000050404A90F480894FEF777FE08B1FCF735
:104CC00041FE0D940DA90B480F94FEF7A7F908B10A
:104CD000FCF738FE0120CDE9004002940422694629
:104CE00004480394FEF70AFC002801D0FCF72AFED2
:104CF00010B010BDC000002010B58CB00024059489
:104D0000264804940694079408940A9409940094FD
:104D1000019402942049039401604F21C0E90114D9
:104D20004FF6FF71C0E903148461FEF7C6F908B1BC
:104D3000FCF708FE4FF48050049004A91748FEF7D2
:104D4000A5FA08B1FCF7FEFD1448FEF769FC08B1AE
:104D5000FCF7F8FD089408A910480A94FEF75EF9DC
:104D600008B1FCF7EFFD0120CDE9004002940022DC
:104D700069460A480394FEF7C1FB08B1FCF7E2FD5F
:104D8000042269460548FEF7B9FB002801D0FCF76C
:104D9000D9FD0CB010BD0000000400400C01002043
:104DA0003EB500240F48009401940D49029401601F
:104DB0004F21C0E9011442F20F71C160802181616D
:104DC000FEF77BF908B1FCF7BDFD00946946054884
:104DD0000294FEF723F9002801D0FCF7B3FD3EBD95
:104DE0000010004058010020184810B51649016015
:104DF0004FF416514160002181600C22C160C0E96E
:104E000004128161C161016241628162FFF786F92A
:104E100008B1FCF797FD00210C48FEF7D0FF08B160
:104E2000FCF790FD00210948FEF7A3FF08B1FCF74D
:104E300089FD0648FEF7E5FD002803D0BDE81040D7
:104E4000FCF780BD10BD000000380140F0010020DB
:104E5000FEE77047704730B501210020FFF740FCA6
:104E60004FF47A70FCF760FD00210120FFF738FC59
:104E700041F290711020FFF733FC4FF41C51602079
:104E8000FFF72EFC01216120FFF72AFC02214620BA
:104E9000FFF726FC48F210011320FFF721FC48F22F
:104EA000FE011220FFF71CFC4FF4A0610220FFF767
:104EB00017FC41F230010320FFF712FC40F20334EB
:104EC00021463020FFF70CFC21463120FFF708FC7B
:104ED00021463220FFF704FCE51E29463320FFF768
:104EE000FFFB03213420FFF7FBFB21463520FFF7B2
:104EF000F7FB14213620FFF7F3FB21463720FFF79D
:104F0000EFFB21463820FFF7EBFB21463920FFF766
:104F1000E7FB29463A20FFF7E3FB03213B20FFF79D
:104F2000DFFB21463C20FFF7DBFB4FF4A0513D2087
:104F3000FFF7D6FB4FF400719220FFF7D1FB21461B
:104F40009320FFF7CDFB40F60D019020FFF7C8FB43
:104F500041F218010320FFF7C3FBBDE8304040F2E7
:104F600073110720FFF7BCBB10B543F20801E32023
:104F7000FFF7B6FB1221E720FFF7B2FB41F2312128
:104F8000EF20FFF7ADFB00210120FFF7A9FB4FF455
:104F9000E0610220FFF7A4FB41F230010320FFF79C
:104FA0009FFB00210420FFF79BFB40F20721082014
:104FB000FFF796FB00210920FFF792FB00210A2052
:104FC000FFF78EFB00210C20FFF78AFB00210D204C
:104FD000FFF786FB00210F20FFF782FB0021102046
:104FE000FFF77EFB07211120FFF77AFB002112203B
:104FF000FFF776FB00211320FFF772FBC820FDF7B7
:1050000025F941F290611020FFF76AFB40F2272159
:105010001120FFF765FB3220FDF718F91D21122042
:10502000FFF75EFB3220FDF711F94FF4006113200A
:10503000FFF756FB14212920FFF752FB0B212B20F1
:10504000FFF74EFB3220FDF701F900212020FFF78A
:1050500047FB00212120FFF743FB07213020FFF70A
:105060003FFB40F207713120FFF73AFB0621322067
:10507000FFF736FB40F204713520FFF731FB41F6B4
:1050800004713620FFF72CFB04213720FFF728FBA3
:1050900000213820FFF724FB40F206713920FFF78A
:1050A0001FFB40F201713C20FFF71AFB0F213D204E
:1050B000FFF716FB00215020FFF712FBEF215120D4
:1050C000FFF70EFB00215220FFF70AFB40F23F11D1
:1050D0005320FFF705FB4FF41C516020FFF700FB46
:1050E00001216120FFF7FCFA00216A20FFF7F8FA9E
:1050F00000218020FFF7F4FA00218120FFF7F0FA69
:1051000000218220FFF7ECFA00218320FFF7E8FA64
:1051100000218420FFF7E4FA00218520FFF7E0FA60
:1051200010219020FFF7DCFA00219220FFF7D8FA37
:1051300003219320FFF7D4FA4FF488719520FFF7ED
:10514000CFFA00219720FFF7CBFA00219820FFF734
:10515000C7FA41F218010320FFF7C2FABDE8104078
:1051600040F273110720FFF7BBBA7047FDF7B4B9DF
:1051700000B593B038216846FBF74CFA14210EA80D
:10518000FBF748FA4FF40070FDF738FA0220C1012E
:105190000391402104910090079008901421CDE9DB
:1051A00009010B900C900D906846FDF71BFD0F2038
:1051B0000E9003200F900020109011901290022169
:1051C0000EA8FDF7C5FB13B000BD0000054801683F
:1051D00041F47001016003494FF0006080390860BC
:1051E0007047000088ED00E00148FEF7E1BA0000DA
:1051F000C00000200148FEF7DBBA00000C010020CF
:105200000148FEF7D5BA0000580100202DE9F0430F
:105210000268264B264D274E274C4FF08049984276
:1052200007D0484505D0A84203D0B04201D0A042E3
:1052300003D122F070074A683A43204FDFF880C05C
:10524000DFF8808098420DD048450BD0A84209D0A5
:10525000B04207D0A04205D0B84203D0604501D08B
:10526000404503D122F44075CA682A434D6922F0B3
:1052700080022A4302608A68C2620A688262984297
:1052800007D0A04205D0B84203D0604501D04045C8
:1052900001D109690163012141610169C90703D095
:1052A000016921F001010161BDE8F083002C01409A
:1052B000000400400008004000340140004001406C
:1052C000004401400048014010B501F01F030121D6
:1052D000046A99408C430462016A9A401143016256
:1052E00010BD10B5846842EA032224F47F440A43C7
:1052F0002243826010BD00008268034B1A400A43BB
:1053000042F00701816070478FFFCFFF70B50568DD
:105310000024AA682E4B1A404B6813432D4A1340B1
:105320000A681A43AA604A68602A4AD00DDC302A0B
:105330001FD005DCEAB1102A1BD0202A18D118E0B2
:10534000402A1FD0502A13D135E0234D531BAA42C7
:105350000FD009DC702A0ED0B2F1101F09D0203A0C
:10536000B2F5801F04D104E0102B02D0402B00D0F6
:105370000124204670BD0B69D1E902210068FFF7C6
:10538000B0FFF6E70A68052A13D0B2F1011F10D06A
:105390000268136A156A25F00105156202689569AD
:1053A000096925F0F00545EA011191610068036281
:1053B000DFE7012070BD0A698968006800F00EF817
:1053C000D7E70A698968006800F050F8D1E7000063
:1053D0008FFFCFFFF8FFFEFF3000100010B5036A0B
:1053E000046A24F001040462846924F0F00444EAAD
:1053F000021423F00A020A438461026210BD000015
:1054000070B5056A046A24F0010404628469124ECE
:10541000B0420ED0B0F1804F0BD0104EB04208D049
:105420000F4EB04205D00F4EB04202D00E4EB042E9
:1054300003D124F00304144301E044F001041A07EB
:1054400024F0F00444EA126225F00A0301F00A0194
:1054500019438261016270BD002C014000040040CC
:1054600000080040003401400040014010B5036ACC
:10547000046A24F010040462846923F0A00324F475
:10548000704444EA023243EA01118261016210BDB4
:1054900030B5046A056A25F010050562856925F4B2
:1054A000407545EA022222F470454FF6FF7202EA87
:1054B000033224F0A0032A43A02404EA0111194373
:1054C0008261016230BD000030B5416EB9B1026841
:1054D00091689268C1F342610B4B520F9C5CE500EE
:1054E00003F10804A25CB5FBF2F2A0F86A205A5C52
:1054F000615CD200B2FBF1F1A0F8681030BD01216F
:10550000A0F86A10F8E70000DA66000890F82810A2
:10551000090706D501684A68836B22F400421A43E2
:105520004A6090F82810C90706D001684A68C36A23
:1055300022F400321A434A6090F82810890706D5F1
:1055400001684A68036B22F480321A434A6090F87B
:105550002810490706D501684A68436B22F4802267
:105560001A434A6090F82810C90606D501688A686F
:10557000C36B22F480521A438A6090F8281089067F
:1055800006D501688A68036C22F400521A438A60C7
:1055900090F82810490611D501684A68436C22F436
:1055A00080121A434A60416CB1F5801F06D1016830
:1055B0004A68836C22F4C0021A434A6090F82810AB
:1055C000090606D501684A68C06C22F4002202432D
:1055D0004A6070472DE9F84300260446C0F8906001
:1055E000FCF774FF8046206800684FF02005000734
:1055F0006FF07E4713D543460022290420460097CA
:1056000000F09CFC58B1216851E8000F20F08000A8
:1056100041E80002002AF6D1C4F8885021E0206851
:105620000068400722D5434600224FF480012046FF
:10563000009700F083FCC8B1216851E8000F20F406
:10564000907041E80002002AF6D12068083050E846
:10565000001F21F0010140E80012002AF5D1C4F832
:105660008C5084F884600320BDE8F883C4F8885027
:10567000C4F88C5044F86C6F666026760020F3E71F
:1056800010B5806A0021A0F85E10A0F85610FEF751
:10569000BEFB10BD10B5026852E8001F21F49071E6
:1056A00042E80013002BF6D10E4B0268083252E894
:1056B000001F194042E80014002CF6D1C16E0129E8
:1056C00008D1016851E8002F22F0100241E80023C0
:1056D000002BF6D12021C0F88C100021C166416753
:1056E00010BD0000FEFFFFEF10B5B0F86020D0F84D
:1056F0008C300168222B04D0886940F00800886152
:1057000010BD496A836D11401980816D891C8165C6
:10571000B0F85E10491EA0F85E10B0F85E100029C7
:10572000EED1026852E8001F21F4907142E80013A4
:10573000002BF6D10168083151E8002F22F0010258
:1057400041E80023002BF5D12021C0F88C10002166
:1057500041670167154B02689A420BD052681202EA
:1057600008D5036853E8002F22F0806243E8002444
:10577000002CF6D1C26E012A02D0FEF74BFD10BDFF
:10578000C166026852E8001F21F0100142E80013D0
:10579000002BF6D10168CA69D243D20601D4102287
:1057A0000A62B0F85C10FEF773F910BD008000408B
:1057B0002DE9F0470446B0F860600068C569D0F88C
:1057C00000A0D0F80880D4F88C10222905D0816977
:1057D00041F008018161BDE8F087B4F868704FF0CE
:1057E000000975E02068406AA16D30400880A06D16
:1057F000801CA065B4F85E00401EA4F85E0020681E
:10580000C569690730D0E9070AD05FEACA5107D5F0
:1058100001210162D4F8900040F00100C4F890002A
:10582000A8070BD55FEAC87008D02168022008627B
:10583000D4F8900040F00400C4F8900068070BD53D
:105840005FEAC87008D0216804200862D4F890008C
:1058500040F00200C4F89000D4F8900020B1204637
:10586000FEF7D5FAC4F89090B4F85E0080BB2168CA
:1058700051E8000F20F4807041E80002002AF6D1C0
:10588000304A2068083050E8001F114040E80013FB
:10589000002BF6D12020C4F88C00C4F8749049463F
:1058A000C4F87090284A206890420BD040680002EB
:1058B00008D5226852E8000F20F0806342E80030EB
:1058C0000028F6D1E06E012825D02046FEF7A2FC84
:1058D0000FB1A80686D4B4F85E0000283FF47BAF71
:1058E000B4F8681081427FF676AF2068083050E83F
:1058F000001F21F0805140E80012002AF5D1134822
:105900006067216851E8000F40F0200041E8000284
:10591000002AF6D15FE7E166216851E8000F20F028
:10592000100041E80002002AF6D12068C169C9438D
:10593000C90601D410210162B4F85C102046FEF7BC
:10594000A7F8C5E7FEFFFFEF00800040E95600081A
:1059500010B5B0F86020D0F88C300168222B04D04C
:10596000886940F00800886110BD496A1140826D65
:105970001170816D491C8165B0F85E10491EA0F858
:105980005E10B0F85E100029EED1016851E8002FDA
:1059900022F4907241E80023002BF6D1016808310F
:1059A00051E8002F22F0010241E80023002BF5D13D
:1059B0002021C0F88C10002141670167154B026857
:1059C0009A420BD05268120208D5036853E8002FA0
:1059D00022F0806243E80024002CF6D1C26E012A36
:1059E00002D0FEF717FC10BDC166026852E8001F26
:1059F00021F0100142E80013002BF6D10168CA69BA
:105A0000D243D20601D410220A62B0F85C10FEF72D
:105A10003FF810BD008000402DE9F0470446B0F883
:105A200060600068C569D0F800A0D0F80880D4F89C
:105A30008C10222905D0816941F008018161BDE8FF
:105A4000F087B4F868704FF0000975E02068406A8C
:105A5000A16D30400870A06D401CA065B4F85E00D8
:105A6000401EA4F85E002068C569690730D0E907C8
:105A70000AD05FEACA5107D501210162D4F890002B
:105A800040F00100C4F89000A8070BD55FEAC87089
:105A900008D0216802200862D4F8900040F0040089
:105AA000C4F8900068070BD55FEAC87008D0216879
:105AB00004200862D4F8900040F00200C4F890007E
:105AC000D4F8900020B12046FEF7A1F9C4F89090D8
:105AD000B4F85E0080BB216851E8000F20F48070AC
