:020000040800F2
:1000000028080020990200083F43000847370008ED
:100010003D4300080D160008D74A00080000000004
:1000200000000000000000000000000095470008EC
:100030002D17000800000000414300089747000802
:10004000B3020008B3020008B3020008B3020008BC
:10005000B3020008B3020008B3020008B3020008AC
:10006000B3020008B3020008B3020008111600082A
:10007000B3020008B3020008B3020008B30200088C
:10008000B302000800000000B3020008B302000839
:10009000B3020008B3020008B3020008B30200086C
:1000A000B3020008B3020008B3020008B30200085C
:1000B000B3020008B3020008B3020008B30200084C
:1000C000B3020008B3020008B3020008B30200083C
:1000D000B3020008B3020008B3020008B30200082C
:1000E000B3020008B3020008B3020008B30200081C
:1000F000B3020008B3020008B302000800000000C9
:1001000000000000B302000800000000B302000875
:10011000B30200080000000011480008B302000804
:10012000B3020008B3020008B3020008B3020008DB
:10013000B30200080000000000000000B302000845
:10014000B3020008B3020008000000000000000035
:10015000000000000000000000000000000000009F
:10016000000000000000000000000000B3020008D2
:10017000B3020008000000000000000000000000C2
:1001800000000000B30200080000000000000000B2
:10019000000000000000000000000000000000005F
:1001A0000000000000000000B3020008B3020008D5
:1001B000B3020008B3020008B30200080000000008
:1001C00000000000B3020008000000000000000072
:1001D000B3020008B302000800F002F800F04CF887
:1001E0000AA090E8000C82448344AAF10107DA4592
:1001F00001D100F041F8AFF2090EBAE80F0013F098
:10020000010F18BFFB1A43F001031847EC5E000012
:100210000C5F0000103A24BF78C878C1FAD85207A2
:1002200024BF30C830C144BF04680C607047000070
:100230000023002400250026103A28BF78C1FBD8EF
:10024000520728BF30C148BF0B607047662904F0D1
:100250001786642900F05480002070471FB504F011
:100260000AFE00F0C1FB04000020002104F076FD2E
:10027000E0601FBD10B510BD00F0B6FC1146FFF7E1
:10028000EDFF04F0F0FC00F0D4FC03B4FFF7F2FF44
:1002900003BC00F017FD00000948804709480047EB
:1002A000FEE7FEE7FEE7FEE7FEE7FEE7FEE7FEE726
:1002B000FEE7FEE704480549054A064B7047000083
:1002C000F5470008D901000828020020280800206E
:1002D00028040020280400200FB41CB5074B06AAF0
:1002E0007B4469460090059800F065FB0020694654
:1002F00000F074FB1CBC5DF814FB0000F906000064
:100300002DE9F0410646002410687529314616A5EE
:1003100010D0AFF30080002802DA404213A507E0B6
:1003200031688A0701D512A502E0490704D511A555
:10033000012401E0AFF3008000210A2206F1240726
:1003400009E0B0FBF2FCB0FBF2F302FB1C00303022
:1003500078541846491C0028F3D123462A463046D3
:10036000BDE8F04100F0B9B8000000002D00000029
:100370002B000000200000002DE9F0474FF0000A9C
:1003800089460446C0F820A02046E1688847002836
:1003900076D0252806D0D4E901219047206A401C58
:1003A0002062F1E7E168204600258847C4F81CA0D8
:1003B00006460027C4F818A02A2E09D0304604F0BB
:1003C000B3FB38B304EB8708303EC8F8186019E077
:1003D00059F8041B204604EB87029161E1688847C5
:1003E000012F064618D1E069002820DA25F0200503
:1003F0001DE0D8F8180000EB800006EB4000303814
:10040000C8F818002046E1688847064604F08CFBCF
:100410000028EED1012F0AD02E2E08D12046E16807
:1004200088477F1C0646022F45F02005C4DBA069E3
:10043000002803DA404245F00105A061E80701D039
:1004400025F01005B6B1A6F14100192802D82036D2
:1004500045F400654A463146204625604D46FFF783
:10046000F5FE58B1012806D0ED1D25F0070000F17A
:10047000080989E704E005F1040985E730468AE7C1
:10048000206ABDE8F0874FF0000200B5134694469D
:100490009646203922BFA0E80C50A0E80C50B1F1DC
:1004A0002001BFF4F7AF090728BFA0E80C5048BFF0
:1004B0000CC05DF804EB890028BF40F8042B08BF8E
:1004C000704748BF20F8022B11F0804F18BF00F88A
:1004D000012B70477047704770472DE9F0470D4674
:1004E00099469246044600F124080168880604D51E
:1004F000E06921F01001216000E00120A84201DD47
:10050000471B00E00027A1697A1902EB0900081ACD
:10051000A0612078C00602D42046AFF300800026F8
:1005200008E0D4E901211AF806009047206A401C2F
:10053000761C20624E45F4DB2078C0060AD52046A2
:10054000AFF3008006E0D4E9012130209047206A13
:10055000401C2062381EA7F10107F4DC07E0D4E953
:10056000012118F805009047206A401C2062281ECF
:10057000A5F10105F3DC2046AFF3008020780006EA
:1005800002D50220BDE8F0870120FBE770472DE986
:10059000FF4F0C461E464FF0FF378BB0D2E90001EB
:1005A000DDF860800A908A46C1F30A5505B93D46D8
:1005B000002108464FF00000BAF1000F00F440009F
:1005C00005DA00EB80004FF4400101EA50004FEAE9
:1005D0009059B9F1010F00DDB9460A9850EA4A0076
:1005E0000ED044F61050A5F2FF3545432F14B8F154
:1005F000000F1ED07542291E1EDDC9F100021CE04D
:10060000B8F1010F4FF0000001D0302103E0F243B8
:1006100005E02154401CB042FBDB304600220021A3
:1006200021540B99C1F80880C1E900200FB0BDE842
:10063000F08FBD1B6D1CDEE74A4600DA694206A852
:1006400000F05CFA06AB93E8070003AB83E8070011
:1006500050460A9900F03DFB8DE80700A0F50050D8
:100660001F3800900398002D0ADD42F21F014A4610
:100670000844002303A90390684600F0A6FD09E0A2
:10068000A0F500504A461F38002303A9039068468E
:1006900000F0B0FD8DE807000004000C03D04FF01F
:1006A000FF30410800E01046B8F1000F03D00022EF
:1006B000009215461EE0751E05D400F099F93032FF
:1006C00062556D1EF9D5B3460122084302D00022BF
:1006D0007F1C04E02078302801D100227F1E002AF0
:1006E000099784D01DE0112D07DA00F081F930322E
:1006F00062556D1C50EA0102F5D1084302D0009802
:10070000C8B10EE00021681E05E0235C625C635402
:100710002254401E491C8142F7DBAB46A81B401EF9
:100720000990002004F80B000B98099AC0F8088083
:10073000C0E9002B7AE711264FF0000857E72DE9B2
:10074000F04F88460446D21D22F0070191B0D1E94E
:100750000001CDE90A0104F0BFF902460B98C00F71
:1007600001D02D2007E02068810701D52B2002E071
:10077000202101EAC000032A099001D0072A05DBE5
:1007800003464146204600F079F90BE120788006C7
:1007900001D5E06900E00620B8F1650F814606D07A
:1007A000B8F1660F18D0B8F1670F70D131E00020B2
:1007B000B9F1110F009001DB112301E009F10103F0
:1007C0000AAA01A90CA8FFF7E2FEDDE90C700026D9
:1007D00009F10105834647E001204B4600904FF0A8
:1007E00000470AAA01A90CA8FFF7D1FEDDE90DB068
:1007F0000C995D46002610B909F101000D18B9EBFE
:10080000050003D4C0F1FF3609F10105A5EB09008D
:100810002BE0B9F1010F01DA4FF001090020B9F125
:10082000110F0090484601DD112300E003460AAA9B
:1008300001A90CA8FFF7ABFEDDE90C704D460026C0
:100840008346207800070AD4AB4500DA5D4601A84C
:10085000012D04DD411911F8011C302907D04F4545
:1008600002DA17F1040F04DA012082460FE06D1E50
:10087000EEE7002F02DCED1B3E4403E0781CA842AB
:1008800000DD7D1CB81B00F1010A4FF00047207805
:10089000000703D4AA4501DB4FF0FF3A0021B7F16E
:1008A000004F0DF143088DF8431024D002202B2374
:1008B000002F01DA7F422D230A21021EA0F1010040
:1008C00000DC5FB197FBF1FC97FBF1F201FB1C7CB4
:1008D00017460CF1300C08F801CDEEE7A8F1010045
:1008E00003702188090501D5452100E06521A0F1AB
:1008F000010800F8011C09980FA9A1EB0807FF1DCA
:1009000000B10120411901EBEA70A1693844081ACD
:10091000401EA0612078C00602D42046AFF30080BC
:10092000099828B1D4E901219047206A401C20622F
:100930002078C00622D52046AFF300801EE0002EAE
:1009400004DBB34502DD01A8805D00E03020D4E97E
:1009500001219047206A401C2062761CAAF1010008
:100960005FEA000A0AD100F03FF8C0680168405C05
:10097000D4E901219047206A401C2062281EA5F17D
:100980000105DCDC07E0D4E9012118F8010B9047F0
:10099000206A401C2062381EA7F10107F3DC2046C4
:1009A000AFF30080032011B041E6000001694A1C4A
:1009B00002610878704700B58FB0CDE901310021A0
:1009C000059105497944CDE9031011466846FFF7C2
:1009D000D3FC0FB000BD0000E5FFFFFF0A6802F87E
:1009E000010B0A607047000000487047E8010020D2
:1009F00030B5B0F10A024FEA900E71F100034EEAF1
:100A0000817EB0EB0E0061EB91014FEA101E4EEAC1
:100A1000017E10EB0E0041EB11114FEA102E4EEA51
:100A2000016E10EB0E0041EB11214FEA104E4EEA21
:100A3000014E10EB0E0041EB1141401841F1000155
:100A40004FEAD00040EA41704FEAD10110EB800537
:100A50004FEA810444EA907444EB01046D1944EBBD
:100A60000404521BA3414FF0000348BF0A3200D5D3
:100A700030BD401C41F1000130BD00002DE9F041C6
:100A80001F46044603260168072A01F4006004DBC0
:100A900008B116A505E016A503E008B115A500E00C
:100AA00015A521F010002060A069C01EA0610FB143
:100AB000401EA0612046AFF300804FB1D4E9012170
:100AC00038469047206A401C2062C01C206206E025
:100AD000206AFAE7D4E9012115F8010B9047761E48
:100AE000F8D22046AFF30080BDE8F0814E414E00C1
:100AF0006E616E00494E4600696E66002DE9F04752
:100B0000814616468AB0354878440DC88DE80D00F8
:100B100032487844801C03AC0DC884E80D0041F6CF
:100B20009B300844372190FBF1F290FBF1F5A5F1E1
:100B3000800501FB12041B3C02D56442012000E049
:100B40000020DFF898A080460027FA44AAF1BE0AE8
:100B50000EE0E0070AD03246684607EB4701012362
:100B60000AEB810100F046FB8DE8070064107F1C52
:100B7000002CEED1194F7F44AE3F19E0E80715D0A5
:100B800007EB04100DF1180A90E80E008AE80E0039
:100B9000C068F04201D1981908903246012306A995
:100BA00003A800F027FB03AB83E807006D10641C6B
:100BB000002DE3D14FF0010332466946B8F1000F32
:100BC00003A802D000F001FB01E000F013FBC9E92B
:100BD0000001C9F808200AB0BDE8F087D45500002C
:100BE00000487047C80100207546FFF7F9FFAE4680
:100BF00005006946534620F00700854618B020B529
:100C0000FFF758FBBDE820404FF000064FF000070B
:100C10004FF000084FF0000B21F00701AC46ACE8A4
:100C2000C009ACE8C009ACE8C009ACE8C0098D4611
:100C3000704710B50446AFF300802046BDE8104071
:100C4000FFF723BB4FF0013C50F8042B51F8043B55
:100C50009A4221D1A2EB0C03934313EACC1317D190
:100C600050F8042B51F8043B9A4215D1A2EB0C0327
:100C7000934313EACC130BD150F8042B51F8043BE7
:100C80009A4209D1A2EB0C03934313EACC13DBD0B5
:100C90004FF00000704700BFD01A01BAB1FA81F1DD
:100CA00001F0180122FA01F0CB40C1F12001DBB2C2
:100CB000C0B2C01A2CFA01F3D11A914311EAC31140
:100CC000E6D1704701491820ABBEFEE726000200BE
:100CD00070475FEA400C08BF91F0000F4FEA8C2389
:100CE0004FEAC12243EA51514FEA1C5018BF00F5A8
:100CF000F0404FEA300018BF41F000415FEA6C5C01
:100D000000F02980BCF1FF3F08BF40F080407047F1
:100D1000130C06BF12044FF0100C4FF0000C130E12
:100D200004BF12020CF1080C130F04BF12010CF1E6
:100D3000040C930F04BF92000CF1020CD30F04BFFC
:100D400052000CF1010C11464FF00002A0F11F00FF
:100D5000A0EB0C00704711F0004F08BF704731F056
:100D600000413FF4D5AF0B0C06BF09044FF0100C47
:100D70004FF0000C0B0E04BF09020CF1080C0B0F16
:100D800004BF09010CF1040C8B0F04BF89000CF1A6
:100D9000020CCB0F04BF49000CF1010CCCF1200375
:100DA000A0EB0C0022FA03F302FA0CF241EA030171
:100DB00000F10100704720F07F4C80EA030023F02F
:100DC0007F47ACEB070303F57C5300F0004003F1D1
:100DD000FF032DE980494FEA154B09B44FEA14434C
:100DE00025EA0B4E24EA03480FF2042606EB1327EC
:100DF00049083E785FEA320203FB0667C7F5000741
:100E000007FB06F64FEA54374FEAD64606F10206CC
:100E100007FB066CCCF1005C4FEA1C472CEA074C40
:100E200007FB06F40CFB06F504EB15464FEA961695
:100E300034BF00204FF000404FEAD13706FB07FCDB
:100E40004FEA1C4C0CFB0BF7D21B03FB0CF761EBBE
:100E500007010CFB0EF7B0EB074072EB17420CFBDF
:100E600008F734BFA2EB0742B2EB074261EB174130
:100E70004FEA0C444FEA910706FB07FC4FEA1C4C73
:100E80000CFB0BF7B0EBC74072EB573203FB0CF7D0
:100E900034BFA2EBC742B2EBC74261EB57310CFB48
:100EA0000EF7B0EBC70072EB57720CFB08F734BFBC
:100EB000A2EBC702B2EBC70261EB5771039F4FEA87
:100EC000816141EA921104EBCC044FEAD1374FEA39
:100ED000826206FB07FC42EA90124FEA80604FEA0A
:100EE0001C4C0CFB0BF7D21B03FB0CF761EB07014F
:100EF0000CFB0EF7B0EB074072EB17420CFB08F748
:100F000034BFA2EB0742B2EB074261EB17414FEA55
:100F10008C554FEA910704EB9C2406FB07FC4FEA33
:100F20001C4C0CFB0BF7B0EBC74072EB573203FBCA
:100F30000CF734BFA2EBC742B2EBC74261EB5731AB
:100F40000CFB0EF7B0EBC70072EB57720CFB08F707
:100F500034BFA2EBC702B2EBC70261EB577115EBCE
:100F60004C254FEA816141EA92114FEA82624FEAD1
:100F7000D13742EA901206FB07FC44F100044FEA25
:100F800080604FEA1C4C0CFB0BF7D21B03FB0CF7E9
:100F900061EB07010CFB0EF7B0EB074072EB174259
:100FA0000CFB08F734BFA2EB0742B2EB074261EB40
:100FB000174115EB1C154FEA813141EA92414FEA86
:100FC000823242EA90424FEA80304FEA0C7644F196
:100FD000000448EA03434EEA0B484FF0000EB2EB20
:100FE000080C71EB030724BF624639464EEB0E0E28
:100FF0004FF0000B0018524149414BEB0B0BB2EB89
:10100000080C71EB03077BF1000B24BF62463946E5
:101010004EEB0E0E4FF0000B0018524149414BEBC6
:101020000B0BB2EB080C71EB03077BF1000B24BF39
:10103000624639464EEB0E0E51EA020718BF46F0E3
:10104000010616EB0E7655F1000254F1000103D5AE
:10105000BDE88901BDE80088BDE88901BDE8004818
:10106000B619524141EB0101A3F1010370478080A1
:101070007F7E7D7C7B7A79787776767574737271F2
:1010800071706F6E6E6D6C6C6B6A6A6968686766AA
:1010900066656464636362616160605F5F5E5E5D3C
:1010A0005D5C5C5B5B5A5A595958585757565655B0
:1010B00055555454535352525251515050504F4F12
:1010C0004F4E4E4D4D4D4C4C4C4B4B4B4A4A4A4962
:1010D00049494848484747474746464645454544A5
:1010E0004444444343434342424242414141002B32
:1010F0009C4630D477002BD01CB54FEA370703B499
:101100004FF010004FF01001BAF1000F06D0BCF103
:10111000000FDCBF40F0080040F008014FF0000075
:101120000FBCBDE810400BF1010BBBF1010F08BF74
:101130005FEA170722BF12F1010211F101014FF01E
:10114000004143F1000300F0004043EA0000704713
:10115000F9D35708D0E746EA064613F1400F4FEAA5
:1011600016461FDD13F1200FDFBF16430A4600218C
:1011700020335B42BED0C3F1200746EA064602FA9E
:1011800007F74FEA164646EA0706C3F1200722FA98
:1011900003F201FA07F721FA03F14FF0000342EAE4
:1011A0000702A7E746EA020646EA06464FEA16465F
:1011B00046EA0106BCBF46EA0646360C4FF000037D
:1011C0004FF000024FF0000194E72DE9804C9A4661
:1011D000934670B491E8380007C831EA400C48BF24
:1011E00034EA430C03D5FFF7E6FDFFF780FFF0BCC0
:1011F000BDE8008C2DE9804C9A46934670B491E886
:10120000380007C810F0804F08BF13F0804F03D19B
:1012100000F005F8FFF76BFFF0BCBDE8008C20F094
:101220007F4780EA030023F07F4C07EB0C03A3F514
:101230007C5300F00040A3F1FE0392F0000F00F099
:10124000B38095F0000F00F077802DE901494FEA57
:1012500011404FEA144621EA004800FB06FC24EA4C
:10126000064708FB06F607FB08F800FB07F718EB34
:1012700006484CEB164C4FEA124B18EB07484FEA66
:1012800015464CEB174022EA0B4E0BFB06FC25EAF9
:1012900006470EFB06F607FB0EFE0BFB07F71EEBE1
:1012A000064E4CEB164C4FF000061EEB074E4CEB77
:1012B000174B18EB0B0840F1000018EB0E0B58EB26
:1012C000000840F100008F1A4FF000013CBFC943F5
:1012D000661B14BFB5EB040C00213CBFC943F61BD1
:1012E0004FEA17444EEA8E0E27EA04454FEA1C47A0
:1012F00004FB07622CEA074C05FB07F70CFB05F61D
:1013000004FB0CFC16EB074642EB174216EB0C46AF
:1013100042EB1C421BEB060658EB0202414146EA37
:101320009E0601D5BDE80189B619524141EB010184
:10133000A3F10103BDE801894FEA14454FEA1147C3
:1013400024EA054621EA074C05FB07F406FB07F7EC
:101350000CFB06F105FB0CFC11EB074144EB1744B9
:101360004FEA124711EB0C4144EB1C4422EA074CB4
:1013700005FB07F206FB07F70CFB06F605FB0CFC6A
:1013800016EB074642EB174216EB0C4642EB1C45A8
:101390006A1854F1000148BF7047B619524141EB39
:1013A0000101A3F10103704795F0000F37D04FEA18
:1013B00011424FEA144721EA024624EA074C02FB95
:1013C00007F106FB07F70CFB06F402FB0CFC14EB21
:1013D000074441EB17414FEA154714EB0C4441EB2E
:1013E0001C4125EA074C02FB07F506FB07F70CFB3F
:1013F00006F602FB0CFC16EB074645EB174516EB11
:101400000C4645EB1C42121951F1000148BF7047D0
:10141000B619524141EB0101A3F1010370474FEAB4
:1014200014454FEA114724EA054621EA074C05FB1B
:1014300007F106FB07F70CFB06F24FF0000605FB71
:101440000CFC12EB074241EB174112EB0C4251EB43
:101450001C4148BF7047921841EB0101A3F1010301
:10146000704710B5846AE16D11F0500F06D0E16D40
:10147000C90625D5204600F0C7FB10BDE06D40F43D
:101480000070E06520680168090716D502F09AFD32
:1014900078B12068C068800400280ADBE06D20F481
:1014A0008070E065E06DC00403D4E06D40F00100A1
:1014B000E065204600F0A6FB10BDC0688007EBE7A2
:1014C000616D496BBDE81040084710B5806AC16D79
:1014D00041F04001C165016E41F00401016600F078
:1014E00093FB10BD10B5806A00F08DFB10BD0000AD
:1014F00070B50446006881688268C1F3400112F04B
:10150000010F28D039BB816801F00D01012914D1E8
:101510008168124A1140891C81602168032008609B
:1015200000F082FF054612E000F07EFF401B02281B
:101530000DD920688068C00709D0E06D40F0100028
:10154000E065206E40F001002066012070BD20683B
:101550008068C007E8D1002070BD0000C0FFFF7F99
:10156000F8B50446002000902068816811F0010F52
:1015700041D18168214A11422ED18168D543294049
:10158000491C81601E48806800F0E07000020DD5A3
:101590001C481D490068B0FBF1F0401C00EB400006
:1015A000800000E0401E00900028FBD100F03CFFCE
:1015B00006461BE0816811F0010F03D181682940C4
:1015C000491C816000F030FF801B02280ED9206882
:1015D0000068C043C00709D0E06D40F01000E0652E
:1015E000206E40F0010020660120F8BD20680168EF
:1015F000C943C907DED10020F8BD00003F000080CC
:10160000000300500C000020400D0300FEE7000026
:10161000014800F0C5BC0000BC0000200D49026874
:101620008A4201D20C4901E00B492031D2B2142385
:10163000083AB2FBF3F2436C02F01F0223F00303FB
:101640001944816404498031C164012191400165DC
:101650007047000008040240000802400179074A70
:1016600002EB81024265054A4432491E826501F05F
:101670001F0201219140C16570470000FC08024033
:1016800030B5D0E913456560446D14B1D0E9164515
:10169000656090F8444004F01F050124AC40056CDF
:1016A0006C60046863608368102B036803D09960E2
:1016B0000068C26030BD9A600068C16030BD000043
:1016C00070B51648A0F11C04018800EE101A002124
:1016D000F8EE400A9FED120A20EE801ADFED110AA3
:1016E00021EE201A84ED031A408801EE100A0E48FC
:1016F000B8EE411A21EE000A20EE200A84ED040A19
:1017000001F0E0FF451C642045430421064801F038
:10171000D9FF401CB5FBF0F0606170BD34000020C3
:1017200033335340000080391C01002070470022F1
:1017300040F6B83306E00021491C89B29942FBD338
:10174000521C92B28242F6D370477047F8B5002619
:101750000446009690F858000D4601280BD0012051
:1017600084F858002046FFF7C3FE0100E06D04D066
:1017700040F010002AE00220F8BD20F4885040F02C
:101780000200E06520688268134B1A4005F0804330
:101790001A4342F000428260104A20680EE0009B2B
:1017A0005B1C0093934209D3E06D20F0020040F0EF
:1017B0001000E06584F858600120F8BD8368DB0FF5
:1017C000EDD1E06D20F0020040F00100E06584F80A
:1017D00058600846F8BD0000C0FFFF3F02DE04006D
:1017E0002DE9F84F00270446009790F85800DFF8DD
:1017F000E0930D46B846012811D0012684F85860C0
:10180000206802F0DBFB60B1E06D40F02000E06595
:101810005FF0010784F858803846BDE8F88F022051
:10182000FBE7D5E900210C23206803EA9113184453
:10183000036B01F01F014FF01F0C0CFA01FCC2F307
:10184000846223EA0C038A4013430363206802F096
:10185000B5FB8246206802F0ADFB5AEA00003CD19D
:10186000AA6829682068B2F1004F37D002F0B2FBB5
:101870002068416921F00041416120686969C268BE
:10188000C2F3C102520091402A69042A31D000EB10
:1018900082002B68026EDFF83CC303F0F84302EAD3
:1018A0000C020B431A4342F00041016620682A698A
:1018B000A96900EB8200026E22F080720A43026680
:1018C000297F22682869012910D0002102EB8000BD
:1018D000026E22F000720A4302667DE0002202F0EE
:1018E00079FB2068416941F00041C5E74FF0007184
:1018F000ECE7002102F058FB400320684FF00001A4
:1019000072D002F051FB90FAA0F0B0FA80F1286892
:1019100042036ED090FAA0F0B0FA80F0814204D178
:1019200000221146206802F064FB0121206802F0C9
:101930003BFB400320684FF001015DD002F034FB17
:1019400090FAA0F0B0FA80F12868420359D090FADA
:10195000A0F0B0FA80F0814204D100220121206879
:1019600002F047FB0221206802F01EFB40032068C2
:101970004FF0020148D002F017FB90FAA0F0B0FA45
:1019800080F12868420344D090FAA0F0B0FA80F0C9
:10199000814204D100220221206802F02AFB0321A7
:1019A000206802F001FB400320684FF0030133D0B0
:1019B00002F0FAFA90FAA0F0B0FA80F12868420337
:1019C0002FD090FAA0F0B0FA80F0814204D100222A
:1019D0000321206802F00DFB2068816811F0010FDF
:1019E00022D0ACE000E004E002F0DEFAC0F3846153
:1019F0008DE7C0F3846091E702F0D6FAC0F384610A
:101A0000A2E7C0F38460A6E702F0CEFAC0F38461D7
:101A1000B7E7C0F38460BBE702F0C6FAC0F38461A5
:101A2000CCE7C0F38460D0E72A7B296850F8B03F48
:101A3000C1F3120C23EA0C0302F0180C664A22FAD6
:101A40000CF20A4013430360E968494577D12868DE
:101A500041031CD090FAA0F1B1FA81F1491C01F0C8
:101A60001F0109294FEA403132D8002912D000BFA6
:101A700090FAA0F1B1FA81F101F1010101F01F0129
:101A800006FA01F609D100BFC0F3846109E0C0F392
:101A90008461E3E7C0F38461EEE790FAA0F1B1FA64
:101AA00081F101F1010101F01F0146EA816102D1DA
:101AB000C0F3846003E090FAA0F0B0FA80F000F187
:101AC000010000F01F0000EB400041EA005132E04D
:101AD00000290ED090FAA0F1B1FA81F101F10101D3
:101AE00001F01F0106FA01F606D100BFC0F38461C0
:101AF00006E0C0F38461F1E790FAA0F1B1FA81F158
:101B000001F1010101F01F0146EA816102D1C0F338
:101B1000846003E090FAA0F0B0FA80F000F10100D8
:101B200000F01F002D4A00EB400002EB005041EA9C
:101B3000000141F00071AA68206802F04BFA2848C1
:101B40002A6802423FF466AE26488168264B01F0BF
:101B5000E0719A4202D0254B9A421CD10B021AD452
:101B60002268B2F1A04F7FF455AE826841F40001C3
:101B700022F0E0720A4382601D481E490068B0FBF3
:101B8000F1F0401C00EB4000800000E0401E00909F
:101B90000028FBD13EE6184D184BAA4207D1CD01D3
:101BA00005D422689A42F5D041F0807109E0144DC5
:101BB000AA42EFD14A02EDD422689A42EAD041F417
:101BC0008001826822F0E0720A43826022E600000F
:101BD00000007F4000F0FF03FFFF0700000020FE31
:101BE0000000088000030050000021C31000C090D6
:101BF0000C000020400D0300000052C700010050FF
:101C0000000084CB7047704770470000F8B54FF074
:101C1000000504002E46009502D0E06D10B107E0EB
:101C20000120F8BD204600F0EBF8266684F85860E5
:101C300020688168C1F3407119B18168684A114018
:101C4000816020688168C1F3007189B98168654A43
:101C5000114041F080518160634864490068B0FBE5
:101C6000F1F04000801C00E0401E00900028FBD1F5
:101C700020688168C1F3007141B9E16D41F0100144
:101C8000E165216E41F001012166012502F096F91E
:101C9000E16DC90600D430B1E06D40F01000E065A0
:101CA00001252846F8BDE06D20F4807040F0020068
:101CB000E0652068806810F0010F11D14FF0A0405E
:101CC00080684B4900F00100896801F00101084378
:101CD00006D148486168826822F47C120A43826017
:101CE000E168E06B627F0843A16841EA4231084342
:101CF00094F8241040EA0140012904D1218D3E4A84
:101D000002EB41410843E16A29B101F47871226B89
:101D1000014342EA01002268D168384B194001436F
:101D2000D16020680169626B21F04061114301615B
:101D3000206802F03FF970BB207F94F838108003D0
:101D400040EA41022168C86844F202039843104304
:101D5000C86020690028206801690AD041F48031F8
:101D60000161206850F8C01F22696FF30D01114313
:101D700007E021F480310161206850F8C01F6FF343
:101D80000D01016094F8400001280CD02068016921
:101D900021F001010161606901282068016B21F0D7
:101DA0000F0111D013E0D4E911010843D4E9131253
:101DB0001143084321680A6940F2FC739A431043B7
:101DC00040F001000861E6E7226A521E11430163F8
:101DD000E06D20F0020040F00100E06561E70000E6
:101DE000C0FFFF5FC0FFFF7F0C000020400D03001D
:101DF00000010050000300500000FEFF0740F0FF0C
:101E000070B598B00546142111A8FEF73CFB44219B
:101E10006846FEF738FB2249286888423DD1C00158
:101E2000009080030F90684600F0FCFB08B1FFF7BC
:101E30008CFC1C49C86C40F40050C864C86C00F4A9
:101E400000501690C86C40F00100C864C86C0026B1
:101E500000F001001690302011900320CDE9120609
:101E600011A94FF0904000F0B1F9104C0E482060DD
:101E70002420C4E901068020C4E9036040006061B9
:101E80008000A0612020C4E90706204600F0E6F8A3
:101E900008B1FFF75AFC6C65A56218B070BD000070
:101EA000000100500010024008000240BC00002069
:101EB0002DE9F0410446344817468846806800F012
:101EC0001F05206802F07AF800285AD194F85800CB
:101ED000012856D0012084F85800002625B1052D90
:101EE00002D0092D00D003E02046FFF739FB18B1DE
:101EF00084F85860BDE8F081E06D40F601618843E8
:101F000040F48070E06521492068884202D14FF09A
:101F1000A04100E00146814200D01DB9E06D20F4EF
:101F20008010E065E06DC00404D5206E20F006004E
:101F3000206600E02666616D1548C862616D15482F
:101F40000863616D1448486321681C20086084F8A8
:101F500058602068416841F0100141602068C16804
:101F600041F00101C16021683B4642464031606D4D
:101F700000F0D4F821688A68084B1A40121D8A6064
:101F8000B8E70220B6E7000000030050000100504F
:101F900063140008E5140008CB140008C0FFFF7F9D
:101FA000F0B4016C0C6801680D6890F8442002F0F0
:101FB0001F06042202FA06F3234211D06B070FD545
:101FC0000B689B0603D40B6823F004030B6090F8A6
:101FD000441001F01F018A40016C4A60016B1DE052
:101FE000022303FA06F727424FF0000C4FF00102DC
:101FF00018D0AF0716D50C68A40605D40C6824F0D9
:102000000A040C6080F8252090F8441001F01F01AC
:102010008B40016C4B6080F824C0C16A00291AD043
:10202000F0BC08470823B340234214D02B0712D535
:102030000B6823F00E030B6090F84410036C01F062
:102040001F0102FA01F15960C26380F8252080F86F
:1020500024C0416BE2E7F0BC7047000070B504009B
:102060000CD02B4A21681420914209D2294A0A44F3
:10207000B2FBF0F08000606427480AE0012070BDE8
:10208000234A52420A44B2FBF0F0800060642048C8
:1020900008382064022084F825000A6847F6F070AA
:1020A0008243D4E902031843D4E904352B4318438F
:1020B000A3691843E3691843236A1843104308606F
:1020C0002046FFF7ABFAA0680025B0F5804F00D19D
:1020D0006560A16C20790860D4E9130141606068F3
:1020E000401E032808D82046FFF7B8FA606D056047
:1020F000D4E91601416002E06565A565E565E56323
:10210000012084F8250084F82450002070BD0000D0
:1021100008040240F8FFFDBF0000024070B504460D
:1021200090F82400002501280CD0012084F8240018
:1021300094F825600020012E06D084F824000225A2
:10214000284670BD022070BD022684F82560E06339
:102150002068066826F0010606602046FFF790FA20
:10216000206B00282068016802D041F00E0106E0D3
:1021700021F0040101602068016841F00A0101605A
:10218000A06C0168C90303D5016841F48071016046
:10219000606D18B1016841F48071016020680168C8
:1021A00041F001010160CBE770B5044600F03CF955
:1021B0000546601C02D004484068044400F034F92D
:1021C000401BA042FAD370BD000000202DE9F04F63
:1021D000DFF82092002301260324A9F1040B85B027
:1021E0000F2709F1040AABF1040EFAE006FA03F531
:1021F0002A407CD091F804C00CF0030CBCF1010F14
:1022000002D0BCF1020F26D1D0F808C0CDF800C032
:102210004FEA430C04FA0CF8CDF810C0DDF800C00A
:102220002CEA080CCDF800C0D1F80C80DDF810C005
:1022300008FA0CF8DDF800C048EA0C08C0F808807D
:10224000D0F804C02CEA050C0D79C5F300159D40AB
:1022500045EA0C0545600D79ED43AD070ED0C56824
:102260004FEA430804FA08FC25EA0C05D1F808C037
:102270000CFA08FC4CEA050CC0F80CC00D7905F00E
:102280000305022D16D1DD0800EB850CCDF808C042
:10229000DCF820805D074FEAD56C07FA0CF528EAD8
:1022A00005080D6905FA0CF5DDF808C045EA0805D2
:1022B000CCF8205005684FEA430CCDF808C004FA6A
:1022C0000CFC25EA0C0591F804C00CF00308DDF8BD
:1022D00008C008FA0CF848EA0508C0F800804D6804
:1022E00015F4403F7CD0444DD5F860C000E077E065
:1022F0004CF0010CC5F860C02D6E23F0030C05F006
:10230000010500953D4D65440295AD684FEA837C1B
:102310004FEA1C7807FA08FC25EA0C05B0F1904F4B
:1023200006D0DFF8DCC0604505D14FF0010C20E09D
:102330004FF0000C1DE0DFF8CCC0604502D14FF03B
:10234000020C16E0DFF8C0C0604502D14FF0030C6C
:102350000FE0DFF8B8C0604502D14FF0040C08E090
:10236000DFF8ACC0604502D14FF0050C01E04FF042
:10237000060C0CFA08FC4CEA050C029DC5F808C0D6
:10238000D9F80050CC46D1F8048095435FEAC828BC
:1023900000D51543CCF80050DAF80050D446D1F8F7
:1023A000048095435FEA882800D51543CCF8005097
:1023B000DBF80050DC46D1F8048095435FEA8838AA
:1023C00000D51543CCF80050DEF80050F446D1F8A3
:1023D000048095435FEAC83800D51543CCF8005017
:1023E0005B1C0A6832FA03F57FF400AF05B0BDE864
:1023F000F08F00000804014000100240000001407E
:102400000004004800080048000C00480010004884
:10241000001400480069084000D0012070470AB14C
:102420008161704781627047014880687047000091
:1024300000000020024881684268114481607047B2
:102440000000002010B50024032000F073F80020E5
:1024500000F008F808B1012401E000F025F820465A
:1024600010BD000070B50E4E05460024706898B18E
:102470004FF47A71B1FBF0F00A490968B1FBF0F052
:1024800000F03CFD40B9102D06D200222946501E16
:1024900000F030F8356000E00124204670BD0000F7
:1024A000000000200C0000200A4882B0016E41F0BC
:1024B00001010166016E01F001010091816D41F0A1
:1024C00080518165806D00F08050009002B000F076
:1024D000A1B8000000100240002809DB00F01F0234
:1024E000012191404009800000F1E020C0F8001176
:1024F00070470000F0B40E4B1B680C46C3F3022378
:10250000C3F10705042D00D90425191D072901D29F
:10251000002300E0DB1E012606FA05F1491E2140DA
:1025200099409E40761E16403143F0BC02F0ECBA52
:102530000CED00E0064900F0070208684FF6FF03C3
:10254000184040EA0220034A104308607047000028
:102550000CED00E00000FA052B492C4B0A683221F3
:102560004A432B4940B1B0F5007F086829D020F4D8
:10257000C06040F480602CE00868C0F3412002286D
:1025800004D051F8800F20F4807022E0D1F8800050
:1025900020F48070C1F88000086820F4C06040F426
:1025A00000700860B2FBF3F0401C00E0401E4A6976
:1025B000520501D50028F9D1486940050AD5032004
:1025C0007047C0F34120022806D051F8800F40F434
:1025D0008070086000207047D1F8800040F480705F
:1025E000C1F88000086820F4C06040F40070086002
:1025F000B2FBF3F0401C00E0401E4A695205DBD5F7
:102600000028F9D1D8E700000C00002040420F005C
:10261000007000400248816841F480418160704749
:10262000007000402DE9F8430446006800269D4DE7
:1026300000035ED5A86D0027C00008D4A86D40F047
:102640008050A865A86D012700F080500090DFF849
:102650005892D9F8001041F48071C9F80010FFF7C2
:10266000E3FE804606E000BFFFF7DEFEA0EB0800B9
:1026700002282BD8D9F80000C005F5D5D5F8900070
:1026800010F4407014D0216C814211D0D5F8900024
:10269000D5F8901020F4407041F48031C5F89010C6
:1026A000D5F8901021F48031C5F89010C5F890004D
:1026B000C00711D0FFF7B8FE804641F2883907E025
:1026C000FFF7B2FEA0EB0801494501D903260BE054
:1026D000D5F890008007F3D5D5F89000216C20F450
:1026E00040700843C5F890001FB1A86D20F08050DD
:1026F000A8652078C00707D0D5F88800616820F069
:1027000003000843C5F888002078800707D5D5F86E
:102710008800A16820F00C000843C5F888002078E4
:10272000400707D5D5F88800E16820F0300008435D
:10273000C5F888002078000707D5D5F888002169FA
:1027400020F0C0000843C5F888002078800607D52F
:10275000D5F88800616920F440600843C5F8880016
:102760002078400607D5D5F88800A16920F44050AC
:102770000843C5F888002078000607D5D5F88800FA
:10278000E16920F440400843C5F888002088C0056E
:1027900007D5D5F88800216A20F440300843C5F8F1
:1027A00088002088800507D5D5F88800616A20F464
:1027B00040200843C5F88800208840050FD5D5F88B
:1027C0008800A16A20F440100843C5F88800A06A78
:1027D000B0F5801F03D1E86840F48010E8602088DD
:1027E00000050FD5D5F88800E16A20F440000843C1
:1027F000C5F88800E06AB0F5800F03D1E86840F4BE
:102800008010E8602088C0040FD5D5F88800216BBF
:1028100020F040700843C5F88800206BB0F1807F3D
:1028200003D1E86840F48010E86020884FF0006130
:1028300080040ED5D5F88800626B20F0406010430C
:10284000C5F88800606B884203D1E86840F48010C6
:10285000E860208840040ED5D5F88800A26B20F0EF
:1028600040601043C5F88800A06B884203D1E86837
:1028700040F48010E860208800040FD5D5F8880067
:10288000E16B20F040500843C5F88800E06BB0F1E0
:10289000805F03D1E86840F48030E8603046BDE8EE
:1028A000F883000000100240007000402DE9F0475E
:1028B0000E4605004FF0000725D0DFF8AC81D8F8B0
:1028C000000000F00F00B0420CD2D8F8001021F048
:1028D0000F013143C8F80010D8F8000000F00F00D5
:1028E000B04210D12968614CC80741F2883A5AD0E9
:1028F0006868DFF87C91032808D0022820682DD072
:10290000400500282CDB0120BDE8F087206880010D
:10291000F9D5E06800F00302E068C0F30310401C42
:10292000032A19D0534A00BFB2FBF0F0E268C2F3A9
:1029300006225043E268C2F34162521C5200B0FBCF
:10294000F2F0484517D9A06810F0F00F0CD08807B6
:1029500011D5A86840B10EE0474AE5E78003D0E70B
:1029600000F092F8484506D9A06820F0F00040F049
:102970008000A0608027A068696820F003000843F9
:10298000A060FFF751FD814606E000BFFFF74CFD58
:10299000A0EB090151453AD8A068696800F00C0025
:1029A000B0EB810FF2D12868810714D5400703D519
:1029B000A06840F4E060A0602878000705D5A06812
:1029C00020F4605040F4E060A060A068A96820F0A6
:1029D000F000084304E0802F03D1A06820F0F0004D
:1029E000A060D8F80010404601F00F01B14216D99E
:1029F000016821F00F0131430160FFF715FD074623
:102A000007E000BFFFF710FDC11B514501D90320AE
:102A10007AE7D8F8000000F00F00B042F2D1287831
:102A2000400705D5A068E96820F4E0600843A0608D
:102A30002878000706D5A068296920F4605040EA8C
:102A4000C100A06000F020F8A1680C4AC1F3031196
:102A5000515C01F01F01C84009490860094800683D
:102A6000BDE8F047FFF7FEBC002002400010024026
:102A700000B4C4040024F40000366E01844E000843
:102A80000C00002000000020184910B58868C0F331
:102A900081021748012A0BD08A68164BC2F38102C3
:102AA000022A06D08A68C2F38102032A03D00020DA
:102AB00010BD184610BDCA6802F00304CA68C2F30C
:102AC0000312521C032C02D0B0FBF2F001E0B3FB66
:102AD000F2F0CA68C968C2F306225043C1F34161EB
:102AE000491C4900B0FBF1F010BD0000001002408D
:102AF0000024F40000366E012DE9F84304007AD07A
:102B00002078F84DC00747D0A868E96800F00C00AD
:102B100001F003010C2802D0082817D001E0032996
:102B200014D06068B0F5803F17D0B0F5A02F2868AA
:102B300017D020F480302860286820F48020286096
:102B40006068E0B1FFF770FC064614E02868800377
:102B500022D560680028D2D01EE0286840F480307A
:102B6000EDE740F480202860F7E700BFFFF75CFC4A
:102B7000801B642870D828688003F7D50CE0FFF725
:102B800053FC064605E000BFFFF74EFC801B64289F
:102B9000F0D828688003F7D4207880074CD5A8683F
:102BA000E96800F00C0001F003010C2802D00428B1
:102BB0000DD001E002290AD0E068002828682BD057
:102BC00040F480702860FFF72FFC064619E0286863
:102BD000400502D5E068002891D06868217C20F08B
:102BE000FE4040EA01606860BF480068FFF73AFCB9
:102BF000002800D120E072E1FFF716FC801B0228BC
:102C0000B8D828684005F7D56868217C20F0FE40D8
:102C100040EA016068600FE020F480702860FFF7F0
:102C200003FC064605E000BFFFF7FEFB801B022801
:102C3000A0D828684005F7D42078000729D5606916
:102C40000028D5F8940013D040F00100C5F8940096
:102C5000FFF7EAFB064606E090E000BFFFF7E4FB63
:102C6000801B022886D8D5F894008007F6D510E09E
:102C700020F00100C5F89400FFF7D6FB064604E0FB
:102C8000FFF7D2FB801B022878D8D5F89400800784
:102C9000F6D42078400761D5A86D0026C00008D47E
:102CA000A86D40F08050A865A86D012600F0805006
:102CB00000908E480168C90511D40168804641F42E
:102CC00080710160FFF7B0FB074604E0FFF7ACFB43
:102CD000C01B022852D8D8F80000C005F6D5A0685D
:102CE000012815D00528D5F8900016D020F0010055
:102CF000C5F89000D5F8900020F00400C5F89000C9
:102D0000A06841F28838B8B1FFF78EFB07460EE0A5
:102D1000D5F8900040F00100F0E740F00400C5F85D
:102D20009000F5E7FFF780FBC11B414526D8D5F899
:102D300090008007F6D50CE0FFF776FB074604E02D
:102D4000FFF772FBC11B414518D8D5F890008007EA
:102D5000F6D41EB1A86D20F08050A86520788006BA
:102D600029D5A0690028D5F8980013D040F00100BB
:102D7000C5F89800FFF758FB064606E075E000BF6F
:102D8000FFF752FB801B02286FD8D5F89800800708
:102D9000F6D510E020F00100C5F89800FFF744FBDD
:102DA000064604E0FFF740FB801B02285DD8D5F8FB
:102DB00098008007F6D4E069F0B3A968C1F38101F7
:102DC00003295DD00228286820F08070286003D095
:102DD000FFF72AFB04464BE0FFF726FB064604E01C
:102DE000FFF722FB801B02283FD828688001F7D418
:102DF000F4E908016FF00F0202EB01110843218A88
:102E00005204490802EB4151A26841EA02210843F9
:102E1000217D4FF07E42490802EB41610843217B4E
:102E200040EAC160E968324A11400843E860286816
:102E300040F08070286000E05EE0E86840F080705C
:102E4000E860FFF7F1FA044605E000BFFFF7ECFA8F
:102E5000001B022809D828688001F7D54CE000BF84
:102E6000FFF7E2FA001B022802D90320BDE8F8832D
:102E700028688001F4D4E8681E490840E8603BE017
:102E80000128F3D0E868226A00F00301914226D1BC
:102E9000616A00F0F0020901103991421FD1A26A63
:102EA00000F4FE41B1EB022F19D194F82C2000F070
:102EB0007841B1EBC26F12D1218E00F4C0024908F3
:102EC0004905A1F50011914209D194F8341000F0A0
:102ED000C06049084906A1F1007181420CD001206F
:102EE000C4E7000000100240000000200070004015
:102EF0000C809F01FCFFEEFE0020B7E710B5401EDE
:102F0000B0F1807F01D3012010BD4FF0E02460615B
:102F10000F21601701F0F8FD0020A061072020615B
:102F2000002010BD7047704770477047704770476A
:102F3000F0B590F83C20012A3AD0012580F83C50A9
:102F4000022280F83D2003685A689C68194E1A4F87
:102F5000B34201D0BB4204D122F4700C4A6842EA69
:102F60000C02DFF858C002EA0C02D1F800C04CEAAB
:102F7000020CC3F804C00268B2420DD0B2F1804F17
:102F80000AD00F4B9A4207D00E4B9A4204D0BA4255
:102F900002D00D4B9A4204D1896824F08003194372
:102FA000916080F83D50002180F83C100846F0BD4B
:102FB0000220F0BD002C0140003401408FFFFFFDD6
:102FC000000400400008004000400140704710B578
:102FD000040003D094F83D0010B107E0012010BDBB
:102FE000002084F83C00204600F022F8022084F8FB
:102FF0003D00211D206801F011FC012084F84800EB
:1030000084F83E0084F83F0084F8400084F84100D2
:1030100084F8420084F8430084F8440084F84500B2
:1030200084F8460084F8470084F83D00002010BD75
:1030300010B586B0044614216846FDF724FA1C4AF0
:1030400021681C4891421ED1816D41F002018165C9
:10305000816D01F002010591C16C41F00101C16473
:10306000C06C002100F0010005908020009002203B
:10307000CDE90101CDE9031069464FF09040FFF71B
:10308000A5F806B010BD0C4A9142FAD1816D41F00D
:1030900010018165806D002200F01000059011463E
:1030A0003620FFF727FA3620FFF716FAE9E7000087
:1030B00000040040001002400010004090F83D1055
:1030C000012901D001207047022180F83D100168DC
:1030D000CA6842F00102CA600068104988420ED0F6
:1030E000B0F1804F0BD00E49884208D00D4988427C
:1030F00005D00D49884202D00C49884207D1816829
:103100000B4A1140062906D0B1F5803F03D0016873
:1031100041F001010160002070470000002C0140D7
:10312000000400400008004000340140004001401D
:103130000700010070B5044690F83C000025012806
:1031400014D0012684F83C60022084F83D002268F7
:103150009068364B184020F47F40906008687028D3
:103160002ED010DC10F00F0F03D021E04FF0020042
:1031700070BD4FEA2012072A1AD2DFE802F052523D
:1031800052524A3840002A4BC21A984249D009DCB0
:10319000B0F5805F0DD0B0F5005F1CD0B0F1101F0E
:1031A00006D13EE0102A3CD0202A3AD0502A38D00E
:1031B000012584F83D60002084F83C00284670BD5D
:1031C000CB68D1E90121206801F093FB2068816878
:1031D00041F0770109E0CB68D1E90121206801F0D5
:1031E00088FB2068816841F480418160E1E7CA681A
:1031F0004968206801F0FAFB5021206806E0CA689F
:103200004968206801F03AFC6021206801F07CFBED
:10321000CFE7CA684968206801F0E8FB40212068D0
:10322000F4E7226801461046F0E7000088FFCEFF71
:103230002000100070472DE9F041054690F83C0051
:1032400000260C46012810D0012085F83C0072B100
:10325000042A1CD0082A2CD00C2A50D00126002089
:1032600085F83C003046BDE8F0810220FBE7D4E958
:103270000012E368286801F0CBFB2868816921F01F
:103280000C01816128688169A26811430FE0D4E9CB
:103290000012E368286801F003FC2868816921F4C2
:1032A0004061816128688169A26841EA02218161E7
:1032B000D5E72868D4E9002C277B036A016A21F44A
:1032C00080710162C16923F4206321F0030141EAA6
:1032D0000C0121F0F00C39074FF420674CEA116122
:1032E00007EA02221A43C16102622868C16921F01B
:1032F0000C01C1612868C169A26811432BE02868EC
:10330000D4E90021E768036AD0F820C02CF4805C7F
:10331000C0F820C0D0F81CC023F420432CF4407C1B
:103320004CEA012121F4704C4FF6FF7101EA07319C
:103330004FF4204741EA0C0107EA02321A43C16107
:1033400002622868C16921F44061C1612868C169CD
:10335000A26841EA0221C16181E710B5040003D0EF
:1033600094F83D0010B107E0012010BD002084F862
:103370003C00204600F022F8022084F83D00211D88
:10338000206801F04BFA012084F8480084F83E00E0
:1033900084F83F0084F8400084F8410084F842003B
:1033A00084F8430084F8440084F8450084F846001B
:1033B00084F8470084F83D00002010BD70470000ED
:1033C00010B5044679B1042912D0082915D00C296A
:1033D00018D0102919D094F8430000BF94F8472062
:1033E000012817D114E094F83E0094F84420F7E740
:1033F00094F83F0094F84520F2E794F8400094F8E0
:103400004620EDE794F84100E8E794F84200E5E74C
:10341000012A01D0012010BD022081B3042934D03B
:10342000082937D00C293AD010293BD084F8430022
:1034300084F847000122206801F04EFA1B492068F9
:1034400088420ED0B0F1804F0BD01949884208D085
:103450001849884205D01849884202D01749884245
:1034600007D18168164A1140062906D0B1F5803F80
:1034700003D0016841F001010160002010BDFFE7A9
:1034800084F83E0084F84400D4E784F83F0084F8D0
:103490004500CFE784F8400084F84600CAE784F886
:1034A0004100C5E784F84200C2E70000002C01405B
:1034B000000400400008004000340140004001408A
:1034C000070001002DE9F04104460068C66805695F
:1034D0004FF00007A90713D5B10711D5F91E0161F7
:1034E00001202077206880698007204602D0FFF7FE
:1034F000A1FE04E000F0B7F8204600F0B5F8277709
:10350000680716D5700714D521686FF004000861AC
:10351000022020772068806910F4407F204602D086
:10352000FFF788FE04E000F09EF8204600F09CF8CB
:103530002777280715D5300713D521686FF00800C5
:103540000861042020772068C0698007204602D0E7
:10355000FFF770FE04E000F086F8204600F084F8E3
:103560002777E80616D5F00614D521686FF010000D
:103570000861082020772068C06910F4407F204649
:1035800002D0FFF757FE04E000F06DF8204600F08F
:103590006BF82777E80708D0F00706D021686FF0AE
:1035A00001000861204600F061F8280601D4A80453
:1035B00008D5300606D521686FF402500861204610
:1035C000FFF7B1FCE80508D5300606D521686FF491
:1035D000807008612046FFF7A5FC680608D57006D4
:1035E00006D521686FF040000861204600F0AAF877
:1035F000A80608D5B00606D521686FF0200008613E
:103600002046FFF791FCE80208D5F00206D52168B4
:103610006FF4801008612046FFF788FCA80208D5E7
:10362000B00206D521686FF4001008612046FFF74C
:103630007CFC680208D5700206D521686FF4800012
:1036400008612046FFF773FC28020AD5300208D52E
:1036500021686FF4000008612046BDE8F041FFF7E3
:10366000B5BCBDE8F08170477047000070B50068D8
:103670001249884212D101F09DFA114C2089401C58
:1036800080B22081C82809D36089002538B16278CA
:1036900000210A2001F030F86581258170BD217874
:1036A0000A20B1FBF0F200FB1212B1FBF0F10C208A
:1036B00001F022F801206081EFE7000000100040D7
:1036C000180000200246002041B1042909D0082931
:1036D0000AD00C2901D11068006C70471068406B4B
:1036E00070471068806B70471068C06B704770B58A
:1036F000044690F83C00012812D0012584F83C5083
:10370000022084F83D00204601F008F901004FF046
:10371000000007D084F83D5084F83C00012070BDC3
:10372000022070BD2168CA6822F04002CA60216888
:10373000CA6822F48042CA6084F83D5084F83C0094
:10374000002070BD7047FEE700B585B014216846C3
:10375000FCF799FEC0200090012001900290022009
:10376000039069460248FEF731FD05B000BD000038
:103770000004004870B50824002500F085FF13E020
:103780006806050E002000F067FF142001F0D3F951
:10379000142001F0D0F9012000F05EFF142001F0A8
:1037A000CAF900F065FF0543641EE4B2E8D20020C8
:1037B00000F052FF142001F0BEF900F087FF284608
:1037C00070BD70B50446082516E000F045FF1420D2
:1037D00001F0B1F904F0800000F06CFF142001F05A
:1037E000AAF96006040E142001F0A5F9012000F0EA
:1037F00033FF142001F09FF96D1EEDB24FF0000071
:10380000E3D200F029FFBDE87040142001F093B925
:1038100010B5012000F04EFF142001F08CF91420A7
:1038200001F089F9012000F017FF142001F083F95D
:10383000002000F011FFBDE81040142001F07BB91A
:1038400010B5012000F036FF142001F074F90120BA
:1038500000F002FF142001F06EF9002000F02AFFB2
:10386000142001F068F9002000F0F6FEBDE81040D9
:10387000142001F060B910B5002000F0EDFE142016
:1038800001F059F9002000F015FF142001F053F960
:10389000012000F0E1FE142001F04DF9012000F0BC
:1038A00009FFBDE81040142001F045B910B505240A
:1038B00000F0EAFE142001F03EF9012000F0CCFEF9
:1038C000142001F038F905E0641EA4B2142001F0C0
:1038D00032F96CB100F0CCFE0028F5D100F0F6FE14
:1038E000002000F0B9FE142001F025F9002010BDE1
:1038F00000F0ECFEFFF7BFFF012010BD70B5474D93
:10390000474C0026A87958B3A0782246401CC1B283
:10391000A17050781278012901D9A67003E002D174
:10392000E270207117E03E49E3780979934201D1B2
:10393000814210D0E088401C80B2E080237061702A
:10394000010A002001F01DF90A20FEF72DFCA179E3
:10395000012001F016F96671002000F091F8AE71B7
:10396000A87A50B1A078012802D16079401C60711A
:103970006079012800D96671AE72AA7B28210120E6
:1039800062B1A278012A08D162796AB12279521C07
:1039900022716278022A00D92071AE73EA7BA2B14B
:1039A000A278012A08D010E0E278521CE270227856
:1039B000282AF2D9E170F0E7627932B9E278521C34
:1039C000E2702278282A00D9E170AA7C142162B121
:1039D000A278012A08D16279C2B12279521CD2B2EE
:1039E0002271022A00D92071AE74E87C00280CD024
:1039F000A078012809D16079002806D1E078401E1E
:103A0000E0702078142800D2E17070BDE078401E8C
:103A1000C0B2E0701428E7D2E170E5E7B4010020FD
:103A20001800002000B585B014216846FCF72BFD76
:103A30004FF6FF70009000200321CDE902010190B4
:103A400069460248FEF7C2FB05B000BD0008004809
:103A500000B585B014216846FCF715FD4FF6FF70E0
:103A600000900120019003200390002002906946FD
:103A70000248FEF7ABFB05B000BD0000000800489F
:103A800070B5002406462146204600F0E9F900F012
:103A900027FA4FF49635304600F0F6F9641CAC4234
:103AA000F9D370BD30B587B014216846FCF7EBFC44
:103AB0001E48C16C41F00401C164C16C01F00401F5
:103AC0000591C16C41F00101C164C16C01F00101BB
:103AD0000591C16C41F00201C164C06C012500F088
:103AE000020005904FF44870CDE9000500240394CE
:103AF000694602940E48FEF769FB28020394009081
:103B0000CDE901544FF0904469462046FEF75EFB34
:103B1000FFF79EFFA06940F48070A0610448183050
:103B2000016841F40871016007B030BD0010024027
:103B300000040048203AD2B2034B02EB420203EBEE
:103B4000021200F019B80000944E0008F0B50E46BD
:103B50000746002540F23F1407E021463846FFF7AC
:103B6000E9FF103C6D1CA4B2761C3278002A01D00B
:103B7000142DF2D3F0BD00002DE9F04791468A469E
:103B80000026044600F06CF9DFF84080012700BFF2
:103B900000F0A6F95FF0000539F8160007FA05F104
:103BA0000842404601D1408800E0008800F06CF9EE
:103BB0006D1C102DF0D3641CE4B25146204600F079
:103BC0004FF9761C182EE3D3BDE8F08710000020D3
:103BD00010B5FFF767FF002000F0FAF8084CA0804E
:103BE000A088A0F50241303906D000F033FC002057
:103BF00000F0EEF8A08010BD00F0A3FBF7E7000096
:103C00001000002030B5414C89B0A07868B140A1C7
:103C10006846FCF761FB69461820FFF797FF60795B
:103C20004FF6E075002849D04BE03EA16846FCF70E
:103C300053FB69461820FFF789FFE06801F0AAF8F6
:103C400041EC100B3CA153EC102B6846FCF744FBF5
:103C500069463020FFF77AFF206901F09BF841ECBC
:103C6000100B3AA153EC102B6846FCF735FB694664
:103C70004820FFF76BFF3AA168466269FCF72CFB0E
:103C800069466020FFF762FFA06901F083F841EC0C
:103C9000100B38A153EC102B6846FCF71DFB69464E
:103CA0007820FFF753FFE28837A16846FCF714FB42
:103CB00069469020FFF74AFF09B030BD284600F062
:103CC000C7F8E27834A16846FCF706FB6946302065
:103CD000FFF73CFF607910B9002000F0B9F8607977
:103CE000012802D1284600F0B3F8227931A16846B4
:103CF000FCF7F2FA69464820FFF728FF60790128AF
:103D0000DAD1002000F0A4F8D6E700001800002067
:103D1000202020202020205061726120202020209F
:103D200020000000202020202020204D61696E20EE
:103D3000202020202000000020204130313A252E74
:103D40003266562020202020200000002020413014
:103D5000323A252E326656202020202020000000F6
:103D6000202050574D323A25642525202020202040
:103D700020000000202054656D703A252E326643E5
:103D8000202020202020000020204E3A25642020E2
:103D900020202020000000002020543A256420200C
:103DA0002020202020202020202020202020202013
:103DB000000000002020583A4130256420202020B7
:103DC0002020202020202020202020200000000073
:103DD00070B51D490A6842F400720A600A6842F42C
:103DE00080720A60184C103C226842F02002226067
:103DF000164A1060086840F02000086000BF00BF4D
:103E000000BF206840F020002060206840F48070EF
:103E10002060FFF707FE4FF09041886A40F4807001
:103E2000886200BF00BF00BF0848001F006885B25D
:103E3000886940F480708861FFF70AFE206840F4CA
:103E400000702060284670BD28040048140800480F
:103E500001B5BDF800000149488008BD10000020F0
:103E600010B50C460146202000F068F82146BDE858
:103E70001040212000F062B801B5BDF800000149F2
:103E8000088008BD10000020134A116841F4007139
:103E90001160114910390B6843F480730B600B6893
:103EA00043F020030B600D4B1860106840F02000B9
:103EB000106000BF00BF00BF086840F0200008602D
:103EC000086840F48070086000BF00BF00BF086849
:103ED00040F4007008607047280400481408004847
:103EE0001449086840F400700860086840F4807065
:103EF000086010481038026842F0200202600E4B41
:103F000022221A600A6842F020020A6000BF00BF45
:103F100000BF016841F020010160016841F4807137
:103F2000016000BF00BF00BF016841F40071016083
:103F3000704700002804004814080048184B10B5CA
:103F40001A6842F400721A601A6842F480721A60A9
:103F5000134A103A146844F020041460114C206095
:103F6000186840F02000186000BF00BF00BF106854
:103F700040F020001060106840F4807010602160F4
:103F8000186840F02000186000BF00BF00BF106834
:103F900040F020001060106840F48070106010BD88
:103FA000280400481408004800EB8100006E00F06F
:103FB000F84070478068C0F3C00070478068C0F365
:103FC00080007047C06810F4406F01D00020704737
:103FD00001207047042303EAD15310B51844436904
:103FE000C1F3045107248C40A3438A401343436127
:103FF00010BD00EB8100016E21F00041114301660C
:104000007047000030B589B020216846FCF73BFAC4
:104010001F481E49002401604902C0E9011404251B
:1040200085610121C460C0E904410477417702221F
:10403000026280F82440C462046380F83810C463CC
:1040400080F84040FDF7E2FD08B1FDF77EFB114826
:10405000009006200190072002907F200594CDE972
:10406000030569460A48FDF7BBFB08B1FDF76DFB88
:10407000094800900C20019069460548FDF7B0FB07
:10408000002801D0FDF761FB09B030BD00010050F0
:104090005000002000005247002090360D4808B51F
:1040A000816C41F004018164816C01F00401009194
:1040B000816C41F001018164806C002200F00100FC
:1040C000009011460B20FEF715FABDE808400B20C2
:1040D000FEF702BA001002402DE9F04786B0142125
:1040E0006846FCF7D0F94B48C16C41F00401C1644B
:1040F000C16C01F004010591C16C41F02001C16463
:10410000C16C01F020010591C16C41F00101C16455
:10411000C16C01F001010591C16C41F00201C16463
:10412000C16C01F002010591C16C41F00801C1644C
:10413000C06C394F00F008004FF47F440590012215
:1041400021463846FEF76BF90022FF213846FEF77C
:1041500066F94FF0904800224FF487714046FEF711
:104160005EF9DFF8B890002204214846FEF757F9BF
:10417000DFF8ACA04FF44876002231465046FEF7F7
:104180004EF90125CDE900450024CDE902546946E8
:104190003846FEF71BF8FF200090CDE90154694630
:1041A00038460394FEF712F8CDE9005469464046BC
:1041B0000295FEF70BF80E20CDE900050220CDE9AF
:1041C000024069464046FEF701F807208DE83100BD
:1041D00069465046FDF7FAFF28020090CDE90154E8
:1041E000694640460394FDF7F1FF04200090CDE9B5
:1041F0000154694648460394FDF7E8FF0096CDE96F
:104200000154694650460394FDF7E0FF06B0BDE84F
:10421000F08700000010024000080048000C004831
:104220000004004810B590B0002409940A940B943F
:10423000142104A80C94FCF726F92D480D940F9432
:104240000E940094019402942849039401604F2134
:10425000C0E901144FF6FF71C0E903148461FEF751
:10426000B6FE08B1FDF771FA4FF48050099009A924
:104270001F48FEF75FFF08B1FDF767FA1C48FFF71C
:104280006CF808B1FDF761FA042004906020CDE9D4
:10429000050404A916480894FFF729FA08B1FDF7A8
:1042A00054FA0D940DA912480F94FEF741FE08B17F
:1042B000FDF74BFA02200090CDE901040022694687
:1042C0000B480394FEF7B7FF08B1FDF73EFA012053
:1042D000CDE90040042269460548FEF7ACFF0028FE
:1042E00001D0FDF732FA10B010BD0000000400400C
:1042F0001C0100203EB500240F48009401940D4994
:10430000029401604F21C0E9011442F20F718461EF
:10431000C160FEF75CFE08B1FDF717FA009469462C
:1043200005480294FEF704FE002801D0FDF70DFABF
:104330003EBD00000010004068010020FEE770470D
:10434000704730B501210020FFF7F8FD4FF47A7077
:10435000FDF7EDF900210120FFF7F0FD41F290712A
:104360001020FFF7EBFD4FF41C516020FFF7E6FD36
:1043700001216120FFF7E2FD02214620FFF7DEFD6B
:1043800048F210011320FFF7D9FD48F2FE01122078
:10439000FFF7D4FD4FF4A0610220FFF7CFFD41F2FB
:1043A00030010320FFF7CAFD40F2033421463020DC
:1043B000FFF7C4FD21463120FFF7C0FD2146322022
:1043C000FFF7BCFDE51E29463320FFF7B7FD0321AB
:1043D0003420FFF7B3FD21463520FFF7AFFD142150
:1043E0003620FFF7ABFD21463720FFF7A7FD21461A
:1043F0003820FFF7A3FD21463920FFF79FFD29460E
:104400003A20FFF79BFD03213B20FFF797FD214654
:104410003C20FFF793FD4FF4A0513D20FFF78EFDA8
:104420004FF400719220FFF789FD21469320FFF79A
:1044300085FD40F60D019020FFF780FD41F2180147
:104440000320FFF77BFDBDE8304040F273110720E9
:10445000FFF774BD10B543F20801E320FFF76EFDCE
:104460001221E720FFF76AFD41F23121EF20FFF72B
:1044700065FD00210120FFF761FD4FF4E06102209E
:10448000FFF75CFD41F230010320FFF757FD0021EB
:104490000420FFF753FD40F207210820FFF74EFDEF
:1044A00000210920FFF74AFD00210A20FFF746FD01
:1044B00000210C20FFF742FD00210D20FFF73EFDFB
:1044C00000210F20FFF73AFD00211020FFF736FDF5
:1044D00007211120FFF732FD00211220FFF72EFDEA
:1044E00000211320FFF72AFDC820FDF75DFE41F2F1
:1044F00090611020FFF722FD40F227211120FFF7E5
:104500001DFD3220FDF750FE1D211220FFF716FD84
:104510003220FDF749FE4FF400611320FFF70EFD36
:1045200014212920FFF70AFD0B212B20FFF706FDA0
:104530003220FDF739FE00212020FFF7FFFC00218B
:104540002120FFF7FBFC07213020FFF7F7FC40F2AA
:1045500007713120FFF7F2FC06213220FFF7EEFC55
:1045600040F204713520FFF7E9FC41F60471362072
:10457000FFF7E4FC04213720FFF7E0FC002138209E
:10458000FFF7DCFC40F206713920FFF7D7FC40F260
:1045900001713C20FFF7D2FC0F213D20FFF7CEFC3C
:1045A00000215020FFF7CAFCEF215120FFF7C6FC85
:1045B00000215220FFF7C2FC40F23F115320FFF7C9
:1045C000BDFC4FF41C516020FFF7B8FC01216120B5
:1045D000FFF7B4FC00216A20FFF7B0FC0021802027
:1045E000FFF7ACFC00218120FFF7A8FC002182200E
:1045F000FFF7A4FC00218320FFF7A0FC002184200A
:10460000FFF79CFC00218520FFF798FC10219020EB
:10461000FFF794FC00219220FFF790FC03219320E8
:10462000FFF78CFC4FF488719520FFF787FC002181
:104630009720FFF783FC00219820FFF77FFC41F2D1
:1046400018010320FFF77AFCBDE8104040F2731117
:104650000720FFF773BC000008B1044801E00348DD
:104660001030016841F040010160704718040048B3
:1046700010B580210348FDF7CDFE012800D00020B1
:1046800010BD00000004004800B585B01421684644
:10469000FBF7F9FE8020009000200190012002909D
:1046A0000220039069460248FDF790FD05B000BD69
:1046B0000004004808B1044801E0034810300168D4
:1046C00041F08001016070471804004800B585B0D2
:1046D00014216846FBF7D7FE80200090112001903E
:1046E000002002900220039069460248FDF76EFD0B
:1046F00005B000BD00040048054B122800D2187018
:10470000122900D25970122A00D29A7000F002B811
:10471000380000202DE9F0410E4F0224FD1EAE1D91
:10472000385D0028285D305C01D040F0800000F04A
:1047300013F8641EF4D54FF0904401220421204662
:10474000FDF76DFE2046BDE8F04100220421FDF793
:1047500066BE00003B00002070B5044600254FF007
:104760009046200601D5012200E0002202213046B9
:10477000FDF755FE6006040E012208213046FDF7C4
:104780004EFE002208213046FDF749FE6D1C082D23
:10479000E7DB70BD7047FDF74DBE00B593B0382123
:1047A0006846FBF770FE14210EA8FBF76CFE4FF471
:1047B0000070FDF7D1FE0220C10103914021049158
:1047C0000090079008901421CDE909010B900C90FE
:1047D0000D906846FEF790F90F200E9003200F9081
:1047E000002010901190129002210EA8FEF75EF8A2
:1047F00013B000BD0548016841F470010160034930
:104800004FF00060803908607047000088ED00E0DC
:104810000148FEF757BE0000680100202DE9F04373
:104820000268264B264D274E274C4FF08049984270
:1048300007D0484505D0A84203D0B04201D0A042DD
:1048400003D122F070074A683A43204FDFF880C056
:10485000DFF8808098420DD048450BD0A84209D09F
:10486000B04207D0A04205D0B84203D0604501D085
:10487000404503D122F44075CA682A434D6922F0AD
:1048800080022A4302608A68C2620A688262984291
:1048900007D0A04205D0B84203D0604501D04045C2
:1048A00001D109690163012141610169C90703D08F
:1048B000016921F001010161BDE8F083002C014094
:1048C0000004004000080040003401400040014066
:1048D000004401400048014010B501F01F030121D0
:1048E000046A99408C430462016A9A401143016250
:1048F00010BD10B5846842EA032224F47F440A43C1
:104900002243826010BD00008268034B1A400A43B4
:1049100042F00701816070478FFFCFFF70B50568D7
:104920000024AA682E4B1A404B6813432D4A1340AB
:104930000A681A43AA604A68602A4AD00DDC302A05
:104940001FD005DCEAB1102A1BD0202A18D118E0AC
:10495000402A1FD0502A13D135E0234D531BAA42C1
:104960000FD009DC702A0ED0B2F1101F09D0203A06
:10497000B2F5801F04D104E0102B02D0402B00D0F0
:104980000124204670BD0B69D1E902210068FFF7C0
:10499000B0FFF6E70A68052A13D0B2F1011F10D064
:1049A0000268136A156A25F00105156202689569A7
:1049B000096925F0F00545EA01119161006803627B
:1049C000DFE7012070BD0A698968006800F00EF811
:1049D000D7E70A698968006800F050F8D1E700005D
:1049E0008FFFCFFFF8FFFEFF3000100010B5036A05
:1049F000046A24F001040462846924F0F00444EAA7
:104A0000021423F00A020A438461026210BD00000E
:104A100070B5056A046A24F0010404628469124EC8
:104A2000B0420ED0B0F1804F0BD0104EB04208D043
:104A30000F4EB04205D00F4EB04202D00E4EB042E3
:104A400003D124F00304144301E044F001041A07E5
:104A500024F0F00444EA126225F00A0301F00A018E
:104A600019438261016270BD002C014000040040C6
:104A700000080040003401400040014010B5036AC6
:104A8000046A24F010040462846923F0A00324F46F
:104A9000704444EA023243EA01118261016210BDAE
:104AA00030B5046A056A25F010050562856925F4AC
:104AB000407545EA022222F470454FF6FF7202EA81
:104AC000033224F0A0032A43A02404EA011119436D
:104AD0008261016230BDFEE703B401984100009895
:104AE00050EAC12018BF04204A0D18BF40F0010051
:104AF00040F2FF72B2EB515F08BF40F002000128A4
:104B000008BF052002B070470907090E002804DB22
:104B100000F1E02080F80014704700F00F0000F171
:104B2000E02080F8141D704730380A2801D2012097
:104B3000704700207047002100E0491C8142FCD3EF
:104B4000704710B50446FEF77BFEA020FEF739FE45
:104B5000FEF7ACFE2046FEF734FEFEF7A7FEFEF79A
:104B60008AFEFEF76DFEA120FEF72BFEFEF79EFEED
:104B7000FEF700FE0446FEF74BFEFEF77CFE2046E5
:104B800010BD70B50D460446FEF75AFEA020FEF794
:104B900018FEFEF78BFE2046FEF713FEFEF786FE9C
:104BA0002846FEF70EFEFEF781FEBDE87040FEF7D8
:104BB00062BE000070B500F029F81349012458B115
:104BC00011F82020521CD2B201F82020022A13D35F
:104BD00001EB800254700FE00022154601EB8203C6
:104BE000DE7816B95E7806B19C70DD705D7001F8F4
:104BF0002250521C052AF1DB11F82020642A02D32E
:104C000001EB8000C47070BDB401002010B5104CE1
:104C100001212046FDF7FEFB88B102212046FDF769
:104C2000F9FB70B104212046FDF7F4FB58B10121D6
:104C30004FF09040FDF7EEFB38B1002010BD012091
:104C400010BD022010BD032010BD042010BD0000C7
:104C50000004004810B5FCF733FDFEF74FFEBDE839
:104C60001040FEF7CFBFFDF7EDFBFFF796FDFFF716
:104C700033FAFFF713FAFFF73DFBFFF7C3F9FFF72E
:104C8000D1FA00F003F8FFF7E5FFFCE770B5042167
:104C90002E48FEF795FB00212C48FEF791FB2C488F
:104CA000FEF70CFA7F212B48FCF750FD02222A491F
:104CB0002848FDF7FDF8FEF747FDFEF789FF0020C5
:104CC000FEF7DEFE0020FFF7C3F84FF6FF70FFF798
:104CD000D3F80220FFF735FF04460A20FDF764FAF7
:104CE0000320FFF72EFF05460A20FDF75DFA072C8B
:104CF00001D10A2D1DD000210846FFF742FF0A20EE
:104D0000FDF752FA00210120FFF73BFF0A20FDF7D3
:104D10004BFA07210220FFF734FF0A20FDF744FA7F
:104D20000A210320FFF72DFFBDE870400A20FDF7A0
:104D30003BBA0120FFF705FF04460020FFF701FF03
:104D4000054904EB00201C39C88070BD1C010020FF
:104D500068010020500000203400002010B5002918
:104D60000AD00878002807D005487844FBF76AFF86
:104D7000002801D0002010BD0248784410BD00007A
:104D8000AE130000A61300000808A0F500114FEABA
:104D90003101704743004FEAD30C4FEA3C0C4340CB
:104DA0001FBF40070CF1605113F0FE4F70471CF01D
:104DB000006F03D100200CF0004170470CF000435D
:104DC00043EA507010B540EACC0000F00EF800BF86
:104DD000000000924FEA0001FFF7D6BF4FF00041FC
:104DE0004FF00000A1F5002170470EF1020E2EF0E9
:104DF000030E5EF8044B244204D44FEA4102B2F1A0
:104E00007F4F11D84FEA4003B3F17F4F0CD80ED13A
:104E10004FEAD07CB2F17F4F0CEB4C0C0CF1020C42
:104E200008BF4CEBD17C04E04FF0080C01E04FEAE6
:104E3000D17C0CEB4C0324FA03F404F00704B4F126
:104E4000040C06D20EEB840CBDE810404CF0010CB3
:104E50006047DFE80CF0070802024FF00040A0F5C1
:104E6000800010BD0846420018BFD2F1807288BF92
:104E700000F0004010BD4FF04070E1EE100A7047A6
:104E8000FBF75DBC0000000000000000010203040D
:104E900006070809000000000000000000000000F4
:104EA0000000000000000000000000000000000002
:104EB00000000000000000000000000000000000F2
:104EC000000000000000800180018001800180015D
:104ED00080018001800180018001800180018001CA
:104EE00000000000800180010000000000000000C0
:104EF0000000000000000000CC00CC00CC00CC0082
:104F0000CC00CC0000000000000000000000000009
:104F10000000000000000000000000000000000091
:104F20000000000000000000000000000000000081
:104F3000600C600C600C30063006FE1FFE1F300651
:104F400038071803FE1FFE1F180318038C018C017D
:104F50008C01000000008000E003F80F9C0E8C1C08
:104F60008C188C009800F801E007800E801C8C18CB
:104F70008C189C18B80CF00FE00380008000000033
:104F8000000000000000000000000E181B0C110CB7
:104F900011061106110311039B018E01C038C06C6C
:104FA00060446044304430441844186C0C380000AD
:104FB000000000000000E001F003380718061806A2
:104FC0003003F001F000F8009C310E33061E061C81
:104FD000061C063FFC73F0210000000000000000EA
:104FE00000000000000000000C000C000C000C0091
:104FF0000C000C0000000000000000000000000099
:1050000000000000000000000000000000000000A0
:10501000000000000000000200038001C000C0008A
:1050200060006000300030003000300030003000A0
:105030003000300060006000C000C000800100034C
:1050400000020000000020006000C000800180011C
:105050000003000300060006000600060006000626
:10506000000600060003000380018001C00060000C
:105070002000000000000000000000000000000010
:10508000C000C000D806F807E00130033807000070
:105090000000000000000000000000000000000010
:1050A0000000000000000000000000000000000000
:1050B00080018001800180018001FC3FFC3F800174
:1050C00080018001800180010000000000000000DC
:1050D00000000000000000000000000000000000D0
:1050E00000000000000000000000000000000000C0
:1050F000000000000000800180010001000180002C
:10510000000000000000000000000000000000009F
:10511000000000000000000000000000E007E007C1
:10512000000000000000000000000000000000007F
:10513000000000000000000000000000000000006F
:10514000000000000000000000000000000000005F
:10515000000000000000C000C000000000000000CF
:10516000000000000000000C000C00060006000615
:105170000003000300038003800180018001C00060
:10518000C000C000600060000000000000000000DF
:10519000000000000000E003F007380E180C0C18A7
:1051A0000C180C180C180C180C180C180C180C18DF
:1051B000180C380EF007E0030000000000000000AB
:1051C00000000000000000018001C001F001980112
:1051D00088018001800180018001800180018001BF
:1051E00080018001800180010000000000000000BB
:1051F000000000000000E003F80F180C0C180C1859
:1052000000180018000C000600038001C0006000B8
:1052100030001800FC1FFC1F000000000000000010
:10522000000000000000E001F807180E0C0C0C0C48
:10523000000C0006C003C007000C001800180C1872
:105240000C18180CF807E003000000000000000034
:10525000000000000000000C000E000F000F800D89
:10526000C00C600C600C300C180C0C0CFC3FFC3FAC
:10527000000C000C000C000C0000000000000000FE
:10528000000000000000F80FF80F180018000C00D4
:10529000EC03FC071C0E001C0018001800180C186A
:1052A0001C0C180EF807E0030000000000000000CE
:1052B000000000000000C007F00F381C181818008C
:1052C0000C00CC03EC0F3C0E1C1C0C180C180C181A
:1052D000181C380EF007E00300000000000000007A
:1052E000000000000000FC1FFC1F000C0006000670
:1052F000000380038001C001C000E0006000600086
:10530000700030003000300000000000000000009D
:10531000000000000000E003F007380E180C180C25
:10532000180C3806F007F007180C0C180C180C189D
:105330000C18380CF80FE00300000000000000001B
:10534000000000000000E003F007380E1C0C0C18F1
:105350000C180C181C1C381EF81BE0190018000C47
:10536000000C1C0EF807F001000000000000000017
:10537000000000000000000000000000000000002D
:10538000800180010000000000000000000000001B
:10539000000000008001800100000000000000000B
:1053A00000000000000000000000000000000000FD
:1053B00080018001000000000000000000000000EB
:1053C0000000000080018001000100018000000059
:1053D00000000000000000000000000000000000CD
:1053E000000000000010001C800FE003F80018000F
:1053F000F800E003800F001C001000000000000017
:10540000000000000000000000000000000000009C
:1054100000000000F81F000000000000F81F00005E
:10542000000000000000000000000000000000007C
:10543000000000000000000000000000000000006C
:105440000000000008003800F001C007001F00182D
:10545000001FC007F0013800080000000000000035
:10546000000000000000E003F80F180C0C180C18E6
:105470000018000C000600038001C000C000C0003E
:1054800000000000C000C00000000000000000009C
:105490000000000000000000E00718180420C229E6
:1054A000224A114409440944094409221113E20C17
:1054B000024004201818E00700000000000000006F
:1054C00000000000000080038003C006C006C00684
:1054D000600C600C301830183018F83FF83F1C7022
:1054E0000C600C6006C006C0000000000000000058
:1054F000000000000000FC03FC0F0C0C0C180C1842
:105500000C180C0CFC07FC0F0C180C300C300C3079
:105510000C300C18FC1FFC0700000000000000000D
:10552000000000000000C007F01F38381C300C706D
:10553000066006000600060006000600060006607B
:105540000C701C30F01FE00700000000000000009D
:10555000000000000000FE03FE0F060E06180618ED
:1055600006300630063006300630063006300618A3
:105570000618060EFE0FFE030000000000000000EB
:10558000000000000000FC3FFC3F0C000C000C0081
:105590000C000C00FC1FFC1F0C000C000C000C008D
:1055A0000C000C00FC3FFC3F00000000000000006D
:1055B000000000000000F83FF83F18001800180035
:1055C00018001800F81FF81F18001800180018001D
:1055D000180018001800180000000000000000006B
:1055E000000000000000E00FF83F3C780E6006E08D
:1055F00007C00300030003FE03FE03C007C006C08C
:105600000EC03CF0F83FE00F00000000000000007A
:105610000000000000000C300C300C300C300C305E
:105620000C300C30FC3FFC3F0C300C300C300C309C
:105630000C300C300C300C3000000000000000007A
:1056400000000000000080018001800180018001D5
:105650008001800180018001800180018001800142
:105660008001800180018001000000000000000036
:10567000000000000000000600060006000600060C
:1056800000060006000600060006000600061806D2
:1056900018063807F003E0010000000000000000D9
:1056A00000000000000006300618060C060606037F
:1056B0008601C60066007600DE008E01060306063F
:1056C000060C06180630066000000000000000000E
:1056D0000000000000001800180018001800180052
:1056E00018001800180018001800180018001800FA
:1056F00018001800F81FF81F00000000000000004C
:105700000000000000000EE01EF01EF01EF036D873
:1057100036D836D836D866CC66CC66CCC6C6C6C6B1
:10572000C6C6C6C686C386C30000000000000000CF
:105730000000000000000C301C303C303C306C306D
:105740006C30CC30CC308C310C330C330C360C3606
:105750000C3C0C3C0C380C30000000000000000039
:10576000000000000000E007F81F1C380E70066003
:1057700003C003C003C003C003C003C003C006606E
:105780000E701C38F81FE007000000000000000049
:10579000000000000000FC0FFC1F0C380C300C3027
:1057A0000C300C300C18FC1FFC070C000C000C001B
:1057B0000C000C000C000C000000000000000000B9
:1057C000000000000000E007F81F1C380E700660A3
:1057D00003E003C003C003C003C003C007E00663C7
:1057E0000E3F1C3CF83FE0F700C000000000000046
:1057F000000000000000FE0FFE1F063806300630D5
:1058000006300638FE1FFE0706030606060C0618BD
:105810000618063006300660000000000000000098
:10582000000000000000E003F80F1C0C0C180C181E
:105830000C001C00F803E00F001E00380630063094
:105840000E301C1CF80FE0070000000000000000F4
:10585000000000000000FE7FFE7F800180018001CB
:105860008001800180018001800180018001800130
:105870008001800180018001000000000000000024
:105880000000000000000C300C300C300C300C30EC
:105890000C300C300C300C300C300C300C300C3028
:1058A0000C301818F81FE00700000000000000008E
:1058B00000000000000003600630063006300C18BF
:1058C0000C180C18180C180C380E3006300670071F
:1058D00060036003C001C001000000000000000080
:1058E0000000000000000360C361C361C361663350
:1058F000663366336633663366336C1B6C1B6C1B16
:105900002C1A3C1E380E380E00000000000000006B
:105910000000000000000FE00C7018303018700C10
:10592000600EC00780038003C003E006700C301CCB
:1059300018180C300E6007E00000000000000000A6
:1059400000000000000003C006600C301C3838184E
:10595000300C6006E007C0038001800180018001F7
:105960008001800180018001000000000000000033
:10597000000000000000FC7FFC7F00600030001889
:10598000000C000600038001C00060003000180019
:105990000C000600FE7FFE7F0000000000000000FB
:1059A000000000000000E003E00360006000600011
:1059B00060006000600060006000600060006000E7
:1059C0006000600060006000600060006000E00354
:1059D000E003000000003000300060006000600064
:1059E000C000C000C000C001800180018001000330
:1059F0000003000300060006000000000000000095
:105A0000000000000000E003E003000300030003C7
:105A1000000300030003000300030003000300036E
:105A20000003000300030003000300030003E0037E
:105A3000E003000000000000C001C001600360033B
:105A4000600330063006180C180C0000000000003F
:105A50000000000000000000000000000000000046
:105A60000000000000000000000000000000000036
:105A70000000000000000000000000000000000026
:105A8000000000000000FFFFFFFF0000000000001A
:105A90000000000000000C000C000C000C000C00CA
:105AA0000C000000000000000000000000000000EA
:105AB00000000000000000000000000000000000E6
:105AC00000000000000000000000000000000000D6
:105AD000F003F8071C0C0C0C000FF00FF80C0C0C6A
